:100000000C9446000C9477000C9477000C947700C5
:100010000C9477000C9477000C9477000C94770084
:100020000C9477000C9477000C9477000C94770074
:100030000C9477000C9477000C9477000C94770064
:100040000C9477000C9477000C9477000C94770054
:100050000C9477000C9477000C9477000C94770044
:100060000C9477000C9477000C9407040C947700A0
:100070000C9477000C9477000C9477000C94770024
:100080000C9466050C9477000C94770011241FBE25
:10009000C0E0D0E4DEBFCDBF12E0A0E0B1E0EEEC06
:1000A000F3E100E00BBF02C007900D92A632B1074A
:1000B000D9F713E0A6E2B2E001C01D92AE38B10755
:1000C000E1F70E94D6000E94E6000E942B020E94E7
:1000D00097020E94CC020E945E030E947A030E9453
:1000E00048050E94A2050E94AF050C94E5090C94F6
:1000F000000085ED8093BC0080911801909119015A
:10010000A0911A01B0911B0180931D0390931E03CF
:10011000A0931F03B0932003109222031092210397
:10012000089585EC8093BC0080911801909119018D
:10013000A0911A01B0911B0180931D0390931E039F
:10014000A0931F03B0932003109222031092210367
:1001500008952091EA023091EB028091BB00E0917A
:100160001D03F0911E03E20FF31F80832F5F3F4FAB
:100170003093EB022093EA0280911F0390912003B9
:1001800001972817390710F485EC01C085E88093A2
:10019000BC00089580911F0390912003009711F0F7
:1001A00085EC01C085E88093BC00089584B78093F6
:1001B000260214BE88E10FB6F89480936000109276
:1001C00060000FBE0895809126020895AFE0B3E06D
:1001D000EFE0F2E086E001900D928150E1F7ACE0B3
:1001E000B3E0ECE0F2E083E001900D928150E1F7A2
:1001F000A2E8B3E0E9E0F2E083E001900D928150E3
:10020000E1F7A1EEB2E0E6E0F2E083E001900D92CA
:100210008150E1F7A7EFB2E0E3E0F2E083E0019084
:100220000D928150E1F7A8E6B2E0E0E0F2E083E071
:1002300001900D928150E1F7A9EDB2E0EDEFF1E010
:1002400083E001900D928150E1F7A0E6B3E0EAEF80
:10025000F1E083E001900D928150E1F7AAE1B3E073
:10026000E7EFF1E083E001900D928150E1F7A8E81B
:10027000B3E0E1EFF1E086E001900D928150E1F70B
:10028000A0E0B3E0EEEEF1E083E001900D9281504A
:10029000E1F7A5E8B3E0EBEEF1E083E001900D9229
:1002A0008150E1F7A2E4B2E0E8EEF1E083E00190F2
:1002B0000D928150E1F7A5E1B3E0E5EEF1E083E0D6
:1002C00001900D928150E1F7AFE2B3E0E2EEF1E090
:1002D00083E001900D928150E1F7A6ECB2E0EFEDE2
:1002E000F1E083E001900D928150E1F7A5E4B2E0E6
:1002F000ECEDF1E083E001900D928150E1F7A3EC89
:10030000B2E0E9EDF1E083E001900D928150E1F778
:10031000A3E0B3E0E3EDF1E086E001900D928150BF
:10032000E1F7ADE3B3E0E0EDF1E083E001900D92A1
:100330008150E1F7ADEFB2E0EDECF1E083E0019048
:100340000D928150E1F7A7E3B3E0EAECF1E083E03E
:1003500001900D928150E1F7A9EBB2E0E7ECF1E0FA
:1003600083E001900D928150E1F7A5E6B2E0E4EC64
:10037000F1E083E001900D928150E1F7AAEFB2E045
:10038000E1ECF1E083E001900D928150E1F7ACEEF9
:10039000B2E0EEEBF1E083E001900D928150E1F7E5
:1003A000A8E3B2E0EBEBF1E083E001900D92815025
:1003B000E1F7A1EDB2E0E5EBF1E086E001900D920E
:1003C0008150E1F7A6E5B2E0E2EBF1E083E00190D5
:1003D0000D928150E1F7AEE6B2E0EFEAF1E083E0A2
:1003E00001900D928150E1F7A3E5B2E0ECEAF1E073
:1003F00083E001900D928150E1F7A4EEB2E0E9EACA
:10040000F1E083E001900D928150E1F7A5E5B3E0C2
:10041000E6EAF1E083E001900D928150E1F7AAE372
:10042000B3E0E3EAF1E083E001900D928150E1F75F
:10043000AFE7B3E0E0EAF1E083E001900D92815094
:10044000E1F7A0E4B3E0EDE9F1E083E001900D9283
:100450008150E1F7089580E093E090932E0280931D
:100460002D020E94E00685E893E090932C02809391
:100470002B020E94E00682E492E09093D8028093DF
:10048000D7020E94E00685E193E0909344038093B5
:1004900043030E94E006ABE6B2E0EAE9F1E083E064
:1004A00001900D928150E1F7A0E5B2E0E7E9F1E0BB
:1004B00083E001900D928150E1F7A2E6B2E0E4E919
:1004C000F1E083E001900D928150E1F7ACE2B3E0FE
:1004D000E1E9F1E083E001900D928150E1F7A9E0BC
:1004E000B3E0EEE8F1E083E001900D928150E1F796
:1004F0000895CF93DF93EC0189819A810E94EE06E3
:10050000888182FF04C089819A810E940A07DF9155
:10051000CF910895CF93DF93EC01888199810E9458
:1005200079028A810E94B805DF91CF910895ACE5E8
:10053000B2E0EBE8F1E083E001900D928150E1F749
:100540008CE592E00E947902A9E5B2E0E8E8F1E0EA
:1005500083E001900D928150E1F789E592E00E94DD
:100560007902AFE5B2E0E5E8F1E083E001900D92B9
:100570008150E1F78FE592E00E947902A7EEB2E0A8
:10058000E2E8F1E083E001900D928150E1F787EE1F
:1005900092E00E9479020895ACEBB2E0EBE7F1E063
:1005A00087E001900D928150E1F7A3E6B3E0E4E724
:1005B000F1E087E001900D928150E1F7A3E2B3E012
:1005C000EDE6F1E087E001900D928150E1F7ABE3B9
:1005D000B2E0E6E6F1E087E001900D928150E1F7AC
:1005E000AFEEB2E0EEE5F1E088E001900D928150CF
:1005F000E1F7A8E5B3E0E6E5F1E088E001900D92CF
:100600008150E1F7A8E4B2E0EEE4F1E088E0019087
:100610000D928150E1F7ADE4B3E0E6E4F1E088E06B
:1006200001900D928150E1F7A9ECB2E0EEE3F1E028
:1006300088E001900D928150E1F7A5E4B3E0E6E394
:10064000F1E088E001900D928150E1F7A1E7B2E07E
:10065000EEE2F1E088E001900D928150E1F7AFE227
:10066000B2E0E6E2F1E088E001900D928150E1F71E
:100670000895CF93DF93EC018B819C8160E070E063
:100680000E94A00889819A810E94E006DF91CF91A3
:100690000895EF92FF92CF93DF93EC017E019F2D9F
:1006A0000E9439038D819E810E94E006CE010E9446
:1006B000F905DF91CF91FF90EF900895ACEDB2E096
:1006C000E1E2F1E085E001900D928150E1F78CEDDF
:1006D00092E00E943903A2E3B3E0ECE1F1E085E0AF
:1006E00001900D928150E1F782E393E00E9439037B
:1006F0000895089585E08093BC008FEF8093BB0040
:1007000081E18093B8001092B90082E08093BA0032
:100710000895DF93CF93CDB7DEB727970FB6F89440
:10072000DEBF0FBECDBFAE014F5F5F4F809118039C
:1007300090911903FC0133E0EE0FFF1F3A95E1F7AA
:10074000E81BF90BDA01E659FC4F27E001900D9206
:100750002150E1F7FC0123E0EE0FFF1F2A95E1F79E
:10076000E81BF90BE659FC4F64812581368101961F
:10077000909319038093180383309105ECF42115AD
:100780003105A1F22230310521F4862F8D7F80932F
:1007900037021092EB021092EA0289819A81AB81B2
:1007A000BC8180931D0390931E03A0931F03B093FD
:1007B000200321E030E002C020E030E0C9012796AC
:1007C0000FB6F894DEBF0FBECDBFCF91DF91089575
:1007D00080911803909119038330910524F40E94AD
:1007E0008903009711F40E947900089510922B0359
:1007F00010922A0381E090E09093220380932103DA
:1008000010921903109218030E94890308951F92F1
:100810000F920FB60F920BB60F9211242F933F93A6
:100820004F935F936F937F938F939F93AF93BF93F8
:10083000EF93FF938091B90090E0887F90708836A5
:10084000910509F4F5C089369105ECF580339105E1
:1008500009F49BC081339105CCF48831910509F4EA
:1008600077C0893191054CF48830910509F468C04E
:100870008031910509F0EBC063C08032910509F425
:100880008DC08832910509F0E2C062C088349105BC
:1008900009F484C0893491054CF48833910509F436
:1008A00054C08034910509F0D2C0C2C0883591058A
:1008B00009F477C08036910509F4BAC080359105F6
:1008C00009F0C5C0B8C08839910509F4BDC089399F
:1008D0009105CCF48038910509F4ADC081389105BB
:1008E0004CF48037910509F4A3C08837910509F0CD
:1008F000AEC09EC08838910509F4A6C08039910524
:1009000009F0A5C098C0803B910509F44DC0813B1A
:1009100091054CF4803A910509F490C0883A91050C
:1009200009F095C041C0803C910509F473C0883C32
:10093000910509F46CC0883B910509F088C03CC062
:10094000809137028093BB001CC085E090E078C0A6
:100950008091EA029091EB0220911F0330912003D5
:1009600082179307F0F4E0911D03F0911E03E80F46
:10097000F91F20812093BB0001969093EB02809396
:10098000EA0285E88093BC006AC086E090E090931C
:100990002B0380932A030E94790061C084E090E0D9
:1009A000F6CF0E94E8035BC010921D0310921E0355
:1009B00010921F03109220038091EA029091EB02A3
:1009C00020911F03309120032150304060911D037E
:1009D00070911E03AC014F5F5F4F8217930760F465
:1009E000860F971FFC0180818093BB005093EB0220
:1009F0004093EA0285ECC6CF860F971FFC018081E9
:100A00008093BB005093EB024093EA02BACF87E099
:100A100090E016C02091EA023091EB0280911F0312
:100A2000909120032817390778F488E090E008C0F7
:100A30000E94CA0014C00E94A90011C089E090E081
:100A400090932B0380932A030E94910008C083E0B7
:100A500090E090932B0380932A030E947903FF91E7
:100A6000EF91BF91AF919F918F917F916F915F9126
:100A70004F913F912F910F900BBE0F900FBE0F9093
:100A80001F90189560E070E080E090E00895089570
:100A9000CF93DF93CBE3D2E0CE0161E070E00E9420
:100AA000D10781E792E064EC79E00E94A008CE01D2
:100AB00062E070E00E946D07DF91CF91089581E7B9
:100AC00092E00E9478087894089508951F920F92FA
:100AD0000FB60F920BB60F9211242F933F934F93A3
:100AE0005F936F937F938F939F93AF93BF93EF9396
:100AF000FF938091270290912802A0912902B09142
:100B00002A020196A11DB11D80932702909328020D
:100B1000A0932902B0932A020E946505FF91EF91EC
:100B2000BF91AF919F918F917F916F915F914F9105
:100B30003F912F910F900BBE0F900FBE0F901F9003
:100B40001895089580B7806880BFE4E6F0E0808162
:100B5000806680830E94A1050E945F05089589E058
:100B600093E00E94E1080E94F00880E090E0089580
:100B7000803218F5582F569556955695E52FF0E08A
:100B8000EE0FFF1FEB5EFD4F0190F081E02D4081E5
:100B9000877021E030E0B90102C0660F771F8A95A7
:100BA000E2F7462B40838091680002C0220F331F7A
:100BB0005A95E2F7822B8093680008958032C0F442
:100BC000E82FE695E695E695F0E0EE0FFF1FEB5E69
:100BD000FD4F0190F081E02D9081877021E030E0A1
:100BE00002C0220F331F8A95E2F720952923208324
:100BF0000895CF93DF93EC018B819C810E949B0829
:100C00008B819C8160E070E00E94A008888183FF56
:100C100008C089819A810E9418078D819E810E9457
:100C20001807DF91CF910895FC01838194810E9480
:100C3000B80808950F931F93CF93DF93EC01288199
:100C400089819A8123FF12C00E9430078C018D8117
:100C50009E810E9430070115110519F00097E9F0F7
:100C600002C00097E9F422E030E011C00E94300792
:100C70009C018230910559F0888182FF08C081E093
:100C800090E02115310511F080E090E09C01C90150
:100C9000DF91CF911F910F91089520E030E0ECCFCC
:100CA00021E030E0E9CF0F931F93CF93DF93EC0166
:100CB0008B01BA014230510519F00115110521F4DB
:100CC000CE010E94F9052DC0288122FF08C081E0D5
:100CD00090E04115510511F080E090E0BC0123FF48
:100CE00013C089819A816115710539F40E940A0740
:100CF0008D819E810E9418070BC00E9418078D816C
:100D00009E810E940A0704C089819A810E94270758
:100D10008B819C81B8010E94A0088B819C810E94DC
:100D20008C08DF91CF911F910F91089540E050E022
:100D30000E945306089541E050E00E945306089532
:100D40000F931F93CF93DF938C010E941A06EC013F
:100D50008230910579F0F801838194810E94B8086E
:100D60009C0136952795C130D10531F430952195F8
:100D70003F4F02C020E030E0C901DF91CF911F91C9
:100D80000F910895472F77FF03C0709561957F4FAE
:100D9000660F771F441F4427441F50E00E945306EC
:100DA0000895DC011496ED91FC9115978FEF8083E7
:100DB0000895DC011496ED91FC9115971082089529
:100DC000DC01ED91FC9111970480F581E02D80818B
:100DD00012969C911297892B80830895DC01ED91E6
:100DE000FC9111970480F581E02D908112968C91F1
:100DF00012978095892380830895DC01ED91FC9101
:100E0000119760830895DC011296ED91FC91139780
:100E100080810895DC01ED91FC9111970190F081A2
:100E2000E02D808112969C911297892B80830895E2
:100E3000DC01ED91FC9111970190F081E02D908102
:100E400012968C911297809589238083089561155D
:100E5000710519F00E940A0708950E941807089565
:100E6000FC01A081B18112960D90BC91A02D8C91B6
:100E70009281892321E030E011F420E030E0C901C3
:100E80000895FC016430710548F4DB01A35EBD4F99
:100E90002C916F5D7D4FDB013C9102C030E020E082
:100EA000848195818130910521F43695369526957A
:100EB0002695A081B18111960D90BC91A02D8C91A9
:100EC000832B8C930190F081E02D0180F281E02D45
:100ED00080812095282320830895FC01808190E063
:100EE000827090706430710571F16530710568F43D
:100EF00061307105F9F061307105D8F1623071052A
:100F0000E1F063307105A1F41BC06730710521F178
:100F10006830710538F465307105C1F066307105CF
:100F200039F417C068307105D1F069307105E1F00E
:100F300090E01DC091E086E027C092E085E024C0EB
:100F40000097E9F42DC00097B9F019C00097D1F4CB
:100F500027C00097A1F005C00097A1F007C0009737
:100F6000F9F496E081E010C00097D1F497E080E0BA
:100F70000BC090E087E008C093E084E005C094E0F7
:100F800083E002C095E082E0A381B4812C91292BFB
:100F90002C930380F481E02D9081809589238083B8
:100FA0000895FC01808182FF54C065307105B9F15C
:100FB00066307105B0F46230710569F16330710516
:100FC00040F46115710519F16130710509F08FC0A8
:100FD0006EC06330710529F16430710509F087C076
:100FE00024C06830710529F16930710540F466301C
:100FF000710539F16730710509F079C026C0693093
:101000007105D9F06A30710509F071C010C090E027
:1010100030E088E14FC098E031E080E146C098E1DF
:101020003AC090E031E088E140C090E12FC090E10B
:1010300036C098E032E080E142C098E033E080E1E1
:1010400027C090E032E088E13AC090E033E088E1E8
:101050001FC062307105C9F06330710540F461153D
:10106000710579F06130710509F041C025C0643027
:101070007105C1F06430710588F065307105B9F50E
:1010800009C090E030E088E015C090E033E088E0EF
:1010900020E016C098E033E080E0FACF90E031E045
:1010A00088E003C098E031E080E022E009C098E0E9
:1010B00030E080E123E004C090E032E088E021E00D
:1010C000A181B2814C91432B4C93A181B2813C917F
:1010D000209523232C93A381B4812C91292B2C932D
:1010E0000380F481E02D9081809589238083089589
:1010F000DC01ED91FC9111970580F681E02D2081B6
:1011000014968D919C911597009711F482E001C07F
:1011100084E0822B80830895CF93DF93EC018E814E
:101120009F810E94E006CE0161E070E00E944107CD
:10113000DF91CF91089560E070E00E94410708952B
:10114000FC01A081B1818C9182FF0DC08FB7F89412
:10115000A281B38111967C9311970280F381E02DD7
:1011600060838FBF08950280F381E02D708308951E
:10117000FC01A081B1818C9182FF09C02FB7F89446
:101180000280F381E02D808191812FBF089502803C
:10119000F381E02D908180E008950E94E30080FFBC
:1011A00003C020E030E802C020E030E083FD30647E
:1011B00082FD30622115310511F420E030E1C901D2
:1011C0000895CF93DF93EC010E9484090E94CD081B
:1011D000BC01CE0144E00E94AA09DF91CF9108959D
:1011E000F89484B7877F84BF28E088E190E00FB649
:1011F000F894A895809360000FBE20936000FFCF05
:10120000FC018081918161E070E00E9427070895D0
:10121000FC018081918160E070E00E9427070895C1
:10122000FC01808191810E9427070895AF92BF92AF
:10123000CF92DF92EF92FF920F931F93CF93DF93A2
:101240006C015B01DC0112960C91129710E080E1B9
:1012500090E0801B910BC1E0D0E002C0CC0FDD1FFD
:101260008A95E2F7015010407801EE0CFF1C17C080
:10127000D601ED91FC91EE0DFF1D0190F081E02D66
:10128000BE016A217B21808191810E942707CC0FBA
:10129000DD1F01501040EEEFFFEFEE0EFF1EFFEFDF
:1012A0000F3F1F0729F7DF91CF911F910F91FF90FB
:1012B000EF90DF90CF90BF90AF900895EF92FF92A4
:1012C0000F931F93CF93DF938C01DC011296EC9068
:1012D0001297FF24C0E0D0E00DC0CE01880F991F07
:1012E000D801ED91FC91E80FF91F808191810E9456
:1012F00000092196CE15DF0584F3DF91CF911F9170
:101300000F91FF90EF900895EF92FF920F931F932C
:10131000CF93DF938C01DC011296EC901297FF249F
:10132000C0E0D0E00DC0CE01880F991FD801ED912B
:10133000FC91E80FF91F808191810E940809219694
:10134000CE15DF0584F3DF91CF911F910F91FF90B0
:10135000EF900895CF92DF92FF920F931F93DF9348
:10136000CF930F92CDB7DEB76C018B01FF241CC069
:10137000C601B80149830E9416098FEF94E3ACE0DF
:1013800081509040A040E1F700C00000C6010E94DB
:1013900084098FEF94E3ACE081509040A040E1F7E6
:1013A00000C00000F3944981F41610F30F90CF9120
:1013B000DF911F910F91FF90DF90CF900895462FFE
:0E13C0006FEF7FEF0E94AA090895F894FFCF07
:1013CE002B02D7022D0243034303D7022D022B0219
:1013DE002D022B02D7024303790240000040034D39
:1013EE0003007F0348023B029A000100C3023B0246
:1013FE009800000045022303B40001007F0323037D
:10140E00B3000000400363038A0001005503630329
:10141E00880000003A03BC02480001002F03BC0202
:10142E004700000015030490009100710002B00007
:10143E00B100700004800081006F00004400450080
:10144E006E0006EC0206380206650206FA0210016C
:10145E00040C0102080102040102000102D1028003
:10146E00D10240D10220D10210D10208D10204D102
:10147E000202D102012B0029002A0003038003037C
:10148E0040030320030310030308030304030302B2
:10149E000303012800260027008803808803408864
:1014AE000320880310880308880304880302880336
:1014BE00012500230024000F03800F03400F03209B
:1014CE000F03100F03080F03040F03020F03012273
:1014DE0000200021006B006C006D007300C08000C6
:0614EE00400040C0800038
:00000001FF
