:100000000C9446000C9477000C9477000C947700C5
:100010000C9477000C9477000C9477000C94770084
:100020000C9477000C9477000C9477000C94770074
:100030000C9477000C9477000C9477000C94770064
:100040000C9477000C9477000C9477000C94770054
:100050000C9477000C9477000C9477000C94770044
:100060000C9477000C9477000C9477000C94770034
:100070000C9477000C9477000C9477000C94770024
:100080000C94C0040C9477000C94770011241FBECC
:10009000C0E0D0E4DEBFCDBF12E0A0E0B1E0E4E715
:1000A000F8E100E00BBF02C007900D92A032B1074B
:1000B000D9F713E0A0E2B2E001C01D92A635B10766
:1000C000E1F70E947C000E9484000E94C9010E9406
:1000D0002C020E944D020E94DF020E9479040E94BD
:1000E0008C040E9437050E9465050C94350C0C9415
:1000F00000000E94DE06089584B78093240214BE97
:100100000895809124020895ADECB2E0E3E0F2E0BE
:1001100086E001900D928150E1F7AAECB2E0E0E0B8
:10012000F2E083E001900D928150E1F7A3E2B3E0A9
:10013000EDEFF1E083E001900D928150E1F7A2EA4A
:10014000B2E0EAEFF1E083E001900D928150E1F737
:10015000A5EBB2E0E7EFF1E083E001900D92815072
:10016000E1F7A9E6B2E0E4EFF1E083E001900D925F
:100170008150E1F7AAE9B2E0E1EFF1E083E001901C
:100180000D928150E1F7A6E1B3E0EEEEF1E083E0FD
:1001900001900D928150E1F7A6EDB2E0EBEEF1E0B7
:1001A00083E001900D928150E1F7A9E2B3E0E5EE22
:1001B000F1E086E001900D928150E1F7AEEBB2E004
:1001C000E2EEF1E083E001900D928150E1F7A6E2CA
:1001D000B3E0EFEDF1E083E001900D928150E1F7A3
:1001E000A6E4B2E0ECEDF1E083E001900D928150E5
:1001F000E1F7A3EDB2E0E9EDF1E083E001900D92CB
:100200008150E1F7A3EEB2E0E6EDF1E083E001908A
:100210000D928150E1F7A7E8B2E0E3EDF1E083E071
:1002200001900D928150E1F7A9E4B2E0E0EDF1E038
:1002300083E001900D928150E1F7A4E8B2E0EDEC8B
:10024000F1E083E001900D928150E1F7A1ECB2E082
:10025000E7ECF1E086E001900D928150E1F7A3EF29
:10026000B2E0E4ECF1E083E001900D928150E1F71F
:10027000ABEBB2E0E1ECF1E083E001900D92815054
:10028000E1F7ABEEB2E0EEEBF1E083E001900D922E
:100290008150E1F7AAE7B2E0EBEBF1E083E00190F7
:1002A0000D928150E1F7A6E6B2E0E8EBF1E083E0E1
:1002B00001900D928150E1F7A8EBB2E0E5EBF1E09F
:1002C00083E001900D928150E1F7AAEAB2E0E2EBFF
:1002D000F1E083E001900D928150E1F7ACE3B2E0F0
:1002E000EFEAF1E083E001900D928150E1F7A2E99D
:1002F000B2E0E9EAF1E086E001900D928150E1F789
:10030000AAE5B2E0E6EAF1E083E001900D928150C7
:10031000E1F7AFE6B2E0E3EAF1E083E001900D92AD
:100320008150E1F7A7E5B2E0E0EAF1E083E0019077
:100330000D928150E1F7A5EAB2E0EDE9F1E083E04A
:1003400001900D928150E1F7ABE0B3E0EAE9F1E012
:1003500083E001900D928150E1F7AEEEB2E0E7E963
:10036000F1E083E001900D928150E1F7A0E2B3E06B
:10037000E4E9F1E083E001900D928150E1F7A6EF0E
:10038000B2E0E1E9F1E083E001900D928150E1F704
:1003900008958EEB92E090933302809332020E9494
:1003A000090886E293E090933102809330020E9424
:1003B000090886E492E090939902809398020E9443
:1003C000090883ED92E09093FA028093F9020E946B
:1003D0000908ACE6B2E0EEE8F1E083E001900D92AE
:1003E0008150E1F7A4E5B2E0EBE8F1E083E00190B1
:1003F0000D928150E1F7A3E6B2E0E8E8F1E083E096
:1004000001900D928150E1F7A0EEB2E0E5E8F1E055
:1004100083E001900D928150E1F7A7ECB2E0E2E8B1
:10042000F1E083E001900D928150E1F70895FC0125
:10043000808191810E9417080895CF93DF93EC018A
:100440008A810E94E106E881F981808191810E9480
:100450001708DF91CF91089586E692E090936002AD
:1004600080935F020E94170888EB92E090935E02EF
:1004700080935D020E9417088AEA92E090936202DC
:10048000809361020E9417088CE392E09093A90286
:100490008093A8020E9417080895ADE7B2E0EBE749
:1004A000F1E087E001900D928150E1F7A9E1B3E01E
:1004B000E4E7F1E087E001900D928150E1F7A9EDCA
:1004C000B2E0EDE6F1E087E001900D928150E1F7B6
:1004D000AFE3B2E0E6E6F1E087E001900D928150F3
:1004E000E1F7ADEAB2E0EEE5F1E088E001900D92CF
:1004F0008150E1F7AEE0B3E0E6E5F1E088E001909D
:100500000D928150E1F7ACE4B2E0EEE4F1E088E076
:1005100001900D928150E1F7A3E0B3E0E6E4F1E051
:1005200088E001900D928150E1F7AAE8B2E0EEE395
:10053000F1E088E001900D928150E1F7ABEFB2E07D
:10054000E6E3F1E088E001900D928150E1F7A2E747
:10055000B2E0EEE2F1E088E001900D928150E1F727
:10056000A4E3B2E0E6E2F1E088E001900D92815070
:10057000E1F70895CF93DF93EC018B819C8160E0DC
:1005800070E00E94C90989819A810E940908DF915F
:10059000CF910895EF92FF92CF93DF93EC017E010C
:1005A0009F2D0E94BA028D819E810E940908CE0172
:1005B0000E942207DF91CF91FF90EF900895ADE95F
:1005C000B2E0E1E2F1E085E001900D928150E1F7C7
:1005D0008DE992E00E94BA02A6EEB2E0ECE1F1E011
:1005E00085E001900D928150E1F786EE92E00E9445
:1005F000BA0208958FEF90E420911801309119010B
:10060000821B930B90931E0280931D0210921A027C
:10061000109219026091250270E06E5F7F4F81E0B9
:1006200090E00E94D60AFC01009719F01182108216
:1006300002C0E0E0F0E0F0932702E0932602089584
:10064000AF92BF92CF92DF92EF92FF920F931F93E0
:10065000DF93CF9300D0CDB7DEB7D82EC92E7B0164
:100660005A01CA0161E070E029830E94D60A8C0118
:1006700029810097B1F1A50141505040480F591F01
:1006800089E790E0FA01808331979083FA013297ED
:10069000D082FA013397C082622F70E06E5F7F4F85
:1006A00081E090E049835A830E94D60A9C014981E7
:1006B0005A81009749F0CA018697F9019183808396
:1006C000E114F10431F404C0C8010E94950B09C083
:1006D0007901FA017E97E0824F515040FA01F08291
:1006E00002C020E030E0C9010F900F90CF91DF9160
:1006F0001F910F91FF90EF90DF90CF90BF90AF9040
:100700000895409118015091190120E00E942003A2
:10071000089560E070E00E94810308950F920FB683
:10072000F8940F920BB60F921F9211242F923F92C2
:100730004F925F926F927F928F929F92AF92BF92F1
:10074000CF92DF92EF92FF920F931F932F933F93DD
:100750004F935F936F937F938F939F93AF93BF93C9
:10076000CF93DF93EF93FF93DC010DB60D920EB69E
:100770000D92DB010D900DBE0D900EBEFF91EF911D
:10078000DF91CF91BF91AF919F918F917F916F91A9
:100790005F914F913F912F911F910F91FF90EF909B
:1007A000DF90CF90BF90AF909F908F907F906F9091
:1007B0005F904F903F902F901F900F900BBE0F9027
:1007C0000FBE0F9078940895809126029091270291
:1007D0000895BC0180912602909127027093270210
:1007E000609326020E948E030895CF93DF93EA015F
:1007F0002A5F0E942003FC010097E9F0DC011496B7
:1008000080911A0190911B019583848301969093A6
:100810001B0180931A011396DC93CE93129727E263
:1008200030E02C1B3D0B80819181820F931F159628
:100830009C938E931497CF01DF91CF9108954091AF
:1008400018015091190120E00E94F503089560E01D
:1008500070E00E941F040895CF93DF93EC01809114
:10086000260290912702C817D90769F0FE01349635
:100870008C819D81009721F0848195810E94950B48
:10088000CE010E94950BDF91CF910895FC018681E6
:100890000895FC012085318580819181281B390BC9
:1008A000C9010895FC018481958108959C01285D0A
:1008B0003F4FC9010895809125028A5F80932502E8
:1008C0000E94FA02A0912602B0912702FD013496FF
:1008D00015961C921E9214978091180190911901FF
:1008E0009383828380911D0290911E02958384835D
:1008F000089589E790E060E070E040E450E020E097
:100900000E94F5039093F2028093F1020895809182
:10091000F1029091F2020895CF93DF93CFE3D2E0FA
:10092000CE0161E070E00E94FA0882E792E064EC98
:1009300079E00E94C909CE0162E070E00E94960849
:10094000DF91CF91089582E792E00E94A109789407
:1009500008950895CF93DF93EC010E94A3059C01B5
:10096000009751F4CE010E94770A9C01009721F470
:100970002091F1023091F202C901DF91CF910895E7
:100980000F920FB6F8940F920BB60F921F9211248C
:100990002F923F924F925F926F927F928F929F928F
:1009A000AF92BF92CF92DF92EF92FF920F931F937D
:1009B0002F933F934F935F936F937F938F939F9367
:1009C000AF93BF93CF93DF93EF93FF938091280270
:1009D00090912902A0912A02B0912B020196A11DAB
:1009E000B11D8093280290932902A0932A02B0930C
:1009F0002B02A0912602B09127020DB60D920EB6E1
:100A00000D9281E090E00E94AA04909327028093C7
:100A10002602009711F40E94CB0ADC010D900DBE56
:100A20000D900EBEFF91EF91DF91CF91BF91AF91ED
:100A30009F918F917F916F915F914F913F912F91F6
:100A40001F910F91FF90EF90DF90CF90BF90AF90EC
:100A50009F908F907F906F905F904F903F902F90DE
:100A60001F900F900BBE0F900FBE0F90189580B780
:100A7000806880BFE4E6F0E0808180668083E0E605
:100A8000F0E080E180838081856080830E945B0448
:100A900083E090E00E94BD0A0E945B050E94A304CF
:100AA0000895809120029091210201969093210255
:100AB00080932002089581E595E042E350E060E0F4
:100AC00070E020E00E9454060895809122029091E7
:100AD000230201969093230280932202F6CFEF9295
:100AE000FF92CF93DF930E945604E82EE7017E0128
:100AF000F92EE701E981FA8109951C861B860E947F
:100B0000CC06F8CFEF92FF92CF93DF930E9456046A
:100B1000E82EE7017E01F92EE701E981FA810995C6
:100B20008B859C85AD85BE852D813E814F81588505
:100B3000820F931FA41FB51F8B879C87AD87BE872D
:100B40000E94CC06EACFEF92FF92CF93DF93C09141
:100B50002E02D0912F0225C0CE010E945604FC0126
:100B600081859285009721F081309105C1F412C0F2
:100B700063857485858596852091280230912902A8
:100B800040912A0250912B02261737074807590730
:100B900030F009C0838594858130910521F0C381AF
:100BA000D4812097C9F6CE01DF91CF91FF90EF90CD
:100BB00008950F931F93CF93DF938C01EB018091E6
:100BC0002E0290912F02009739F410932F02009378
:100BD0002E021C821B822DC00E945604FC016581DE
:100BE0007681878190852D813E814F81588526179A
:100BF00037074807590768F0621773078407950796
:100C000021F490818881981720F083819481009746
:100C100019F780E090E00E945604FC0183819481E2
:100C20009C838B8380E090E00E945604FC01148337
:100C30000383DF91CF911F910F9108956F927F925F
:100C40008F929F92AF92BF92CF92DF92EF92FF92DC
:100C50000F931F93CF93DF935C014B0169017A01DE
:100C60000E945604192F682EE3013E01792EE301FC
:100C70009A8289820883CD82DE82EF82F886C5015E
:100C8000B3010E94D905862D912FDF91CF911F913D
:100C90000F91FF90EF90DF90CF90BF90AF909F901B
:100CA0008F907F906F900895AF92BF92CF92DF9216
:100CB000FF920F931F93CF93DF93EC015A016B01C7
:100CC000022F409118015091190182E895E060E0EF
:100CD00070E02FE00E94F503F82E192FBE01A60147
:100CE00095010E941E06FC011286118620912802A1
:100CF0003091290240912A0250912B022A0D3B1D6E
:100D00004C1D5D1D23873487458756878F2D912F76
:100D1000DF91CF911F910F91FF90DF90CF90BF9007
:100D2000AF900895AF92BF92CF92DF92FF920F9350
:100D30001F93CF93DF93EC015A016B01022F409177
:100D40001801509119018FE695E060E070E02DE008
:100D50000E94F503F82E192FBE01A60195010E94ED
:100D60001E06FC0181E090E092878187148613863D
:100D70008F2D912FDF91CF911F910F91FF90DF90D9
:100D8000CF90BF90AF9008950E94560421E030E0CC
:100D9000FC0134872387089580E090E00E94AA0434
:100DA000009711F00E94E903089583B7816083BF23
:100DB00083B7817F83BF7894889508950E94D50674
:100DC000FDCF803218F5582F569556955695E52F3C
:100DD000F0E0EE0FFF1FE75FFD4F0190F081E02D87
:100DE0004081877021E030E0B90102C0660F771FB3
:100DF0008A95E2F7462B40838091680002C0220F5B
:100E0000331F5A95E2F7822B809368000895803251
:100E1000C0F4E82FE695E695E695F0E0EE0FFF1FAB
:100E2000E75FFD4F0190F081E02D9081877021E018
:100E300030E002C0220F331F8A95E2F72095292364
:100E400020830895CF93DF93EC018B819C810E94D6
:100E5000C4098B819C8160E070E00E94C90988818F
:100E600083FF08C089819A810E9441088D819E81FB
:100E70000E944108DF91CF910895FC018381948104
:100E80000E94E10908950F931F93CF93DF93EC0124
:100E9000288189819A8123FF12C00E9459088C0100
:100EA0008D819E810E9459080115110519F0009746
:100EB000E9F002C00097E9F422E030E011C00E949E
:100EC00059089C018230910559F0888182FF08C041
:100ED00081E090E02115310511F080E090E09C0167
:100EE000C901DF91CF911F910F91089520E030E06B
:100EF000ECCF21E030E0E9CF0F931F93CF93DF9346
:100F0000EC018B01BA014230510519F001151105B0
:100F100021F4CE010E9422072DC0288122FF08C0A3
:100F200081E090E04115510511F080E090E0BC01B6
:100F300023FF13C089819A816115710539F40E94DC
:100F400033088D819E810E9441080BC00E94410898
:100F50008D819E810E94330804C089819A810E94FC
:100F600050088B819C81B8010E94C9098B819C81AA
:100F70000E94B509DF91CF911F910F91089540E034
:100F800050E00E947C07089541E050E00E947C07F9
:100F900008950F931F93CF93DF938C010E94430713
:100FA000EC018230910579F0F801838194810E94EF
:100FB000E1099C0136952795C130D10531F4309572
:100FC00021953F4F02C020E030E0C901DF91CF9171
:100FD0001F910F910895472F77FF03C0709561957A
:100FE0007F4F660F771F441F4427441F50E00E9425
:100FF0007C070895DC011496ED91FC9115978FEF15
:1010000080830895DC011496ED91FC911597108270
:101010000895DC01ED91FC9111970480F581E02D9C
:10102000808112969C911297892B80830895DC0110
:10103000ED91FC9111970480F581E02D908112963D
:101040008C9112978095892380830895DC01ED911E
:10105000FC91119760830895DC011296ED91FC914B
:10106000139780810895DC01ED91FC911197019017
:10107000F081E02D808112969C911297892B8083BC
:101080000895DC01ED91FC9111970190F081E02D24
:10109000908112968C911297809589238083089570
:1010A0006115710519F00E94330808950E944108E6
:1010B0000895FC01A081B18112960D90BC91A02DE4
:1010C0008C919281892321E030E011F420E030E01E
:1010D000C9010895FC016430710548F4DB01AF5E7D
:1010E000BD4F2C916B5E7D4FDB013C9102C030E027
:1010F00020E0848195818130910521F436953695E3
:1011000026952695A081B18111960D90BC91A02DB8
:101110008C91832B8C930190F081E02D0180F281E2
:10112000E02D80812095282320830895FC01808173
:1011300090E0827090706430710571F165307105D6
:1011400068F461307105F9F061307105D8F16230F1
:101150007105E1F063307105A1F41BC067307105C2
:1011600021F16830710538F465307105C1F06630E1
:10117000710539F417C068307105D1F06930710517
:10118000E1F090E01DC091E086E027C092E085E0AC
:1011900024C00097E9F42DC00097B9F019C000975A
:1011A000D1F427C00097A1F005C00097A1F007C0B7
:1011B0000097F9F496E081E010C00097D1F497E031
:1011C00080E00BC090E087E008C093E084E005C0B9
:1011D00094E083E002C095E082E0A381B4812C9189
:1011E000292B2C930380F481E02D90818095892315
:1011F00080830895FC01808182FF54C065307105B1
:10120000B9F166307105B0F46230710569F163308F
:10121000710540F46115710519F16130710509F02E
:101220008FC06EC06330710529F16430710509F01B
:1012300087C024C06830710529F16930710540F418
:101240006630710539F16730710509F079C026C043
:1012500069307105D9F06A30710509F071C010C0AC
:1012600090E030E088E14FC098E031E080E146C096
:1012700098E13AC090E031E088E140C090E12FC0B1
:1012800090E136C098E032E080E142C098E033E07F
:1012900080E127C090E032E088E13AC090E033E09E
:1012A00088E11FC062307105C9F06330710540F4F8
:1012B0006115710579F06130710509F041C025C0F3
:1012C00064307105C1F06430710588F065307105D6
:1012D000B9F509C090E030E088E015C090E033E057
:1012E00088E020E016C098E033E080E0FACF90E09C
:1012F00031E088E003C098E031E080E022E009C0FE
:1013000098E030E080E123E004C090E032E088E043
:1013100021E0A181B2814C91432B4C93A181B281F8
:101320003C91209523232C93A381B4812C91292BCC
:101330002C930380F481E02D908180958923808314
:101340000895DC01ED91FC9111970580F681E02D67
:10135000208114968D919C911597009711F482E04D
:1013600001C084E0822B80830895CF93DF93EC014A
:101370008E819F810E940908CE0161E070E00E9489
:101380006A08DF91CF91089560E070E00E946A08DA
:101390000895FC01A081B1818C9182FF0DC08FB7AF
:1013A000F894A281B38111967C9311970280F38106
:1013B000E02D60838FBF08950280F381E02D70835C
:1013C0000895FC01A081B1818C9182FF09C02FB7E3
:1013D000F8940280F381E02D808191812FBF0895E0
:1013E0000280F381E02D908180E008950F931F9398
:1013F000CF93DF938C01EB0181E090E064E070E03B
:101400000E94D60AFC0111830083DE01AA0FBB1FD4
:10141000AA0FBB1FAC0FBD1FA15DBC4F8D919C914E
:101420001197938382831196FC93EE9314968C917B
:101430001497882321F41396FC93EE931297FE01E0
:10144000EE0FFF1FEE0FFF1FEC0FFD1FE15DFC4FC6
:1014500084818F5F848380912C0290912D028C1760
:101460009D0720F4D0932D02C0932C02DF91CF91E1
:101470001F910F9108950F931F93CF93DF93EB016B
:101480000E9427048C01BE010E94F609C801DF9169
:10149000CF911F910F91089563E070E00E943B0A85
:1014A00008950F931F93CF93DF93EB01BA010E942E
:1014B0001F048C01BE010E94F609C801DF91CF9183
:1014C0001F910F9108950F931F93CF93DF93EB011B
:1014D000BA01A90120E00E94F5038C01BE010E941F
:1014E000F609C801DF91CF911F910F910895809166
:1014F0002C0290912D0201C00197009729F41092BF
:101500002C0210922D0210C0FC01EE0FFF1FEE0FF7
:10151000FF1FE80FF91FE15DFC4F2481222361F3D7
:1015200080932C0290932D02FC01EE0FFF1FEE0F13
:10153000FF1FE80FF91FE15DFC4F24812223C9F052
:10154000A281B38112960D90BC91A02D109711F439
:10155000A081B181FC01EE0FFF1FEE0FFF1FE80F0E
:10156000F91FE15DFC4FB383A2832D913C9111974C
:1015700002C020E030E0C9010895CF93DF93EC0171
:101580000E94E403BE010E94F609DF91CF91089505
:101590000E94E4030895F89484B7887084BF80E1C2
:1015A0008093600088E080936000FFCFEF92FF920D
:1015B0000F931F93CF93DF93689F8001699F100D56
:1015C000789F100D1124C8010E94FB0AE82EE70144
:1015D0007E01F92EE701209731F08E2D60E070E05A
:1015E000A8010E942E0CCE01DF91CF911F910F9187
:1015F000FF90EF900895CF93DF938230910510F420
:1016000082E090E0E0915403F091550340E050E017
:1016100020E030E026C06081718168177907E0F032
:101620006817790781F4828193812115310531F0A2
:10163000D90113969C938E9312972BC090935503C8
:101640008093540326C04115510519F0641775079E
:1016500018F4AB01E901DF019F0172816381E72F7B
:10166000F62F3097C1F64115510501F1481B590B72
:101670004430510580F412968D919C9113972097D8
:1016800019F09B838A8304C090935503809354037D
:10169000FD01329646C0FD01E40FF51F8193919341
:1016A0004250504011965C934E933BC020915203A0
:1016B000309153032115310541F420911B023091E3
:1016C0001C02309353032093520320911D0230914A
:1016D0001E022115310541F42DB73EB74091190284
:1016E00050911A02241B350BE0915203F0915303E1
:1016F000E217F307A0F42E1B3F0B2817390778F0E9
:10170000AC014E5F5F4F2417350748F04E0F5F1F47
:1017100050935303409352038193919302C0E0E0AE
:10172000F0E0CF01DF91CF910895CF93DF93009741
:1017300009F491C0FC013297138212826091540324
:10174000709155036115710581F420813181280F55
:10175000391F80915203909153038217930799F593
:10176000F0935303E093520376C0DB0180E090E0F6
:1017700002C0CD01D901AE17BF0748F412962D91D2
:101780003C91139721153105A1F7CD0121C0B383F9
:10179000A283EF01499159919E01240F351FA21791
:1017A000B30779F42D913C911197240F351F2E5FCB
:1017B0003F4F3183208312962D913C9113973383B1
:1017C0002283009729F4F0935503E093540343C018
:1017D000DC011396FC93EE9312974D915D91A40F4B
:1017E000B51FEA17FB0769F420813181240F351FEB
:1017F0002E5F3F4FEC0139832883228133813B8365
:101800002A83E0E0F0E002C0FB01BC01DB0112969C
:101810008D919C9113970097B9F79B012E5F3F4FD5
:101820008D919C911197820F931F4091520350917B
:1018300053034817590779F4309729F41092550348
:101840001092540302C0138212822250304030930F
:10185000530320935203DF91CF910895DC0101C01F
:101860006D9341505040E0F708950E94DE060895C0
:04187000F894FFCF1A
:10187400300298023202F902F9029802320230026E
:1018840032023002F90298020002010000F602035B
:10189400030020034C023F029A00010084023F022D
:1018A400980000004902D902B40001002003D902C3
:1018B400B3000000F60219038A0001000B031903A8
:1018C40088000000EE027D0248000100E3027D0270
:1018D40047000000D3020490009100710002B000A0
:1018E400B100700004800081006F000044004500D6
:1018F4006E001001040C010208010204010200013F
:1019040002920280920240920220920210920208F5
:101914009202049202029202012B0029002A00C1C1
:101924000280C10240C10220C10210C10208C102EA
:1019340004C10202C10201280026002700290380F5
:101944002903402903202903102903082903042912
:101954000302290301250023002400CD0280CD02C7
:1019640040CD0220CD0210CD0208CD0204CD0202EA
:10197400CD02012200200021006B006C006D007379
:1019840000C08000400040C08020005603000000DA
:00000001FF
