:100000000C9446000C9479000C9479000C947900BF
:100010000C9479000C9479000C9479000C9479007C
:100020000C9479000C9479000C9479000C9479006C
:100030000C9479000C9479000C9479000C9479005C
:100040000C9479000C9479000C9479000C9479004C
:100050000C9479000C9479000C9479000C9479003C
:100060000C9479000C9479000C94E1050C947900BF
:100070000C9479000C9479000C9479000C9479001C
:100080000C94DD030C94C2040C94790011241FBE5F
:10009000C0E0D0E4DEBFCDBF12E0A0E0B1E0E2EC12
:1000A000F9E200E00BBF02C007900D92A230B10749
:1000B000D9F714E0A2E0B2E001C01D92AC35B1075F
:1000C000E1F70E94BF000E94CF000E94DC010E9465
:1000D00048020E947C020E9484030E94BF030E9487
:1000E000EA040E9444050E94480A0E94940C0C9461
:1000F000DF140C94000085E98093BC001092EA03A1
:100100001092E90308958091E4039091E50301972B
:1001100020918A0330918B032817390710F485EC5E
:1001200001C085E88093BC00089580918A03909176
:100130008B032091BB00E091E203F091E303E80F11
:10014000F91F2083019690938B0380938A0308956F
:100150009B01E091A501F091A6018083CB0101965E
:100160009093A8018093A701E091A501F091A601C9
:100170003196CF01BA01A9010E94CF14089584B726
:100180008093020214BE88E10FB6F8948093600059
:10019000109260000FBE0895809102020895ACE0B5
:1001A000B4E0E6EEF1E086E001900D928150E1F7D7
:1001B0008CE094E09093C0038093BF0321E02093F0
:1001C000C1039093400380933F0322E020934103B7
:1001D00090930A048093090424E020930B049093E5
:1001E000E7038093E60328E02093E80390937C03E1
:1001F00080937B0320E120937D03909314028093EE
:10020000130220E220931502909331028093300272
:1002100020E420933202909392038093910380E82C
:1002200080939303A1E8B3E0E0EEF1E086E0019073
:100230000D928150E1F781E893E09093FF03809362
:10024000FE0321E02093000490938F0380938E039C
:1002500022E020939003909338028093370224E0A9
:1002600020933902909325048093240428E020935E
:100270002604909302048093010420E12093030458
:100280009093E0038093DF0320E22093E1039093B7
:100290004B0480934A0420E420934C0490939503EC
:1002A0008093940380E880939603A9EAB3E0EAED93
:1002B000F1E086E001900D928150E1F789EA93E048
:1002C000909388038093870321E020938903909380
:1002D0001D0280931C0222E020931E0290935A0379
:1002E0008093590324E020935B03909379038093D8
:1002F000780328E020937A039093200280931F02D2
:1003000020E12093210290937F0380937E0320E2DB
:10031000209380039093CE038093CD0320E4209319
:10032000CF0390932B0280932A0280E880932C02C3
:10033000ACE5B3E0E4EDF1E086E001900D92815090
:10034000E1F78CE593E090933E0280933D0221E03B
:1003500020933F0290933D0480933C0422E020933D
:100360003E049093C3038093C20324E02093C4030C
:100370009093EC038093EB0328E02093ED0390939C
:10038000D9038093D80320E12093DA039093BD032F
:100390008093BC0320E22093BE03909305048093D6
:1003A000040420E42093060490931A028093190217
:1003B00080E880931B0208958EEF93E090933402BF
:1003C000809333020E942D0F8EE893E090933602C3
:1003D000809335020E942D0F87E392E090930804EA
:1003E000809307040E942D0F84E294E09093DE0333
:1003F0008093DD030E942D0FA7E4B4E0E1EDF1E06E
:1004000083E001900D928150E1F7ADE2B2E0EEECB5
:10041000F1E083E001900D928150E1F7A1EFB3E0AC
:10042000EBECF1E083E001900D928150E1F7ADE457
:10043000B4E0E8ECF1E083E001900D928150E1F747
:10044000AEEEB3E0E5ECF1E083E001900D92815077
:10045000E1F70895CF93DF93EC0189819A810E949F
:100460003B0F888182FF04C089819A810E94570FC7
:10047000DF91CF910895CF93DF93EC01888199812B
:100480000E942A028A810E94A40DDF91CF910895D3
:100490001F9316E01093FB038EE793E09093FD0308
:1004A0008093FC038BEF93E00E942A0210933A02A0
:1004B0008FE192E090933C0280933B028AE392E0CA
:1004C0000E942A02109322028AE292E09093240270
:1004D0008093230282E292E00E942A021093160285
:1004E0008DEC93E0909318028093170286E192E0DE
:1004F0000E942A021F910895A4EFB3E0EEEBF1E011
:1005000087E001900D928150E1F7A2E5B3E0E7EBBF
:10051000F1E087E001900D928150E1F7A2E6B3E0AF
:10052000E0EBF1E087E001900D928150E1F7A9E660
:10053000B3E0E9EAF1E087E001900D928150E1F744
:1005400084EF93E0909351048093500427E430E0CB
:100550003093530420935204109255041092540483
:1005600024E234E0309357042093560490937103AF
:100570008093700388E490E09093730380937203F8
:1005800081E090E0909375038093740321E034E060
:10059000309377032093760322E533E030934B03C7
:1005A00020934A0348E850E050934D0340934C0396
:1005B00010924F0310924E034CEB53E050935103B3
:1005C000409350033093B0032093AF032AE830E008
:1005D0003093B2032093B1039093B4038093B30399
:1005E00028ED33E03093B6032093B50322E633E0E1
:1005F0003093400420933F0443EB50E05093420477
:1006000040934104109244041092430449E152E0A3
:1006100050934604409345043093C6032093C5038A
:1006200024EB30E03093C8032093C7039093CA03B0
:100630008093C90324E034E03093CC032093CB03B0
:1006400029E633E0309343032093420348E950E026
:10065000509345034093440310924703109246037E
:100660004AE454E050934903409348033093D10344
:100670002093D0032AE930E03093D3032093D203B0
:100680009093D5038093D40384E993E09093D703A8
:100690008093D6030895CF93DF93EC0182E593E036
:1006A00061E070E00E94B90FEB81FC818081918153
:1006B00064E070E00E941D108B819C8160E070E01E
:1006C0000E94F01089819A810E942D0F888183FDFC
:1006D00004C089819A810E94570FDF91CF910895BC
:1006E000CF93DF93EC010E944B038D819E810E948A
:1006F0002D0F89819A810E94650F8D819E810E94B4
:10070000650FDF91CF9108958091520380618093AE
:1007100052031092B70384E094E09093B90380935E
:10072000B8038AE493E09093BB038093BA0387EB0A
:1007300093E00E944B0384E08093250289E192E0DC
:1007400090932702809326028FEA93E090932902E8
:100750008093280285E292E00E944B03E0912802F8
:10076000F0912902868197810E94570FE091BA0388
:10077000F091BB03868197810E94570F0895CF9314
:10078000DF93C9E6D3E0CE0161E070E00E941D1066
:10079000CE0162E070E00E94B90F82E493E064EC65
:1007A00079E00E94F01080ED93E064EC79E00E9423
:1007B000F010DF91CF91089508951F920F920FB618
:1007C0000F920BB60F9211242F933F934F935F9389
:1007D0006F937F938F939F93AF93BF93EF93FF9309
:1007E0008091030290910402A0910502B09106024B
:1007F0000196A11DB11D8093030290930402A09362
:100800000502B09306020E94DC03FF91EF91BF91B5
:10081000AF919F918F917F916F915F914F913F9198
:100820002F910F900BBE0F900FBE0F901F90189539
:1008300080E090E00895F8940895F89481E090E0C5
:10084000089578940895FC01118A108A0895809182
:100850000D0290910E02009781F080910702909115
:1008600008026091090270910A020E943E130097EB
:1008700021F487E993E00E94991180910F029091F1
:100880001002009781F08091070290910802609118
:100890000B0270910C020E943E13009721F482E13A
:1008A00094E00E9499110895009729F080ED93E05B
:1008B0000E94B410089580ED93E00E94C81008953E
:1008C00020910D0230910E022115310561F421E0D5
:1008D00030E040910F02509110024115510529F46A
:1008E00020E030E002C021E030E043E087399407A7
:1008F000B1F481E090E06115710511F480E090E0C1
:1009000090930E0280930D02009721F488EE93E0FD
:100910000E943E1370930A026093090219C044E0DA
:100920008231940771F581E090E06115710511F451
:1009300080E090E09093100280930F02009721F4E2
:1009400088EE93E00E943E1370930C0260930B02BA
:1009500080910D0290910E02009761F481E090E089
:1009600040910F02509110024115510529F480E089
:1009700090E002C081E090E02817390711F00E9452
:10098000540408951F920F920FB60F920BB60F9258
:1009900011242F933F934F935F936F937F938F9384
:1009A0009F93AF93BF93EF93FF930E942704FF9110
:1009B000EF91BF91AF919F918F917F916F915F91D7
:1009C0004F913F912F910F900BBE0F900FBE0F9044
:1009D0001F90189587EB93E090939803809397036B
:1009E00010929A031092990381E090E090939C03F7
:1009F00080939B0310929E0310929D039093A003FB
:100A000080939F031092A2031092A10348E250E04A
:100A10005093A4034093A30328EB3BE03093A60339
:100A20002093A5031092A8031092A70365E272E039
:100A3000709313046093120410921504109214041E
:100A400090931704809316041092190410921804BE
:100A500090931B0480931A0410921D0410921C049E
:100A600050931F0440931E043093210420932004CC
:100A70001092230410922204089560E070E080E058
:100A800090E008950895089585E08093BC008FEF6D
:100A90008093BB0084E68093B8001092B90008955B
:100AA000DF93CF93CDB7DEB727970FB6F894DEBFAD
:100AB0000FBECDBF8091DB039091DC0383309105A5
:100AC0000CF052C0AE014F5F5F4F8091DB039091FD
:100AD000DC03FC0133E0EE0FFF1F3A95E1F7E81B62
:100AE000F90BDA01E95DFB4F27E001900D922150EF
:100AF000E1F7FC0123E0EE0FFF1F2A95E1F7E81B69
:100B0000F90BE95DFB4F6481258136810196909355
:100B1000DC038093DB032115310521F0833091053F
:100B20002CF022C08330910584F21EC022303105A2
:100B300011F46E7F04C02130310519F461606093B7
:100B4000120210928B0310928A0389819A81AB81E1
:100B5000BC818093E2039093E303A093E403B093FA
:100B6000E50321E030E002C020E030E0C901279633
:100B70000FB6F894DEBF0FBECDBFCF91DF910895C1
:100B80000E945005009719F40E947B00089585EAA1
:100B90008093BC00089510928D0310928C0381E025
:100BA00090E09093EA038093E9031092DC031092A3
:100BB000DB030E945005009719F085EA8093BC0082
:100BC00008951F920F920FB60F920BB60F92112439
:100BD0002F933F934F935F936F937F938F939F9345
:100BE000AF93BF93EF93FF938091B90090E0887F1C
:100BF00090708033910509F469C081339105D4F474
:100C00008031910599F18131910544F4009709F4FF
:100C100076C08830910509F075C028C080329105F2
:100C200009F45CC088329105A1F18831910509F081
:100C300069C02FC08834910509F450C089349105EA
:100C400044F488339105B9F08034910509F05AC015
:100C500042C08835910509F44AC0883F910509F4DE
:100C60004BC08035910509F04DC033C08091120210
:100C70008093BB0027C085E090E090938D03809324
:100C80008C0385E88093BC001092EA031092E9037C
:100C900041C080918A0390918B032091E4033091AD
:100CA000E5038217930728F5E091E203F091E3034F
:100CB000E80FF91F20812093BB00019690938B03CE
:100CC00080938A0385E88093BC0024C086E090E08E
:100CD00007C00E9495000E9483001CC084E090E041
:100CE00090938D0380938C030E947B0013C00E941D
:100CF00095000E94C0050EC081E090E005C082E032
:100D000090E002C083E090E090938D0380938C0389
:100D10000E944305FF91EF91BF91AF919F918F91F9
:100D20007F916F915F914F913F912F910F900BBEEB
:100D30000F900FBE0F901F9018951F9340E050E04A
:100D400020E030E00FC0DA01A95DBB4FFB01E40FEA
:100D5000F51F17E001900D921150E1F72F5F3F4F03
:100D6000495F5F4F281739075CF0F90143E0EE0F48
:100D7000FF1F4A95E1F7E21BF30BE45DFB4F09C04F
:100D80002330310501F7F1CF118210822F5F3F4FE1
:100D9000379623303105C4F30E94CB051F91089587
:100DA0000F931F93DF93CF93CDB7DEB72E970FB678
:100DB000F894DEBF0FBECDBFFE0131969EE0DF018D
:100DC0001D929A95E9F749835A836B837C838D83BF
:100DD00042E050E05F834E83088719872A873B876C
:100DE0008C8781E090E09E878D8782E090E0BF0154
:100DF0000E949D062E960FB6F894DEBF0FBECDBFA3
:100E0000CF91DF911F910F910895DF93CF93CDB7CD
:100E1000DEB727970FB6F894DEBF0FBECDBFFE0139
:100E2000319697E0DF011D929A95E9F749835A833D
:100E30006B837C838D8381E090E09F838E83BF01F1
:100E40000E949D0627960FB6F894DEBF0FBECDBF59
:100E5000CF91DF910895DF93CF93CDB7DEB727977A
:100E60000FB6F894DEBF0FBECDBFFE01319697E0FE
:100E7000DF011D929A95E9F749835A836B837C833E
:100E80008D8382E090E09F838E8381E090E0BF01BC
:100E90000E949D0627960FB6F894DEBF0FBECDBF09
:100EA000CF91DF910895F8948091E9039091EA033E
:100EB00078948823C1F708951F93182F862FBA01BD
:100EC000A9010E94A8004091A5015091A60160913E
:100ED000A7017091A801812F0E942B071F910895EF
:100EE000DF93CF9300D0CDB7DEB79A8389839E017D
:100EF0002F5F3F4F42E050E08091A40163E40E94E5
:100F00005C070E9453070F900F90CF91DF910895D7
:100F10009C01AB018091A40163E30E945C070E94E5
:100F200053070895DF93CF930F92CDB7DEB7898330
:100F30009E012F5F3F4F41E050E08091A40162E3AA
:100F40000E945C070E9453070F90CF91DF91089594
:100F5000DF93CF9300D0CDB7DEB79A8389839E010C
:100F60002F5F3F4F42E050E08091A40161E30E9477
:100F70005C070E9453070F900F90CF91DF91089567
:100F80008091A40160E320E030E0A9010E945C07A9
:100F90000E9453070895DF93CF9300D0CDB7DEB7FB
:100FA0009A8389839E012F5F3F4F42E050E08091FA
:100FB000A4016BE10E945C070E9453070F900F9001
:100FC000CF91DF910895DF93CF930F92CDB7DEB726
:100FD00089839E012F5F3F4F41E050E08091A40143
:100FE00065E10E945C070E9453070F90CF91DF914B
:100FF0000895DF93CF930F92CDB7DEB789839E011B
:101000002F5F3F4F41E050E08091A40162E10E94D8
:101010005C070E9453070F90CF91DF910895DF93F3
:10102000CF930F92CDB7DEB789839E012F5F3F4FDD
:1010300041E050E08091A40161E10E945C070E94C0
:1010400053070F90CF91DF910895DF93CF9300D096
:10105000CDB7DEB79A8389839E012F5F3F4F42E071
:1010600050E08091A40160E10E945C070E94530758
:101070000F900F90CF91DF910895DF93CF930F9250
:10108000CDB7DEB789839E012F5F3F4F41E050E02F
:101090008091A40163E00E945C070E9453070F90B7
:1010A000CF91DF9108958091A40160E020E030E0CD
:1010B000A9010E945C070E9453070895DF92EF92F6
:1010C000FF920F931F93D82E862FBA01A9010E9479
:1010D000A8004091A5015091A6016091A7017091CF
:1010E000A8018D2D980187010E94D0061F910F91B4
:1010F000FF90EF90DF900895EF92FF920F931F9370
:10110000DF93CF9300D0CDB7DEB78A839E012E5FE9
:101110003F4F41E050E07E010894E11CF11C01E0EA
:1011200010E08091A40162E40E945E080E945307CF
:1011300089810F900F90CF91DF911F910F91FF90B8
:10114000EF900895EF92FF920F931F93DF93CF9349
:1011500000D00F92CDB7DEB78B839E012D5F3F4F3E
:1011600041E050E07E010894E11CF11C02E010E037
:101170008091A40161E40E945E080E945307898166
:101180009A810F900F900F90CF91DF911F910F9147
:10119000FF90EF900895EF92FF920F931F93DF93CC
:1011A000CF9300D00F92CDB7DEB79B838A839E0189
:1011B0002E5F3F4F42E050E07E010894E11CF11C9D
:1011C00001E010E08091A40160E40E945E080E94AA
:1011D000530789810F900F900F90CF91DF911F914E
:1011E0000F91FF90EF900895EF92FF920F931F934E
:1011F000DF93CF9300D00F92CDB7DEB78B839E01E4
:101200002D5F3F4F41E050E07E010894E11CF11C4E
:1012100002E010E08091A4016AE10E945E080E9451
:10122000530789819A810F900F900F90CF91DF9192
:101230001F910F91FF90EF900895EF92FF920F93FF
:101240001F93DF93CF9300D0CDB7DEB79C01AB01E6
:101250007E010894E11CF11C02E010E08091A401E1
:1012600069E10E945E080E94530789819A810F906C
:101270000F90CF91DF911F910F91FF90EF90089504
:10128000EF92FF920F931F93DF93CF9300D000D084
:10129000CDB7DEB79C838B839E012D5F3F4F42E02D
:1012A00050E07E010894E11CF11C02E010E0809106
:1012B000A40168E10E945E080E94530789819A8117
:1012C0000F900F900F900F90CF91DF911F910F9182
:1012D000FF90EF900895EF92FF920F931F93DF938B
:1012E000CF9300D00F92CDB7DEB78B839E012D5FD9
:1012F0003F4F41E050E07E010894E11CF11C02E008
:1013000010E08091A40167E10E945E080E945307EB
:1013100089819A810F900F900F90CF91DF911F914B
:101320000F91FF90EF900895EF92FF920F931F930C
:10133000DF93CF9300D00F92CDB7DEB78B839E01A2
:101340002D5F3F4F41E050E07E010894E11CF11C0D
:1013500002E010E08091A40166E10E945E080E9414
:10136000530789819A810F900F900F90CF91DF9151
:101370001F910F91FF90EF900895EF92FF920F93BE
:101380001F93DF93CF930F92CDB7DEB79C01AB01D4
:101390007E010894E11CF11C01E010E08091A401A1
:1013A00064E10E945E080E94530789810F90CF91EB
:1013B000DF911F910F91FF90EF900895EF92FF92B0
:1013C0000F931F93DF93CF9300D0CDB7DEB79C016F
:1013D000AB017E010894E11CF11C02E010E0809159
:1013E000A40163E10E945E080E94530789819A81EB
:1013F0000F900F90CF91DF911F910F91FF90EF9081
:101400000895EF92FF920F931F93DF93CF930F9264
:10141000CDB7DEB77E010894E11CF11C01E010E0BD
:101420008091A40162E020E030E0A9010E945E0802
:101430000E94530789810F90CF91DF911F910F91E7
:10144000FF90EF900895EF92FF920F931F93DF9319
:10145000CF9300D0CDB7DEB77E010894E11CF11C1C
:1014600002E010E08091A40161E020E030E0A901F9
:101470000E945E080E94530789819A810F900F9005
:10148000CF91DF911F910F91FF90EF9008950895F4
:1014900080B7806880BFE4E6F0E08081806680836A
:1014A0000E94470A82E493E00E94B4107894089561
:1014B000DC010D900020E9F7BD0161507040681B10
:1014C000790B0E94DE090895DC010D900020E9F7F8
:1014D000BD0161507040681B790B0E94BD090895E1
:1014E000DC010D900020E9F7BD0161507040681BE0
:1014F000790B0E9488070895BF92CF92DF92EF92F6
:10150000FF920F931F93DF93CF93CDB7DEB7F82FE2
:10151000E62FB52ECDB6DEB690E0019768E070E01C
:101520000E9452139B012F5F3F4FE29F202D1124F9
:10153000822F8E5FE82EFF248DB79EB78E199F09EC
:101540000FB6F8949EBF0FBE8DBF0DB71EB70F5FCD
:101550001F4FADB7BEB71196FC93D8011196EC930F
:10156000EDB7FEB73396CF01642F7B2D422F50E0AD
:101570000E94CF14C801B7010E941D090FB6F8944C
:10158000DEBE0FBECDBECF91DF911F910F91FF90B8
:10159000EF90DF90CF90BF900895AF92BF92CF921F
:1015A000DF92EF92FF920F931F93DF93CF93CDB70C
:1015B000DEB77C01ADB6BEB60E94C614C82EDD24CF
:1015C0008DB79EB78C199D090FB6F8949EBF0FBEBC
:1015D0008DBF0DB71EB70F5F1F4FC801B701A60122
:1015E0000E94BD14C801B6010E94DE090FB6F8942E
:1015F000BEBE0FBEADBECF91DF911F910F91FF9088
:10160000EF90DF90CF90BF90AF900895AF92BF92D0
:10161000CF92DF92EF92FF920F931F93DF93CF93BE
:10162000CDB7DEB77C01ADB6BEB60E94C614C82EDB
:10163000DD248DB79EB78C199D090FB6F8949EBF17
:101640000FBE8DBF0DB71EB70F5F1F4FC801B7018B
:10165000A6010E94BD14C801B6010E94BD090FB6C3
:10166000F894BEBE0FBEADBECF91DF911F910F911A
:10167000FF90EF90DF90CF90BF90AF900895AF9222
:10168000BF92CF92DF92EF92FF920F931F93DF935F
:10169000CF93CDB7DEB77C01ADB6BEB60E94C614FF
:1016A000C82EDD248DB79EB78C199D090FB6F8940E
:1016B0009EBF0FBE8DBF0DB71EB70F5F1F4FC80176
:1016C000B701A6010E94BD14C801B6010E94880797
:1016D0000FB6F894BEBE0FBEADBECF91DF911F9185
:1016E0000F91FF90EF90DF90CF90BF90AF90089553
:1016F000CF92DF92EF92FF920F931F93DF93CF93DE
:10170000CDB7DEB7F82FE62F9A01CDB6DEB690E062
:10171000019768E070E00E945213AB014F5F5F4F8A
:10172000E49F402D1124842F8E5FE82EFF248DB777
:101730009EB78E199F090FB6F8949EBF0FBE8DBF3E
:101740000DB71EB70F5F1F4FADB7BEB71196FC9315
:10175000D8011196EC930396B90150E00E94BD1494
:10176000C801B7010E941D090FB6F894DEBE0FBE76
:10177000CDBECF91DF911F910F91FF90EF90DF9041
:10178000CF900895962F0E9425080895962F0E94C5
:1017900040090895962F0E94CB070895962F0E9426
:1017A000A8070895962F0E94CB0808950E94230A47
:1017B00020918C0330918D032115310531F421E006
:1017C00030E041E08330940711F020E030E0C901BF
:1017D00008958F929F92AF92BF92CF92DF92EF9235
:1017E000FF920F931F93DF93CF930F92CDB7DEB786
:1017F000D82EF62E252F90E0019768E070E00E9429
:101800005213E62EE3940E2D10E082E190E0B80131
:101810000E945213C62E522F4A0190E080E01EC053
:10182000BF2CCF1408F4BC2C8D2D6B2DA4010E946D
:101830007C0AA82E4B2D50E0409F9001419F300D17
:10184000509F300D1124820E931EFB1831F08E191B
:10185000692F99830E94C20B99818A2DFF2001F77D
:101860000F90CF91DF911F910F91FF90EF90DF903C
:10187000CF90BF90AF909F908F9008958F929F923E
:10188000AF92BF92CF92DF92EF92FF920F931F938E
:10189000DF93CF930F92CDB7DEB7E82EF62E4A0135
:1018A000282F30E021503040C90168E070E00E94EC
:1018B0005213D62ED3940D2D10E082E190E0B801A2
:1018C0000E945213B62E90E080E01EC0CF2CBF14B1
:1018D00008F4CB2C8E2D6C2DA4010E94780BA82E21
:1018E0004C2D50E0409F9001419F300D509F300D96
:1018F0001124820E931EFC1831F08D19692F9983E3
:101900000E94C20B99818A2DFF2001F70F90CF9181
:10191000DF911F910F91FF90EF90DF90CF90BF90DC
:10192000AF909F908F900895DF93CF93CDB7DEB7A0
:1019300028970FB6F894DEBF0FBECDBF409182014D
:101940005091830120917C0130917D0180917E0135
:1019500090917F0160918001709181017A83698308
:101960005C834B833E832D8398878F8384E0BE0105
:101970006F5F7F4F0E94F11180E090E028960FB6D4
:10198000F894DEBF0FBECDBFCF91DF910895BF9217
:10199000CF92DF92EF92FF920F931F93CF93DF933B
:1019A000EC010091620110916301C80162E00E94A4
:1019B000CB0E8FE794E8AEE181509040A040E1F774
:1019C00000C000008091820190918301C817D9075F
:1019D000F1F50E94230A6C0180918C0390918D0394
:1019E000009709F07BC0E0905801F0905901C701C1
:1019F00068EE73E00E94F20EC801B60144E00E9456
:101A0000A40EE60194E0CC0FDD1F9A95E1F7C70123
:101A100068EE73E00E94F20EC801BE0144E00E942D
:101A2000A40EC70168EE73E00E94F20EC80160E0E8
:101A30007C2D44E00E94A40EC70168EE73E00E9472
:101A4000F20E7C2D7295707FC80160E02DC08091F0
:101A50007E0190917F01C817D90751F585EA0E9450
:101A60007C0820918C0330918D0321153105B1F54F
:101A7000A0E0ED01E0905801F0905901C70168EE37
:101A800073E00E94F20EC801BE0144E00E94A40E61
:101A9000C70168EE73E00E94F20EBE0184E0660F9B
:101AA000771F8A95E1F7C80144E00E94A40E16C092
:101AB0008091800190918101C817D90729F480E0B5
:101AC00091E00E94580A0AC080917C0190917D01AA
:101AD000C817D90719F481E00E94F40880918C039B
:101AE00090918D030097E9F0C0915A01D0915B016C
:101AF000CE0165E00E94CB0EE0908C03C8016E2DF4
:101B000070E044E00E94A40ECE0162E00E94CB0E81
:101B10006E2D6295607FC80170E044E00E94A40EC3
:101B200009C0C8010E947E0E80915C0190915D0108
:101B30000E94580EDF91CF911F910F91FF90EF906F
:101B4000DF90CF90BF900895803218F5582F5695AA
:101B500056955695E52FF0E0EE0FFF1FE451FE4F2E
:101B60000190F081E02D4081877021E030E0B901E3
:101B700002C0660F771F8A95E2F7462B408380915B
:101B8000680002C0220F331F5A95E2F7822B809320
:101B9000680008958032C0F4E82FE695E695E69552
:101BA000F0E0EE0FFF1FE451FE4F0190F081E02DB9
:101BB0009081877021E030E002C0220F331F8A95A8
:101BC000E2F7209529232083089507C0E7E8F3E191
:101BD0003197F1F700C0000001970097B9F7089519
:101BE0008FEF94E3ACE081509040A040E1F700C05B
:101BF00000000895FC018081918161E070E00E9405
:101C0000740F0895FC018081918160E070E00E9472
:101C1000740F0895FC01808191810E94740F0895D2
:101C2000AF92BF92CF92DF92EF92FF920F931F93EA
:101C3000CF93DF936C015B01DC0112960C9112973C
:101C400010E080E190E0801B910BC1E0D0E002C089
:101C5000CC0FDD1F8A95E2F7015010407801EE0CA1
:101C6000FF1C17C0D601ED91FC91EE0DFF1D0190F8
:101C7000F081E02DBE016A217B21808191810E944B
:101C8000740FCC0FDD1F01501040EEEFFFEFEE0E92
:101C9000FF1EFFEF0F3F1F0729F7DF91CF911F9125
:101CA0000F91FF90EF90DF90CF90BF90AF9008958D
:101CB000EF92FF920F931F93CF93DF938C01DC0180
:101CC0001296EC901297FF24C0E0D0E00DC0CE0138
:101CD000880F991FD801ED91FC91E80FF91F8081C1
:101CE00091810E94FA0D2196CE15DF0584F3DF91D4
:101CF000CF911F910F91FF90EF900895EF92FF9277
:101D00000F931F93CF93DF938C01DC011296EC901D
:101D10001297FF24C0E0D0E00DC0CE01880F991FBC
:101D2000D801ED91FC91E80FF91F808191810E940B
:101D3000020E2196CE15DF0584F3DF91CF911F911E
:101D40000F91FF90EF900895CF92DF92FF920F9343
:101D50001F93DF93CF930F92CDB7DEB76C018B014A
:101D6000FF240EC0C601B80149830E94100E0E94D4
:101D7000F00DC6010E947E0E0E94F00DF394498181
:101D8000F41680F30F90CF91DF911F910F91FF9088
:101D9000DF90CF900895462F6FEF7FEF0E94A40E43
:101DA0000895EF92FF921F93DF93CF930F92CDB7D9
:101DB000DEB77C0110E00DC0C70169830E94FA0DF7
:101DC0000E94F00DC7010E94020E0E94F00D1F5FDD
:101DD0006981161788F30F90CF91DF911F91FF90C3
:101DE000EF9008950F931F93CF93DF93EC018B0136
:101DF0000E94FA0DC8010E94E50DCE010E94020E5C
:101E0000DF91CF911F910F9108950F931F93CF935F
:101E1000DF93EC018A010E94100EC8010E94E50DBB
:101E2000CE010E947E0EDF91CF911F910F910895F8
:101E3000AB016FEF7FEF0E94050F0895DC01149650
:101E4000ED91FC9115978FEF80830895DC01149636
:101E5000ED91FC91159710820895DC01ED91FC91B4
:101E600011970480F581E02D808112969C91129744
:101E7000892B80830895DC01ED91FC9111970480FA
:101E8000F581E02D908112968C911297809589238F
:101E900080830895DC01ED91FC9111976083089592
:101EA000DC011296ED91FC91139780810895DC017D
:101EB000ED91FC9111970190F081E02D80811296B7
:101EC0009C911297892B80830895DC01ED91FC9100
:101ED00011970190F081E02D908112968C911297CC
:101EE00080958923808308956115710519F00E94FA
:101EF000570F08950E94650F0895FC01A081B181DC
:101F000012960D90BC91A02D8C919281892321E095
:101F100030E011F420E030E0C9010895FC016430A4
:101F2000710548F4DB01AC50BE4F2C9168507E4FD8
:101F3000DB013C9102C030E020E084819581009774
:101F400021F4330F330F220F220FA081B18111969C
:101F50000D90BC91A02D8C91832B8C930190F081DE
:101F6000E02D0180F281E02D8081209528232083BF
:101F70000895FC01808190E082709070643071055A
:101F800071F16530710568F461307105F9F0613007
:101F90007105D8F162307105E1F063307105A1F48B
:101FA0001BC06730710521F16830710538F4653068
:101FB0007105C1F06630710539F417C068307105DC
:101FC000D1F069307105E1F090E01DC091E086E04C
:101FD00027C092E085E024C00097E9F42DC0009767
:101FE000B9F019C00097D1F427C00097A1F005C03F
:101FF0000097A1F007C00097F9F496E081E010C0C7
:102000000097D1F497E080E00BC090E087E008C033
:1020100093E084E005C094E083E002C095E082E0B4
:10202000A381B4812C91292B2C930380F481E02D82
:1020300090818095892380830895FC01808182FFAF
:1020400037C06330710531F16430710540F461309F
:10205000710509F457C06230710580F40BC065301A
:10206000710581F065307105C8F06630710509F0C1
:102070007AC01CC090E030E088E147C098E031E0D1
:1020800080E13EC084FD43C085FF45C098E033E059
:1020900080E14CC090E031E088E132C084FD3FC077
:1020A00085FF41C090E033E088E140C090E122C06C
:1020B00062307105D1F06330710540F4611571052E
:1020C00081F06130710509F04EC032C06430710595
:1020D000A1F06430710568F06530710509F043C006
:1020E00006C090E030E088E010C090E01DC098E0AD
:1020F00013C090E031E088E003C098E031E080E078
:1021000022E01AC098E030E080E123E015C098E0BA
:1021100032E080E110C098E133E080E007C090E059
:1021200032E088E108C090E133E088E020E004C0BC
:1021300090E032E088E021E0A181B2814C91432B14
:102140004C93A181B2813C91209523232C93A381B0
:10215000B4812C91292B2C930380F481E02D908164
:102160008095892380830895DC01ED91FC9111977E
:102170000580F681E02D208114968D919C91159714
:10218000009711F482E001C084E0822B80830895DF
:10219000DC01ED91FC9111970580F681E02D208105
:1021A00014968D919C911597009711F48DEF01C0B5
:1021B0008BEF822380830895CF93DF93EC018E8190
:1021C0009F810E942D0FCE0163E070E00E948E0F70
:1021D000DF91CF91089560E070E00E948E0F089526
:1021E000FC01A081B1818C9182FF1CC09FB784FF4C
:1021F00006C0660F672F661F770B719507C085FFB6
:1022000005C086E0769567958A95E1F7F894A281F6
:10221000B38111967C9311970280F381E02D608346
:102220009FBF08950280F381E02D70830895FC0123
:10223000A081B1818C9182FF1CC08FB7F894A281DC
:10224000B3812D913C9111978FBF0190F081E02DCA
:10225000808184FF06C03695322F22273795279537
:102260000EC085FF0CC046E0220F331F4A95E1F7F0
:1022700006C00280F381E02D8081382F20E0C90163
:102280000895EF92FF920F931F93CF93DF93EC018A
:102290008B017A01888999890E941B041F830E8310
:1022A000F986E8868A859B85009749F46C857D854B
:1022B000CE010E94600481E090E09B878A87888934
:1022C00099890E942104DF91CF911F910F91FF9076
:1022D000EF90089560E070E042E050E00E9441110C
:1022E000089541E050E00E944111089540E050E01F
:1022F0000E94411108950F931F93CF93DF93EC0138
:102300008B016115710519F40E946A110DC0CB0192
:102310000E941513BC01412F4095441F4427441FC0
:10232000CE0150E00E944111DF91CF911F910F919A
:102330000895CF93DF93EC01888999890E941B044B
:10234000488559858A819B816E817F812E853F8555
:10235000EC81FD81E417F50741F082179307C0F483
:102360005D834C8360E070E016C08617970750F4D9
:10237000AB01481B590B4217530768F0B901680FAE
:10238000791F09C0AC01461B570B4217530718F0C1
:10239000BC01621B730B7B836A834C815D818881E6
:1023A00099810E94A2122E813F818A819B812817E8
:1023B000390771F4288539858C819D812817390763
:1023C00039F4CE0160E070E00E9460041B861A863A
:1023D000888999890E942104DF91CF9108950895F9
:1023E00008956F927F928F929F92AF92BF92CF92F9
:1023F000DF92EF92FF920F931F93CF93DF93682E9C
:102400005B0190E062E070E00E9465134C01C0E067
:10241000D0E0772424C06E01CC0CDD1CF501EC0D5E
:10242000FD1DE080F180C7010E9435128C01C80CAF
:10243000D91CF60180819181009739F401151105AD
:1024400051F0C7010E94C70C06C00115110519F40F
:10245000C7010E94F011F601118300832196C61571
:10246000D705CCF2C0E0D0E0FACFCF93DF93EC01F8
:1024700089819A810E947D0F9C01888181FF08C01B
:1024800081E090E02115310511F080E090E09C01A1
:10249000C901DF91CF910895CF93DF93EC018B8138
:1024A0009C8160E070E00E94F010888183FF08C08A
:1024B00089819A810E94650F8D819E810E94650F9E
:1024C000DF91CF910895FC01838194810E941711BF
:1024D00008950F931F93CF93DF93EC012881898197
:1024E0009A8123FF12C00E947D0F8C018D819E81F5
:1024F0000E947D0F0115110519F00097E9F002C047
:102500000097E9F422E030E011C00E947D0F9C01A9
:102510008230910559F0888182FF08C081E090E007
:102520002115310511F080E090E09C01C901DF9197
:10253000CF911F910F91089521E030E0ECCF20E082
:1025400030E0E9CF0F931F93CF93DF93EC018B0122
:10255000BA014230510519F00115110521F4CE01DF
:102560000E944C1232C0288122FF08C081E090E016
:102570004115510511F080E090E0BC0123FF13C02C
:1025800089819A816130710539F40E94570F8D81DC
:102590009E810E94650F0BC00E94650F8D819E81F8
:1025A0000E94570F04C089819A810E94740F88810C
:1025B00081FF02C0009510958B819C81B8010E941B
:1025C000F0108B819C810E94DC10DF91CF911F91D4
:1025D0000F91089541E050E00E94A212089540E05A
:1025E00050E00E94A21208950F931F93CF93DF93A0
:1025F0008C010E946912EC018230910571F0F801A2
:10260000838194810E9417119C013695279520970C
:1026100031F4309521953F4F02C020E030E0C901F0
:10262000DF91CF911F910F910895282F392F37FFF8
:1026300003C0309521953F4F220F331FC9010895E4
:102640000F931F93CF93DF93EC018B0161157105FD
:1026500019F40E944C120DC0CB010E941513BC014D
:10266000412F4095441F4427441FCE0150E00E9453
:10267000A212DF91CF911F910F910895AA1BBB1B4E
:1026800051E107C0AA1FBB1FA617B70710F0A61B72
:10269000B70B881F991F5A95A9F780959095BC0193
:1026A000CD01089597FB092E07260AD077FD04D0A7
:1026B000E5DF06D000201AF4709561957F4F0895EC
:1026C000F6F7909581959F4F0895EF92FF920F93A3
:1026D0001F93CF93DF93689F8001699F100D789FB0
:1026E000100D1124C8010E948A13E82EE7017E0113
:1026F000F92EE701209731F08E2D60E070E0A801FF
:102700000E94D814CE01DF91CF911F910F91FF90BD
:10271000EF900895CF93DF938230910510F482E01B
:1027200090E0E0915A04F0915B0440E050E020E03A
:1027300030E026C06081718168177907E0F0681782
:10274000790781F4828193812115310531F0D90116
:1027500013969C938E9312972BC090935B04809357
:102760005A0426C04115510519F06417750718F46D
:10277000AB01E901DF019F0172816381E72FF62F31
:102780003097C1F64115510501F1481B590B4430F2
:10279000510580F412968D919C911397209719F012
:1027A0009B838A8304C090935B0480935A04FD0149
:1027B000329646C0FD01E40FF51F8193919342507C
:1027C000504011965C934E933BC020915804309139
:1027D00059042115310541F42091FE013091FF018A
:1027E0003093590420935804209100023091010243
:1027F0002115310541F42DB73EB74091FC015091B0
:10280000FD01241B350BE0915804F0915904E217A7
:10281000F307A0F42E1B3F0B2817390778F0AC0103
:102820004E5F5F4F2417350748F04E0F5F1F5093E0
:102830005904409358048193919302C0E0E0F0E082
:10284000CF01DF91CF910895CF93DF93009709F4E3
:1028500091C0FC0132971382128260915A047091E8
:102860005B046115710581F420813181280F391FC6
:1028700080915804909159048217930799F5F09329
:102880005904E093580476C0DB0180E090E002C078
:10289000CD01D901AE17BF0748F412962D913C9196
:1028A000139721153105A1F7CD0121C0B383A28370
:1028B000EF01499159919E01240F351FA217B307CB
:1028C00079F42D913C911197240F351F2E5F3F4FC6
:1028D0003183208312962D913C9113973383228369
:1028E000009729F4F0935B04E0935A0443C0DC01A1
:1028F0001396FC93EE9312974D915D91A40FB51F23
:10290000EA17FB0769F420813181240F351F2E5F00
:102910003F4FEC0139832883228133813B832A8313
:10292000E0E0F0E002C0FB01BC01DB0112968D91FA
:102930009C9113970097B9F79B012E5F3F4F8D91A4
:102940009C911197820F931F409158045091590404
:102950004817590779F4309729F410925B041092C4
:102960005A0402C01382128222503040309359041C
:1029700020935804DF91CF910895FB01DC0102C040
:1029800005900D9241505040D8F70895FC010590F4
:102990000020E9F7809590958E0F9F1F0895FB0109
:1029A000DC0102C001900D9241505040D8F70895CB
:1029B000DC0101C06D9341505040E0F70895F89458
:0229C000FFCF47
:1029C2004869202121203A2920000C04BF033F033B
:1029D2000904E6037B031302300291038103FE0321
:1029E2008E03370224040104DF034A049403A9037B
:1029F20087031C02590378031F027E03CD032A02B8
:102A02005C033D023C04C203EB03D803BC03040491
:102A12001902330235020704DD0347042D02F103D4
:102A22004D04EE03350207043302DD03DD03070420
:102A320033023502330235020704DD032202160295
:102A4200FB033A02F4035203620369035004700366
:102A52004A03AF033F04C5034203D003B703250271
:102A620097031204164002FF0004900091007100C7
:102A720002B000B100700004800081006F000044C9
:102A82000045006E007401047001026C01026801CD
:102A9200026401022B0029002A00280026002700D8
:102AA2002500230024002200200021006B006C007E
:102AB2006D007300302000100010302020005C04F4
:022AC200000012
:00000001FF
