:100000000C9446000C9479000C9479000C947900BF
:100010000C9479000C9479000C9479000C9479007C
:100020000C9479000C9479000C9479000C9479006C
:100030000C9479000C9479000C9479000C9479005C
:100040000C9479000C9479000C9479000C9479004C
:100050000C9479000C9479000C9479000C9479003C
:100060000C9479000C9479000C94D5050C947900CB
:100070000C9479000C9479000C9479000C9479001C
:100080000C94D0020C94AC040C94790011241FBE83
:10009000C0E0D0E4DEBFCDBF11E0A0E0B1E0EEE013
:1000A000F4E200E00BBF02C007900D92A83FB10739
:1000B000D9F714E0A8EFB1E001C01D92A435B10753
:1000C000E1F70E94C6000E94D6000E94E3010E9450
:1000D000B2020E9420030E9485030E94FE030E9438
:1000E000D4040E9438050E948B0A0E949F0A0C9437
:1000F00002120C94000085E98093BC001092E30387
:100100001092E203089580918103909182030196F9
:100110002091DD033091DE038217930710F485EC04
:1001200001C085E88093BC0008958091810390917F
:1001300082032091DD033091DE038217930770F470
:100140002091BB00E091DB03F091DC03E80FF91F85
:1001500020830196909382038093810308959B01ED
:10016000E0919B01F0919C018083CB0101969093DB
:100170009E0180939D01E0919B01F0919C0131963D
:10018000CF01BA01A9010E94F911089584B78093A3
:10019000F80114BE88E10FB6F894809360001092C5
:1001A00060000FBE08958091F8010895A6E0B4E0C4
:1001B000ECEDF1E086E001900D928150E1F786E0F0
:1001C00094E09093B9038093B80321E02093BA039D
:1001D000909337038093360322E020933803909363
:1001E00004048093030424E0209305049093E00327
:1001F0008093DF0328E02093E103909373038093BF
:10020000720320E12093740390930402809303020D
:1002100020E220930502909327028093260220E497
:1002200020932802909389038093880380E8809329
:100230008A03A8E7B3E0E6EDF1E086E001900D92D5
:100240008150E1F788E793E09093F9038093F803F6
:1002500021E02093FA03909386038093850322E0A4
:100260002093870390932E0280932D0224E0209305
:100270002F0290931D0480931C0428E020931E04F9
:100280009093FC038093FB0320E12093FD03909364
:10029000D9038093D80320E22093DA039093430498
:1002A0008093420420E42093440490938C03809331
:1002B0008B0380E880938D03AEE9B3E0E0EDF1E0DD
:1002C00086E001900D928150E1F78EE993E09093E2
:1002D0007F0380937E0321E02093800390930E029E
:1002E00080930D0222E020930F029093510380939C
:1002F000500324E0209352039093700380936F0384
:1003000028E020937103909311028093100220E162
:1003100020931202909376038093750320E220933A
:1003200077039093C7038093C60320E42093C80308
:10033000909321028093200280E880932202A3E51B
:10034000B3E0EAECF1E086E001900D928150E1F734
:1003500083E593E0909335028093340221E020936B
:100360003602909335048093340422E020933604BF
:100370009093BC038093BB0324E02093BD03909330
:10038000E5038093E40328E02093E6039093D203EF
:100390008093D10320E12093D3039093B6038093FD
:1003A000B50320E22093B7039093FF038093FE03ED
:1003B00020E42093000490930B0280930A0280E8CB
:1003C00080930C020895ADEEB3E0E3ECF1E087E03A
:1003D00001900D928150E1F7A9E4B3E0ECEBF1E07C
:1003E00087E001900D928150E1F7A9E5B3E0E5EBDC
:1003F000F1E087E001900D928150E1F7A0E6B3E0D3
:10040000EEEAF1E087E001900D928150E1F78DEE88
:1004100093E0909349048093480427E430E03093BC
:100420004B0420934A0410924D0410924C042CE18A
:1004300034E030934F0420934E04909368038093EC
:10044000670388E490E090936A038093690381E0F6
:1004500090E090936C0380936B032BEF33E0309329
:100460006E0320936D0329E433E03093420320931D
:10047000410348E850E050934403409343031092F3
:1004800046031092450345EB53E0509348034093D5
:1004900047033093A5032093A4032AE830E0309368
:1004A000A7032093A6039093A9038093A80321EDAB
:1004B00033E03093AB032093AA0329E533E0309374
:1004C00038042093370443EB50E050933A044093B0
:1004D000390410923C0410923B044AE052E05093DD
:1004E0003E0440933D043093BF032093BE0324EBAE
:1004F00030E03093C1032093C0039093C3038093F3
:10050000C2032EEF33E03093C5032093C40320E6EB
:1005100033E030933A032093390348E950E0509395
:100520003C0340933B0310923E0310923D0342E490
:1005300054E05093400340933F033093CA03209309
:10054000C9032AE930E03093CC032093CB03909386
:10055000CE038093CD038BE893E09093D0038093F8
:10056000CF030895CF93DF93C0E6D3E0CE0161E0DF
:1005700070E00E94960FCE0162E070E00E94320FA0
:1005800089E393E064EC79E00E94691089EC93E0E0
:1005900060E573EC0E946910DF91CF910895089592
:1005A0001F920F920FB60F920BB60F9211242F933A
:1005B0003F934F935F936F937F938F939F93AF93EB
:1005C000BF93EF93FF938091F9019091FA01A0916D
:1005D000FB01B091FC010196A11DB11D8093F901B1
:1005E0009093FA01A093FB01B093FC010E94CF020B
:1005F000FF91EF91BF91AF919F918F917F916F91FB
:100600005F914F913F912F910F900BBE0F900FBEB6
:100610000F901F90189582E090E00E94C6100895F8
:100620002FB730E020783070FC0131832083F894BC
:1006300008950E94100381E090E008957894089551
:1006400088EF93E090932A02809329020E94A60EDD
:1006500085E893E090932C0280932B020E94A60ED3
:100660008DE292E090930204809301040E94A60E12
:100670008CE194E09093D7038093D6030E94A60E5A
:10068000AFE3B4E0EBEAF1E083E001900D9281503A
:10069000E1F7A3E2B2E0E8EAF1E083E001900D9235
:1006A0008150E1F7AAEEB3E0E5EAF1E083E00190E2
:1006B0000D928150E1F7A5E4B4E0E2EAF1E083E0D5
:1006C00001900D928150E1F7A7EEB3E0EFE9F1E080
:1006D00083E001900D928150E1F70895CF93DF936D
:1006E000EC0189819A810E94B40E888181FF04C047
:1006F00089819A810E94D00E888182FF03C08B81FC
:100700000E94CC0BDF91CF9108951F9313E01093BB
:10071000F40385E793E09093F6038093F50385E176
:100720008093F70384EF93E00E946E0310933002EE
:1007300080E192E0909332028093310284E18093D1
:10074000330280E392E00E946E031093130280E272
:1007500092E0909315028093140286E18093160232
:1007600083E192E00E946E031093060286EC93E010
:10077000909308028093070287E18093090286E044
:1007800092E00E946E031F910895CF93DF93EC01D6
:1007900089E493E061E070E00E94320FEB81FC811C
:1007A0008081918164E070E00E94960F8B819C8132
:1007B00060E070E00E94691089819A810E94A60E13
:1007C000888183FD04C089819A810E94D00EDF91C7
:1007D000CF910895CF93DF93EC010E94C5038985E3
:1007E0009A850E94A60E89819A810E94DE0E8985D3
:1007F0009A850E94DE0EDF91CF910895CF93DF930B
:10080000809149038061809349031092AC038EEF7D
:1008100093E09093AE038093AD0381E493E09093D3
:10082000B0038093AF031092B2031092B103CFEFE5
:10083000DFEFD093B403C093B3038CEA93E00E943C
:10084000C50384E0809317028AE092E09093190236
:100850008093180284EA93E090931B0280931A021B
:1008600010921D0210921C02D0931F02C0931E0210
:1008700087E192E00E94C503E0911A02F0911B0209
:10088000868197810E94D00EE091AF03F091B00372
:10089000868197810E94D00EDF91CF910895CF93EA
:1008A000DF93EC010E940B039F878E87DF91CF912E
:1008B00008958091FD019091FE01009721F08EE84E
:1008C00093E00E94780B8091FF01909100020097C5
:1008D00021F08CE094E00E94780B0895009729F0B5
:1008E00089EC93E00E942D10089589EC93E00E941A
:1008F0004110089523E08E38920729F47093FE0189
:100900006093FD0108C024E08C309207D1F470930D
:1009100000026093FF018091FD019091FE0100971C
:1009200061F481E090E02091FF01309100022115F7
:10093000310529F480E090E002C081E090E00E945F
:100940006E04089560E070E00E947A04089561E00A
:1009500070E00E947A0408951F920F920FB60F92D2
:100960000BB60F9211242F933F934F935F936F9386
:100970007F938F939F93AF93BF93EF93FF930E94C7
:100980005904FF91EF91BF91AF919F918F917F910A
:100990006F915F914F913F912F910F900BBE0F90F0
:1009A0000FBE0F901F9018950F931F93CF93DF9357
:1009B0008CEA93E090938F0380938E0310929103BF
:1009C00010929003C1E0D0E0D0939303C0939203C0
:1009D0001092950310929403D0939703C0939603BB
:1009E00010929903109298030CE211E010939B036C
:1009F00000939A0310929D0310929C030E940B0394
:100A000090939D0380939C0387E192E090930D0463
:100A100080930C0410920F0410920E04D0931104D2
:100A2000C09310041092130410921204D093150472
:100A3000C093140410921704109216041093190412
:100A40000093180410921B0410921A040E940B03C6
:100A500090931B0480931A04DF91CF911F910F9103
:100A6000089560E070E080E090E0089508950895B2
:100A700085E08093BC008FEF8093BB0081E1809381
:100A8000B8001092B9000895DF93CF93CDB7DEB7C9
:100A900027970FB6F894DEBF0FBECDBF8091D40369
:100AA0009091D503833091050CF052C0AE014F5F99
:100AB0005F4F8091D4039091D503FC0133E0EE0F9A
:100AC000FF1F3A95E1F7E81BF90BDA01E15EFB4FF6
:100AD00027E001900D922150E1F7FC0123E0EE0F99
:100AE000FF1F2A95E1F7E81BF90BE15EFB4F6481DC
:100AF0002581368101969093D5038093D4032115E7
:100B0000310521F0833091052CF022C0833091050E
:100B100084F21EC02230310511F46E7F04C02130F2
:100B2000310519F461606093020210928203109201
:100B3000810389819A81AB81BC818093DB0390938F
:100B4000DC03A093DD03B093DE0321E030E002C0BC
:100B500020E030E0C90127960FB6F894DEBF0FBE43
:100B6000CDBFCF91DF9108950E944405009719F4FD
:100B70000E947B00089585EA8093BC00089510923E
:100B800084031092830381E090E09093E3038093C9
:100B9000E2031092D5031092D4030E9444050097FB
:100BA00019F085EA8093BC0008951F920F920FB64A
:100BB0000F920BB60F9211242F933F934F935F9395
:100BC0006F937F938F939F93AF93BF93EF93FF9315
:100BD0008091B90090E0887F90708033910509F48E
:100BE00069C081339105D4F48031910599F1813147
:100BF000910544F4009709F476C08830910509F016
:100C000075C028C08032910509F45CC08832910516
:100C1000A1F18831910509F069C02FC08834910590
:100C200009F450C08934910544F488339105B9F032
:100C30008034910509F05AC042C08835910509F405
:100C40004AC0883F910509F44BC08035910509F0F1
:100C50004DC033C0809102028093BB0027C085E065
:100C600090E0909384038093830385E88093BC0095
:100C70001092E3031092E20341C0809181039091AE
:100C800082032091DD033091DE038217930728F55C
:100C9000E091DB03F091DC03E80FF91F208101965E
:100CA00090938203809381032093BB0085E8809317
:100CB000BC0024C086E090E007C00E9495000E941E
:100CC00083001CC084E090E09093840380938303AE
:100CD0000E947B0013C00E9495000E94B4050EC0C4
:100CE00081E090E005C082E090E002C083E090E007
:100CF00090938403809383030E943705FF91EF91C3
:100D0000BF91AF919F918F917F916F915F914F9123
:100D10003F912F910F900BBE0F900FBE0F901F9021
:100D200018951F9340E050E020E030E00FC0DA015A
:100D3000A15EBB4FFB01E40FF51F17E001900D9280
:100D40001150E1F72F5F3F4F495F5F4F2817390779
:100D50005CF0F90143E0EE0FFF1F4A95E1F7E21B5B
:100D6000F30BEC5DFB4F09C02330310501F7F1CFE8
:100D7000118210822F5F3F4F379623303105C4F325
:100D80000E94BF051F9108950F931F93DF93CF9388
:100D9000CDB7DEB72E970FB6F894DEBF0FBECDBF2E
:100DA000FE0131969EE0DF011D929A95E9F7498395
:100DB0005A836B837C838D8342E050E05F834E8354
:100DC000088719872A873B878C8781E090E09E8778
:100DD0008D8782E090E0BF010E9491062E960FB6AB
:100DE000F894DEBF0FBECDBFCF91DF911F910F9161
:100DF0000895DF93CF93CDB7DEB727970FB6F8945A
:100E0000DEBF0FBECDBFFE01319697E0DF011D9220
:100E10009A95E9F749835A836B837C838D8381E0BC
:100E200090E09F838E83BF010E94910627960FB6A4
:100E3000F894DEBF0FBECDBFCF91DF910895DF9351
:100E4000CF93CDB7DEB727970FB6F894DEBF0FBEAE
:100E5000CDBFFE01319697E0DF011D929A95E9F72B
:100E600049835A836B837C838D8382E090E09F83E8
:100E70008E8381E090E0BF010E94910627960FB615
:100E8000F894DEBF0FBECDBFCF91DF910895F894E7
:100E90008091E2039091E30378948823C1F787E877
:100EA00093E10197F1F700C000000895FC018081F3
:100EB00091819083818308951F93182F862FBA0103
:100EC000A9010E94AF0040919B0150919C0160914B
:100ED0009D0170919E01812F0E941F071F9108950F
:100EE0000F931F93182F862FBA01A9010E94AF00FC
:100EF00040919B0150919C0160919D0170919E01D8
:100F0000812F00E010E098010E94C4061F910F910C
:100F10000895DF93CF9300D0CDB7DEB79A8389834E
:100F20009E012F5F3F4F42E050E08091820163E4D9
:100F30000E9470070E9447070F900F90CF91DF919A
:100F40000895DF93CF930F92CDB7DEB789839E01CB
:100F50002F5F3F4F41E050E08091820162E30E94A9
:100F600070070E9447070F90CF91DF910895DF939C
:100F7000CF9300D0CDB7DEB79A8389839E012F5FD0
:100F80003F4F42E050E08091820161E30E94700790
:100F90000E9447070F900F90CF91DF9108958091A5
:100FA000820160E320E030E0A9010E9470070E9406
:100FB00047070895DF93CF930F92CDB7DEB78983AC
:100FC0009E012F5F3F4F41E050E08091820165E13B
:100FD0000E9470070E9447070F90CF91DF910895FC
:100FE000DF93CF930F92CDB7DEB789839E012F5F3A
:100FF0003F4F41E050E08091820162E10E94700722
:101000000E9447070F90CF91DF910895DF93CF9310
:101010000F92CDB7DEB789839E012F5F3F4F41E02E
:1010200050E08091820161E10E9470070E944707B1
:101030000F90CF91DF910895DF93CF9300D0CDB77C
:10104000DEB79A8389839E012F5F3F4F42E050E0D5
:101050008091820160E10E9470070E9447070F9013
:101060000F90CF91DF910895DF93CF930F92CDB77B
:10107000DEB789839E012F5F3F4F41E050E08091B2
:10108000820163E00E9470070E9447070F90CF9192
:10109000DF9108958091820160E020E030E0A901B5
:1010A0000E9470070E9447070895DF92EF92FF9217
:1010B0000F931F93D82E862FBA01A9010E94AF006B
:1010C00040919B0150919C0160919D0170919E0106
:1010D0008D2D980187010E94C4061F910F91FF90EA
:1010E000EF90DF900895EF92FF920F931F93DF939D
:1010F000CF9300D0CDB7DEB78A839E012E5F3F4FDE
:1011000041E050E07E010894E11CF11C01E010E098
:101110008091820162E40E9455080E9447078981FC
:101120000F900F90CF91DF911F910F91FF90EF9053
:101130000895EF92FF920F931F93DF93CF9300D008
:101140000F92CDB7DEB78B839E012D5F3F4F41E0FD
:1011500050E07E010894E11CF11C02E010E0809157
:10116000820161E40E9455080E94470789819A81A3
:101170000F900F900F90CF91DF911F910F91FF90E3
:10118000EF900895EF92FF920F931F93DF93CF9309
:1011900000D00F92CDB7DEB79B838A839E012E5F6E
:1011A0003F4F42E050E07E010894E11CF11C01E059
:1011B00010E08091820160E40E9455080E94470778
:1011C00089810F900F900F90CF91DF911F910F9118
:1011D000FF90EF900895EF92FF920F931F93DF938C
:1011E000CF930F92CDB7DEB79C01AB017E0108947F
:1011F000E11CF11C01E010E08091820163E30E9498
:1012000055080E94470789810F90CF91DF911F9168
:101210000F91FF90EF900895EF92FF920F931F931D
:10122000DF93CF9300D000D0CDB7DEB79C838B8304
:101230009E012D5F3F4F42E050E07E010894E11C8B
:10124000F11C02E010E0809182016BE10E945508E0
:101250000E94470789819A810F900F900F900F90FD
:10126000CF91DF911F910F91FF90EF900895EF9232
:10127000FF920F931F93DF93CF9300D00F92CDB7C0
:10128000DEB78B839E012D5F3F4F41E050E07E0132
:101290000894E11CF11C02E010E0809182016AE1F7
:1012A0000E9455080E94470789819A810F900F90EC
:1012B0000F90CF91DF911F910F91FF90EF900895C4
:1012C000EF92FF920F931F93DF93CF9300D0CDB790
:1012D000DEB79C01AB017E010894E11CF11C02E029
:1012E00010E08091820169E10E9455080E94470741
:1012F00089819A810F900F90CF91DF911F910F916B
:10130000FF90EF900895EF92FF920F931F93DF935A
:10131000CF9300D000D0CDB7DEB79C838B839E01E6
:101320002D5F3F4F42E050E07E010894E11CF11C2C
:1013300002E010E08091820168E10E9455080E945D
:10134000470789819A810F900F900F900F90CF914E
:10135000DF911F910F91FF90EF900895EF92FF9210
:101360000F931F93DF93CF9300D00F92CDB7DEB7CB
:101370008B839E012D5F3F4F41E050E07E0108943A
:10138000E11CF11C02E010E08091820167E10E9403
:1013900055080E94470789819A810F900F900F90FE
:1013A000CF91DF911F910F91FF90EF900895EF92F1
:1013B000FF920F931F93DF93CF9300D00F92CDB77F
:1013C000DEB78B839E012D5F3F4F41E050E07E01F1
:1013D0000894E11CF11C02E010E08091820166E1BA
:1013E0000E9455080E94470789819A810F900F90AB
:1013F0000F90CF91DF911F910F91FF90EF90089583
:10140000EF92FF920F931F93DF93CF930F92CDB77D
:10141000DEB79C01AB017E010894E11CF11C01E0E8
:1014200010E08091820164E10E9455080E94470704
:1014300089810F90CF91DF911F910F91FF90EF90D5
:101440000895EF92FF920F931F93DF93CF9300D0F5
:10145000CDB7DEB79C01AB017E010894E11CF11C05
:1014600002E010E08091820163E10E9455080E9431
:10147000470789819A810F900F90CF91DF911F913B
:101480000F91FF90EF900895EF92FF920F931F93AB
:10149000DF93CF930F92CDB7DEB77E010894E11CA6
:1014A000F11C01E010E08091820162E020E030E078
:1014B000A9010E9455080E94470789810F90CF918A
:1014C000DF911F910F91FF90EF900895EF92FF929F
:1014D0000F931F93DF93CF9300D0CDB7DEB77E017C
:1014E0000894E11CF11C02E010E08091820161E0AF
:1014F00020E030E0A9010E9455080E944707898139
:101500009A810F900F90CF91DF911F910F91FF90D3
:10151000EF900895089580B7806880BFE4E6F0E01A
:101520008081806680830E948A0A89E393E00E941A
:101530002D1089EC93E00E942D10789408958091ED
:101540007E0190917F016FEF7FE00E94550B8FEF3E
:1015500091E1AAE781509040A040E1F700C000006F
:1015600080917E0190917F016FEF7FE00E94500B90
:1015700080910C0190910D0165E00E94F90CFFCF64
:10158000CF93DF93EC018091040190910501C8177E
:10159000D90781F480910801909109016CE271E012
:1015A0000E941A0D80917E0190917F016FEF7FE084
:1015B0000E94550B8091060190910701C817D90729
:1015C00081F480910A0190910B016CE271E00E941C
:1015D0001A0D80917E0190917F016FEF7FE00E9454
:1015E000500B8091000190910101C817D90781F437
:1015F00080910E0190910F016CE271E00E941A0D32
:1016000080918001909181016FEF7FE00E94550BE6
:101610008091020190910301C817D90781F480914C
:101620000C0190910D016CE271E00E941A0D809105
:101630008001909181016FEF7FE00E94500BDF915C
:10164000CF910895EF92FF920F931F93CF93DF9363
:10165000EC018B017A018E859F850E9410031F8308
:101660000E83F986E8868A859B85009739F4CE013A
:101670000E94A70481E090E09B878A878E859F85E2
:101680000E941E03DF91CF911F910F91FF90EF9069
:10169000089560E070E042E050E00E94220B08955F
:1016A00041E050E00E94220B089540E050E00E948B
:1016B000220B08950F931F93CF93DF93EC018B01BF
:1016C0006115710519F40E94490B0DC0CB010E94F0
:1016D0006E0EBC01412F4095441F4427441FCE018C
:1016E00050E00E94220BDF91CF911F910F9108953E
:1016F000CF93DF93EC018E859F850E941003488570
:1017000059858A819B816E817F812C853D85EC8105
:10171000FD81E417F50741F082179307C0F45D835C
:101720004C8360E070E016C08617970750F4AB0159
:10173000481B590B4217530768F0B901680F791F0E
:1017400009C0AC01461B570B4217530718F0BC01E8
:10175000621B730B7B836A834C815D8188819981D5
:101760000E94EF0D2E813F818A819B8128173907C6
:1017700061F4288539858C819D812817390729F4E2
:10178000CE010E94A2041B861A868E859F850E9428
:101790001E03DF91CF910895803218F5582F56958A
:1017A00056955695E52FF0E0EE0FFF1FEE51FE4FD8
:1017B0000190F081E02D4081877021E030E0B90197
:1017C00002C0660F771F8A95E2F7462B408380910F
:1017D000680002C0220F331F5A95E2F7822B8093D4
:1017E000680008958032C0F4E82FE695E695E69506
:1017F000F0E0EE0FFF1FEE51FE4F0190F081E02D63
:101800009081877021E030E002C0220F331F8A955B
:10181000E2F7209529232083089507C0E7E8F3E144
:101820003197F1F700C0000001970097B9F70895CC
:101830008FEF94E3ACE081509040A040E1F700C00E
:1018400000000895FC018081918161E070E00E94B8
:10185000ED0E0895FC018081918160E070E00E94AE
:10186000ED0E0895FC01808191810E94ED0E089596
:10187000AF92BF92CF92DF92EF92FF920F931F939E
:10188000CF93DF936C015B01DC0112960C911297F0
:1018900010E080E190E0801B910BC1E0D0E002C03D
:1018A000CC0FDD1F8A95E2F7015010407801EE0C55
:1018B000FF1C17C0D601ED91FC91EE0DFF1D0190AC
:1018C000F081E02DBE016A217B21808191810E94FF
:1018D000ED0ECC0FDD1F01501040EEEFFFEFEE0ECE
:1018E000FF1EFFEF0F3F1F0729F7DF91CF911F91D9
:1018F0000F91FF90EF90DF90CF90BF90AF90089541
:10190000EF92FF920F931F93CF93DF938C01DC0133
:101910001296EC901297FF24C0E0D0E00DC0CE01EB
:10192000880F991FD801ED91FC91E80FF91F808174
:1019300091810E94220C2196CE15DF0584F3DF9160
:10194000CF911F910F91FF90EF900895EF92FF922A
:101950000F931F93CF93DF938C01DC011296EC90D1
:101960001297FF24C0E0D0E00DC0CE01880F991F70
:10197000D801ED91FC91E80FF91F808191810E94BF
:101980002A0C2196CE15DF0584F3DF91CF911F91AC
:101990000F91FF90EF900895CF92DF92FF920F93F7
:1019A0001F93DF93CF930F92CDB7DEB76C018B01FE
:1019B000FF240EC0C601B80149830E94380C0E9462
:1019C000180CC6010E94A60C0E94180CF3944981C1
:1019D000F41680F30F90CF91DF911F910F91FF903C
:1019E000DF90CF900895462F6FEF7FEF0E94CC0CD1
:1019F0000895EF92FF921F93DF93CF930F92CDB78D
:101A0000DEB77C0110E00DC0C70169830E94220C83
:101A10000E94180CC7010E942A0C0E94180C1F5F1C
:101A20006981161788F30F90CF91DF911F91FF9076
:101A3000EF9008950F931F93CF93DF93EC018B01E9
:101A40000E94220CC8010E940D0CCE010E942A0C9B
:101A5000DF91CF911F910F9108950F931F93CF9313
:101A6000DF93EC018A010E94380CC8010E940D0C22
:101A7000CE010E94A60CDF91CF911F910F91089586
:101A8000AB016FEF7FEF0E942D0D0895AF92BF92D3
:101A9000CF92DF92EF92FF920F931F93DF93CF933A
:101AA0000F92CDB7DEB78C017B01CB016CED75E0F9
:101AB00049830E94400D4981B42EAA24C801B50172
:101AC00043E00E94CC0CF801D280FD2DF83078F470
:101AD000C7016CEB72E00E94400DB50102C0660FB9
:101AE000771FDA94E2F7C80143E00E94CC0C0F9014
:101AF000CF91DF911F910F91FF90EF90DF90CF90EA
:101B0000BF90AF900895CF93DF93EC018B819C81C0
:101B10000E946410888181FD03C060E070E002C013
:101B20006FEF7FEF8D819E816817790708F4BC0104
:101B30008B819C812F8138852617370708F4B901DE
:101B40000E946910888183FF08C089819A810E9460
:101B5000DE0E89859A850E94DE0EDF91CF91089571
:101B6000FC01838194810E94901008950F931F932C
:101B7000CF93DF93EC01288189819A8123FF12C0E2
:101B80000E94F60E8C0189859A850E94F60E011539
:101B9000110519F00097E9F002C00097E9F422E07E
:101BA00030E011C00E94F60E9C018230910559F080
:101BB000888182FF08C081E090E02115310511F095
:101BC00080E090E09C01C901DF91CF911F910F91BE
:101BD000089521E030E0ECCF20E030E0E9CF0F9332
:101BE0001F93CF93DF93EC018B01BA014230510573
:101BF00019F00115110521F4CE010E94830D3EC09C
:101C0000288122FF08C081E090E04115510511F0C4
:101C100080E090E0BC0123FF13C089819A8161308C
:101C2000710539F40E94D00E89859A850E94DE0ED6
:101C30000BC00E94DE0E89859A850E94D00E04C0DA
:101C400089819A810E94ED0E888181FF02C00095F2
:101C500010958D819E810817190708F48C018B81DE
:101C60009C812F813885B8012017310708F4B9010C
:101C70000E9469108B819C810E945510DF91CF9149
:101C80001F910F91089541E050E00E94EF0D0895DB
:101C900040E050E00E94EF0D08950F931F93CF9303
:101CA000DF938C010E94B60DEC018230910571F03A
:101CB000F801838194810E9490109C0136952795AC
:101CC000209731F4309521953F4F02C020E030E05D
:101CD000C901DF91CF911F910F910895282F392FBE
:101CE00037FF03C0309521953F4F220F331FC901A5
:101CF00008950F931F93CF93DF93EC018B01611530
:101D0000710519F40E94830D0DC0CB010E946E0E67
:101D1000BC01412F4095441F4427441FCE0150E091
:101D20000E94EF0DDF91CF911F910F910895DC017B
:101D30001496ED91FC9115978FEF80830895DC0147
:101D40001496ED91FC91159710820895DC01ED91A8
:101D5000FC9111970480F581E02D808112969C9171
:101D60001297892B80830895DC01ED91FC911197E6
:101D70000480F581E02D908112968C9112978095C8
:101D8000892380830895DC01ED91FC911197608394
:101D90000895DC011296ED91FC91139780810895CE
:101DA000DC01ED91FC9111970190F081E02D808193
:101DB00012969C911297892B80830895DC01ED91F6
:101DC000FC9111970190F081E02D908112968C91F9
:101DD000129780958923808308956115710519F004
:101DE0000E94D00E08950E94DE0E0895FC01A0818D
:101DF000B18112960D90BC91A02D8C919281892376
:101E000021E030E011F420E030E0C9010895FC0148
:101E10006430710548F4DB01A651BE4F2C9162512C
:101E20007E4FDB013C9102C030E020E0848195814F
:101E3000009721F4330F330F220F220FA081B181BD
:101E400011960D90BC91A02D8C91832B8C930190B9
:101E5000F081E02D0180F281E02D80812095282302
:101E600020830895FC01808190E08270907064303E
:101E7000710571F16530710568F461307105F9F033
:101E800061307105D8F162307105E1F063307105A0
:101E9000A1F41BC06730710521F16830710538F479
:101EA00065307105C1F06630710539F417C06830CE
:101EB0007105D1F069307105E1F090E01DC091E04D
:101EC00086E027C092E085E024C00097E9F42DC0A9
:101ED0000097B9F019C00097D1F427C00097A1F07E
:101EE00005C00097A1F007C00097F9F496E081E0E3
:101EF00010C00097D1F497E080E00BC090E087E03D
:101F000008C093E084E005C094E083E002C095E05F
:101F100082E0A381B4812C91292B2C930380F4813E
:101F2000E02D90818095892380830895FC01808134
:101F300082FF37C06330710531F16430710540F4C0
:101F40006130710509F457C06230710580F40BC02F
:101F50006530710581F065307105C8F06630710536
:101F600009F07AC01CC090E030E088E147C098E0FA
:101F700031E080E13EC084FD43C085FF45C098E06C
:101F800033E080E14CC090E031E088E132C084FD74
:101F90003FC085FF41C090E033E088E140C090E160
:101FA00022C062307105D1F06330710540F46115D3
:101FB000710581F06130710509F04EC032C06430A6
:101FC0007105A1F06430710568F06530710509F0A4
:101FD00043C006C090E030E088E010C090E01DC033
:101FE00098E013C090E031E088E003C098E031E071
:101FF00080E022E01AC098E030E080E123E015C0E4
:1020000098E032E080E110C098E133E080E007C062
:1020100090E032E088E108C090E133E088E020E021
:1020200004C090E032E088E021E0A181B2814C91CF
:10203000432B4C93A181B2813C91209523232C9377
:10204000A381B4812C91292B2C930380F481E02D62
:1020500090818095892380830895DC01ED91FC9126
:1020600011970580F681E02D208114968D919C9129
:102070001597009711F482E001C084E0822B8083E1
:102080000895DC01ED91FC9111970580F681E02D1A
:10209000208114968D919C911597009711F48DEFE6
:1020A00001C08BEF822380830895CF93DF93EC01EF
:1020B0008E819F810E94A60ECE0163E070E00E9497
:1020C000070FDF91CF91089560E070E00E94070F45
:1020D0000895FC01A081B1818C9182FF1CC09FB743
:1020E00084FF06C0660F672F661F770B719507C0C8
:1020F00085FF05C086E0769567958A95E1F7F894A7
:10210000A281B38111967C9311970280F381E02D17
:1021100060839FBF08950280F381E02D708308954E
:10212000FC01A081B1818C9182FF1CC08FB7F89413
:10213000A281B3812D913C9111978FBF0190F081C5
:10214000E02D808184FF06C03695322F22273795F7
:1021500027950EC085FF0CC046E0220F331F4A951D
:10216000E1F706C00280F381E02D8081382F20E066
:10217000C901089583B7816083BF83B7817F83BF1F
:102180007894889508950E94BA10FDCFCF93DF937D
:102190008230910510F482E090E0E0915204F091D9
:1021A000530440E050E020E030E026C060817181BF
:1021B00068177907E0F06817790781F482819381C5
:1021C0002115310531F0D90113969C938E93129706
:1021D0002BC0909353048093520426C0411551059F
:1021E00019F06417750718F4AB01E901DF019F01CD
:1021F00072816381E72FF62F3097C1F641155105A3
:1022000001F1481B590B4430510580F412968D9111
:102210009C911397209719F09B838A8304C0909315
:10222000530480935204FD01329646C0FD01E40F31
:10223000F51F819391934250504011965C934E93B9
:102240003BC020915004309151042115310541F4D7
:102250002091F4013091F501309351042093500402
:102260002091F6013091F7012115310541F42DB788
:102270003EB74091F2015091F301241B350BE091E0
:102280005004F0915104E217F307A0F42E1B3F0B0A
:102290002817390778F0AC014E5F5F4F24173507D8
:1022A00048F04E0F5F1F50935104409350048193A8
:1022B000919302C0E0E0F0E0CF01DF91CF9108956B
:1022C000CF93DF93009709F491C0FC0132971382FA
:1022D000128260915204709153046115710581F46A
:1022E00020813181280F391F809150049091510431
:1022F0008217930799F5F0935104E093500476C048
:10230000DB0180E090E002C0CD01D901AE17BF072C
:1023100048F412962D913C91139721153105A1F7A0
:10232000CD0121C0B383A283EF01499159919E0150
:10233000240F351FA217B30779F42D913C91119703
:10234000240F351F2E5F3F4F3183208312962D912E
:102350003C91139733832283009729F4F09353041D
:10236000E093520443C0DC011396FC93EE93129762
:102370004D915D91A40FB51FEA17FB0769F4208109
:102380003181240F351F2E5F3F4FEC0139832883A5
:10239000228133813B832A83E0E0F0E002C0FB012D
:1023A000BC01DB0112968D919C9113970097B9F7B0
:1023B0009B012E5F3F4F8D919C911197820F931F30
:1023C00040915004509151044817590779F43097BF
:1023D00029F4109253041092520402C01382128204
:1023E000225030403093510420935004DF91CF911C
:1023F0000895FB01DC0102C001900D924150504054
:0E240000D8F708950E94C3100895F894FFCFF6
:10240E0013020602F403300229022B020104D60342
:10241E003F042302EA034504E7030604B803360328
:10242E000304DF0372030302260288037803F80312
:10243E0085032D021C04FB03D80342048B039E0369
:10244E007E030D0250036F0310027503C6032002B4
:10245E00530334023404BB03E403D103B503FE0378
:10246E000A02ED034903590360034804670341035D
:10247E00A4033704BE033903C903AC0317028E034A
:10248E000C04162B0201042902D603D603010429DB
:10249E00022B0229022B020104D6033702FF0093FE
:1024AE0001048F01028B0102870102830102049055
:1024BE00009100710002B000B10070000480008134
:1024CE00006F0000440045006E002B0029002A001A
:1024DE0028002600270025002300240022002000CB
:1024EE0021006B006C006D00730030200010001096
:0824FE0030202000540400000E
:00000001FF
