:1000000045C0000078C30000A9C300005CC0000028
:100010005AC0000058C0000056C0000054C0000084
:1000200052C0000050C000004EC000004CC0000094
:100030004AC0000005C300002BC3000044C00000FC
:1000400042C0000040C000003EC000003CC00000B4
:10005000DBC3000010C4000036C0000034C0000044
:100060003CC1000030C000002EC000002CC00000C9
:100070002AC0000028C0000026C0000024C00000E4
:1000800022C0000020C000001EC0000011241FBEBE
:10009000CFEFD0E4DEBFCDBF11E0A0E0B1E0EAE3F6
:1000A000F9E000E00BBF02C007900D92AC30B10741
:1000B000D9F711E0ACE0B1E001C01D92AB34B1075B
:1000C000E1F702D038C49CCFDF92EF92FF920F93FA
:1000D0001F93CF93DF9384B18F6084B980E895E25A
:1000E00070D38ED303D2FCD217D2E0D088B1806F08
:1000F00088B9249A46C0A1E0823009F0A0E086B118
:100100008295869586958370813009F453C0E1E02D
:10011000823009F0E0E0AF5FBB27A7FDB095AA0FE2
:10012000BB1FA050BF4FCD91DC91EF5FFF27E7FDD4
:10013000F095EE0FFF1FEA5FFE4F00811181CE01A7
:10014000FFD1C8013DD2209719F401151105C1F165
:1001500061E01C161D0694F581E0A5D161E0101642
:10016000110654F582E09FD17E016F2D661F662730
:10017000661F80E098D1612F661F6627661F83E0A7
:1001800092D1789486B190E0807390709595879520
:10019000959587959595879595958795813009F0E3
:1001A000AACFAFEF86B18295869586958370813010
:1001B00009F0ADCFEFEFAFCF60E0D4CF60E0CCCFB0
:1001C00087E893E10197F1F700C0000088E078D05C
:1001D0008C0185E075D008521040081B190B89E08E
:1001E0006FD0EC0186E06CD07E01E81AF90AE701D5
:1001F000CC0FDD1FCE0DDF1DD695C795D695C795C3
:10020000EC978AE05DD07C0187E05AD028ED3FEF83
:10021000E20EF31EE81AF90A17FD45C0D7FD40C0EB
:10022000F7FC3BC031E00D321307ACF59801220F0B
:10023000331FCE018E0D9F1D61E0821793070CF0D6
:1002400060E08DE2E81681E0F80614F5C701880F3A
:10025000991FC00FD11FDD24D394C817D9070CF004
:10026000DD24043611050CF460E094E6E916F1048F
:100270000CF4DD2481E017D182E06D2D14D169B139
:10028000647080E010D169B1687083E00CD179CFDF
:10029000DD24D394E6CF61E0D4CFEE24FF24C2CF97
:1002A000C0E0D0E0BDCF00E010E0B8CF80912301E6
:1002B0008160809323018FEE80937A00249A0895C1
:1002C0002FB7F894E82FF0E0EE0FFF1FE35FFE4F2B
:1002D000808191812FBF089508951F920F920FB6CC
:1002E0000F920BB60F9211242F933F934F935F936E
:1002F0006F937F938F939F93AF93BF93EF93FF93EE
:1003000020910C018091780090917900253009F4BA
:10031000BCC0263070F1283009F498C0293008F0AC
:100320004BC0263009F49CC0273009F494C02F5FDD
:1003300020930C012B3070F110920C0181E480931A
:100340007C0080910C01882309F4C6DFFF91EF91B6
:10035000BF91AF919F918F917F916F915F914F91DD
:100360003F912F910F900BBE0F900FBE0F901F90DB
:100370001895223009F484C0233050F1233009F459
:1003800060C02430A1F690931801809317012F5F6D
:1003900020930C01253009F448C0263020F5223086
:1003A00009F449C02330A0F5213041F682E480935E
:1003B0007C0080910C01C7CF293009F45CC02A3041
:1003C00009F0B5CF90932201809321012C9AAFCFF1
:1003D000222309F44BC0213009F0A9CF90931001DA
:1003E00080930F01D4CF2830C1F02930E0F42630BB
:1003F00049F0273009F0A2CF85E480937C008091FA
:100400000C01A1CF8EE580937C0080910C019BCFE5
:10041000233091F3243009F091CF86E480937C005F
:1004200080910C0190CF2930A9F587E480937C005E
:1004300080910C0188CF83E480937C0080910C0133
:1004400082CF9093140180931301A1CF90931E014A
:1004500080931D019CCF909316018093150197CF37
:1004600090931C0180931B012C9861CF90930E01F7
:1004700080930D018CCF9093200180931F0187CF33
:10048000909312018093110182CF90931A0180936F
:1004900019017DCF2A3009F051CF80E480937C0090
:1004A00080910C0150CF662349F08130A9F0813052
:1004B00078F08230B9F0833099F00895813071F08E
:1004C000813040F0823081F08330B9F72B98089565
:1004D000289A089528980895299A089529980895A2
:1004E0002B9A08952A9A08952A98089580912301B5
:1004F0008260809323018BB1806F8BB98AB1806F4A
:100500008AB982EF8093800081E080938100EFE6DA
:10051000F0E08081808308958FB7F89410922601CF
:100520001092250110922801109227011092890043
:100530001092880010928B0010928A008FBF08954D
:10054000282F392F37FD33C0C9019595879522E0B3
:100550008030920784F42EEF813092075CF58FEFA4
:1005600091E090932601809325015E9B1BC08091B2
:10057000240182700BC08FEF91E09093260180934D
:1005800025015E990FC08091240181608093240130
:10059000109289001092880080916F008260809391
:1005A0006F000895909389008093880008952F5FCD
:1005B0003F4FCACF97FFE1CF909581959F4FD1CF05
:1005C000282F392F37FD2FC0C9019595879522E037
:1005D00080309207DCF42EEF813092075CF58FEFCC
:1005E00091E090932801809327015F9917C0809133
:1005F000240182608093240110928B0010928A0063
:1006000080916F00846080936F0008958FEF91E078
:1006100090932801809327015F9908C090938B00E5
:1006200080938A0008952F5F3F4FCECF80912401A1
:100630008170E0CF97FFECCF909581959F4FD1CF00
:100640001F920F920FB60F9211248F939F934D9B81
:1006500016C08BB18F7B9091240190FD17C090E064
:10066000892B8BB980912501909126019093890067
:100670008093880080916F008D7F80936F009F91A1
:100680008F910F900FBE0F901F90189590E4E8CFB8
:100690001F920F920FB60F9211248F939F934C9B32
:1006A00016C08BB18F779091240191FD17C090E017
:1006B000892B8BB9809127019091280190938B0011
:1006C00080938A0080916F008B7F80936F009F9151
:1006D0008F910F900FBE0F901F90189590E8E8CF64
:1006E000E9E6F0E080818F6080838DB383608DBB0D
:1006F0005E9A5F9808951F920F920FB60F92112481
:100700008F939F935E9915C08091290181508093AA
:10071000290180912A0190912B01019790932B013F
:1007200080932A019F918F910F900FBE0F901F9081
:100730001895809129018F5F8093290180912A016A
:1007400090912B01019690932B0180932A019F9108
:100750008F910F900FBE0F901F9018951F920F92C0
:100760000FB60F9211248F939F935F9915C08091BC
:100770002E018F5F80932E0180912C0190912D018D
:10078000019690932D0180932C019F918F910F9052
:100790000FBE0F901F90189580912E01815080936D
:1007A0002E0180912C0190912D01019790932D01A4
:1007B00080932C019F918F910F900FBE0F901F90EF
:1007C00018959C0140E050E0220F331F441F551F35
:1007D000220F331F441F551F220F331F441F551F65
:1007E000220F331F441F551F60E07DE281E391E03B
:1007F00080D0215030403093C5002093C40008952C
:1008000088EB8093C10008951F920F920FB60F924C
:100810000BB60F9211248F939F93EF93FF939091B8
:10082000C600809130018830B9F0E0913001F0E0ED
:10083000EE5BFE4F9083809130018F5F809330019B
:1008400080913001883010F0109230019091300189
:1008500080913101981759F0FF91EF919F918F91FD
:100860000F900BBE0F900FBE0F901F90189588E051
:1008700080933001F1CF1F920F920FB60F920BB6FB
:100880000F9211248F939F93EF93FF9390912F01D9
:1008900080914A01981711F1E0912F01F0E0EE5C90
:1008A000FE4F908180914A018031F1F080912F01BB
:1008B0008F5F80932F0180912F01803110F0109273
:1008C0002F019093C600FF91EF919F918F910F9010
:1008D0000BBE0F900FBE0F901F9018958091C10016
:1008E0008F7D8093C100EFCF80912F0180934A01CB
:1008F000DDCFA1E21A2EAA1BBB1BFD010DC0AA1F52
:10090000BB1FEE1FFF1FA217B307E407F50720F078
:10091000A21BB30BE40BF50B661F771F881F991FF3
:100920001A9469F760957095809590959B01AC013C
:0A093000BD01CF010895F894FFCF38
:0C093A00E0FC00002003E0FC00002003B3
:00000001FF
