:100000000C9446000C9473000C9473000C947300D1
:100010000C9473000C9473000C9473000C94730094
:100020000C9473000C9473000C9473000C94730084
:100030000C9473000C9473000C9473000C94730074
:100040000C9473000C9473000C9473000C94730064
:100050000C9473000C9473000C9473000C94730054
:100060000C9473000C9473000C9473000C94730044
:100070000C9473000C9473000C9473000C94730034
:100080000C9463040C9473000C94730011241FBE31
:10009000CFEFD0E4DEBFCDBF12E0A0E0B1E0E2ECF4
:1000A000F5E100E00BBF02C007900D92A831B10747
:1000B000D9F713E0A8E1B2E001C01D92A03CB1075E
:1000C000E1F70E9484000E948C000E94D1010E94EE
:1000D0003E020E949C020E9435040E94DA040E94A3
:1000E00026050C94DC0A0C940000EAE7F0E080811D
:1000F000806880830895EAE7F0E080818F778083CD
:1001000008950E947A09089584B78093180214BE56
:100110000895809118020895AFEBB2E0E3E0F2E0B9
:1001200086E001900D928150E1F7ACEBB2E0E0E0A7
:10013000F2E083E001900D928150E1F7A3E1B3E09A
:10014000EDEFF1E083E001900D928150E1F7A4E939
:10015000B2E0EAEFF1E083E001900D928150E1F727
:10016000A7EAB2E0E7EFF1E083E001900D92815061
:10017000E1F7ABE5B2E0E4EFF1E083E001900D924E
:100180008150E1F7ACE8B2E0E1EFF1E083E001900B
:100190000D928150E1F7A6E0B3E0EEEEF1E083E0EE
:1001A00001900D928150E1F7A8ECB2E0EBEEF1E0A6
:1001B00083E001900D928150E1F7A9E1B3E0E5EE13
:1001C000F1E086E001900D928150E1F7A0EBB2E002
:1001D000E2EEF1E083E001900D928150E1F7A6E1BB
:1001E000B3E0EFEDF1E083E001900D928150E1F793
:1001F000A8E3B2E0ECEDF1E083E001900D928150D4
:10020000E1F7A5ECB2E0E9EDF1E083E001900D92B9
:100210008150E1F7A5EDB2E0E6EDF1E083E0019079
:100220000D928150E1F7A9E7B2E0E3EDF1E083E060
:1002300001900D928150E1F7ABE3B2E0E0EDF1E027
:1002400083E001900D928150E1F7A6E7B2E0EDEC7A
:10025000F1E083E001900D928150E1F7A3EBB2E071
:10026000E7ECF1E086E001900D928150E1F7A3EE1A
:10027000B2E0E4ECF1E083E001900D928150E1F70F
:10028000ADEAB2E0E1ECF1E083E001900D92815043
:10029000E1F7ADEDB2E0EEEBF1E083E001900D921D
:1002A0008150E1F7ACE6B2E0EBEBF1E083E00190E6
:1002B0000D928150E1F7A8E5B2E0E8EBF1E083E0D0
:1002C00001900D928150E1F7AAEAB2E0E5EBF1E08E
:1002D00083E001900D928150E1F7ACE9B2E0E2EBEE
:1002E000F1E083E001900D928150E1F7AEE2B2E0DF
:1002F000EFEAF1E083E001900D928150E1F7A4E88C
:10030000B2E0E9EAF1E086E001900D928150E1F778
:10031000ACE4B2E0E6EAF1E083E001900D928150B6
:10032000E1F7A1E6B2E0E3EAF1E083E001900D92AB
:100330008150E1F7A9E4B2E0E0EAF1E083E0019066
:100340000D928150E1F7A7E9B2E0EDE9F1E083E039
:1003500001900D928150E1F7ABEFB2E0EAE9F1E0F4
:1003600083E001900D928150E1F7A0EEB2E0E7E961
:10037000F1E083E001900D928150E1F7A0E1B3E05C
:10038000E4E9F1E083E001900D928150E1F7A6EEFF
:10039000B2E0E1E9F1E083E001900D928150E1F7F4
:1003A0000895AFE6B2E0EAE8F1E087E001900D924F
:1003B0008150E1F7A9E0B3E0E3E8F1E087E00190E4
:1003C0000D928150E1F7ABECB2E0ECE7F1E087E0B1
:1003D00001900D928150E1F7A1E3B2E0E5E7F1E091
:1003E00087E001900D928150E1F7AFE9B2E0EDE6D0
:1003F000F1E088E001900D928150E1F7AEEFB2E0BC
:10040000E5E6F1E088E001900D928150E1F7AEE37E
:10041000B2E0EDE5F1E088E001900D928150E1F766
:10042000A3EFB2E0E5E5F1E088E001900D928150A4
:10043000E1F7ACE7B2E0EDE4F1E088E001900D9285
:100440008150E1F7ABEEB2E0E5E4F1E088E0019045
:100450000D928150E1F7A4E6B2E0EDE3F1E088E02F
:1004600001900D928150E1F7A6E2B2E0E5E3F1E000
:1004700088E001900D928150E1F7089580EB92E0C1
:1004800090932502809324020E94490586E193E01F
:1004900090932302809322020E94490588E392E010
:1004A00090938B0280938A020E94490585EC92E02A
:1004B0009093EA028093E9020E944905AEE5B2E01A
:1004C000E2E3F1E083E001900D928150E1F7A6E4D0
:1004D000B2E0EFE2F1E083E001900D928150E1F7AC
:1004E000A5E5B2E0ECE2F1E083E001900D928150ED
:1004F000E1F7A2EDB2E0E9E2F1E083E001900D92D4
:100500008150E1F7A9EBB2E0E6E2F1E083E001908F
:100510000D928150E1F70895CF93DF93EC018B8129
:100520009C8160E070E00E94090789819A810E94A5
:100530004905DF91CF910895AFE8B2E0E1E2F1E043
:1005400085E001900D928150E1F78FE892E00E94E2
:100550008C02A8EDB2E0ECE1F1E085E001900D92B3
:100560008150E1F788ED92E00E948C0208958FEFB0
:1005700090E42091180130911901821B930B909304
:1005800016028093150210921202109211026091CD
:10059000190270E06E5F7F4F81E090E00E947D095C
:1005A000FC01009719F01182108202C0E0E0F0E037
:1005B000F0931B02E0931A020895AF92BF92CF927C
:1005C000DF92EF92FF920F931F93DF93CF9300D0B0
:1005D000CDB7DEB7D82EC92E7B015A01CA0161E022
:1005E00070E029830E947D098C0129810097B1F177
:1005F000A50141505040480F591F81E890E0FA0191
:10060000808331979083FA013297D082FA01339731
:10061000C082622F70E06E5F7F4F81E090E049837F
:100620005A830E947D099C0149815A81009749F0B3
:10063000CA018697F90191838083E114F10431F4B2
:1006400004C0C8010E943C0A09C07901FA017E97E2
:10065000E0824F515040FA01F08202C020E030E0C9
:10066000C9010F900F90CF91DF911F910F91FF90D3
:10067000EF90DF90CF90BF90AF9008954091180118
:100680005091190120E00E94DD02089560E070E0C1
:100690000E943E0308950F920FB6F8940F920BB686
:1006A0000F921F9211242F923F924F925F926F925E
:1006B0007F928F929F92AF92BF92CF92DF92EF92F2
:1006C000FF920F931F932F933F934F935F936F93DB
:1006D0007F938F939F93AF93BF93CF93DF93EF93CA
:1006E000FF93DC010DB60D920EB60D92DB010D905D
:1006F0000DBE0D900EBEFF91EF91DF91CF91BF9196
:10070000AF919F918F917F916F915F914F913F91A9
:100710002F911F910F91FF90EF90DF90CF90BF909E
:10072000AF909F908F907F906F905F904F903F9091
:100730002F901F900F900BBE0F900FBE0F9008953B
:1007400080911A0290911B020895BC0180911A02B7
:1007500090911B0270931B0260931A020E944B033C
:100760000895CF93DF93EA012A5F0E94DD02FC0126
:100770000097E9F0DC01149680911A0190911B0119
:1007800095838483019690931B0180931A0113969D
:10079000DC93CE93129727E230E02C1B3D0B808137
:1007A0009181820F931F15969C938E931497CF017E
:1007B000DF91CF910895409118015091190120E0E7
:1007C0000E94B103089560E070E00E94DB03089589
:1007D000CF93DF93EC0180911A0290911B02C8170E
:1007E000D90769F0FE0134968C819D81009721F034
:1007F000848195810E943C0ACE010E943C0ADF91CF
:10080000CF910895FC0186810895FC0120853185F2
:1008100080819181281B390BC9010895FC018481D5
:10082000958108959C01285D3F4FC90108958091ED
:1008300019028A5F809319020E94B702A0911A02DE
:10084000B0911B02FD01349615961C921E921497CE
:1008500080911801909119019383828380911502F0
:1008600090911602958384830895CF93DF93C1E31B
:10087000D2E0CE0161E070E00E943A0684E692E0A8
:100880006CEC70E00E940907CE0162E070E00E940B
:10089000D605DF91CF91089584E692E00E94E106AB
:1008A000789408950895CF93DF93EC010E946A072E
:1008B0009C01009721F4CE010E9414099C01C901FA
:1008C000DF91CF9108950F920FB6F8940F920BB667
:1008D0000F921F9211242F923F924F925F926F922C
:1008E0007F928F929F92AF92BF92CF92DF92EF92C0
:1008F000FF920F931F932F933F934F935F936F93A9
:100900007F938F939F93AF93BF93CF93DF93EF9397
:10091000FF9380911C0290911D02A0911E02B09144
:100920001F020196A11DB11D80931C0290931D0210
:10093000A0931E02B0931F02A0911A02B0911B0255
:100940000DB60D920EB60D9281E090E00E94530418
:1009500090931B0280931A02009711F40E947A0967
:10096000DC010D900DBE0D900EBEFF91EF91DF9159
:10097000CF91BF91AF919F918F917F916F915F9137
:100980004F913F912F911F910F91FF90EF90DF902A
:10099000CF90BF90AF909F908F907F906F905F901F
:1009A0004F903F902F901F900F900BBE0F900FBE57
:1009B0000F90189580B7806880BFE4E6F0E08081F2
:1009C00080668083E0E6F0E080E18083808185605E
:1009D00080830E94170483E090E00E945A090E94DD
:1009E00002050E944C040895FC012081318142815E
:1009F00053812F5F3F4F4F4F5F4F2083318342839F
:100A00005383F3CF0F931F93CF93DF930E94650916
:100A10009093200380931F0301E213E0C1E0D0E034
:100A2000AE01495B5C4F84EF94E065E070E00E94AA
:100A3000EE08F801819391938F012196C431D1057D
:100A400079F7DF91CF911F910F910895809147031E
:100A500090914803A0914903B0914A030196A11DCA
:100A6000B11D8093470390934803A0934903B0932B
:100A70004A03ECCFDC011496ED91FC9115978FEFB2
:100A800080830895DC011496ED91FC9115971082F6
:100A90000895DC01ED91FC9111970480F581E02D22
:100AA000808112969C911297892B80830895DC0196
:100AB000ED91FC9111970480F581E02D90811296C3
:100AC0008C9112978095892380830895DC01ED91A4
:100AD000FC91119760830895DC011296ED91FC91D1
:100AE000139780810895DC01ED91FC91119701909D
:100AF000F081E02D808112969C911297892B808342
:100B00000895DC01ED91FC9111970190F081E02DA9
:100B1000908112968C9112978095892380830895F5
:100B20006115710519F00E94730508950E948105F1
:100B30000895FC01A081B18112960D90BC91A02D69
:100B40008C919281892321E030E011F420E030E0A3
:100B5000C9010895FC016430710548F4DB01A75F09
:100B6000BD4F2C91635F7D4FDB013C9102C030E0B3
:100B700020E0848195818130910521F43695369568
:100B800026952695A081B18111960D90BC91A02D3E
:100B90008C91832B8C930190F081E02D0180F28168
:100BA000E02D80812095282320830895FC018081F9
:100BB00090E0827090706430710571F1653071055C
:100BC00068F461307105F9F061307105D8F1623077
:100BD0007105E1F063307105A1F41BC06730710548
:100BE00021F16830710538F465307105C1F0663067
:100BF000710539F417C068307105D1F0693071059D
:100C0000E1F090E01DC091E086E027C092E085E031
:100C100024C00097E9F42DC00097B9F019C00097DF
:100C2000D1F427C00097A1F005C00097A1F007C03C
:100C30000097F9F496E081E010C00097D1F497E0B6
:100C400080E00BC090E087E008C093E084E005C03E
:100C500094E083E002C095E082E0A381B4812C910E
:100C6000292B2C930380F481E02D9081809589239A
:100C700080830895FC01808182FF54C06530710536
:100C8000B9F166307105B0F46230710569F1633015
:100C9000710540F46115710519F16130710509F0B4
:100CA0008FC06EC06330710529F16430710509F0A1
:100CB00087C024C06830710529F16930710540F49E
:100CC0006630710539F16730710509F079C026C0C9
:100CD00069307105D9F06A30710509F071C010C032
:100CE00090E030E088E14FC098E031E080E146C01C
:100CF00098E13AC090E031E088E140C090E12FC037
:100D000090E136C098E032E080E142C098E033E004
:100D100080E127C090E032E088E13AC090E033E023
:100D200088E11FC062307105C9F06330710540F47D
:100D30006115710579F06130710509F041C025C078
:100D400064307105C1F06430710588F0653071055B
:100D5000B9F509C090E030E088E015C090E033E0DC
:100D600088E020E016C098E033E080E0FACF90E021
:100D700031E088E003C098E031E080E022E009C083
:100D800098E030E080E123E004C090E032E088E0C9
:100D900021E0A181B2814C91432B4C93A181B2817E
:100DA0003C91209523232C93A381B4812C91292B52
:100DB0002C930380F481E02D90818095892380839A
:100DC0000895DC01ED91FC9111970580F681E02DED
:100DD000208114968D919C911597009711F482E0D3
:100DE00001C084E0822B80830895CF93DF93EC01D0
:100DF0008E819F810E944905CE0161E070E00E94D2
:100E0000AA05DF91CF91089560E070E00E94AA05E5
:100E10000895FC01A081B1818C9182FF0DC08FB734
:100E2000F894A281B38111967C9311970280F3818B
:100E3000E02D60838FBF08950280F381E02D7083E1
:100E40000895FC01A081B1818C9182FF09C02FB768
:100E5000F8940280F381E02D808191812FBF089565
:100E60000280F381E02D908180E00895EF92FF925F
:100E7000CF93DF930E941204E82EE7017E01F92E42
:100E8000E701E981FA8109951C861B860E946809A1
:100E9000F8CFEF92FF92CF93DF930E941204E82ED7
:100EA000E7017E01F92EE701E981FA8109958B8539
:100EB0009C85AD85BE852D813E814F815885820FF1
:100EC000931FA41FB51F8B879C87AD87BE870E9489
:100ED0006809EACFEF92FF92CF93DF93C091970317
:100EE000D091980325C0CE010E941204FC01818597
:100EF0009285009721F081309105C1F412C06B8575
:100F00007C858D859E8520911C0230911D0240912B
:100F10001E0250911F02621773078407950730F075
:100F200009C08B859C858130910521F0C381D481D6
:100F30002097C9F6CE01DF91CF91FF90EF900895F1
:100F40000F931F93CF93DF938C01EB018091970355
:100F500090919803009739F41093980300939703A6
:100F60001C821B822DC00E941204FC0165817681C7
:100F7000878190852D813E814F81588526173707BF
:100F80004807590768F0621773078407950721F42B
:100F900090818881981720F083819481009719F7B8
:100FA00080E090E00E941204FC01838194819C8384
:100FB0008B8380E090E00E941204FC011483038381
:100FC000DF91CF911F910F9108956F927F928F9231
:100FD0009F92AF92BF92CF92DF92EF92FF920F93C8
:100FE0001F93CF93DF935C014B0169017A010E944B
:100FF0001204192F682EE3013E01792EE3019A8233
:1010000089820883CD82DE82EF82F886C501B30132
:101010000E94A007862D912FDF91CF911F910F91F4
:10102000FF90EF90DF90CF90BF90AF909F908F9008
:101030007F906F900895AF92BF92CF92DF92FF9210
:101040000F931F93CF93DF93EC015A016B01022F93
:10105000409118015091190189E497E060E070E037
:101060002FE00E94B103F82E192FBE01A6019501B1
:101070000E94E507FC011286118620911C02309126
:101080001D0240911E0250911F022A0D3B1D4C1D56
:101090005D1D23873487458756878F2D912FDF91DC
:1010A000CF911F910F91FF90DF90CF90BF90AF90A5
:1010B0000895AF92BF92CF92DF92FF920F931F934A
:1010C000CF93DF93EC015A016B01022F409118017D
:1010D0005091190186E397E060E070E02DE00E94F6
:1010E000B103F82E192FBE01A60195010E94E50754
:1010F000FC0181E090E092878187148613868F2D12
:10110000912FDF91CF911F910F91FF90DF90CF90A2
:10111000BF90AF9008950E94120421E030E0FC01DE
:101120003487238708950F931F93CF93DF938C0108
:10113000EB0181E090E064E070E00E947D09FC0139
:1011400011830083DE01AA0FBB1FAA0FBB1FAC0FC8
:10115000BD1FA756BC4F8D919C911197938382839D
:101160001196FC93EE9314968C911497882321F496
:101170001396FC93EE931297FE01EE0FFF1FEE0FF6
:10118000FF1FEC0FFD1FE756FC4F84818F5F8483A8
:1011900080912002909121028C179D0720F4D0931A
:1011A0002102C0932002DF91CF911F910F910895EA
:1011B0000F931F93CF93DF93EB010E94E3038C0106
:1011C000BE010E949308C801DF91CF911F910F913A
:1011D000089563E070E00E94D80808950F931F936C
:1011E000CF93DF93EB01BA010E94DB038C01BE01B8
:1011F0000E949308C801DF91CF911F910F9108952C
:101200000F931F93CF93DF93EB01BA01A90120E065
:101210000E94B1038C01BE010E949308C801DF91B6
:10122000CF911F910F9108958091200290912102FA
:1012300001C00197009729F4109220021092210218
:1012400010C0FC01EE0FFF1FEE0FFF1FE80FF91F8C
:10125000E756FC4F2481222361F380932002909370
:101260002102FC01EE0FFF1FEE0FFF1FE80FF91F19
:10127000E756FC4F24812223C9F0A281B381129644
:101280000D90BC91A02D109711F4A081B181FC01AB
:10129000EE0FFF1FEE0FFF1FE80FF91FE756FC4F81
:1012A000B383A2832D913C91119702C020E030E0DE
:1012B000C9010895CF93DF93EC010E94A003BE0102
:1012C0000E949308DF91CF9108950E94A003089592
:1012D00080E090E00E945304009711F00E94A50363
:1012E000089583B7816083BF83B7817F83BF78947C
:1012F000889508950E947109FDCFEF92FF920F9398
:101300001F93CF93DF93689F8001699F100D789F93
:10131000100D1124C8010E94A209E82EE7017E01E8
:10132000F92EE701209731F08E2D60E070E0A801E2
:101330000E94D50ACE01DF91CF911F910F91FF90AE
:10134000EF900895CF93DF938230910510F482E0FF
:1013500090E0E091BE03F091BF0340E050E020E058
:1013600030E026C06081718168177907E0F0681766
:10137000790781F4828193812115310531F0D901FA
:1013800013969C938E9312972BC09093BF038093D8
:10139000BE0326C04115510519F06417750718F4EE
:1013A000AB01E901DF019F0172816381E72FF62F15
:1013B0003097C1F64115510501F1481B590B4430D6
:1013C000510580F412968D919C911397209719F0F6
:1013D0009B838A8304C09093BF038093BE03FD0167
:1013E000329646C0FD01E40FF51F81939193425060
:1013F000504011965C934E933BC02091BC033091BA
:10140000BD032115310541F42091130230911402DE
:101410003093BD032093BC03209115023091160236
:101420002115310541F42DB73EB74091110250917D
:101430001202241B350BE091BC03F091BD03E217AF
:10144000F307A0F42E1B3F0B2817390778F0AC01E7
:101450004E5F5F4F2417350748F04E0F5F1F5093C4
:10146000BD034093BC038193919302C0E0E0F0E0A0
:10147000CF01DF91CF910895CF93DF93009709F4C7
:1014800091C0FC013297138212826091BE03709169
:10149000BF036115710581F420813181280F391F47
:1014A0008091BC039091BD038217930799F5F09347
:1014B000BD03E093BC0376C0DB0180E090E002C096
:1014C000CD01D901AE17BF0748F412962D913C917A
:1014D000139721153105A1F7CD0121C0B383A28354
:1014E000EF01499159919E01240F351FA217B307AF
:1014F00079F42D913C911197240F351F2E5F3F4FAA
:101500003183208312962D913C911397338322834C
:10151000009729F4F093BF03E093BE0343C0DC01BE
:101520001396FC93EE9312974D915D91A40FB51F06
:10153000EA17FB0769F420813181240F351F2E5FE4
:101540003F4FEC0139832883228133813B832A83F7
:10155000E0E0F0E002C0FB01BC01DB0112968D91DE
:101560009C9113970097B9F79B012E5F3F4F8D9188
:101570009C911197820F931F4091BC035091BD0322
:101580004817590779F4309729F41092BF03109245
:10159000BE0302C013821282225030403093BD033A
:1015A0002093BC03DF91CF910895DC0101C06D93BE
:1015B00041505040E0F708950E947A090895F89448
:0215C000FFCF5B
:1015C20022028A022402E902E9028A022402220297
:1015D20024022202E9028A020002010000E602F36A
:1015E200020010033E021001040C01020801020471
:1015F200010200010231029A0001007602310298D2
:101602000000003B02CB02B40001001003CB02B386
:10161200000000E60209038A000100FB02090388B8
:10162200000000E0026F0248000100D5026F02478D
:10163200000000C5020490009100710002B000B1E8
:1016420000700004800081006F0000440045006EBD
:1016520000840280840240840220840210840208F2
:101662008402048402028402012B0029002A00B3AE
:101672000280B30240B30220B30210B30208B302E5
:1016820004B30202B30201280026002700190380D6
:101692001903401903201903101903081903041927
:1016A2000302190301250023002400BF0280BF02A8
:1016B20040BF0220BF0210BF0208BF0204BF0202E5
:1016C200BF0201220020002100C08000400040C073
:0816D200802000C003000000AD
:00000001FF
