:1000000045C0000068C0000066C0000064C0000079
:1000100062C0000060C000005EC000005CC0000064
:100020005AC0000058C0000056C0000054C0000074
:1000300052C00000CFC50000F5C500004CC0000054
:10004000CFC3000048C0000046C0000044C000000C
:1000500042C0000040C000003EC000003CC00000A4
:10006000F2C4000038C0000036C0000034C00000F8
:1000700032C0000030C000002EC000002CC00000C4
:100080002AC0000028C0000026C0000011241FBEA6
:10009000CFEFD0E4DEBFCDBF12E0A0E0B1E0E0E9F9
:1000A000FFE000E00BBF02C007900D92AC30B1073B
:1000B000D9F713E0ACE0B2E001C01D92A934B1075A
:1000C000E1F712D056D1C2D119D230D234D23FD3B7
:1000D000FDD358D459C794CFEAE7F0E080818F77F9
:1000E00080830895F2C50895A4ECB2E0EFEFF1E04B
:1000F00086E001900D928150E1F7A1ECB2E0ECEFC7
:10010000F1E083E001900D928150E1F7A8E1B3E0C6
:10011000E9EFF1E083E001900D928150E1F7A9E968
:10012000B2E0E6EFF1E083E001900D928150E1F75B
:10013000ACEAB2E0E3EFF1E083E001900D92815090
:10014000E1F7A0E6B2E0E0EFF1E083E001900D928C
:100150008150E1F7A1E9B2E0EDEEF1E083E001903A
:100160000D928150E1F7ABE0B3E0EAEEF1E083E01D
:1001700001900D928150E1F7ADECB2E0E7EEF1E0D5
:1001800083E001900D928150E1F7AEE1B3E0E1EE42
:10019000F1E086E001900D928150E1F7A5EBB2E02D
:1001A000EEEDF1E083E001900D928150E1F7ABE1DB
:1001B000B3E0EBEDF1E083E001900D928150E1F7C7
:1001C000ADE3B2E0E8EDF1E083E001900D92815003
:1001D000E1F7AAECB2E0E5EDF1E083E001900D92E9
:1001E0008150E1F7AAEDB2E0E2EDF1E083E00190A9
:1001F0000D928150E1F7AEE7B2E0EFECF1E083E081
:1002000001900D928150E1F7A0E4B2E0ECECF1E056
:1002100083E001900D928150E1F7ABE7B2E0E9ECA9
:10022000F1E083E001900D928150E1F7A8EBB2E09C
:10023000E3ECF1E086E001900D928150E1F7A8EE49
:10024000B2E0E0ECF1E083E001900D928150E1F743
:10025000A2EBB2E0EDEBF1E083E001900D92815072
:10026000E1F7A2EEB2E0EAEBF1E083E001900D925B
:100270008150E1F7A1E7B2E0E7EBF1E083E0019024
:100280000D928150E1F7ADE5B2E0E4EBF1E083E0FF
:1002900001900D928150E1F7AFEAB2E0E1EBF1E0BD
:1002A00083E001900D928150E1F7A1EAB2E0EEEA1D
:1002B000F1E083E001900D928150E1F7A3E3B2E019
:1002C000EBEAF1E083E001900D928150E1F7A9E8BB
:1002D000B2E0E5EAF1E086E001900D928150E1F7AD
:1002E000A1E5B2E0E2EAF1E083E001900D928150F5
:1002F000E1F7A6E6B2E0EFE9F1E083E001900D92CC
:100300008150E1F7AEE4B2E0ECE9F1E083E0019086
:100310000D928150E1F7ACE9B2E0E9E9F1E083E068
:1003200001900D928150E1F7A0E0B3E0E6E9F1E041
:1003300083E001900D928150E1F7A5EEB2E0E3E990
:10034000F1E083E001900D928150E1F7A5E1B3E087
:10035000E0E9F1E083E001900D928150E1F7ABEE2E
:10036000B2E0EDE8F1E083E001900D928150E1F719
:100370000895A4E7B2E0E6E8F1E087E001900D928D
:100380008150E1F7AEE0B3E0EFE7F1E087E0019004
:100390000D928150E1F7A0EDB2E0E8E7F1E087E0EF
:1003A00001900D928150E1F7A6E3B2E0E1E7F1E0C0
:1003B00087E001900D928150E1F7A4EAB2E0E9E60E
:1003C000F1E088E001900D928150E1F7A3E0B3E005
:1003D000E1E6F1E088E001900D928150E1F7A3E4BD
:1003E000B2E0E9E5F1E088E001900D928150E1F79B
:1003F000A8EFB2E0E1E5F1E088E001900D928150D4
:10040000E1F7A1E8B2E0E9E4F1E088E001900D92C3
:100410008150E1F7A0EFB2E0E1E4F1E088E0019083
:100420000D928150E1F7A9E6B2E0E9E3F1E088E05E
:1004300001900D928150E1F7ABE2B2E0E1E3F1E02F
:1004400088E001900D928150E1F7089585EB92E0EC
:1004500090932A02809329020DD48BE193E090932C
:1004600026028093250206D48DE392E090939002B9
:1004700080938F02FFD38AEC92E09093EF028093F7
:10048000EE02F8D3A3E6B2E0EEE2F1E083E0019001
:100490000D928150E1F7ABE4B2E0EBE2F1E083E0F2
:1004A00001900D928150E1F7AAE5B2E0E8E2F1E0B7
:1004B00083E001900D928150E1F7A7EDB2E0E5E213
:1004C000F1E083E001900D928150E1F7AEEBB2E0F4
:1004D000E2E2F1E083E001900D928150E1F70895AE
:1004E000CF93DF93EC018B819C8160E070E0D0D3EF
:1004F00089819A81BFD3DF91CF910895A4E9B2E0B9
:10050000EDE1F1E085E001900D928150E1F784E9A1
:1005100092E0E6DFADEDB2E0E8E1F1E085E00190E8
:100520000D928150E1F78DED92E0DACF84B78093A0
:100530000C0214BE08958FEF9EE390930A028093FD
:100540000902109206021092050281E090E068E034
:1005500070E0BDD3FC01009719F01182108202C037
:10056000E0E0F0E0F0931002E0930F020895AF9204
:10057000BF92CF92DF92EF92FF920F931F93DF9380
:10058000CF9300D0CDB7DEB7D82EC92E7B015A014C
:10059000CA0161E070E029839AD38C012981009718
:1005A00091F1A501480F591F82E790E0DA018C9381
:1005B000FA0131979083FA013297D082FA0133978A
:1005C000C082622F70E06E5F7F4F81E090E04983D0
:1005D0005A837DD3FC0149815A81009741F0CA01B9
:1005E000869791838083E114F10429F403C0C80144
:1005F0002BD409C07F01DA015E97EC924F51504035
:10060000DA01FC9202C0E0E0F0E0CF010F900F9021
:10061000CF91DF911F910F91FF90EF90DF90CF90DE
:10062000BF90AF9008950F920FB6F8940F920BB64B
:100630000F921F9211242F923F924F925F926F92CE
:100640007F928F929F92AF92BF92CF92DF92EF9262
:10065000FF920F931F932F933F934F935F936F934B
:100660007F938F939F93AF93BF93CF93DF93EF933A
:10067000FF93DC010DB60D920EB60D92DB010D90CD
:100680000DBE0D900EBEFF91EF91DF91CF91BF9106
:10069000AF919F918F917F916F915F914F913F911A
:1006A0002F911F910F91FF90EF90DF90CF90BF900F
:1006B000AF909F908F907F906F905F904F903F9002
:1006C0002F901F900F900BBE0F900FBE0F900895AC
:1006D00080910F02909110020895BC0180910F0249
:1006E0009091100260930F02709310029CCFCF93F1
:1006F000DF93EA012A5F3BDFFC010097E9F0DC01B0
:10070000129680910D0290910E029383828301963E
:1007100090930E0280930D021396DC93CE93129762
:1007200026E230E02C1B3D0B80819181820F931FCC
:1007300015969C938E931497CF01DF91CF910895D6
:1007400040E052E020E0D3CF60E070E0F9CFA0912C
:100750000F02B0911002FD01329613961C921E9268
:10076000129780E092E093838283809109029091B6
:100770000A02958384830895E0912702F09128026C
:1007800020911102309112024091130250911402F3
:100790001FC0DF01969619968D919C911A9700972C
:1007A00021F08130910581F40AC0638574858585C7
:1007B0009685621773078407950730F00EC083850E
:1007C00094858130910549F01396ED91FC91149731
:1007D0003097F9F620E030E001C09D01C90108958D
:1007E0000F920FB6F8940F920BB60F921F9211242E
:1007F0002F923F924F925F926F927F928F929F9231
:10080000AF92BF92CF92DF92EF92FF920F931F931E
:100810002F933F934F935F936F937F938F939F9308
:10082000AF93BF93CF93DF93EF93FF938091110228
:1008300090911202A0911302B09114020196A11D91
:10084000B11D8093110290931202A0931302B093F2
:100850001402A0910F02B09110020DB60D920EB6C7
:100860000D9281E090E088DF9C01909310028093CC
:100870000F02009709F429D2DC010D900DBE0D90F6
:100880000EBEFF91EF91DF91CF91BF91AF919F91FC
:100890008F917F916F915F914F913F912F911F9118
:1008A0000F91FF90EF90DF90CF90BF90AF909F900F
:1008B0008F907F906F905F904F903F902F901F9000
:1008C0000F900BBE0F900FBE0F901895B2D080B74F
:1008D000806880BFE4E6F0E0808180668083E0E6A7
:1008E000F0E080E18083808185608083089540917D
:1008F0001D0230911E0220911F02909120028091D2
:100900002102F0912202E0912302A0912402642F9F
:100910006F5F51E0641708F050E0530F41E0531748
:1009200008F040E0420F31E0421708F030E0390FA4
:1009300021E0391708F020E0280F91E0281708F08F
:1009400090E09F0F81E09F1708F080E08E0F71E02C
:100950008E1708F070E07A0F60931D0250931E020C
:1009600040931F0230932002209321029093220291
:100970008093230270932402809124039091250395
:10098000ACDEB5CFA5DE909325038093240387E7E3
:1009900094E0DADE909327038093260340911502BA
:1009A000309116022091170290911802809119023D
:1009B000F0911A02E0911B02A0911C02642F6F5F5C
:1009C00051E0641708F050E0530F41E0531708F06E
:1009D00040E0420F31E0421708F030E0390F21E0EB
:1009E000391708F020E0280F91E0281708F090E070
:1009F0009F0F81E09F1708F080E08E0F71E08E1747
:100A000008F070E07A0F609315025093160240933D
:100A10001702309318022093190290931A028093C0
:100A20001B0270931C02809126039091270355DED0
:100A3000B5CF80913F03816080933F038FEE809319
:100A40007A00249A08951F920F920FB60F920BB658
:100A50000F9211242F933F934F935F936F937F9344
:100A60008F939F93AF93BF93EF93FF938091780001
:100A700090917900209128032530C9F1263080F427
:100A8000223031F1233030F42223C1F0213009F03B
:100A90004DC019C0233009F1243009F047C022C0ED
:100AA0002830A9F1293028F4263031F12730F1F52A
:100AB00029C0293089F12A30C9F533C090932A031F
:100AC0008093290333C090932C0380932B032EC073
:100AD00090932E0380932D0329C09093300380932D
:100AE0002F0324C090933403809333031FC090934B
:100AF0003603809335031AC09093380380933703ED
:100B00002C9814C090933203809331030FC09093BC
:100B10003A03809339030AC090933C0380933B03CC
:100B200005C090933E0380933D032C9A8091280347
:100B30008F5F809328038B3010F0109228038091F0
:100B40002803853051F1863070F48230F1F0833023
:100B500028F48823B1F0813029F515C08330C9F01D
:100B6000843001F518C08830B1F0893028F486301F
:100B700071F08730B9F40DC0893079F08A3091F482
:100B80000EC081E40DC082E40BC083E409C08EE591
:100B900007C085E405C086E403C087E401C080E4A3
:100BA00080937C0080912803882309F495DAFF91D3
:100BB000EF91BF91AF919F918F917F916F915F91D5
:100BC0004F913F912F910F900BBE0F900FBE0F9042
:100BD0001F9018951F920F920FB60F9211248F93AA
:100BE0009F934D9B18C08BB18F7B9091400390FFDA
:100BF00002C090E401C090E0892B8BB98091410341
:100C000090914203909389008093880080916F00B7
:100C10008D7F80936F009F918F910F900FBE0F90EB
:100C20001F9018951F920F920FB60F9211248F9359
:100C30009F934C9B18C08BB18F779091400391FF8D
:100C400002C090E801C090E0892B8BB980914303EA
:100C50009091440390938B0080938A0080916F0061
:100C60008B7F80936F009F918F910F900FBE0F909D
:100C70001F901895DC01ED91FC9111970480F5818E
:100C8000E02D808112969C911297892B8083089584
:100C9000FC01A081B1818C9182FF09C08FB7F894CB
:100CA0000280F381E02D608371838FBF08950280FD
:100CB000F381E02D7083089583B7816083BF83B78C
:100CC000817F83BF789488950895F6DFFECFEF92F9
:100CD000FF920F931F93CF93DF93689F8001699FCB
:100CE000100D789F100D1124C80114D0E82EE701D3
:100CF0007E01F92EE701209729F08E2D60E070E04B
:100D0000A8013BD1CE01DF91CF911F910F91FF90B0
:100D1000EF900895CF93DF938230910510F482E035
:100D200090E0E0914703F091480340E050E020E07C
:100D300030E026C06081718168177907E0F068179C
:100D4000790781F4828193812115310531F0D90130
:100D500013969C938E9312972BC090934803809385
:100D6000470326C04115510519F06417750718F49B
:100D7000AB01E901DF019F0172816381E72FF62F4B
:100D80003097C1F64115510501F1481B590B44300C
:100D9000510580F412968D919C911397209719F02C
:100DA0009B838A8304C09093480380934703FD018B
:100DB000329646C0FD01E40FF51F81939193425096
:100DC000504011965C934E933BC020914503309167
:100DD00046032115310541F42091070230910802A4
:100DE00030934603209345032091090230910A0273
:100DF0002115310541F42DB73EB7409105025091C0
:100E00000602241B350BE0914503F0914603E217DF
:100E1000F307A0F42E1B3F0B2817390778F0AC011D
:100E20004E5F5F4F2417350748F04E0F5F1F5093FA
:100E30004603409345038193919302C0E0E0F0E0C4
:100E4000CF01DF91CF910895CF93DF93009709F4FD
:100E500091C0FC0132971382128260914703709116
:100E600048036115710581F420813181280F391FF4
:100E700080914503909146038217930799F5F0936B
:100E80004603E093450376C0DB0180E090E002C0BA
:100E9000CD01D901AE17BF0748F412962D913C91B0
:100EA000139721153105A1F7CD0121C0B383A2838A
:100EB000EF01499159919E01240F351FA217B307E5
:100EC00079F42D913C911197240F351F2E5F3F4FE0
:100ED0003183208312962D913C9113973383228383
:100EE000009729F4F0934803E093470343C0DC01E3
:100EF0001396FC93EE9312974D915D91A40FB51F3D
:100F0000EA17FB0769F420813181240F351F2E5F1A
:100F10003F4FEC0139832883228133813B832A832D
:100F2000E0E0F0E002C0FB01BC01DB0112968D9114
:100F30009C9113970097B9F79B012E5F3F4F8D91BE
:100F40009C911197820F931F409145035091460346
:100F50004817590779F4309729F4109248031092F2
:100F6000470302C01382128222503040309346035E
:100F700020934503DF91CF910895DC0101C06D936B
:100F800041505040E0F70895A0CE0895F894FFCF67
:100F900025028F022902EE02EE028F0229022502AB
:100FA00029022502EE028F0200EB02F8020015036F
:100FB00043021001040C01020801020401020001B5
:100FC0000236029A0001007B0236029800000040BF
:100FD00002D002B40001001503D002B3000000EB00
:100FE000020E038A00010000030E0388000000E5E2
:100FF00002740248000100DA02740247000000CACD
:10100000020490009100710002B000B10070000471
:10101000800081006F0000440045006E008902805E
:101020008902408902208902108902088902048904
:1010300002028902012B0029002A00B80280B802AE
:1010400040B80220B80210B80208B80204B8020280
:10105000B802012800260027001E03801E03401E40
:1010600003201E03101E03081E03041E03021E039A
:1010700001250023002400C40280C40240C40220D1
:10108000C40210C40208C40204C40202C402012241
:0C109000002000210020004903000000A7
:00000001FF
