:100000000C9446000C9475000C9475000C947500CB
:100010000C9475000C9475000C9475000C9475008C
:100020000C9475000C9475000C9475000C9475007C
:100030000C9475000C9475000C9475000C9475006C
:100040000C9475000C9475000C9475000C9475005C
:100050000C9475000C9475000C9475000C9475004C
:100060000C9475000C9475000C945F030C9475004F
:100070000C9475000C9475000C9475000C9475002C
:100080000C9466060C9475000C94750011241FBE28
:10009000CFEFD0E4DEBFCDBF11E0A0E0B1E0E8EAF1
:1000A000FBE100E00BBF02C007900D92A83FB10733
:1000B000D9F713E0A8EFB1E001C01D92A138B10754
:1000C000E1F70E94D7000E94DF000E9424020E94F4
:1000D000B6020E94D2020E941F060E9432060E94AF
:1000E000DD060E9447070C94CF0D0C94000085EDAF
:1000F0008093BC008091000190910101A0910201C8
:10010000B09103018093EA029093EB02A093EC027A
:10011000B093ED021092EF021092EE02089585EC7A
:100120008093BC008091000190910101A091020197
:10013000B09103018093EA029093EB02A093EC024A
:10014000B093ED021092EF021092EE02089520910A
:10015000BA023091BB028091BB00E091EA02F091BB
:10016000EB02E20FF31F80832F5F3F4F3093BB0200
:100170002093BA028091EC029091ED02019728172A
:10018000390710F485EC01C085E88093BC00089520
:100190008091EC029091ED02009711F085EC01C086
:1001A00085E88093BC0008950E94B908089584B73B
:1001B0008093080214BE0895809108020895ACED62
:1001C000B2E0E4EEF1E086E001900D928150E1F7BB
:1001D000A9EDB2E0E1EEF1E083E001900D928150F3
:1001E000E1F7AEE4B3E0EEEDF1E083E001900D92D3
:1001F0008150E1F7A4EBB2E0EBEDF1E083E0019098
:100200000D928150E1F7A7ECB2E0E8EDF1E083E078
:1002100001900D928150E1F7AEE3B2E0E5EDF1E03F
:1002200083E001900D928150E1F7AAEAB2E0E2ED9D
:10023000F1E083E001900D928150E1F7ACE2B3E090
:10024000EFECF1E083E001900D928150E1F7A7EE31
:10025000B2E0ECECF1E083E001900D928150E1F727
:10026000A4E5B3E0E6ECF1E086E001900D92815068
:10027000E1F7A0EDB2E0E3ECF1E083E001900D9254
:100280008150E1F7A1E5B3E0E0ECF1E083E001901B
:100290000D928150E1F7A7E2B2E0EDEBF1E083E0EF
:1002A00001900D928150E1F7A2EEB2E0EAEBF1E0AD
:1002B00083E001900D928150E1F7A9EFB2E0E7EB06
:1002C000F1E083E001900D928150E1F7A9E9B2E0FD
:1002D000E4EBF1E083E001900D928150E1F7AAE2B6
:1002E000B2E0E1EBF1E083E001900D928150E1F7A3
:1002F000A6E9B2E0EEEAF1E083E001900D928150D0
:10030000E1F7A3EDB2E0E8EAF1E086E001900D92BA
:100310008150E1F7ABE0B3E0E5EAF1E083E0019082
:100320000D928150E1F7ADECB2E0E2EAF1E083E05A
:1003300001900D928150E1F7A3E0B3E0EFE9F1E025
:1003400083E001900D928150E1F7ACE8B2E0ECE976
:10035000F1E083E001900D928150E1F7ABE3B2E070
:10036000E9E9F1E083E001900D928150E1F7AAEC18
:10037000B2E0E6E9F1E083E001900D928150E1F70F
:10038000ACEBB2E0E3E9F1E083E001900D92815043
:10039000E1F7ADE1B2E0E0E9F1E083E001900D9238
:1003A0008150E1F7A4EAB2E0EAE8F1E086E00190EA
:1003B0000D928150E1F7A8E3B2E0E7E8F1E083E0D5
:1003C00001900D928150E1F7A1E4B2E0E4E8F1E0A0
:1003D00083E001900D928150E1F7A5E3B2E0E1E8FE
:1003E000F1E083E001900D928150E1F7A7EBB2E0DC
:1003F000EEE7F1E083E001900D928150E1F7A1E298
:10040000B3E0EBE7F1E083E001900D928150E1F77A
:10041000A6E0B3E0E8E7F1E083E001900D928150BF
:10042000E1F7ABE4B3E0E5E7F1E083E001900D92A2
:100430008150E1F7AEE0B3E0E2E7F1E083E0019064
:100440000D928150E1F70895AFE8B2E0EBE6F1E0FC
:1004500087E001900D928150E1F7AFE2B3E0E4E66E
:10046000F1E087E001900D928150E1F7A0EFB2E05A
:10047000EDE5F1E087E001900D928150E1F7A0E217
:10048000B2E0E6E5F1E087E001900D928150E1F7FE
:10049000AFEBB2E0EEE4F1E088E001900D92815024
:1004A000E1F7A4E2B3E0E6E4F1E088E001900D9228
:1004B0008150E1F7ADE2B2E0EEE3F1E088E00190D7
:1004C0000D928150E1F7A9E1B3E0E6E3F1E088E0C5
:1004D00001900D928150E1F7ACE9B2E0EEE2F1E07B
:1004E00088E001900D928150E1F7A1E1B3E0E6E2EE
:1004F000F1E088E001900D928150E1F7A4E4B2E0D0
:10050000EEE1F1E088E001900D928150E1F7A4E185
:10051000B2E0E6E1F1E088E001900D928150E1F770
:100520000895CF93DF93EC018B819C8160E070E0B4
:100530000E94630B89819A810E94A309DF91CF9168
:100540000895EF92FF92CF93DF93EC017E019F2DF0
:100550000E9491028D819E810E94A309CE010E947A
:10056000BC08DF91CF91FF90EF900895ADEAB2E023
:10057000EFE0F1E087E001900D928150E1F78DEA24
:1005800092E00E94A102ACEFB2E0E8E0F1E087E087
:1005900001900D928150E1F78CEF92E00E94A10250
:1005A0000895089585E08093BC008FEF8093BB0091
:1005B00081E18093B8001092B90082E08093BA0084
:1005C0000895DF93CF93CDB7DEB727970FB6F89492
:1005D000DEBF0FBECDBFAE014F5F5F4F8091E50222
:1005E0009091E602FC0133E0EE0FFF1F3A95E1F730
:1005F000E81BF90BDA01EA5CFC4F27E001900D9251
:100600002150E1F7FC0123E0EE0FFF1F2A95E1F7EF
:10061000E81BF90BEA5CFC4F648125813681019669
:100620009093E6028093E50283309105ECF4211566
:100630003105A1F22230310521F4862F8D7F809380
:100640001C021092BB021092BA0289819A81AB817E
:10065000BC818093EA029093EB02A093EC02B093EA
:10066000ED0221E030E002C020E030E0C901279631
:100670000FB6F894DEBF0FBECDBFCF91DF910895C6
:100680008091E5029091E6028330910524F40E9466
:10069000E102009711F40E94770008951092F80289
:1006A0001092F70281E090E09093EF028093EE02C7
:1006B0001092E6021092E5020E94E10208951F9254
:1006C0000F920FB60F920BB60F9211242F933F93F8
:1006D0004F935F936F937F938F939F93AF93BF934A
:1006E000EF93FF938091B90090E0887F90708836F7
:1006F000910509F4F5C089369105ECF58033910533
:1007000009F49BC081339105CCF48831910509F43B
:1007100077C0893191054CF48830910509F468C09F
:100720008031910509F0EBC063C08032910509F476
:100730008DC08832910509F0E2C062C0883491050D
:1007400009F484C0893491054CF48833910509F487
:1007500054C08034910509F0D2C0C2C088359105DB
:1007600009F477C08036910509F4BAC08035910547
:1007700009F0C5C0B8C08839910509F4BDC08939F0
:100780009105CCF48038910509F4ADC0813891050C
:100790004CF48037910509F4A3C08837910509F01E
:1007A000AEC09EC08838910509F4A6C08039910575
:1007B00009F0A5C098C0803B910509F44DC0813B6C
:1007C00091054CF4803A910509F490C0883A91055E
:1007D00009F095C041C0803C910509F473C0883C84
:1007E000910509F46CC0883B910509F088C03CC0B4
:1007F00080911C028093BB001CC085E090E078C013
:100800008091BA029091BB022091EC023091ED02EE
:1008100082179307F0F4E091EA02F091EB02E80FFF
:10082000F91F20812093BB0001969093BB02809317
:10083000BA0285E88093BC006AC086E090E090939D
:10084000F8028093F7020E94770061C084E090E094
:10085000F6CF0E9440035BC01092EA021092EB02B6
:100860001092EC021092ED028091BA029091BB02BC
:100870002091EC023091ED02215030406091EA026B
:100880007091EB02AC014F5F5F4F8217930760F4EA
:10089000860F971FFC0180818093BB005093BB02A1
:1008A0004093BA0285ECC6CF860F971FFC0180816A
:1008B0008093BB005093BB024093BA02BACF87E04B
:1008C00090E016C02091BA023091BB028091EC02F8
:1008D0009091ED022817390778F488E090E008C07D
:1008E0000E94C80014C00E94A70011C089E090E0D7
:1008F0009093F8028093F7020E948F0008C083E073
:1009000090E09093F8028093F7020E94D102FF9149
:10091000EF91BF91AF919F918F917F916F915F9177
:100920004F913F912F910F900BBE0F900FBE0F90E4
:100930001F90189560E070E080E090E008950895C1
:100940008FEF90E42091040130910501821B930BFD
:100950009093F7018093F6011092F3011092F20147
:100960006091090270E06E5F7F4F81E090E00E942D
:10097000700CFC01009719F01182108202C0E0E0B7
:10098000F0E0F0930B02E0930A020895AF92BF9259
:10099000CF92DF92EF92FF920F931F93DF93CF934B
:1009A00000D0CDB7DEB7D82EC92E7B015A01CA01BF
:1009B00061E070E029830E94700C8C01298100970E
:1009C000B1F1A50141505040480F591F84ED90E00E
:1009D000FA01808331979083FA013297D082FA012D
:1009E0003397C082622F70E06E5F7F4F81E090E0AE
:1009F00049835A830E94700C9C0149815A81009757
:100A000049F0CA018697F90191838083E114F104CA
:100A100031F404C0C8010E942F0D09C07901FA0108
:100A20007E97E0824F515040FA01F08202C020E0F0
:100A300030E0C9010F900F90CF91DF911F910F917E
:100A4000FF90EF90DF90CF90BF90AF9008954091CE
:100A500004015091050120E00E94C604089560E061
:100A600070E00E94270508950F920FB6F8940F9238
:100A70000BB60F921F9211242F923F924F925F92CA
:100A80006F927F928F929F92AF92BF92CF92DF929E
:100A9000EF92FF920F931F932F933F934F935F9388
:100AA0006F937F938F939F93AF93BF93CF93DF9376
:100AB000EF93FF93DC010DB60D920EB60D92DB01A4
:100AC0000D900DBE0D900EBEFF91EF91DF91CF9175
:100AD000BF91AF919F918F917F916F915F914F9156
:100AE0003F912F911F910F91FF90EF90DF90CF904A
:100AF000BF90AF909F908F907F906F905F904F903E
:100B00003F902F901F900F900BBE0F900FBE0F9035
:100B10007894089580910A0290910B020895BC0187
:100B200080910A0290910B0270930B0260930A026B
:100B30000E9434050895CF93DF93EA012A5F0E9453
:100B4000C604FC010097E9F0DC01149680910601CF
:100B50009091070195838483019690930701809378
:100B600006011396DC93CE93129727E230E02C1BFC
:100B70003D0B80819181820F931F15969C938E93DC
:100B80001497CF01DF91CF910895409104015091C6
:100B9000050120E00E949B05089560E070E00E943E
:100BA000C5050895CF93DF93EC0180910A029091DF
:100BB0000B02C817D90769F0FE0134968C819D811C
:100BC000009721F0848195810E942F0DCE010E9413
:100BD0002F0DDF91CF910895FC0186810895FC01CE
:100BE0002085318580819181281B390BC9010895A9
:100BF000FC018481958108959C01285D3F4FC901C6
:100C00000895809109028A5F809309020E94A004DE
:100C1000A0910A02B0910B02FD01349615961C9228
:100C20001E92149780910401909105019383828311
:100C30008091F6019091F70195838483089584ED66
:100C400090E060E070E040E450E020E00E949B050E
:100C500090930A038093090308958091090390916A
:100C60000A030895CF93DF93C0E2D2E0CE0161E0A2
:100C700070E00E94940A84E492E064EC79E00E94BF
:100C8000630BCE0162E070E00E94300ADF91CF91E9
:100C9000089584E492E00E943B0B789408950895AF
:100CA000CF93DF93EC010E947E079C01009751F4E3
:100CB000CE010E94110C9C01009721F420910903A0
:100CC00030910A03C901DF91CF9108950F920FB6B9
:100CD000F8940F920BB60F921F9211242F923F920D
:100CE0004F925F926F927F928F929F92AF92BF923C
:100CF000CF92DF92EF92FF920F931F932F933F9328
:100D00004F935F936F937F938F939F93AF93BF9313
:100D1000CF93DF93EF93FF9380910C0290910D029C
:100D2000A0910E02B0910F020196A11DB11D8093FA
:100D30000C0290930D02A0930E02B0930F02A091AB
:100D40000A02B0910B020DB60D920EB60D9281E023
:100D500090E00E94500690930B0280930A02009745
:100D600011F40E94650CDC010D900DBE0D900EBEBD
:100D7000FF91EF91DF91CF91BF91AF919F918F91B3
:100D80007F916F915F914F913F912F911F910F91A3
:100D9000FF90EF90DF90CF90BF90AF909F908F909B
:100DA0007F906F905F904F903F902F901F900F908B
:100DB0000BBE0F900FBE0F90189580B7806880BF54
:100DC000E4E6F0E0808180668083E0E6F0E080E1A8
:100DD00080838081856080830E94010683E090E0AB
:100DE0000E94570C0E943D070E94490608954091B9
:100DF000F8013091F9012091FA019091FB01809165
:100E0000FC01F091FD01E091FE01A091FF01642F32
:100E10006F5F51E0641708F050E0530F41E0531743
:100E200008F040E0420F31E0421708F030E0390F9F
:100E300021E0391708F020E0280F91E0281708F08A
:100E400090E09F0F81E09F1708F080E08E0F71E027
:100E50008E1708F070E07A0F6093F8015093F90153
:100E60004093FA013093FB012093FC019093FD0124
:100E70008093FE017093FF01089587EF96E042E3AF
:100E800050E060E070E020E00E942F08089580E0CC
:100E900090E00895EF92FF92CF93DF930E94FC05BC
:100EA000E82EE7017E01F92EE701E981FA81099533
:100EB0001C861B860E94A708F8CFEF92FF92CF9363
:100EC000DF930E94FC05E82EE7017E01F92EE70181
:100ED000E981FA8109958B859C85AD85BE852D813B
:100EE0003E814F815885820F931FA41FB51F8B87AA
:100EF0009C87AD87BE870E94A708EACFEF92FF923A
:100F0000CF93DF93C0911202D091130225C0CE017E
:100F10000E94FC05FC0181859285009721F08130BB
:100F20009105C1F412C063857485858596852091ED
:100F30000C0230910D0240910E0250910F022617C3
:100F400037074807590730F009C0838594858130F9
:100F5000910521F0C381D4812097C9F6CE01DF919C
:100F6000CF91FF90EF9008950F931F93CF93DF934E
:100F70008C01EB018091120290911302009739F4D9
:100F800010931302009312021C821B822DC00E9438
:100F9000FC05FC0165817681878190852D813E81EC
:100FA0004F815885261737074807590768F0621799
:100FB00073078407950721F490818881981720F0A2
:100FC00083819481009719F780E090E00E94FC05EE
:100FD000FC01838194819C838B8380E090E00E945C
:100FE000FC05FC0114830383DF91CF911F910F91C6
:100FF00008956F927F928F929F92AF92BF92CF92FD
:10100000DF92EF92FF920F931F93CF93DF935C01D8
:101010004B0169017A010E94FC05192F682EE3013A
:101020003E01792EE3019A8289820883CD82DE8295
:10103000EF82F886C501B3010E94B407862D912F77
:10104000DF91CF911F910F91FF90EF90DF90CF90A4
:10105000BF90AF909F908F907F906F900895AF92C8
:10106000BF92CF92DF92FF920F931F93CF93DF93A4
:10107000EC015A016B01022F4091040150910501CE
:101080008DE597E060E070E02FE00E949B05F82E70
:10109000192FBE01A60195010E94F907FC011286D5
:1010A000118620910C0230910D0240910E02509158
:1010B0000F022A0D3B1D4C1D5D1D2387348745877C
:1010C00056878F2D912FDF91CF911F910F91FF9018
:1010D000DF90CF90BF90AF900895AF92BF92CF9224
:1010E000DF92FF920F931F93CF93DF93EC015A018E
:1010F0006B01022F40910401509105018AE497E0B1
:1011000060E070E02DE00E949B05F82E192FBE01D3
:10111000A60195010E94F907FC0181E090E0928709
:101120008187148613868F2D912FDF91CF911F9188
:101130000F91FF90DF90CF90BF90AF9008950E94E5
:10114000FC0521E030E0FC0134872387089580E02E
:1011500090E00E945006009711F00E948F050895BC
:1011600083B7816083BF83B7817F83BF789488957D
:1011700008950E94B008FDCFCF93DF93EC018B81DF
:101180009C810E945E0B8B819C8160E070E00E94DC
:10119000630B888183FF08C089819A810E94DB09E3
:1011A0008D819E810E94DB09DF91CF910895FC0122
:1011B000838194810E947B0B08950F931F93CF939B
:1011C000DF93EC01288189819A8123FF12C00E945C
:1011D000F3098C018D819E810E94F309011511058F
:1011E00019F00097E9F002C00097E9F422E030E03E
:1011F00011C00E94F3099C018230910559F0888149
:1012000082FF08C081E090E02115310511F080E0F7
:1012100090E09C01C901DF91CF911F910F9108953A
:1012200020E030E0ECCF21E030E0E9CF0F931F93D6
:10123000CF93DF93EC018B01BA014230510519F0D5
:101240000115110521F4CE010E94BC082DC0288192
:1012500022FF08C081E090E04115510511F080E0C7
:1012600090E0BC0123FF13C089819A81611571054B
:1012700039F40E94CD098D819E810E94DB090BC04B
:101280000E94DB098D819E810E94CD0904C0898165
:101290009A810E94EA098B819C81B8010E94630BAC
:1012A0008B819C810E944F0BDF91CF911F910F91F9
:1012B000089540E050E00E941609089541E050E092
:1012C0000E94160908950F931F93CF93DF938C010B
:1012D0000E94DD08EC018230910579F0F8018381EC
:1012E00094810E947B0B9C0136952795C130D105D6
:1012F00031F4309521953F4F02C020E030E0C90124
:10130000DF91CF911F910F910895472F77FF03C071
:10131000709561957F4F660F771F441F4427441FC8
:1013200050E00E9416090895DC011496ED91FC919D
:1013300015978FEF80830895DC011496ED91FC9151
:10134000159710820895DC01ED91FC9111970480AE
:10135000F581E02D808112969C911297892B8083D4
:101360000895DC01ED91FC9111970480F581E02D49
:10137000908112968C91129780958923808308958D
:10138000DC01ED91FC91119760830895DC011296C8
:10139000ED91FC91139780810895DC01ED91FC9112
:1013A00011970190F081E02D808112969C91129707
:1013B000892B80830895DC01ED91FC9111970190B8
:1013C000F081E02D908112968C911297809589235F
:1013D000808308956115710519F00E94CD09089563
:1013E0000E94DB090895FC01A081B18112960D9045
:1013F000BC91A02D8C919281892321E030E011F4E1
:1014000020E030E0C9010895FC016430710548F422
:10141000DB01A651BE4F2C9162517E4FDB013C9106
:1014200002C030E020E0848195818130910521F473
:101430003695369526952695A081B18111960D9009
:10144000BC91A02D8C91832B8C930190F081E02D89
:101450000180F281E02D808120952823208308954A
:10146000FC01808190E0827090706430710571F1B0
:101470006530710568F461307105F9F0613071050E
:10148000D8F162307105E1F063307105A1F41BC041
:101490006730710521F16830710538F465307105E8
:1014A000C1F06630710539F417C068307105D1F0AC
:1014B00069307105E1F090E01DC091E086E027C041
:1014C00092E085E024C00097E9F42DC00097B9F0C0
:1014D00019C00097D1F427C00097A1F005C000976C
:1014E000A1F007C00097F9F496E081E010C00097E2
:1014F000D1F497E080E00BC090E087E008C093E073
:1015000084E005C094E083E002C095E082E0A3811E
:10151000B4812C91292B2C930380F481E02D9081B0
:101520008095892380830895FC01808182FF54C0C7
:1015300065307105B9F166307105B0F4623071053E
:1015400069F16330710540F46115710519F161307D
:10155000710509F08FC06EC06330710529F16430E8
:10156000710509F087C024C06830710529F1693020
:10157000710540F46630710539F16730710509F085
:1015800079C026C069307105D9F06A30710509F05B
:1015900071C010C090E030E088E14FC098E031E0C9
:1015A00080E146C098E13AC090E031E088E140C077
:1015B00090E12FC090E136C098E032E080E142C077
:1015C00098E033E080E127C090E032E088E13AC063
:1015D00090E033E088E11FC062307105C9F06330EC
:1015E000710540F46115710579F06130710509F0FC
:1015F00041C025C064307105C1F06430710588F0C8
:1016000065307105B9F509C090E030E088E015C09B
:1016100090E033E088E020E016C098E033E080E01E
:10162000FACF90E031E088E003C098E031E080E05C
:1016300022E009C098E030E080E123E004C090E0BF
:1016400032E088E021E0A181B2814C91432B4C93A0
:10165000A181B2813C91209523232C93A381B48155
:101660002C91292B2C930380F481E02D908180957F
:10167000892380830895DC01ED91FC911197058009
:10168000F681E02D208114968D919C9115970097FD
:1016900011F482E001C084E0822B80830895CF930F
:1016A000DF93EC018E819F810E94A309CE0161E04E
:1016B00070E00E94040ADF91CF91089560E070E02D
:1016C0000E94040A0895FC01A081B1818C9182FFDF
:1016D0000DC08FB7F894A281B38111967C931197B6
:1016E0000280F381E02D60838FBF08950280F38133
:1016F000E02D70830895FC01A081B1818C9182FF5F
:1017000009C02FB7F8940280F381E02D8081918188
:101710002FBF08950280F381E02D908180E008952D
:101720000F931F93CF93DF938C01EB0181E090E047
:1017300064E070E00E94700CFC0111830083DE0104
:10174000AA0FBB1FAA0FBB1FAC0FBD1FA65ABC4FD1
:101750008D919C911197938382831196FC93EE93C4
:1017600014968C911497882321F41396FC93EE938E
:101770001297FE01EE0FFF1FEE0FFF1FEC0FFD1F74
:10178000E65AFC4F84818F5F848380911002909190
:1017900011028C179D0720F4D0931102C093100200
:1017A000DF91CF911F910F9108950F931F93CF93C6
:1017B000DF93EB010E94CD058C01BE010E94900BCE
:1017C000C801DF91CF911F910F91089563E070E000
:1017D0000E94D50B08950F931F93CF93DF93EB01D6
:1017E000BA010E94C5058C01BE010E94900BC80180
:1017F000DF91CF911F910F9108950F931F93CF9376
:10180000DF93EB01BA01A90120E00E949B058C0146
:10181000BE010E94900BC801DF91CF911F910F91E3
:101820000895809110029091110201C001970097D4
:1018300029F4109210021092110210C0FC01EE0F58
:10184000FF1FEE0FFF1FE80FF91FE65AFC4F248120
:10185000222361F38093100290931102FC01EE0F9A
:10186000FF1FEE0FFF1FE80FF91FE65AFC4F248100
:101870002223C9F0A281B38112960D90BC91A02DB4
:10188000109711F4A081B181FC01EE0FFF1FEE0F44
:10189000FF1FE80FF91FE65AFC4FB383A2832D9177
:1018A0003C91119702C020E030E0C9010895CF9328
:1018B000DF93EC010E948A05BE010E94900BDF912C
:1018C000CF9108950E948A050895F89484B788708E
:1018D00084BF80E18093600088E080936000FFCF48
:1018E000EF92FF920F931F93CF93DF93689F800136
:1018F000699F100D789F100D1124C8010E94950C4E
:10190000E82EE7017E01F92EE701209731F08E2DB8
:1019100060E070E0A8010E94C80DCE01DF91CF9178
:101920001F910F91FF90EF900895CF93DF93823036
:10193000910510F482E090E0E0917F03F091800344
:1019400040E050E020E030E026C0608171816817FF
:101950007907E0F06817790781F482819381211576
:10196000310531F0D90113969C938E9312972BC0B9
:101970009093800380937F0326C04115510519F091
:101980006417750718F4AB01E901DF019F0172814B
:101990006381E72FF62F3097C1F64115510501F10C
:1019A000481B590B4430510580F412968D919C913F
:1019B0001397209719F09B838A8304C09093800328
:1019C00080937F03FD01329646C0FD01E40FF51FB1
:1019D000819391934250504011965C934E933BC03B
:1019E00020917D0330917E032115310541F4209132
:1019F000F4013091F50130937E0320937D03209113
:101A0000F6013091F7012115310541F42DB73EB7AC
:101A10004091F2015091F301241B350BE0917D03BD
:101A2000F0917E03E217F307A0F42E1B3F0B28175B
:101A3000390778F0AC014E5F5F4F2417350748F047
:101A40004E0F5F1F50937E0340937D0381939193CC
:101A500002C0E0E0F0E0CF01DF91CF910895CF9395
:101A6000DF93009709F491C0FC0132971382128230
:101A700060917F03709180036115710581F420816D
:101A80003181280F391F80917D0390917E03821749
:101A9000930799F5F0937E03E0937D0376C0DB0115
:101AA00080E090E002C0CD01D901AE17BF0748F435
:101AB00012962D913C91139721153105A1F7CD0177
:101AC00021C0B383A283EF01499159919E01240F54
:101AD000351FA217B30779F42D913C911197240F6C
:101AE000351F2E5F3F4F3183208312962D913C91FD
:101AF000139733832283009729F4F0938003E093B4
:101B00007F0343C0DC011396FC93EE9312974D9133
:101B10005D91A40FB51FEA17FB0769F4208131819D
:101B2000240F351F2E5F3F4FEC013983288322811C
:101B300033813B832A83E0E0F0E002C0FB01BC017B
:101B4000DB0112968D919C9113970097B9F79B0139
:101B50002E5F3F4F8D919C911197820F931F409163
:101B60007D0350917E034817590779F4309729F483
:101B70001092800310927F0302C0138212822250BF
:101B8000304030937E0320937D03DF91CF91089501
:101B9000DC0101C06D9341505040E0F708950E9470
:081BA000B9080895F894FFCF85
:101BA8004C02400000020100084E0319034E0308CE
:101BB8004E032D024E0320029A00010096022002D5
:101BC800980000002A02F002B40001004B03F00262
:101BD800B30000000E032F038A00010021032F0326
:101BE8008800000006038F0248000100F9028F02F6
:101BF80047000000E2020490009100710002B0006A
:101C0800B100700004800081006F000044004500AE
:101C18006E00A40280A40240A40220A40210A40220
:101C280008A40204A40202A402012B0029002A002D
:101C3800D30280D30240D30220D30210D30208D3A8
:101C48000204D30202D3020128002600270054030D
:101C580080540340540320540310540308540304CD
:101C6800540302540301250023002400DC0280DC15
:101C78000240DC0220DC0210DC0208DC0204DC0288
:101C880002DC0201220020002100C0800040004048
:081C9800C08020008103000060
:00000001FF
