:100000000C9446000C9473000C9473000C947300D1
:100010000C9473000C9473000C9473000C94730094
:100020000C9473000C9473000C9473000C94730084
:100030000C9473000C9473000C9473000C94730074
:100040000C9473000C9473000C9473000C94730064
:100050000C9473000C9473000C9473000C94730054
:100060000C9473000C9473000C9473000C94730044
:100070000C9473000C9473000C9473000C94730034
:100080000C9438040C9473000C94730011241FBE5C
:10009000CFEFD0E4DEBFCDBF11E0A0E0B1E0E2EEF3
:1000A000F6E100E00BBF02C007900D92A43FB1073C
:1000B000D9F713E0A4EFB1E001C01D92AF30B10752
:1000C000E1F70E9478000E9480000E94C5010E9412
:1000D00057020E94F1030E9404040E94AF040E9490
:1000E000DD040C946C0B0C9400000E9456060895DD
:1000F00084B78093F80114BE08958091F8010895A3
:10010000A9E8B2E0E0EEF1E086E001900D928150C6
:10011000E1F7A6E8B2E0EDEDF1E083E001900D92A9
:100120008150E1F7ACEDB2E0EAEDF1E083E001905F
:100130000D928150E1F7A3E6B2E0E7EDF1E083E054
:1001400001900D928150E1F7A4E7B2E0E4EDF1E017
:1001500083E001900D928150E1F7ADE2B2E0E1ED74
:10016000F1E083E001900D928150E1F7A9E5B2E062
:10017000EEECF1E083E001900D928150E1F7AFECFD
:10018000B2E0EBECF1E083E001900D928150E1F7F9
:10019000A2E9B2E0E8ECF1E083E001900D92815039
:1001A000E1F7A2EEB2E0E2ECF1E086E001900D9220
:1001B0008150E1F7ADE7B2E0EFEBF1E083E00190D1
:1001C0000D928150E1F7AFEDB2E0ECEBF1E083E0AE
:1001D00001900D928150E1F7A6E1B2E0E9EBF1E088
:1001E00083E001900D928150E1F7AFE8B2E0E6EBD9
:1001F000F1E083E001900D928150E1F7ACE9B2E0CB
:10020000E3EBF1E083E001900D928150E1F7A8E487
:10021000B2E0E0EBF1E083E001900D928150E1F774
:10022000A9E1B2E0EDEAF1E083E001900D928150A6
:10023000E1F7A5E4B2E0EAEAF1E083E001900D9293
:100240008150E1F7A0E8B2E0E4EAF1E086E0019055
:100250000D928150E1F7AEEAB2E0E1EAF1E083E02D
:1002600001900D928150E1F7AAE7B2E0EEE9F1E0EA
:1002700083E001900D928150E1F7A6EAB2E0EBE94C
:10028000F1E083E001900D928150E1F7ABE3B2E041
:10029000E8E9F1E083E001900D928150E1F7AAE2F4
:1002A000B2E0E5E9F1E083E001900D928150E1F7E1
:1002B000A7E7B2E0E2E9F1E083E001900D9281501E
:1002C000E1F7A9E6B2E0EFE8F1E083E001900D92FA
:1002D0008150E1F7ACE0B2E0ECE8F1E083E00190BE
:1002E0000D928150E1F7A3E5B2E0E6E8F1E086E0A7
:1002F00001900D928150E1F7A7E2B2E0E3E8F1E06E
:1003000083E001900D928150E1F7A0E3B2E0E0E8D4
:10031000F1E083E001900D928150E1F7A4E2B2E0B8
:10032000EDE7F1E083E001900D928150E1F7A6E660
:10033000B2E0EAE7F1E083E001900D928150E1F74D
:10034000A4ECB2E0E7E7F1E083E001900D92815088
:10035000E1F7A9EAB2E0E4E7F1E083E001900D9271
:100360008150E1F7A9EDB2E0E1E7F1E083E001902F
:100370000D928150E1F7A1EBB2E0EEE6F1E083E00F
:1003800001900D928150E1F70895AEE3B2E0E7E607
:10039000F1E087E001900D928150E1F7A2EDB2E02B
:1003A000E0E6F1E087E001900D928150E1F7A5E9E8
:1003B000B2E0E9E5F1E087E001900D928150E1F7CC
:1003C000AFE0B2E0E2E5F1E087E001900D9281500C
:1003D000E1F7ACE6B2E0EAE4F1E088E001900D92EA
:1003E0008150E1F7A7ECB2E0E2E4F1E088E00190AF
:1003F0000D928150E1F7ACE1B2E0EAE3F1E088E090
:1004000001900D928150E1F7ACEBB2E0E2E3F1E054
:1004100088E001900D928150E1F7ABE4B2E0EAE2AE
:10042000F1E088E001900D928150E1F7A4EBB2E099
:10043000E2E2F1E088E001900D928150E1F7A3E360
:10044000B2E0EAE1F1E088E001900D928150E1F73D
:10045000A4E0B2E0E2E1F1E088E001900D92815089
:10046000E1F70895CF93DF93EC018B819C8160E0ED
:1004700070E00E94000989819A810E944007DF9103
:10048000CF910895EF92FF92CF93DF93EC017E011D
:100490009F2D0E9432028D819E810E944007CE01D5
:1004A0000E945906DF91CF91FF90EF900895ACE53F
:1004B000B2E0EBE0F1E087E001900D928150E1F7CE
:1004C0008CE592E00E944202AFE9B2E0E4E0F1E0A4
:1004D00087E001900D928150E1F78FE992E00E9450
:1004E000420208958FEF90E42091000130910101C4
:1004F000821B930B9093F3018093F2011092EF0112
:100500001092EE016091F90170E06E5F7F4F81E023
:1005100090E00E940D0AFC01009719F011821082F0
:1005200002C0E0E0F0E0F093FB01E093FA010895EF
:10053000AF92BF92CF92DF92EF92FF920F931F93F1
:10054000DF93CF9300D0CDB7DEB7D82EC92E7B0175
:100550005A01CA0161E070E029830E940D0A8C01F2
:1005600029810097B1F1A50141505040480F591F12
:1005700085E790E0FA01808331979083FA01329702
:10058000D082FA013397C082622F70E06E5F7F4F96
:1005900081E090E049835A830E940D0A9C014981C1
:1005A0005A81009749F0CA018697F90191838083A7
:1005B000E114F10431F404C0C8010E94CC0A09C05E
:1005C0007901FA017E97E0824F515040FA01F082A2
:1005D00002C020E030E0C9010F900F90CF91DF9171
:1005E0001F910F91FF90EF90DF90CF90BF90AF9051
:1005F0000895409100015091010120E00E9498026D
:10060000089560E070E00E94F90208950F920FB61D
:10061000F8940F920BB60F921F9211242F923F92D3
:100620004F925F926F927F928F929F92AF92BF9202
:10063000CF92DF92EF92FF920F931F932F933F93EE
:100640004F935F936F937F938F939F93AF93BF93DA
:10065000CF93DF93EF93FF93DC010DB60D920EB6AF
:100660000D92DB010D900DBE0D900EBEFF91EF912E
:10067000DF91CF91BF91AF919F918F917F916F91BA
:100680005F914F913F912F911F910F91FF90EF90AC
:10069000DF90CF90BF90AF909F908F907F906F90A2
:1006A0005F904F903F902F901F900F900BBE0F9038
:1006B0000FBE0F90789408958091FA019091FB01FC
:1006C0000895BC018091FA019091FB017093FB01A8
:1006D0006093FA010E9406030895CF93DF93EA0125
:1006E0002A5F0E949802FC010097E9F0DC01149651
:1006F00080910201909103019583848301969093E8
:100700000301809302011396DC93CE93129727E2A4
:1007100030E02C1B3D0B80819181820F931F159639
:100720009C938E931497CF01DF91CF9108954091C0
:1007300000015091010120E00E946D03089560E0E6
:1007400070E00E9497030895CF93DF93EC018091AE
:10075000FA019091FB01C817D90769F0FE013496A0
:100760008C819D81009721F0848195810E94CC0A23
:10077000CE010E94CC0ADF91CF910895FC018681C1
:100780000895FC012085318580819181281B390BDA
:10079000C9010895FC018481958108959C01285D1B
:1007A0003F4FC90108958091F9018A5F8093F90153
:1007B0000E947202A091FA01B091FB01FD013496F2
:1007C00015961C921E921497809100019091010140
:1007D000938382838091F2019091F30195838483C6
:1007E000089585E790E060E070E040E450E020E0AC
:1007F0000E946D039093AD028093AC0208958091A6
:10080000AC029091AD020895CF93DF93CFE0D2E098
:10081000CE0161E070E00E94310883E392E064EC75
:1008200079E00E940009CE0162E070E00E94CD07ED
:10083000DF91CF91089583E392E00E94D8087894E5
:1008400008950895CF93DF93EC010E941B059C014E
:10085000009751F4CE010E94AE099C01009721F44B
:100860002091AC023091AD02C901DF91CF91089582
:100870000F920FB6F8940F920BB60F921F9211249D
:100880002F923F924F925F926F927F928F929F92A0
:10089000AF92BF92CF92DF92EF92FF920F931F938E
:1008A0002F933F934F935F936F937F938F939F9378
:1008B000AF93BF93CF93DF93EF93FF938091FC01AE
:1008C0009091FD01A091FE01B091FF010196A11D43
:1008D000B11D8093FC019093FD01A093FE01B093A4
:1008E000FF01A091FA01B091FB010DB60D920EB679
:1008F0000D9281E090E00E9422049093FB0180938E
:10090000FA01009711F40E94020ADC010D900DBE5D
:100910000D900EBEFF91EF91DF91CF91BF91AF91FE
:100920009F918F917F916F915F914F913F912F9107
:100930001F910F91FF90EF90DF90CF90BF90AF90FD
:100940009F908F907F906F905F904F903F902F90EF
:100950001F900F900BBE0F900FBE0F90189580B791
:10096000806880BFE4E6F0E0808180668083E0E616
:10097000F0E080E180838081856080830E94D303E2
:1009800083E090E00E94F4090E94D3040E941B04BB
:1009900008958091F4019091F50101969093F501ED
:1009A0008093F401089589EC94E042E350E060E024
:1009B00070E020E00E94CC0508958091F6019091AE
:1009C000F70101969093F7018093F601F6CFEF922D
:1009D000FF92CF93DF930E94CE03E82EE7017E01C2
:1009E000F92EE701E981FA8109951C861B860E9490
:1009F0004406F8CFEF92FF92CF93DF930E94CE038D
:100A0000E82EE7017E01F92EE701E981FA810995D7
:100A10008B859C85AD85BE852D813E814F81588516
:100A2000820F931FA41FB51F8B879C87AD87BE873E
:100A30000E944406EACFEF92FF92CF93DF93C091DA
:100A40000202D091030225C0CE010E94CE03FC0118
:100A500081859285009721F081309105C1F412C003
:100A600063857485858596852091FC013091FD0113
:100A70004091FE015091FF0126173707480759079B
:100A800030F009C0838594858130910521F0C381C0
:100A9000D4812097C9F6CE01DF91CF91FF90EF90DE
:100AA00008950F931F93CF93DF938C01EB018091F7
:100AB000020290910302009739F41093030200930D
:100AC00002021C821B822DC00E94CE03FC016581A4
:100AD0007681878190852D813E814F8158852617AB
:100AE00037074807590768F06217730784079507A7
:100AF00021F490818881981720F083819481009758
:100B000019F780E090E00E94CE03FC01838194817C
:100B10009C838B8380E090E00E94CE03FC011483D1
:100B20000383DF91CF911F910F9108956F927F9270
:100B30008F929F92AF92BF92CF92DF92EF92FF92ED
:100B40000F931F93CF93DF935C014B0169017A01EF
:100B50000E94CE03192F682EE3013E01792EE30196
:100B60009A8289820883CD82DE82EF82F886C5016F
:100B7000B3010E945105862D912FDF91CF911F91D6
:100B80000F91FF90EF90DF90CF90BF90AF909F902C
:100B90008F907F906F900895AF92BF92CF92DF9227
:100BA000FF920F931F93CF93DF93EC015A016B01D8
:100BB000022F40910001509101018AEF94E060E022
:100BC00070E02FE00E946D03F82E192FBE01A601E0
:100BD00095010E949605FC01128611862091FC0168
:100BE0003091FD014091FE015091FF012A0D3B1D06
:100BF0004C1D5D1D23873487458756878F2D912F88
:100C0000DF91CF911F910F91FF90DF90CF90BF9018
:100C1000AF900895AF92BF92CF92DF92FF920F9361
:100C20001F93CF93DF93EC015A016B01022F409188
:100C300000015091010187EE94E060E070E02DE04A
:100C40000E946D03F82E192FBE01A60195010E9486
:100C50009605FC0181E090E09287818714861386D7
:100C60008F2D912FDF91CF911F910F91FF90DF90EA
:100C7000CF90BF90AF9008950E94CE0321E030E066
:100C8000FC0134872387089580E090E00E942204CD
:100C9000009711F00E946103089583B7816083BFBC
:100CA00083B7817F83BF7894889508950E944D060D
:100CB000FDCFCF93DF93EC018B819C810E94FB08D9
:100CC0008B819C8160E070E00E940009888183FF35
:100CD00008C089819A810E9478078D819E810E9437
:100CE0007807DF91CF910895FC01838194810E9460
:100CF000180908950F931F93CF93DF93EC01288178
:100D000089819A8123FF12C00E9490078C018D81F6
:100D10009E810E9490070115110519F00097E9F0D6
:100D200002C00097E9F422E030E011C00E94900771
:100D30009C018230910559F0888182FF08C081E0D2
:100D400090E02115310511F080E090E09C01C9018F
:100D5000DF91CF911F910F91089520E030E0ECCF0B
:100D600021E030E0E9CF0F931F93CF93DF93EC01A5
:100D70008B01BA014230510519F00115110521F41A
:100D8000CE010E9459062DC0288122FF08C081E0B3
:100D900090E04115510511F080E090E0BC0123FF87
:100DA00013C089819A816115710539F40E946A071F
:100DB0008D819E810E9478070BC00E9478078D81EB
:100DC0009E810E946A0704C089819A810E948707D8
:100DD0008B819C81B8010E9400098B819C810E94BB
:100DE000EC08DF91CF911F910F91089540E050E002
:100DF0000E94B306089541E050E00E94B3060895B2
:100E00000F931F93CF93DF938C010E947A06EC011E
:100E10008230910579F0F801838194810E9418094C
:100E20009C0136952795C130D10531F43095219537
:100E30003F4F02C020E030E0C901DF91CF911F9108
:100E40000F910895472F77FF03C0709561957F4FED
:100E5000660F771F441F4427441F50E00E94B306CB
:100E60000895DC011496ED91FC9115978FEF808326
:100E70000895DC011496ED91FC9115971082089568
:100E8000DC01ED91FC9111970480F581E02D8081CA
:100E900012969C911297892B80830895DC01ED9125
:100EA000FC9111970480F581E02D908112968C9130
:100EB00012978095892380830895DC01ED91FC9140
:100EC000119760830895DC011296ED91FC911397C0
:100ED00080810895DC01ED91FC9111970190F081E2
:100EE000E02D808112969C911297892B8083089522
:100EF000DC01ED91FC9111970190F081E02D908142
:100F000012968C911297809589238083089561159C
:100F1000710519F00E946A0708950E9478070895E4
:100F2000FC01A081B18112960D90BC91A02D8C91F5
:100F30009281892321E030E011F420E030E0C90102
:100F40000895FC016430710548F4DB01AA51BE4FDD
:100F50002C9166517E4FDB013C9102C030E020E0D5
:100F6000848195818130910521F4369536952695B9
:100F70002695A081B18111960D90BC91A02D8C91E8
:100F8000832B8C930190F081E02D0180F281E02D84
:100F900080812095282320830895FC01808190E0A2
:100FA000827090706430710571F16530710568F47C
:100FB00061307105F9F061307105D8F16230710569
:100FC000E1F063307105A1F41BC06730710521F1B8
:100FD0006830710538F465307105C1F0663071050F
:100FE00039F417C068307105D1F069307105E1F04E
:100FF00090E01DC091E086E027C092E085E024C02B
:101000000097E9F42DC00097B9F019C00097D1F40A
:1010100027C00097A1F005C00097A1F007C0009776
:10102000F9F496E081E010C00097D1F497E080E0F9
:101030000BC090E087E008C093E084E005C094E036
:1010400083E002C095E082E0A381B4812C91292B3A
:101050002C930380F481E02D9081809589238083F7
:101060000895FC01808182FF54C065307105B9F19B
:1010700066307105B0F46230710569F16330710555
:1010800040F46115710519F16130710509F08FC0E7
:101090006EC06330710529F16430710509F087C0B5
:1010A00024C06830710529F16930710540F466305B
:1010B000710539F16730710509F079C026C06930D2
:1010C0007105D9F06A30710509F071C010C090E067
:1010D00030E088E14FC098E031E080E146C098E11F
:1010E0003AC090E031E088E140C090E12FC090E14B
:1010F00036C098E032E080E142C098E033E080E121
:1011000027C090E032E088E13AC090E033E088E127
:101110001FC062307105C9F06330710540F461157C
:10112000710579F06130710509F041C025C0643066
:101130007105C1F06430710588F065307105B9F54D
:1011400009C090E030E088E015C090E033E088E02E
:1011500020E016C098E033E080E0FACF90E031E084
:1011600088E003C098E031E080E022E009C098E028
:1011700030E080E123E004C090E032E088E021E04C
:10118000A181B2814C91432B4C93A181B2813C91BE
:10119000209523232C93A381B4812C91292B2C936C
:1011A0000380F481E02D90818095892380830895C8
:1011B000DC01ED91FC9111970580F681E02D2081F5
:1011C00014968D919C911597009711F482E001C0BF
:1011D00084E0822B80830895CF93DF93EC018E818E
:1011E0009F810E944007CE0161E070E00E94A1074C
:1011F000DF91CF91089560E070E00E94A10708950B
:10120000FC01A081B1818C9182FF0DC08FB7F89451
:10121000A281B38111967C9311970280F381E02D16
:1012200060838FBF08950280F381E02D708308955D
:10123000FC01A081B1818C9182FF09C02FB7F89485
:101240000280F381E02D808191812FBF089502807B
:10125000F381E02D908180E008950F931F93CF9349
:10126000DF938C01EB0181E090E064E070E00E948C
:101270000D0AFC0111830083DE01AA0FBB1FAA0F18
:10128000BB1FAC0FBD1FA851BD4F8D919C911197F5
:10129000938382831196FC93EE9314968C9114970A
:1012A000882321F41396FC93EE931297FE01EE0F20
:1012B000FF1FEE0FFF1FEC0FFD1FE851FD4F848154
:1012C0008F5F848380910002909101028C179D07AB
:1012D00020F4D0930102C0930002DF91CF911F91BF
:1012E0000F9108950F931F93CF93DF93EB010E940B
:1012F0009F038C01BE010E942D09C801DF91CF918F
:101300001F910F91089563E070E00E9472090895A3
:101310000F931F93CF93DF93EB01BA010E949703C2
:101320008C01BE010E942D09C801DF91CF911F9150
:101330000F9108950F931F93CF93DF93EB01BA01A1
:10134000A90120E00E946D038C01BE010E942D09BD
:10135000C801DF91CF911F910F91089580910002F4
:101360009091010201C00197009729F410920002A8
:101370001092010210C0FC01EE0FFF1FEE0FFF1FC5
:10138000E80FF91FE851FD4F2481222361F3809378
:10139000000290930102FC01EE0FFF1FEE0FFF1FF2
:1013A000E80FF91FE851FD4F24812223C9F0A281E3
:1013B000B38112960D90BC91A02D109711F4A081CD
:1013C000B181FC01EE0FFF1FEE0FFF1FE80FF91FA9
:1013D000E851FD4FB383A2832D913C91119702C038
:1013E00020E030E0C9010895CF93DF93EC010E9423
:1013F0005C03BE010E942D09DF91CF9108950E94E8
:101400005C030895F89484B7887084BF80E180936A
:10141000600088E080936000FFCFEF92FF920F930F
:101420001F93CF93DF93689F8001699F100D789F72
:10143000100D1124C8010E94320AE82EE7017E0136
:10144000F92EE701209731F08E2D60E070E0A801C1
:101450000E94650BCE01DF91CF911F910F91FF90FC
:10146000EF900895CF93DF938230910510F482E0DE
:1014700090E0E0910D03F0910E0340E050E020E099
:1014800030E026C06081718168177907E0F0681745
:10149000790781F4828193812115310531F0D901D9
:1014A00013969C938E9312972BC090930E03809368
:1014B0000D0326C04115510519F06417750718F47E
:1014C000AB01E901DF019F0172816381E72FF62FF4
:1014D0003097C1F64115510501F1481B590B4430B5
:1014E000510580F412968D919C911397209719F0D5
:1014F0009B838A8304C090930E0380930D03FD01A8
:10150000329646C0FD01E40FF51F8193919342503E
:10151000504011965C934E933BC020910B03309149
:101520000C032115310541F42091F0013091F101B6
:1015300030930C0320930B032091F2013091F301BF
:101540002115310541F42DB73EB74091EE01509180
:10155000EF01241B350BE0910B03F0910C03E21714
:10156000F307A0F42E1B3F0B2817390778F0AC01C6
:101570004E5F5F4F2417350748F04E0F5F1F5093A3
:101580000C0340930B038193919302C0E0E0F0E0E1
:10159000CF01DF91CF910895CF93DF93009709F4A6
:1015A00091C0FC0132971382128260910D037091F9
:1015B0000E036115710581F420813181280F391FD7
:1015C00080910B0390910C038217930799F5F09388
:1015D0000C03E0930B0376C0DB0180E090E002C0D7
:1015E000CD01D901AE17BF0748F412962D913C9159
:1015F000139721153105A1F7CD0121C0B383A28333
:10160000EF01499159919E01240F351FA217B3078D
:1016100079F42D913C911197240F351F2E5F3F4F88
:101620003183208312962D913C911397338322832B
:10163000009729F4F0930E03E0930D0343C0DC01FF
:101640001396FC93EE9312974D915D91A40FB51FE5
:10165000EA17FB0769F420813181240F351F2E5FC3
:101660003F4FEC0139832883228133813B832A83D6
:10167000E0E0F0E002C0FB01BC01DB0112968D91BD
:101680009C9113970097B9F79B012E5F3F4F8D9167
:101690009C911197820F931F40910B0350910C0363
:1016A0004817590779F4309729F410920E031092D5
:1016B0000D0302C0138212822250304030930C037B
:1016C00020930B03DF91CF910895DC0101C06D934E
:1016D00041505040E0F708950E9456060895F8944E
:0216E000FFCF3A
:1016E2000002010008DC02BC02DC0208DC021C026F
:1016F200DC020F029A00010045020F02980000006E
:1017020019029502B4000100D9029502B30000004B
:10171200B102D2028A000100C402D2028800000093
:10172200A9023E02480001009C023E02470000005E
:101732008F020490009100710002B000B1007000AD
:1017420004800081006F0000440045006E005302D7
:1017520080530240530220530210530208530204E2
:101762005302025302012B0029002A0080028080CA
:10177200024080022080021080020880020480025F
:1017820002800201280026002700E20280E20240D5
:10179200E20220E20210E20208E20204E20202E2B3
:1017A2000201250023002400890280890240890267
:1017B2002089021089020889020489020289020131
:1017C200220020002100C08000400040C080200094
:0417D2000F03000001
:00000001FF
