:100000000C9446000C946A010C946A010C946A01E9
:100010000C946A010C946A010C946A010C946A01B4
:100020000C946A010C946A010C946A010C946A01A4
:100030000C946A010C946A010C946A010C946A0194
:100040000C946A010C946A010C946A010C946A0184
:100050000C946A010C946A010C946A010C946A0174
:100060000C946A010C946A010C946A010C946A0164
:100070000C946A010C946A010C946A010C946A0154
:100080000C94D8040C946A010C946A0111241FBECC
:10009000CFEFD0E4DEBFCDBF12E0A0E0B1E0E4EFEF
:1000A000F0E200E00BBF02C007900D92A833B10749
:1000B000D9F713E0A8E3B2E001C01D92A336B1075F
:1000C000E1F784B78093380214BE88E10FB6F89444
:1000D00080936000109260000FBE0E94E40287E1EE
:1000E00093E0DC01E3E0F2E027E001900D92215083
:1000F000E1F724E832E0D901ECEFF1E047E00190CC
:100100000D924150E1F744E952E0DA01E5EFF1E008
:1001100067E001900D926150E1F76BE972E0DB015D
:10012000EEEEF1E017E001900D921150E1F790939F
:10013000580380935703E7E4F0E0F0935A03E09309
:10014000590310925C0310925B03E9E3F3E0F09330
:100150005E03E0935D039093A3028093A20288E480
:1001600090E09093A5028093A40281E090E09093A8
:10017000A7028093A602E1E2F3E0F093A902E093E4
:10018000A80230937B0220937A02E8E8F0E0F09333
:100190007D02E0937C0210927F0210927E02E9EDD4
:1001A000F2E0F0938102E09380023093D00220933A
:1001B000CF022AE830E03093D2022093D10290930C
:1001C000D4028093D3022BEF32E03093D6022093F7
:1001D000D502509344034093430323EB30E0309324
:1001E00046032093450310924803109247032CE4E2
:1001F00032E030934A03209349035093E502409341
:10020000E40224EB30E03093E7022093E60290937F
:10021000E9028093E80226E233E03093EB02209378
:10022000EA02709373026093720228E930E030931F
:10023000750220937402109277021092760222E5E2
:1002400033E030937902209378027093F002609348
:10025000EF022AE930E03093F2022093F10290930A
:10026000F4028093F30286EC92E09093F60280937E
:10027000F502CBE9D2E0CE0161E070E00E94A00D72
:10028000CE0162E070E00E943F0D82E792E064ECF4
:1002900079E00E94AE0E8FEE92E064EC79E00E946D
:1002A000AE0E0E942E050E94F50580B7806880BFC3
:1002B000E4E6F0E08081806680830E94340782E774
:1002C00092E00E94430E78940E9400000E94B001C8
:1002D0000C9475100C9400000F931F93CF93DF9331
:1002E0000091340110913501C0E0D0E0CE01880FBB
:1002F000991FD801ED91FC91E80FF91F8081918140
:1003000068EC70E00E94AE09CE010196F8016281AE
:1003100070E00E941B0FEC01E9CF0E94BD028FE745
:100320009FE4A2E181509040A040E1F700C00000AE
:100330000E946002F4CFCF93DF93C0913401D0913B
:1003400035010E94A306782FCE0160E00E94B40719
:10035000F8CF80913401909135010E9400080895F2
:10036000BF92CF92DF92EF92FF920F931F93CF93A2
:10037000DF9387B1836087B9E0900201F0900301B9
:100380000091040110910501C0912E01D0912F011F
:10039000C0902A01D0902B01B8B0C7010E94450738
:1003A0000097B1F081E0B82ACE010E940008C80190
:1003B0000E9445070097B1F082E0B82AC6010E946A
:1003C0000008B8B8B8B0C7010E944507009751F7B8
:1003D0008EEFB822CE010E942D08C8010E94450769
:1003E000009751F78DEFB822C6010E942D08B8B8CA
:1003F000E9CF8FEF8AB984B917B88BB985B93FEFC8
:1004000026B1822F90E08270907020FF0BC035B92A
:10041000009759F03BB926B1822F90E0827090701E
:1004200020FDF5CF15B80097A9F71BB8E9CFBF920B
:10043000CF92DF92EF92FF920F931F93CF93DF93B0
:1004400087B1836087B9E0900201F09003010091C9
:10045000040110910501C0912E01D0912F01C0908F
:100460002A01D0902B01B8B0C7010E944507009720
:10047000B1F081E0B82ACE010E940008C8010E94B4
:1004800045070097B1F082E0B82AC6010E94000833
:10049000B8B8B8B0C7010E944507009751F78EEF72
:1004A000B822CE010E942D08C8010E94450700977E
:1004B00051F78DEFB822C6010E942D08B8B8E9CFD8
:1004C0008091000190910101009709F40895209115
:1004D000430230914402C901880F892F881F990B6C
:1004E0009195220F331F822B932B9093440280937C
:1004F00043022091410230914202C901880F892FA5
:10050000881F990B9195220F331F822B932B909369
:1005100042028093410280913F02909140029C01EF
:10052000220F232F221F330B3195880F991F282B61
:10053000392B3093400220933F0280912A01909101
:100540002B0160E0722F0E94B407709141028091EC
:1005500032019091330160E00E94B4077091430230
:1005600080912E0190912F0160E00E94B4070895C0
:100570001092010110920001089583E090E09093A1
:10058000400280933F0226E030E030934202209305
:100590004102909344028093430281E090E0909363
:1005A000010180930001089584B78093380214BE3E
:1005B00088E10FB6F89480936000109260000FBE3F
:1005C000089580913802089583E393E0DC01ECE123
:1005D000F2E026E001900D922150E1F79093DF02C6
:1005E0008093DE0221E02093E002909370028093DA
:1005F0006F0222E0209371029093310380933003C5
:1006000024E020933203909307038093060328E0AD
:10061000209308039093AE028093AD0220E12093D3
:10062000AF0290934A028093490220E220934B024A
:10063000909362028093610220E42093630290937E
:10064000C2028093C10280E88093C30283EB92E0F0
:10065000DC01E6E1F2E026E001900D922150E1F7A5
:1006600090931F0380931E0321E020932003909317
:10067000BF028093BE0222E02093C00290936A02E0
:100680008093690224E020936B0290933A03809355
:10069000390328E020933B039093220380932103A6
:1006A00020E120932303909304038093030320E22B
:1006B00020930503909353038093520320E42093E7
:1006C00054039093C7028093C60280E88093C802C7
:1006D00089EC92E0DC01E0E1F2E026E001900D928D
:1006E0002150E1F79093BA028093B90221E0209360
:1006F000BB029093500280934F0222E0209351025C
:1007000090938C0280938B0224E020938D0290932F
:10071000AB028093AA0228E02093AC02909353028C
:100720008093520220E1209354029093B10280936F
:10073000B00220E22093B2029093ED028093EC028B
:1007400020E42093EE0290935C0280935B0280E8A9
:1007500080935D028EE892E0DC01EAE0F2E026E0C0
:1007600001900D922150E1F790936D0280936C02FD
:1007700021E020936E02909341038093400322E096
:10078000209342039093E2028093E10224E02093BD
:10079000E302909312038093110328E02093130344
:1007A0009093FC028093FB0220E12093FD02909342
:1007B000DA028093D90220E22093DB029093270390
:1007C0008093260320E42093280390934D02809386
:1007D0004C0280E880934E0208951F9387E193E0D6
:1007E000DC01E3E0F2E027E001900D922150E1F717
:1007F00024E832E0D901ECEFF1E047E001900D92FE
:100800004150E1F744E952E0DA01E5EFF1E067E059
:1008100001900D926150E1F76BE972E0DB01EEEEC1
:10082000F1E017E001900D921150E1F79093580319
:1008300080935703E7E4F0E0F0935A03E093590301
:1008400010925C0310925B03E9E3F3E0F0935E0324
:10085000E0935D039093A3028093A20288E490E06A
:100860009093A5028093A40281E090E09093A70268
:100870008093A602E1E2F3E0F093A902E093A802DC
:1008800030937B0220937A02E8E8F0E0F0937D0257
:10089000E0937C0210927F0210927E02E9EDF2E07A
:1008A000F0938102E09380023093D0022093CF0234
:1008B0002AE830E03093D2022093D1029093D40200
:1008C0008093D3022BEF32E03093D6022093D502EF
:1008D000509344034093430323EB30E030934603AB
:1008E0002093450310924803109247032CE432E012
:1008F00030934A03209349035093E5024093E40266
:1009000024EB30E03093E7022093E6029093E90273
:100910008093E80226E233E03093EB022093EA0270
:10092000709373026093720228E930E0309375028D
:1009300020937402109277021092760222E533E03F
:1009400030937902209378027093F0026093EF0263
:100950002AE930E03093F2022093F1029093F402FE
:100960008093F30286EC92E09093F6028093F50276
:100970001F910895CF93DF93CBE9D2E0CE0161E0E0
:1009800070E00E94A00DCE0162E070E00E943F0D79
:1009900082E792E064EC79E00E94AE0E8FEE92E086
:1009A00064EC79E00E94AE0EDF91CF910895089536
:1009B0001F920F920FB60F920BB60F9211242F9326
:1009C0003F934F935F936F937F938F939F93AF93D7
:1009D000BF93EF93FF938091390290913A02A091D7
:1009E0003B02B0913C020196A11DB11D80933902DA
:1009F00090933A02A0933B02B0933C020E94D7042A
:100A0000FF91EF91BF91AF919F918F917F916F91E6
:100A10005F914F913F912F910F900BBE0F900FBEA2
:100A20000F901F90189582E090E00E94420F089569
:100A30002FB730E020783070FC0131832083F894A8
:100A400008952FB730E020783070FC013183208387
:100A5000F89481E090E00895789408958EE193E011
:100A60009093FA028093F9020E94A20C8EEB92E01E
:100A700090932A03809329030E94A20C89E692E0B6
:100A800090935603809355030E94A20C89E393E050
:100A900090936502809364020E94A20C81E293E02D
:100AA0009093DD028093DC020E94A20C83E093E02D
:100AB00090935A02809359020E94A20C82E593E01F
:100AC0009093BD028093BC020E94A20C86EC92E03F
:100AD00090933F0380933E030E94A20C8CE692E029
:100AE00090932F0380932E030E94A20C80E493E046
:100AF0009093FF028093FE020E94A20C81EE92E08E
:100B000090938302809382020E94A20C81E193E081
:100B100090933D0380933C030E94A20C8BEF92E0E4
:100B20009093C5028093C4020E94A20C89ED92E0CA
:100B300090932503809324030E94A20C86E293E005
:100B40009093F8028093F7020E94A20CABE4B3E00A
:100B5000EBEEF1E083E001900D928150E1F7AEE51C
:100B6000B2E0E8EEF1E083E001900D928150E1F710
:100B7000A6E6B2E0E5EEF1E083E001900D9281504F
:100B8000E1F7ABE2B3E0E2EEF1E083E001900D9239
:100B90008150E1F7A0E0B3E0EFEDF1E083E00190F8
:100BA0000D928150E1F7A4E1B3E0ECEDF1E083E0D8
:100BB00001900D928150E1F70895CF93DF93EC01FE
:100BC00089819A810E94B00C888181FD08C082FFD2
:100BD00003C08B810E945D07DF91CF9108958981C9
:100BE0009A810E94E50C8881F2CF83E080934E03C6
:100BF00080EB92E09093500380934F0325E1209384
:100C000051030E94B00C80914E0381FD93C082FF7E
:100C100004C0809151030E945D0783E080930D031F
:100C200082E592E090930F0380930E0324E12093DA
:100C300010030E94B00C80910D0381FD72C082FFF1
:100C400004C0809110030E945D0783E080935502E9
:100C50008AEA92E0909357028093560223E1209310
:100C600058020E94B00C8091550281FD51C082FF54
:100C700004C0809158020E945D0783E080930903BD
:100C80008BE892E090930B0380930A0322E1209378
:100C90000C030E94B00C8091090381FD30C082FFDB
:100CA00004C080910C030E945D0783E0809345029D
:100CB0008CE492E090934702809346022FE12093C8
:100CC00048020E94B00C8091450281FD0FC082FF56
:100CD00004C0809148020E945D0782E090E00E947B
:100CE000420F8093D7029093D802089580914602D4
:100CF000909147020E94E50C80914502E8CF8091D7
:100D00000A0390910B030E94E50C80910903C7CF61
:100D100080915602909157020E94E50C80915502F5
:100D2000A6CF80910E0390910F030E94E50C809155
:100D30000D0385CF80914F03909150030E94E50CE5
:100D400080914E0364CF1F938EE493E00E94450789
:100D500011E0009709F410E08DE093E00E94450750
:100D6000009709F0126085E592E00E944507009720
:100D700009F0146089E093E00E944507009709F0AC
:100D8000186085E492E00E944507009709F0106121
:100D9000812F1F9108958FB7E091D702F091D8026B
:100DA00090E08078907091838083F89480913D02E8
:100DB00010923D02789408951F938EE493E00E9470
:100DC000450711E0009709F410E08DE093E00E94E0
:100DD0004507009709F0126085E592E00E944507FB
:100DE000009709F0146089E093E00E94450700979E
:100DF00009F0186085E492E00E944507009709F029
:100E0000106180913E0280FD27C0212F217081FD5D
:100E100002C011FD27C082FD02C012FD21C083FD6A
:100E200002C013FD1BC084FD02C014FD20618FB7FA
:100E3000E091D702F091D80290E080789070918391
:100E40008083F89480913D02822B80933D027894B8
:100E500010933E021F91089520E0D9CF2860E3CF80
:100E60002460DDCF2260D7CF089580B7806880BF2F
:100E7000E4E6F0E08081806680830E94340782E7A8
:100E800092E00E94430E78940895CF93DF93EC0193
:100E900089819A810E94020D9C01888180FF06C091
:100EA00081E090E02115310529F49C01C901DF9111
:100EB000CF91089580E090E0F8CF803218F5582F58
:100EC000569556955695E52FF0E0EE0FFF1FEE5D17
:100ED000FD4F0190F081E02D4081877021E030E0EE
:100EE000B90102C0660F771F8A95E2F7462B40834F
:100EF0008091680002C0220F331F5A95E2F7822BBF
:100F00008093680008958032C0F4E82FE695E69556
:100F1000E695F0E0EE0FFF1FEE5DFD4F0190F081D2
:100F2000E02D9081877021E030E002C0220F331F56
:100F30008A95E2F72095292320830895FC0180817A
:100F4000918161E070E00E94CC0C0895FC018081E9
:100F5000918160E070E00E94CC0C0895FC018081DA
:100F600091810E94CC0C0895AF92BF92CF92DF92F4
:100F7000EF92FF920F931F93CF93DF935C016B016E
:100F8000DC0112962C91129730E08901015010403B
:100F9000BFEF0F3F1B0749F180E190E0821B930BED
:100FA000C1E0D0E002C0CC0FDD1F8A95E2F77801E6
:100FB000EE0CFF1CD501ED91FC91EE0DFF1D019093
:100FC000F081E02DBE016C217D21808191810E9404
:100FD000CC0CCC0FDD1F01501040EEEFFFEFEE0EFA
:100FE000FF1EFFEF0F3F1F0729F7DF91CF911F91E2
:100FF0000F91FF90EF90DF90CF90BF90AF9008954A
:10100000EF92FF920F931F93CF93DF938C01DC013C
:101010001296EC901297FF24E114F104B9F0C0E0AD
:10102000D0E0CE01880F991FD801ED91FC91E80F17
:10103000F91F0190F081E02D8081918161E070E0E5
:101040000E94CC0C2196CE15DF055CF3DF91CF9189
:101050001F910F91FF90EF900895EF92FF920F93E1
:101060001F93CF93DF938C01DC011296EC901297C3
:10107000FF24E114F104B9F0C0E0D0E0CE01880F04
:10108000991FD801ED91FC91E80FF91F0190F081B3
:10109000E02D8081918160E070E00E94CC0C21966F
:1010A000CE15DF055CF3DF91CF911F910F91FF907B
:1010B000EF9008954F925F926F927F928F929F92DE
:1010C000AF92BF92CF92DF92EF92FF920F931F9356
:1010D000CF93DF936C015B01842E442309F46FC02E
:1010E0009924E0E16E2E712C71E0472E512CD6012F
:1010F00012960C911297802F90E0EC012197BFEF90
:10110000CF3FDB0759F18301081B190BF20102C025
:10111000EE0FFF1F0A95E2F78F017E01EE0CFF1C18
:10112000D601ED91FC91EE0DFF1D0190F081E02DB7
:10113000B8016A217B21808191810E94CC0C000F33
:10114000111F2197EEEFFFEFEE0EFF1EFFEFCF3FD7
:10115000DF0731F7D60112960C9112978FEF94E3C7
:10116000ACE081509040A040E1F700C0000010E0EA
:1011700001151105B9F0C0E0D0E0CE01880F991F2C
:10118000D601ED91FC91E80FF91F0190F081E02D5F
:101190008081918160E070E00E94CC0C2196C017A4
:1011A000D1075CF38FEF94E3ACE081509040A04016
:1011B000E1F700C000009394981408F498CFDF91F1
:1011C000CF911F910F91FF90EF90DF90CF90BF9044
:1011D000AF909F908F907F906F905F904F90089509
:1011E0006F927F928F929F92AF92BF92CF92DF9237
:1011F000EF92FF920F931F93CF93DF936C01A62E74
:10120000662309F46DC0BB2400E1802E912C11E00F
:10121000612E712CD60112960C911297802F90E0BE
:10122000EC012197BFEFCF3FDB0749F18401081B99
:10123000190BF30102C0EE0FFF1F0A95E2F78F01B1
:101240007E01EE0CFF1CD601ED91FC91EE0DFF1D11
:101250000190F081E02D80819181B8010E94CC0C39
:10126000000F111F2197EEEFFFEFEE0EFF1EFFEFB5
:10127000CF3FDF0741F7D60112960C9112978FEFFF
:1012800094E3ACE081509040A040E1F700C0000042
:1012900010E001151105B9F0C0E0D0E0CE01880FD3
:1012A000991FD601ED91FC91E80FF91F0190F08193
:1012B000E02D8081918160E070E00E94CC0C21964D
:1012C000C017D1075CF38FEF94E3ACE081509040FE
:1012D000A040E1F700C00000B394BA1408F49ACF1C
:1012E000DF91CF911F910F91FF90EF90DF90CF9002
:1012F000BF90AF909F908F907F906F9008950F93C5
:101300001F93CF93DF93EC01062F662311F110E0BA
:101310008881998161E070E00E94CC0C8FEF94E3AA
:10132000ACE081509040A040E1F700C0000088810F
:10133000998160E070E00E94CC0C8FEF94E3ACE008
:1013400081509040A040E1F700C000001F5F1017DF
:10135000F8F2DF91CF911F910F9108950F931F9392
:10136000CF93DF938C01EB01FC018081918161E0DF
:1013700070E00E94CC0C209741F087E893E1019740
:10138000F1F700C000002197C1F7F8018081918139
:1013900060E070E00E94CC0CDF91CF911F910F9123
:1013A00008958F929F92AF92BF92CF92DF92EF9269
:1013B000FF920F931F93CF93DF935C014B017A0150
:1013C000DC0112968C911297282F30E08901015090
:1013D0001040BFEF0F3F1B07C9F180E190E0821B77
:1013E000930BC1E0D0E002C0CC0FDD1F8A95E2F77D
:1013F0006801CC0CDD1CD501ED91FC91EC0DFD1DBF
:101400000190F081E02DBE016821792180819181D8
:101410000E94CC0CCC0FDD1F01501040EEEFFFEF0F
:10142000CE0EDF1EFFEF0F3F1F0729F7D5011296E3
:101430008C911297E114F10461F0E7E8F3E1319740
:10144000F1F700C000000894E108F108E114F1048C
:10145000A1F7082F10E001151105B9F0C0E0D0E0A8
:10146000CE01880F991FD501ED91FC91E80FF91F6E
:101470000190F081E02D8081918160E070E00E9418
:10148000CC0C2196C017D1075CF3DF91CF911F914F
:101490000F91FF90EF90DF90CF90BF90AF909F9013
:1014A0008F900895AF92BF92CF92DF92EF92FF920A
:1014B0000F931F93CF93DF935C017B01DC011296A6
:1014C0000C911297202F30E0E9012197BFEFCF3F19
:1014D000DB07B1F180E190E0821B930B01E010E0AB
:1014E00002C0000F111F8A95E2F76E01CC0CDD1CC3
:1014F000D501ED91FC91EC0DFD1D0190F081E02DE9
:1015000080819181B8010E94CC0C000F111F21979E
:10151000EEEFFFEFCE0EDF1EFFEFCF3FDF0741F70D
:10152000D50112960C911297E114F10461F0E7E8ED
:10153000F3E13197F1F700C000000894E108F108E9
:10154000E114F104A1F710E001151105B9F0C0E0B4
:10155000D0E0CE01880F991FD501ED91FC91E80FE5
:10156000F91F0190F081E02D8081918160E070E0B1
:101570000E94CC0C2196C017D1075CF3DF91CF916C
:101580001F910F91FF90EF90DF90CF90BF90AF90A1
:1015900008952F923F924F925F926F927F929F9207
:1015A000AF92BF92CF92DF92EF92FF920F931F9371
:1015B000CF93DF936C013B01942EDB0112964C918B
:1015C0001297242F30E0890101501040BFEF0F3FE8
:1015D0001B0759F180E190E0821B930BC1E0D0E042
:1015E00002C0CC0FDD1F8A95E2F77801EE0CFF1CDC
:1015F000D301ED91FC91EE0DFF1D0190F081E02DE6
:1016000080819181BE010E94CC0CCC0FDD1F015066
:101610001040EEEFFFEFEE0EFF1EFFEF0F3F1F0734
:1016200039F7D30112964C9112978CED95E0E7E8CB
:10163000F3E13197F1F700C000000197C1F7042FE3
:1016400010E001151105B9F0C0E0D0E0CE01880F1F
:10165000991FD301ED91FC91E80FF91F0190F081E2
:10166000E02D8081918160E070E00E94CC0C219699
:10167000C017D1075CF3B92CAA24A3E09A2EF60177
:101680002281F0E14F2E512CE1E02E2E312C822FC1
:1016900090E0EC012197FFEFCF3FDF0759F1820186
:1016A000081B190BC10102C0880F991F0A95E2F7A8
:1016B0008C017E01EE0CFF1CD601ED91FC91EE0D2C
:1016C000FF1D0190F081E02DB8016A217B2180810E
:1016D00091810E94CC0C000F111F2197EEEFFFEFBC
:1016E000EE0EFF1EFFEFCF3FDF0731F7D601129658
:1016F0002C9112978FEF94E3ACE081509040A04082
:10170000E1F700C00000022F10E001151105C9F03B
:10171000C0E0D0E0CE01880F991FD601ED91FC9179
:10172000E80FF91F0190F081E02D8081918160E048
:1017300070E00E94CC0C2196C017D1075CF3F60133
:1017400022818FEF94E3ACE081509040A040E1F71C
:1017500000C000009A9409F09ACF283090F0DF91F1
:10176000CF911F910F91FF90EF90DF90CF90BF909E
:10177000AF909F907F906F905F904F903F902F9091
:10178000089502C0AA0CBB1C2A95E2F7D301129659
:101790004C911297242F30E079010894E108F10868
:1017A000BFEFEB16BFEFFB0649F180E190E0821B33
:1017B000930BC1E0D0E002C0CC0FDD1F8A95E2F7A9
:1017C0008701000F111FD301ED91FC91E00FF11F74
:1017D0000190F081E02D80819181BE010E94CC0CAE
:1017E000CC0FDD1F0894E108F10802501040BFEF54
:1017F000EB16BFEFFB0639F7F30142818CEB92E069
:10180000A7E8B3E11197F1F700C000000197C1F715
:10181000042F10E001151105B9F0C0E0D0E0CE01B1
:10182000880F991FD301ED91FC91E80FF91F0190EA
:10183000F081E02D8081918160E070E00E94CC0C0D
:101840002196C017D1075CF3A3E09A2EF0E16F2E2A
:10185000712CE1E04E2E512CF6012281822F90E076
:10186000EC012197FFEFCF3FDF0759F18301081B00
:10187000190BC20102C0880F991F0A95E2F78C016B
:101880007E01EE0CFF1CD601ED91FC91EE0DFF1DCB
:101890000190F081E02DB8016A217B218081918146
:1018A0000E94CC0C000F111F2197EEEFFFEFEE0E00
:1018B000FF1EFFEFCF3FDF0731F7D60112962C91C5
:1018C00012978FEF94E3ACE081509040A040E1F795
:1018D00000C00000022F10E001151105B9F0C0E0B2
:1018E000D0E0CE01880F991FD601ED91FC91E80F51
:1018F000F91F0190F081E02D8081918160E070E01E
:101900000E94CC0C2196C017D1075CF38FEF94E3B3
:10191000ACE081509040A040E1F700C000009A94F4
:1019200009F09ACF1CCFDC011496ED91FC9115972C
:101930008FEF80830895DC011496ED91FC9115974B
:1019400010820895DC01ED91FC9111970480F581DE
:10195000E02D808112969C911297892B80830895A7
:10196000DC01ED91FC9111970480F581E02D9081CF
:1019700012968C9112978095892380830895DC01BB
:10198000ED91FC91119760830895DC011296ED9121
:10199000FC91139780810895FC016115710559F43C
:1019A000A081B1810D90BC91A02D9C9182818095E8
:1019B00089238C930895A081B1810D90BC91A02DB5
:1019C0008C919281892B8C930895DC01ED91FC918F
:1019D00011970190F081E02D808112969C911297D1
:1019E000892B80830895DC01ED91FC911197019082
:1019F000F081E02D908112968C9112978095892329
:101A000080830895FC01A081B18112960D90BC9154
:101A1000A02D8C919281892321E030E011F420E007
:101A200030E0C9010895FC016430710528F5DB013F
:101A3000A65DBD4F2C91625D7D4FDB013C918481A1
:101A40009581009721F4330F330F220F220FA081CD
:101A5000B18111960D90BC91A02D9C91932B9C93DC
:101A60000190F081E02D0180F281E02D9081822FA4
:101A7000809589238083089530E020E0E0CFFC0149
:101A8000808190E0827090706430710509F453C0D9
:101A900065307105D8F06730710509F443C06830CE
:101AA000710528F565307105C1F16630710581F168
:101AB0009FEF20E0A381B4818C91822B8C930380D3
:101AC000F481E02D80818923808308956130710540
:101AD00079F161307105B0F062307105B1F06330B9
:101AE000710531F7009789F39CEF24E0E3CF68306C
:101AF0007105D9F069307105D9F6009731F79FEF7C
:101B000027E0D8CF98EF20E0D5CF9AEF22E0D2CFD0
:101B1000009751F39EEF26E0CDCF0097B1F29DEFF5
:101B200025E0C8CF0097D9F3EACF009799F3CDCF3E
:101B300099EF21E0BFCF0097B9F69BEF23E0BACF32
:101B4000FC01808182FF29C06330710509F454C013
:101B500064307105B0F56130710509F47BC0623005
:101B6000710508F472C09FEE3DEF28E041E0A181CD
:101B7000B2818C91842B8C93A181B2818C9183232F
:101B80008C93A381B4818C91822B8C930380F481FC
:101B9000E02D80818923808308956230710539F1B9
:101BA00063307105E0F064307105C1F16430710596
:101BB00080F16530710581F79FEF3FEF28E043E04A
:101BC000D6CF65307105C1F16530710560F16630C1
:101BD000710511F797EF3DEF20E141E0C8CF6115A6
:101BE000710579F497EF3CEF20E040E0C0CF97EF2C
:101BF0003FEF20E043E0BBCF97EE3DEF20E041E038
:101C0000B6CF6130710541F697EF3EEF20E042E03C
:101C1000AECF97EF3DEF20E041E0A9CF9FEF3DEF42
:101C200028E041E0A4CF84FD1FC085FF22C097EECD
:101C30003FEF20E043E09BCF84FD11C085FF1EC035
:101C40009FEE3FEF28E043E092CF97EE3CEF20E09D
:101C500040E08DCF9FEE3CEF28E040E088CF9FEE44
:101C60003EEF28E042E083CF97EE3EEF20E042E0F7
:101C70007ECF97EF3FEF20E143E079CF9FEF3FEF3B
:101C800028E143E074CFDC01ED91FC9111970580D0
:101C9000F681E02D208114968D919C9115970097E7
:101CA00021F084E0822B8083089582E0822B808360
:101CB0000895DC01ED91FC9111970580F681E02DEE
:101CC000208114968D919C911597009721F08BEFB0
:101CD0008223808308958DEF822380830895CF939C
:101CE000DF93EC018E819F810E94A20C20E130E203
:101CF0008C819D81009711F430E820E4E881F9811E
:101D00000180F281E02D9081932B9083E881F9810D
:101D10000180F281E02D9081822F8095892380833C
:101D2000DF91CF910895FC0120E384819581009794
:101D300009F420ECA081B18111960D90BC91A02DE9
:101D40008C918C930190F081E02D0180F281E02D47
:101D50009081822F8095892380830895FC01A08142
:101D6000B1818C9182FF14C09FB784FF16C0660FAB
:101D7000672F661F770B7195F894A281B381119636
:101D80007C9311970280F381E02D60839FBF0895BB
:101D90000280F381E02D7083089585FFEDCF00244C
:101DA000660F771F001C660F771F001C672F702DB2
:101DB000E3CFFC01A081B1818C9182FF1BC08FB762
:101DC000F894A281B3812D913C9111978FBF01901E
:101DD000F081E02D808184FD15C085FF11C00024B5
:101DE000369527950794369527950794322F202D01
:101DF000C90108950280F381E02D8081382F20E011
:101E0000C90108953695322F222737952795C901A4
:101E1000089583B7816083BF83B7817F83BF789440
:101E20008895089583B7816083BF83B7817F83BF1F
:101E300078948895F7CF97FB092E07260AD077FD6F
:101E400004D00CD006D000201AF4709561957F4F15
:101E50000895F6F7909581959F4F0895AA1BBB1B97
:101E600051E107C0AA1FBB1FA617B70710F0A61B9A
:101E7000B70B881F991F5A95A9F780959095BC01BB
:101E8000CD010895CF93DF938230910510F482E065
:101E900090E0E0916103F091620340E050E020E0C7
:101EA00030E026C06081718168177907E0F068171B
:101EB000790781F4828193812115310531F0D901AF
:101EC00013969C938E9312972BC0909362038093EA
:101ED000610326C04115510519F06417750718F400
:101EE000AB01E901DF019F0172816381E72FF62FCA
:101EF0003097C1F64115510501F1481B590B44308B
:101F0000510580F412968D919C911397209719F0AA
:101F10009B838A8304C09093620380936103FD01D5
:101F2000329646C0FD01E40FF51F81939193425014
:101F3000504011965C934E933BC020915F033091CB
:101F400060032115310541F42091340230913502AE
:101F50003093600320935F03209136023091370263
:101F60002115310541F42DB73EB740913202509111
:101F70003302241B350BE0915F03F0916003E217FD
:101F8000F307A0F42E1B3F0B2817390778F0AC019C
:101F90004E5F5F4F2417350748F04E0F5F1F509379
:101FA000600340935F038193919302C0E0E0F0E00F
:101FB000CF01DF91CF910895CF93DF93009709F47C
:101FC00091C0FC013297138212826091610370917B
:101FD00062036115710581F420813181280F391F59
:101FE00080915F03909160038217930799F5F093B6
:101FF0006003E0935F0376C0DB0180E090E002C005
:10200000CD01D901AE17BF0748F412962D913C912E
:10201000139721153105A1F7CD0121C0B383A28308
:10202000EF01499159919E01240F351FA217B30763
:1020300079F42D913C911197240F351F2E5F3F4F5E
:102040003183208312962D913C9113973383228301
:10205000009729F4F0936203E093610343C0DC012D
:102060001396FC93EE9312974D915D91A40FB51FBB
:10207000EA17FB0769F420813181240F351F2E5F99
:102080003F4FEC0139832883228133813B832A83AC
:10209000E0E0F0E002C0FB01BC01DB0112968D9193
:1020A0009C9113970097B9F79B012E5F3F4F8D913D
:1020B0009C911197820F931F40915F035091600391
:1020C0004817590779F4309729F410926203109257
:1020D000610302C0138212822250304030936003A9
:1020E00020935F03DF91CF9108950E94120F08950E
:0420F000F894FFCF92
:1020F40001004E030D03550209034502F9022903A9
:1021040055036402DC0282023C03C4022403F70286
:102114005902BC023E032E03FE024B035E0266021A
:102124002B03000314033303DE026F0230030603A0
:10213400AD0249026102C102B3021E03BE0269027A
:102144003903210303035203C602C902B9024F0231
:102154008B02AA025202B002EC025B028E026C02F3
:102164004003E1021103FB02D90226034C021703C8
:10217400840294029B025703A2027A02CF02430311
:10218400E4027202EF0282023C03C4022403F70257
:102194002E03FE02F902290355036402DC025902EC
:1021A400BC023E035902BC023E032E03FE02F902A6
:1021B400290355036402DC025902BC023E032E03C8
:1021C400FE0282023C03C4022403F702BE010FB4E0
:1021D4000105AE0103A40105A001029601050490C6
:1021E400009100710002B000B10070000480008111
:1021F400006F0000440045006E002B0029002A00F7
:1022040028002600270025002300240022002000A7
:1022140021006B006C006D00730030200010001072
:082224003020200063030000DC
:00000001FF
