:100000000C9446000C949A000C949A000C949A005C
:100010000C949A000C949A000C949A000C949A00F8
:100020000C949A000C949A000C949A000C949A00E8
:100030000C949A000C949A000C949A000C949A00D8
:100040000C949A000C949A000C949A000C949A00C8
:100050000C949A000C949A000C949A000C949A00B8
:100060000C949A000C949A000C94500A0C949A00E8
:100070000C949A000C949A000C949A000C949A0098
:100080000C9427030C949A000C949A0011241FBE20
:10009000CFEFD0E4DEBFCDBF13E0A0E0B1E0E8EFEA
:1000A000F6E600E00BBF02C007900D92A439B1073D
:1000B000D9F716E0A4E9B3E001C01D92A73EB1074D
:1000C000E1F70E941D010E942D010E943A020E9448
:1000D00009030E9477030E943D040E94F5040E94D8
:1000E000C30B0E94A70D0E948F0F0E9477110E94E0
:1000F0009C130E9489150E947C170E9477190E9408
:100100006E1B0E94651D0E94571F0E9451210E9474
:1001100049230E943C250E9437270E9432290E94D1
:10012000392B0E94102D86ED80939E030E947A2D1C
:100130000C9477330C94000085ED8093BC00809183
:10014000DD019091DE01A091DF01B091E00180938B
:100150006B0690936C06A0936D06B0936E0610929A
:10016000770610927606089585EC8093BC00809106
:10017000DD019091DE01A091DF01B091E00180935B
:100180006B0690936C06A0936D06B0936E0610926A
:10019000770610927606089580911B0690911C06B2
:1001A000019620916D0630916E068217930710F428
:1001B00085EC01C085E88093BC00089580911B0602
:1001C00090911C0620916D0630916E068217930760
:1001D00070F42091BB00E0916B06F0916C06E80F83
:1001E000F91F2083019690931C0680931B060895A7
:1001F000FC01A081B18180919E038C9311961C9289
:10020000119782E090E09383828308959B01E091AF
:10021000E101F091E2018083CB0101969093E4012A
:100220008093E301E091E101F091E2013196CF0189
:10023000BA01A9010E946733089584B7809394039B
:1002400014BE88E10FB6F8948093600010926000AD
:100250000FBE0895809194030895AEE9B6E0E8E6F4
:10026000F3E086E001900D928150E1F78EE996E08F
:10027000909342068093410621E020934306909399
:10028000CF058093CE0522E02093D00590939C0665
:1002900080939B0624E020939D06909370068093A4
:1002A0006F0628E02093710690930D0680930C064C
:1002B00020E120930E069093AB038093AA0320E2E3
:1002C0002093AC039093C3038093C20320E4209354
:1002D000C403909325068093240680E88093260625
:1002E000A2E1B6E0E2E6F3E086E001900D928150F3
:1002F000E1F782E196E090938A068093890621E0F7
:1003000020938B06909322068093210622E020936F
:1003100023069093CB038093CA0324E02093CC035D
:100320009093A5068093A40628E02093A6069093B8
:100330008D0680938C0620E120938E0690936906AB
:100340008093680620E220936A069093D7068093F4
:10035000D60620E42093D80690932A068093290697
:1003600080E880932B06ACE2B6E0ECE5F3E086E0B3
:1003700001900D928150E1F78CE296E0909319067E
:100380008093180621E020931A069093B10380937E
:10039000B00322E02093B2039093EB058093EA052B
:1003A00024E02093EC0590930A068093090628E048
:1003B00020930B069093B4038093B30320E1209322
:1003C000B5039093100680930F0620E22093110648
:1003D0009093500680934F0620E42093510690930B
:1003E000BD038093BC0380E88093BE03ADEEB5E00F
:1003F000E6E5F3E086E001900D928150E1F78DEEA5
:1004000095E09093CE038093CD0321E02093CF031A
:100410009093C5068093C40622E02093C60690936D
:1004200045068093440624E02093460690937D067B
:1004300080937C0628E020937E0690935F0680934D
:100440005E0620E12093600690933D0680933C0673
:1004500020E220933E06909392068093910620E43A
:10046000209393069093AE038093AD0380E880932E
:10047000AF030895A2E8B6E0EFE4F3E087E001906F
:100480000D928150E1F7A3EEB5E0E8E4F3E087E0F8
:1004900001900D928150E1F7A3EFB5E0E1E4F3E0C4
:1004A00087E001900D928150E1F7AAEFB5E0EAE311
:1004B000F3E087E001900D928150E1F782E896E049
:1004C0009093DC068093DB0627E430E03093DE0671
:1004D0002093DD061092E0061092DF0624EA36E053
:1004E0003093E2062093E106909302068093010682
:1004F00088E490E0909304068093030681E090E006
:1005000090930606809305062CE836E030930806A3
:100510002093070623EE35E03093DA052093D905C2
:1005200048E850E05093DC054093DB051092DE056F
:100530001092DD054CE356E05093E0054093DF0553
:1005400030933306209332062AE830E030933506A4
:100550002093340690933706809336062EE536E0D6
:10056000309339062093380623EF35E03093C806E0
:100570002093C70643EB50E05093CA064093C90648
:100580001092CC061092CB064DEA53E05093CE0663
:100590004093CD06309348062093470624EB30E085
:1005A00030934A062093490690934C0680934B065D
:1005B00021E936E030934E0620934D062AEF35E0D0
:1005C0003093D2052093D10548E950E05093D405EB
:1005D0004093D3051092D6051092D50546ED56E00E
:1005E0005093D8054093D705309353062093520675
:1005F0002AE930E03093550620935406909357062D
:100600008093560689E296E09093590680935806A7
:100610000895CF93DF93CAEFD5E0CE0161E070E09B
:100620000E94C030CE0162E070E00E945C3081ED3B
:1006300095E064EC79E00E94933182E596E064EC09
:1006400079E00E949331DF91CF91089508951F9230
:100650000F920FB60F920BB60F9211242F933F9368
:100660004F935F936F937F938F939F93AF93BF93BA
:10067000EF93FF938091950390919603A091970338
:10068000B09198030196A11DB11D8093950390939D
:100690009603A0939703B09398030E942603FF91BB
:1006A000EF91BF91AF919F918F917F916F915F91EA
:1006B0004F913F912F910F900BBE0F900FBE0F9057
:1006C0001F90189582E090E00E94273208952FB77E
:1006D00030E020783070FC0131832083F894089555
:1006E0000E94670381E090E008957894089589E876
:1006F00096E090935D0680935C060E94782F81E2DD
:1007000096E090939506809394060E94782F8AEC49
:1007100093E09093DA068093D9060E94782F84EABA
:1007200096E09093C6038093C5030E94782F8CE8CF
:1007300096E09093400680933F060E94782F88E6CB
:1007400096E09093BB038093BA030E94782F86EDC6
:1007500096E09093200680931F060E94782F89E2EE
:1007600096E09093AA068093A9060E94782F8DECBC
:1007700093E090939A06809399060E94782F84ECD8
:1007800096E090936206809361060E94782F84E43D
:1007900096E09093E2058093E1050E94782F8CE724
:1007A00096E09093A8068093A7060E94782F8EE586
:1007B00096E090932806809327060E94782F8CE37A
:1007C00096E09093900680938F060E94782F81E99F
:1007D00096E090935B0680935A060E94782FAFECC8
:1007E000B6E0E7E3F3E083E001900D928150E1F79A
:1007F000AFEBB3E0E4E3F3E083E001900D928150CE
:10080000E1F7A7ECB3E0E1E3F3E083E001900D92C0
:100810008150E1F7A6E9B6E0EEE2F3E083E0019073
:100820000D928150E1F7A5E6B6E0EBE2F3E083E05C
:1008300001900D928150E1F7AFE7B6E0E8E2F3E016
:1008400083E001900D928150E1F70895CF93DF93FB
:10085000EC0189819A810E94862F888181FF04C0E2
:1008600089819A810E94A22F888182FF03C08B8197
:100870000E94F02FDF91CF9108951F9313E0109302
:10088000D2068FE096E09093D4068093D30685E15C
:100890008093D50682ED96E00E9426041093780698
:1008A00083EB93E090937A068093790684E18093BA
:1008B0007B0688E796E00E9426041093B60389E041
:1008C00096E09093B8038093B70383E18093B903D4
:1008D00086EB93E00E942604109372068AEE95E060
:1008E000909374068093730682E18093750682E785
:1008F00096E00E9426041093A5038DEA93E090935E
:10090000A7038093A6038FE18093A80385EA93E071
:100910000E9426040E94620390933B0680933A064D
:100920001F9108951F9382ED96E00E94D92F11E048
:10093000009709F410E088E796E00E94D92F00970D
:1009400009F0126086EB93E00E94D92F009709F01E
:10095000146082E796E00E94D92F009709F0186092
:1009600085EA93E00E94D92F009709F01061812F4A
:100970001F91089580913A0690913B060E9467036B
:100980008091990310929903789408950F931F937F
:100990000E949204082F80919A0380FD03C0102FBB
:1009A000117001C010E081FD02C001FD126082FDE6
:1009B00002C002FD146083FD02C003FD186084FDC7
:1009C00002C004FD106180913A0690913B060E949E
:1009D000670380919903812B809399037894009306
:1009E0009A031F910F910895089585E08093BC00AC
:1009F0008FEF8093BB0081E18093B8001092B90023
:100A00008CE28093BA000895DF93CF93CDB7DEB721
:100A100027970FB6F894DEBF0FBECDBF8091630657
:100A200090916406833091050CF052C0AE014F5F87
:100A30005F4F8091630690916406FC0133E0EE0FF6
:100A4000FF1F3A95E1F7E81BF90BDA01E155F94F81
:100A500027E001900D922150E1F7FC0123E0EE0F19
:100A6000FF1F2A95E1F7E81BF90BE155F94F648167
:100A70002581368101969093640680936306211543
:100A8000310521F0833091052CF022C0833091058F
:100A900084F21EC02230310511F46E7F04C0213073
:100AA000310519F461606093A90310921C0610923D
:100AB0001B0689819A81AB81BC8180936B069093E0
:100AC0006C06A0936D06B0936E0621E030E002C084
:100AD00020E030E0C90127960FB6F894DEBF0FBEC4
:100AE000CDBFCF91DF9108950E940405009719F4BE
:100AF0000E949C00089585EA8093BC00089510929E
:100B00001E0610921D0681E090E090937706809378
:100B1000760610926406109263060E940405009700
:100B200019F085EA8093BC0008951F9340E050E0DF
:100B300020E030E00FC0DA01A155B94FFB01E40F0E
:100B4000F51F17E001900D921150E1F72F5F3F4F15
:100B5000495F5F4F281739075CF0F90143E0EE0F5A
:100B6000FF1F4A95E1F7E21BF30BEC54F94F09C064
:100B70002330310501F7F1CF118210822F5F3F4FF3
:100B8000379623303105C4F30E947F051F910895E5
:100B90000F931F93DF93CF93CDB7DEB72E970FB68A
:100BA000F894DEBF0FBECDBFFE0131969EE0DF019F
:100BB0001D929A95E9F749835A836B837C838D83D1
:100BC00042E050E05F834E83088719872A873B877E
:100BD0008C8781E090E09E878D8782E090E0BF0166
:100BE0000E9495052E960FB6F894DEBF0FBECDBFBE
:100BF000CF91DF911F910F910895DF93CF93CDB7E0
:100C0000DEB727970FB6F894DEBF0FBECDBFFE014B
:100C1000319697E0DF011D929A95E9F749835A834F
:100C20006B837C838D8381E090E09F838E83BF0103
:100C30000E94950527960FB6F894DEBF0FBECDBF74
:100C4000CF91DF910895DF93CF93CDB7DEB727978C
:100C50000FB6F894DEBF0FBECDBFFE01319697E010
:100C6000DF011D929A95E9F749835A836B837C8350
:100C70008D8382E090E09F838E8381E090E0BF01CE
:100C80000E94950527960FB6F894DEBF0FBECDBF24
:100C9000CF91DF910895F894809176069091770630
:100CA00078948823C1F70895FC0180819181908315
:100CB000818308956091AB067091AC068091AD067A
:100CC0009091AE0608951F93182F862FBA01A9019F
:100CD0000E9406014091E1015091E2016091E3011F
:100CE0007091E401812F0E9423061F9108950F93B4
:100CF0001F93182F862FBA01A9010E940601409167
:100D0000E1015091E2016091E3017091E401812FD2
:100D100000E010E098010E94C8051F910F9108950E
:100D2000DF93CF9300D0CDB7DEB79A8389839E013E
:100D30002F5F3F4F42E050E08091360163E40E9414
:100D400077060E944B060F900F90CF91DF91089588
:100D5000DF93CF930F92CDB7DEB789839E012F5FCC
:100D60003F4F41E050E08091360162E30E947706F8
:100D70000E944B060F90CF91DF910895DF93CF93A0
:100D800000D0CDB7DEB79A8389839E012F5F3F4F96
:100D900042E050E08091360161E30E9477060E94B4
:100DA0004B060F900F90CF91DF91089580913601FF
:100DB00060E320E030E0A9010E9477060E944B0624
:100DC0000895DF93CF930F92CDB7DEB789839E014D
:100DD0002F5F3F4F41E050E08091360165E10E9476
:100DE00077060E944B060F90CF91DF910895DF9315
:100DF000CF930F92CDB7DEB789839E012F5F3F4F10
:100E000041E050E08091360162E10E9477060E9445
:100E10004B060F90CF91DF910895DF93CF930F9200
:100E2000CDB7DEB789839E012F5F3F4F41E050E091
:100E30008091360161E10E9477060E944B060F9077
:100E4000CF91DF910895DF93CF9300D0CDB7DEB778
:100E50009A8389839E012F5F3F4F42E050E080914B
:100E6000360160E10E9477060E944B060F900F90BA
:100E7000CF91DF910895DF93CF930F92CDB7DEB777
:100E800089839E012F5F3F4F41E050E08091360102
:100E900063E00E9477060E944B060F90CF91DF918E
:100EA00008958091360160E020E030E0A9010E94C1
:100EB00077060E944B060895DF92EF92FF920F9300
:100EC0001F93D82E862FBA01A9010E9406014091D6
:100ED000E1015091E2016091E3017091E4018D2DF7
:100EE000980187010E94C8051F910F91FF90EF9014
:100EF000DF900895EF92FF920F931F93DF93CF93AC
:100F000000D0CDB7DEB78A839E012E5F3F4F41E010
:100F100050E07E010894E11CF11C01E010E080919A
:100F2000360162E40E945C070E944B0689810F90A3
:100F30000F90CF91DF911F910F91FF90EF90089547
:100F4000EF92FF920F931F93DF93CF9300D00F92F6
:100F5000CDB7DEB78B839E012D5F3F4F41E050E060
:100F60007E010894E11CF11C02E010E08091360142
:100F700061E40E945C070E944B0689819A810F9070
:100F80000F900F90CF91DF911F910F91FF90EF90F5
:100F90000895EF92FF920F931F93DF93CF9300D0AA
:100FA0000F92CDB7DEB79B838A839E012E5F3F4FA2
:100FB00042E050E07E010894E11CF11C01E010E0E9
:100FC0008091360160E40E945C070E944B06898193
:100FD0000F900F900F90CF91DF911F910F91FF9085
:100FE000EF900895EF92FF920F931F93DF93CF93AB
:100FF0000F92CDB7DEB79C01AB017E010894E11CD6
:10100000F11C01E010E08091360163E30E945C076F
:101010000E944B0689810F90CF91DF911F910F9114
:10102000FF90EF900895EF92FF920F931F93DF933D
:10103000CF9300D000D0CDB7DEB79C838B839E01C9
:101040002D5F3F4F42E050E07E010894E11CF11C0F
:1010500002E010E0809136016BE10E945C070E9483
:101060004B0689819A810F900F900F900F90CF912E
:10107000DF911F910F91FF90EF900895EF92FF92F3
:101080000F931F93DF93CF9300D00F92CDB7DEB7AE
:101090008B839E012D5F3F4F41E050E07E0108941D
:1010A000E11CF11C02E010E0809136016AE10E942F
:1010B0005C070E944B0689819A810F900F900F90D8
:1010C000CF91DF911F910F91FF90EF900895EF92D4
:1010D000FF920F931F93DF93CF9300D0CDB7DEB76E
:1010E0009C01AB017E010894E11CF11C02E010E0C0
:1010F0008091360169E10E945C070E944B0689815C
:101100009A810F900F90CF91DF911F910F91FF90D7
:10111000EF900895EF92FF920F931F93DF93CF9379
:1011200000D000D0CDB7DEB79C838B839E012D5FAE
:101130003F4F42E050E07E010894E11CF11C02E0C8
:1011400010E08091360168E10E945C070E944B0626
:1011500089819A810F900F900F900F90CF91DF911E
:101160001F910F91FF90EF900895EF92FF920F93D0
:101170001F93DF93CF9300D00F92CDB7DEB78B8351
:101180009E012D5F3F4F41E050E07E010894E11C3D
:10119000F11C02E010E08091360167E10E945C07DB
:1011A0000E944B0689819A810F900F900F90CF91EA
:1011B000DF911F910F91FF90EF900895EF92FF92B2
:1011C0000F931F93DF93CF9300D00F92CDB7DEB76D
:1011D0008B839E012D5F3F4F41E050E07E010894DC
:1011E000E11CF11C02E010E08091360166E10E94F2
:1011F0005C070E944B0689819A810F900F900F9097
:10120000CF91DF911F910F91FF90EF900895EF9292
:10121000FF920F931F93DF93CF930F92CDB7DEB75B
:101220009C01AB017E010894E11CF11C01E010E07F
:101230008091360164E10E945C070E944B0689811F
:101240000F90CF91DF911F910F91FF90EF90089534
:10125000EF92FF920F931F93DF93CF9300D0CDB700
:10126000DEB79C01AB017E010894E11CF11C02E099
:1012700010E08091360163E10E945C070E944B06FA
:1012800089819A810F900F90CF91DF911F910F91DB
:10129000FF90EF900895EF92FF920F931F93DF93CB
:1012A000CF930F92CDB7DEB77E010894E11CF11CFD
:1012B00001E010E08091360162E020E030E0A90119
:1012C0000E945C070E944B0689810F90CF91DF91AD
:1012D0001F910F91FF90EF900895EF92FF920F935F
:1012E0001F93DF93CF9300D0CDB7DEB77E01089474
:1012F000E11CF11C02E010E08091360161E020E089
:1013000030E0A9010E945C070E944B0689819A8106
:101310000F900F90CF91DF911F910F91FF90EF9061
:101320000895AF92BF92CF92DF92EF92FF920F9308
:101330001F93DF93CF930F92CDB7DEB789836B01F5
:10134000E0919C03F0919D03309709F463C0282F2E
:10135000332727FD3095E380F480C9019695879562
:1013600096958795A90175E0440F551F7A95E1F789
:10137000840F951F4A81552747FD5095840F951F6F
:1013800082279327D70112962D913C9113972150D4
:101390003040822393239C01220F331F280F391FD3
:1013A000220F331FED91FC911197E20FF31F008183
:1013B00011810115110539F01A968D919C911B9799
:1013C000081B190B20C000E010E01DC0F801878544
:1013D00090898230910549F485859685B50142E072
:1013E00050E00E945A330097D9F0D8011B960D9116
:1013F0001C911C970115110569F0F70182859385F1
:10140000081B190B04C05E010894A11CB11C011536
:101410001105E1F6D60113961C921E92129707C091
:10142000D8011196ED91FC911297C60109950F9084
:10143000CF91DF911F910F91FF90EF90DF90CF90B0
:10144000BF90AF900895DF93CF9300D000D0CDB779
:10145000DEB769837A838B839C83E62FF72F819194
:10146000FA83E9832B813C81215030403C832B83DC
:10147000BE016F5F7F4F0E94910989819A81AB8184
:10148000BC818093AB069093AC06A093AD06B0935D
:10149000AE060F900F900F900F90CF91DF910895AF
:1014A0001F920F920FB60F920BB60F9211242F932B
:1014B0003F934F935F936F937F938F939F93AF93DC
:1014C000BF93EF93FF938091B90090E0887F907075
:1014D0008836910509F40BC1893691050CF040C09E
:1014E0008033910509F4A0C081339105E4F4803183
:1014F000910509F476C08131910544F4009709F40F
:1015000011C18830910509F010C16BC0803291057E
:1015100009F48DC08832910509F469C088319105BC
:1015200009F003C164C08834910509F480C089348E
:1015300091054CF48833910509F456C08034910527
:1015400009F0F3C0D4C08835910509F479C080361C
:10155000910509F4CCC08035910509F0E6C0C5C0FD
:10156000803A910509F4C6C0813A9105ECF48038BF
:10157000910509F4BAC0813891054CF48037910582
:1015800009F4B5C08837910509F0CFC0B0C08039E3
:10159000910509F4AAC08839910509F4B1C08838C9
:1015A000910509F0C2C0ACC0883B910509F45DC04B
:1015B000893B91054CF4883A910509F446C0803B7B
:1015C000910509F0B2C041C0883C910509F478C08A
:1015D000883F910509F4A3C0803C910509F0A5C09E
:1015E00072C08091A90369C085E090E079C08091C4
:1015F0001B0690911C0620916D0630916E06821795
:10160000930700F5E0916B06F0916C06E80FF91F67
:101610002081019690931C0680931B062093BB00AB
:1016200085E88093BC0089C086E090E002C084E039
:1016300090E090931E0680931D060E949C007DC042
:101640000E94DE000E94740578C03091AB062091A4
:10165000AC069091AD068091AE0630936B06209358
:101660006C0690936D0680936E0680911B06909198
:101670001C0620916D0630916E062150304060911D
:101680006B0670916C06AC014F5F5F4F821793073A
:1016900060F4860F971FFC0180818093BB005093FC
:1016A0001C0640931B0685ECBCCF860F971FFC01E0
:1016B000808150931C0640931B068093BB00B0CFE3
:1016C00087E090E00DC020911B0630911C068091B0
:1016D0006D0690916E0628173907F0F488E090E0C7
:1016E00090931E0680931D0617C00E94DE000E9484
:1016F000CC0023C089E090E090931E0680931D06E5
:101700000E94DE0060916B0670916C0680911B0652
:1017100090911C060E94230A0E94B4000EC081E032
:1017200090E005C082E090E002C083E090E09093FA
:101730001E0680931D060E94F404FF91EF91BF9155
:10174000AF919F918F917F916F915F914F913F9159
:101750002F910F900BBE0F900FBE0F901F901895FA
:1017600086ED80939E03089510929E030E94E431BB
:101770000895CF93DF93EC010E94B40B1B821A8271
:10178000DF91CF9108954F925F926F927F928F92E7
:101790009F92AF92BF92CF92DF92EF92FF920F9300
:1017A0001F93CF93DF931092ED011092EC01E5EEC1
:1017B000F1E0F093F301E093F20182E090E0909386
:1017C000F5018093F401A0919C03B0919D038F01DA
:1017D0000D5F1F4F109709F049C0F0939D03E093F0
:1017E0009C031092EB011092EA0188E190E00E94C4
:1017F00027329093E9018093E801009709F4D7C05C
:10180000E82FF92F88E1DF011D928A95E9F7C09151
:10181000E801D091E9011987088780E290E09B8375
:101820008A8385E090E09D838C8383E090E09B87B2
:101830008A8780EC90E00E94273299838883009702
:1018400009F4B5C0E82FF92F80ECDF011D928A95CD
:10185000E9F7E091E801F091E90181EE9FE1A1E172
:10186000B0EA848B958BA68BB78B16C013960D9020
:10187000BC91A02D1896CD91DC911997FD83EC8336
:101880001A968D919C911B97C81BD90BD683C58343
:1018900019961C930E931897E0919C03F0919D0369
:1018A000C381D4818E819F8101969F838E8348EE70
:1018B00051E0D093E901C093E801DA011397209138
:1018C000E501332727FD3095C901969587959695B3
:1018D0008795B90115E0660F771F1A95E1F7860F16
:1018E000971F6091E601772767FD7095860F971F18
:1018F0008227932752969C938E9351970380F4816D
:10190000E02D228133812150304028233923C90121
:10191000880F991F820F931F880F991F0190F081E4
:10192000E02DE80FF91F82819381019693838283D2
:10193000208131811C963C932E931B971A961C9202
:101940001E9219972115310529F0D90117965C933C
:101950004E93169728EE31E0318320832481358120
:101960002F5F3F4FA901440F551FE3E0220F331FA4
:10197000EA95E1F7420F531F8417950708F4C8C092
:101980008A899B898130910509F4C2C08A819B8133
:101990008C01000F111F080F191F000F111F000FDE
:1019A000111FC8010E9427324C01009721F48FEFCC
:1019B0009FEF0E94773360E070E0A8010E947033CF
:1019C0000E811F816A807B807301EE0CFF1C0894DE
:1019D000E108F108C7018023912321E030E000975E
:1019E00011F420E030E08C819D81019602C01695B3
:1019F00007958A95E2F7020F131F1D870C871F8634
:101A00001E86CC24DD24AA24BB2451C08C0D9D1D30
:101A1000FC012081318140C0D90118965C90189753
:101A200019964C9019971E968D919C911F978E2117
:101A30009F21FC01EE0FFF1FE80FF91FEE0FFF1FA4
:101A4000E80DF91D828193810196938382830817A3
:101A5000190758F44E855F854F5F5F4F5F874E874C
:101A6000B8010E94003275836483D90117961C92D5
:101A70001E9216978081918119969C938E93189748
:101A8000009729F0DC0117963C932E93169731832B
:101A90002083C201292F342D2115310509F0BCCF37
:101AA0000894A11CB11CE6E0F0E0CE0EDF1E888198
:101AB0009981A614B70408F4A9CF0E94C132E0911D
:101AC000E801F091E90182819381880F991F938346
:101AD000828384819581019695838483918280821B
:101AE00086819781969587952685378582179307F6
:101AF00020F480899189019602C080E090E0918B6A
:101B0000808B8230910520F081E090E0938B828B76
:101B1000DF91CF911F910F91FF90EF90DF90CF90C9
:101B2000BF90AF909F908F907F906F905F904F90FD
:101B30000895FC01A081B18180919E038C93119640
:101B40001C92119782E090E09383828308954F92D4
:101B50005F926F927F928F929F92AF92BF92CF923D
:101B6000DF92EF92FF920F931F93CF93DF93109228
:101B700000021092FF01E8EFF1E0F0930602E0931B
:101B8000050282E090E09093080280930702A09102
:101B90009C03B0919D038F010D5F1F4F109709F0BB
:101BA00049C0F0939D03E0939C031092FE011092B4
:101BB000FD0188E190E00E9427329093FC01809320
:101BC000FB01009709F4D7C0E82FF92F88E1DF0166
:101BD0001D928A95E9F7C091FB01D091FC0119870C
:101BE000088780E290E09B838A8385E090E09D8374
:101BF0008C8383E090E09B878A8780EC90E00E9452
:101C0000273299838883009709F4B5C0E82FF92F0C
:101C100080ECDF011D928A95E9F7E091FB01F091DC
:101C2000FC0181EE9FE1A1E1B0EA848B958BA68B4C
:101C3000B78B16C013960D90BC91A02D1896CD9120
:101C4000DC911997FD83EC831A968D919C911B97DB
:101C5000C81BD90BD683C58319961C930E9318976E
:101C6000E0919C03F0919D03C381D4818E819F817B
:101C700001969F838E834BEF51E0D093FC01C0937C
:101C8000FB01DA0113972091F801332727FD3095E6
:101C9000C9019695879596958795B90115E0660FC8
:101CA000771F1A95E1F7860F971F6091F901772743
:101CB00067FD7095860F971F8227932752969C93F6
:101CC0008E9351970380F481E02D2281338121503E
:101CD000304028233923C901880F991F820F931F91
:101CE000880F991F0190F081E02DE80FF91F828184
:101CF0009381019693838283208131811C963C934A
:101D00002E931B971A961C921E9219972115310536
:101D100029F0D90117965C934E9316972BEF31E07B
:101D200031832083248135812F5F3F4FA901440FE8
:101D3000551FF3E0220F331FFA95E1F7420F531FAF
:101D40008417950708F4C8C08A899B89813091055A
:101D500009F4C2C08A819B818C01000F111F080FFA
:101D6000191F000F111F000F111FC8010E942732F9
:101D70004C01009721F48FEF9FEF0E94773360E0D2
:101D800070E0A8010E9470330E811F816A807B8001
:101D90007301EE0CFF1C0894E108F108C7018023D1
:101DA000912321E030E0009711F420E030E08C81B5
:101DB0009D81019602C0169507958A95E2F7020F5C
:101DC000131F1D870C871F861E86CC24DD24AA24A2
:101DD000BB2451C08C0D9D1DFC012081318140C070
:101DE000D90118965C90189719964C9019971E96E1
:101DF0008D919C911F978E219F21FC01EE0FFF1F5B
:101E0000E80FF91FEE0FFF1FE80DF91D8281938186
:101E10000196938382830817190758F44E855F85CE
:101E20004F5F5F4F5F874E87B8010E940032758316
:101E30006483D90117961C921E9216978081918116
:101E400019969C938E931897009729F0DC011796AA
:101E50003C932E93169731832083C201292F342D72
:101E60002115310509F0BCCF0894A11CB11CE6E096
:101E7000F0E0CE0EDF1E88819981A614B70408F425
:101E8000A9CF0E94C132E091FB01F091FC01828157
:101E90009381880F991F9383828384819581019612
:101EA0009583848391828082868197819695879598
:101EB000268537858217930720F4808991890196BA
:101EC00002C080E090E0918B808B8230910520F001
:101ED00081E090E0938B828BDF91CF911F910F91E6
:101EE000FF90EF90DF90CF90BF90AF909F908F903A
:101EF0007F906F905F904F900895CF93DF93EC01A8
:101F00000E949204E881F981808381E090E09B83C4
:101F10008A83DF91CF9108950E947D0F08954F929B
:101F20005F926F927F928F929F92AF92BF92CF9269
:101F3000DF92EF92FF920F931F93CF93DF93109254
:101F4000130210921202EBE0F2E0F0931902E09318
:101F5000180282E090E090931B0280931A02A091F5
:101F60009C03B0919D038F010D5F1F4F109709F0E7
:101F700049C0F0939D03E0939C03109211021092CC
:101F8000100288E190E00E94273290930F02809324
:101F90000E02009709F4D7C0E82FF92F88E1DF017E
:101FA0001D928A95E9F7C0910E02D0910F02198710
:101FB000088780E290E09B838A8385E090E09D83A0
:101FC0008C8383E090E09B878A8780EC90E00E947E
:101FD000273299838883009709F4B5C0E82FF92F39
:101FE00080ECDF011D928A95E9F7E0910E02F091F5
:101FF0000F0281EE9FE1A1E1B0EA848B958BA68B65
:10200000B78B16C013960D90BC91A02D1896CD914C
:10201000DC911997FD83EC831A968D919C911B9707
:10202000C81BD90BD683C58319961C930E9318979A
:10203000E0919C03F0919D03C381D4818E819F81A7
:1020400001969F838E834EE052E0D0930F02C0939F
:102050000E02DA01139720910B02332727FD3095EA
:10206000C9019695879596958795B90115E0660FF4
:10207000771F1A95E1F7860F971F60910C0277275B
:1020800067FD7095860F971F8227932752969C9322
:102090008E9351970380F481E02D2281338121506A
:1020A000304028233923C901880F991F820F931FBD
:1020B000880F991F0190F081E02DE80FF91F8281B0
:1020C0009381019693838283208131811C963C9376
:1020D0002E931B971A961C921E9219972115310563
:1020E00029F0D90117965C934E9316972EE032E0B3
:1020F00031832083248135812F5F3F4FA901440F15
:10210000551FF3E0220F331FFA95E1F7420F531FDB
:102110008417950708F4C8C08A899B898130910586
:1021200009F4C2C08A819B818C01000F111F080F26
:10213000191F000F111F000F111FC8010E94273225
:102140004C01009721F48FEF9FEF0E94773360E0FE
:1021500070E0A8010E9470330E811F816A807B802D
:102160007301EE0CFF1C0894E108F108C7018023FD
:10217000912321E030E0009711F420E030E08C81E1
:102180009D81019602C0169507958A95E2F7020F88
:10219000131F1D870C871F861E86CC24DD24AA24CE
:1021A000BB2451C08C0D9D1DFC012081318140C09C
:1021B000D90118965C90189719964C9019971E960D
:1021C0008D919C911F978E219F21FC01EE0FFF1F87
:1021D000E80FF91FEE0FFF1FE80DF91D82819381B3
:1021E0000196938382830817190758F44E855F85FB
:1021F0004F5F5F4F5F874E87B8010E940032758343
:102200006483D90117961C921E9216978081918142
:1022100019969C938E931897009729F0DC011796D6
:102220003C932E93169731832083C201292F342D9E
:102230002115310509F0BCCF0894A11CB11CE6E0C2
:10224000F0E0CE0EDF1E88819981A614B70408F451
:10225000A9CF0E94C132E0910E02F0910F0282815B
:102260009381880F991F938382838481958101963E
:1022700095838483918280828681978196958795C4
:10228000268537858217930720F4808991890196E6
:1022900002C080E090E0918B808B8230910520F02D
:1022A00081E090E0938B828BDF91CF911F910F9112
:1022B000FF90EF90DF90CF90BF90AF909F908F9066
:1022C0007F906F905F904F900895CF93DF93EC01D4
:1022D0000E94BA04E881F981808381E090E09B83C9
:1022E0008A83DF91CF9108950E94651108954F92DE
:1022F0005F926F927F928F929F92AF92BF92CF9296
:10230000DF92EF92FF920F931F93CF93DF93109280
:10231000260210922502EEE1F2E0F0932C02E09307
:102320002B0282E090E090932E0280932D02A091E8
:102330009C03B0919D038F010D5F1F4F109709F013
:1023400049C0F0939D03E0939C03109224021092E5
:10235000230288E190E00E9427329093220280932A
:102360002102009709F4D7C0E82FF92F88E1DF0197
:102370001D928A95E9F7C0912102D0912202198716
:10238000088780E290E09B838A8385E090E09D83CC
:102390008C8383E090E09B878A8780EC90E00E94AA
:1023A000273299838883009709F4B5C0E82FF92F65
:1023B00080ECDF011D928A95E9F7E0912102F0910E
:1023C000220281EE9FE1A1E1B0EA848B958BA68B7E
:1023D000B78B16C013960D90BC91A02D1896CD9179
:1023E000DC911997FD83EC831A968D919C911B9734
:1023F000C81BD90BD683C58319961C930E931897C7
:10240000E0919C03F0919D03C381D4818E819F81D3
:1024100001969F838E8341E252E0D0932202C093C3
:102420002102DA01139720911E02332727FD3095F0
:10243000C9019695879596958795B90115E0660F20
:10244000771F1A95E1F7860F971F60911F02772774
:1024500067FD7095860F971F8227932752969C934E
:102460008E9351970380F481E02D22813381215096
:10247000304028233923C901880F991F820F931FE9
:10248000880F991F0190F081E02DE80FF91F8281DC
:102490009381019693838283208131811C963C93A2
:1024A0002E931B971A961C921E921997211531058F
:1024B00029F0D90117965C934E93169721E232E0EA
:1024C00031832083248135812F5F3F4FA901440F41
:1024D000551FF3E0220F331FFA95E1F7420F531F08
:1024E0008417950708F4C8C08A899B8981309105B3
:1024F00009F4C2C08A819B818C01000F111F080F53
:10250000191F000F111F000F111FC8010E94273251
:102510004C01009721F48FEF9FEF0E94773360E02A
:1025200070E0A8010E9470330E811F816A807B8059
:102530007301EE0CFF1C0894E108F108C701802329
:10254000912321E030E0009711F420E030E08C810D
:102550009D81019602C0169507958A95E2F7020FB4
:10256000131F1D870C871F861E86CC24DD24AA24FA
:10257000BB2451C08C0D9D1DFC012081318140C0C8
:10258000D90118965C90189719964C9019971E9639
:102590008D919C911F978E219F21FC01EE0FFF1FB3
:1025A000E80FF91FEE0FFF1FE80DF91D82819381DF
:1025B0000196938382830817190758F44E855F8527
:1025C0004F5F5F4F5F874E87B8010E94003275836F
:1025D0006483D90117961C921E921697808191816F
:1025E00019969C938E931897009729F0DC01179603
:1025F0003C932E93169731832083C201292F342DCB
:102600002115310509F0BCCF0894A11CB11CE6E0EE
:10261000F0E0CE0EDF1E88819981A614B70408F47D
:10262000A9CF0E94C132E0912102F0912202828161
:102630009381880F991F938382838481958101966A
:1026400095838483918280828681978196958795F0
:10265000268537858217930720F480899189019612
:1026600002C080E090E0918B808B8230910520F059
:1026700081E090E0938B828BDF91CF911F910F913E
:10268000FF90EF90DF90CF90BF90AF909F908F9092
:102690007F906F905F904F9008958830910540F43F
:1026A000FC01EE0FFF1FE259FC4F2081318102C077
:1026B00020E030E0C9010895DF93CF9300D00F925E
:1026C000CDB7DEB769837A838B83E981FA81E830FD
:1026D000F10540F4EE0FFF1FE259FC4F0190F0812D
:1026E000E02D02C0E0E0F0E08B8190E0880F991FC0
:1026F0000190F081E02DE80FF91F808191810F900A
:102700000F900F90CF91DF910895FC01608171814E
:1027100082810E945C130E94082E0895CF93DF935C
:10272000EC016A817B81888199810E9485131B82DB
:102730001A82DF91CF9108954F925F926F927F92AC
:102740008F929F92AF92BF92CF92DF92EF92FF92C1
:102750000F931F93CF93DF93109239021092380298
:10276000E1E3F2E0F0933F02E0933E0282E090E08A
:102770009093410280934002A0919C03B0919D03ED
:102780008F010D5F1F4F109709F049C0F0939D0313
:10279000E0939C03109237021092360288E190E099
:1027A0000E9427329093350280933402009709F4F7
:1027B000D7C0E82FF92F88E1DF011D928A95E9F74C
:1027C000C0913402D09135021987088780E290E0E9
:1027D0009B838A8385E090E09D838C8383E090E0F7
:1027E0009B878A8780EC90E00E94273299838883B8
:1027F000009709F4B5C0E82FF92F80ECDF011D9296
:102800008A95E9F7E0913402F091350281EE9FE17B
:10281000A1E1B0EA848B958BA68BB78B16C013967B
:102820000D90BC91A02D1896CD91DC911997FD8348
:10283000EC831A968D919C911B97C81BD90BD6835C
:10284000C58319961C930E931897E0919C03F09101
:102850009D03C381D4818E819F8101969F838E8346
:1028600044E352E0D0933502C0933402DA01139767
:1028700020913102332727FD3095C9019695879520
:1028800096958795B90115E0660F771F1A95E1F7C0
:10289000860F971F60913202772767FD7095860F2C
:1028A000971F8227932752969C938E93519703806C
:1028B000F481E02D228133812150304028233923B7
:1028C000C901880F991F820F931F880F991F0190CC
:1028D000F081E02DE80FF91F8281938101969383A7
:1028E0008283208131811C963C932E931B971A96EC
:1028F0001C921E9219972115310529F0D9011796BE
:102900005C934E93169724E332E031832083248135
:1029100035812F5F3F4FA901440F551FB3E0220FB0
:10292000331FBA95E1F7420F531F8417950708F438
:10293000C8C08A899B898130910509F4C2C08A8107
:102940009B818C01000F111F080F191F000F111F11
:10295000000F111FC8010E9427324C01009721F47B
:102960008FEF9FEF0E94773360E070E0A8010E9434
:1029700070330E811F816A807B807301EE0CFF1C17
:102980000894E108F108C7018023912321E030E099
:10299000009711F420E030E08C819D81019602C007
:1029A000169507958A95E2F7020F131F1D870C876E
:1029B0001F861E86CC24DD24AA24BB2451C08C0D86
:1029C0009D1DFC012081318140C0D90118965C9089
:1029D000189719964C9019971E968D919C911F9758
:1029E0008E219F21FC01EE0FFF1FE80FF91FEE0F54
:1029F000FF1FE80DF91D82819381019693838283E5
:102A00000817190758F44E855F854F5F5F4F5F8742
:102A10004E87B8010E94003275836483D9011796EE
:102A20001C921E9216978081918119969C938E9389
:102A30001897009729F0DC0117963C932E93169770
:102A400031832083C201292F342D2115310509F04E
:102A5000BCCF0894A11CB11CE6E0F0E0CE0EDF1E56
:102A600088819981A614B70408F4A9CF0E94C132C5
:102A7000E0913402F091350282819381880F991F91
:102A80009383828384819581019695838483918247
:102A900080828681978196958795268537858217CE
:102AA000930720F480899189019602C080E090E02C
:102AB000918B808B8230910520F081E090E0938BA8
:102AC000828BDF91CF911F910F91FF90EF90DF905C
:102AD000CF90BF90AF909F908F907F906F905F90BE
:102AE0004F900895FC016081718182810E945C1386
:102AF0000E94102E0895CF93DF93EC016A817B81B1
:102B0000888199810E9472151B821A82DF91CF9170
:102B100008954F925F926F927F928F929F92AF92A1
:102B2000BF92CF92DF92EF92FF920F931F93CF93BA
:102B3000DF9310924C0210924B02E4E4F2E0F09327
:102B40005202E093510282E090E09093540280930D
:102B50005302A0919C03B0919D038F010D5F1F4F05
:102B6000109709F049C0F0939D03E0939C031092E5
:102B70004A021092490288E190E00E942732909325
:102B8000480280934702009709F4D7C0E82FF92F35
:102B900088E1DF011D928A95E9F7C0914702D09143
:102BA00048021987088780E290E09B838A8385E04A
:102BB00090E09D838C8383E090E09B878A8780EC04
:102BC00090E00E94273299838883009709F4B5C06A
:102BD000E82FF92F80ECDF011D928A95E9F7E0914B
:102BE0004702F091480281EE9FE1A1E1B0EA848BB7
:102BF000958BA68BB78B16C013960D90BC91A02D0C
:102C00001896CD91DC911997FD83EC831A968D91DE
:102C10009C911B97C81BD90BD683C58319961C930F
:102C20000E931897E0919C03F0919D03C381D4818A
:102C30008E819F8101969F838E8347E452E0D093DB
:102C40004802C0934702DA011397209144023327C8
:102C500027FD3095C9019695879596958795B90179
:102C600015E0660F771F1A95E1F7860F971F6091A1
:102C70004502772767FD7095860F971F8227932758
:102C800052969C938E9351970380F481E02D22817C
:102C900033812150304028233923C901880F991FDF
:102CA000820F931F880F991F0190F081E02DE80F8C
:102CB000F91F8281938101969383828320813181E0
:102CC0001C963C932E931B971A961C921E92199752
:102CD0002115310529F0D90117965C934E9316976B
:102CE00027E432E031832083248135812F5F3F4FF9
:102CF000A901440F551FF3E0220F331FFA95E1F7A6
:102D0000420F531F8417950708F4C8C08A899B890E
:102D10008130910509F4C2C08A819B818C01000F2A
:102D2000111F080F191F000F111F000F111FC801DD
:102D30000E9427324C01009721F48FEF9FEF0E94F1
:102D4000773360E070E0A8010E9470330E811F812C
:102D50006A807B807301EE0CFF1C0894E108F10887
:102D6000C7018023912321E030E0009711F420E097
:102D700030E08C819D81019602C0169507958A9559
:102D8000E2F7020F131F1D870C871F861E86CC24B7
:102D9000DD24AA24BB2451C08C0D9D1DFC01208183
:102DA000318140C0D90118965C90189719964C90C3
:102DB00019971E968D919C911F978E219F21FC0142
:102DC000EE0FFF1FE80FF91FEE0FFF1FE80DF91DB3
:102DD000828193810196938382830817190758F49F
:102DE0004E855F854F5F5F4F5F874E87B8010E94BA
:102DF000003275836483D90117961C921E92169730
:102E00008081918119969C938E931897009729F051
:102E1000DC0117963C932E93169731832083C201D1
:102E2000292F342D2115310509F0BCCF0894A11CA0
:102E3000B11CE6E0F0E0CE0EDF1E88819981A61479
:102E4000B70408F4A9CF0E94C132E0914702F09183
:102E5000480282819381880F991F938382838481A2
:102E60009581019695838483918280828681978162
:102E700096958795268537858217930720F4808954
:102E80009189019602C080E090E0918B808B823026
:102E9000910520F081E090E0938B828BDF91CF91C0
:102EA0001F910F91FF90EF90DF90CF90BF90AF9068
:102EB0009F908F907F906F905F904F900895CF93E9
:102EC000DF93EC01688179818A810E945C136B81B8
:102ED0007C810E94182EDF91CF910895CF93DF93CC
:102EE000EC016A817B81888199810E945F171B8236
:102EF0001A82DF91CF9108954F925F926F927F92E5
:102F00008F929F92AF92BF92CF92DF92EF92FF92F9
:102F10000F931F93CF93DF9310925F0210925E0284
:102F2000E7E5F2E0F0936502E093640282E090E06E
:102F30009093670280936602A0919C03B0919D03D9
:102F40008F010D5F1F4F109709F049C0F0939D034B
:102F5000E0939C0310925D0210925C0288E190E085
:102F60000E94273290935B0280935A02009709F4E3
:102F7000D7C0E82FF92F88E1DF011D928A95E9F784
:102F8000C0915A02D0915B021987088780E290E0D5
:102F90009B838A8385E090E09D838C8383E090E02F
:102FA0009B878A8780EC90E00E94273299838883F0
:102FB000009709F4B5C0E82FF92F80ECDF011D92CE
:102FC0008A95E9F7E0915A02F0915B0281EE9FE168
:102FD000A1E1B0EA848B958BA68BB78B16C01396B4
:102FE0000D90BC91A02D1896CD91DC911997FD8381
:102FF000EC831A968D919C911B97C81BD90BD68395
:10300000C58319961C930E931897E0919C03F09139
:103010009D03C381D4818E819F8101969F838E837E
:103020004AE552E0D0935B02C0935A02DA0113974B
:1030300020915702332727FD3095C9019695879532
:1030400096958795B90115E0660F771F1A95E1F7F8
:10305000860F971F60915802772767FD7095860F3E
:10306000971F8227932752969C938E9351970380A4
:10307000F481E02D228133812150304028233923EF
:10308000C901880F991F820F931F880F991F019004
:10309000F081E02DE80FF91F8281938101969383DF
:1030A0008283208131811C963C932E931B971A9624
:1030B0001C921E9219972115310529F0D9011796F6
:1030C0005C934E9316972AE532E031832083248166
:1030D00035812F5F3F4FA901440F551FF3E0220FA9
:1030E000331FFA95E1F7420F531F8417950708F431
:1030F000C8C08A899B898130910509F4C2C08A8140
:103100009B818C01000F111F080F191F000F111F49
:10311000000F111FC8010E9427324C01009721F4B3
:103120008FEF9FEF0E94773360E070E0A8010E946C
:1031300070330E811F816A807B807301EE0CFF1C4F
:103140000894E108F108C7018023912321E030E0D1
:10315000009711F420E030E08C819D81019602C03F
:10316000169507958A95E2F7020F131F1D870C87A6
:103170001F861E86CC24DD24AA24BB2451C08C0DBE
:103180009D1DFC012081318140C0D90118965C90C1
:10319000189719964C9019971E968D919C911F9790
:1031A0008E219F21FC01EE0FFF1FE80FF91FEE0F8C
:1031B000FF1FE80DF91D828193810196938382831D
:1031C0000817190758F44E855F854F5F5F4F5F877B
:1031D0004E87B8010E94003275836483D901179627
:1031E0001C921E9216978081918119969C938E93C2
:1031F0001897009729F0DC0117963C932E931697A9
:1032000031832083C201292F342D2115310509F086
:10321000BCCF0894A11CB11CE6E0F0E0CE0EDF1E8E
:1032200088819981A614B70408F4A9CF0E94C132FD
:10323000E0915A02F0915B0282819381880F991F7D
:10324000938382838481958101969583848391827F
:103250008082868197819695879526853785821706
:10326000930720F480899189019602C080E090E064
:10327000918B808B8230910520F081E090E0938BE0
:10328000828BDF91CF911F910F91FF90EF90DF9094
:10329000CF90BF90AF909F908F907F906F905F90F6
:1032A0004F900895DC01ED91FC911197E830F10504
:1032B00038F4EE0FFF1FE259FC4F8081918102C06C
:1032C00080E090E012966D917C9113970E941E2EE3
:1032D0000895CF93DF93EC016A817B818881998186
:1032E0000E9452191B821A82DF91CF9108954F924A
:1032F0005F926F927F928F929F92AF92BF92CF9286
:10330000DF92EF92FF920F931F93CF93DF93109270
:10331000720210927102EAE6F2E0F0937802E09312
:10332000770282E090E090937A0280937902A091F4
:103330009C03B0919D038F010D5F1F4F109709F003
:1033400049C0F0939D03E0939C0310927002109289
:103350006F0288E190E00E94273290936E02809382
:103360006D02009709F4D7C0E82FF92F88E1DF013B
:103370001D928A95E9F7C0916D02D0916E0219876E
:10338000088780E290E09B838A8385E090E09D83BC
:103390008C8383E090E09B878A8780EC90E00E949A
:1033A000273299838883009709F4B5C0E82FF92F55
:1033B00080ECDF011D928A95E9F7E0916D02F091B2
:1033C0006E0281EE9FE1A1E1B0EA848B958BA68B22
:1033D000B78B16C013960D90BC91A02D1896CD9169
:1033E000DC911997FD83EC831A968D919C911B9724
:1033F000C81BD90BD683C58319961C930E931897B7
:10340000E0919C03F0919D03C381D4818E819F81C3
:1034100001969F838E834DE652E0D0936E02C09357
:103420006D02DA01139720916A02332727FD309548
:10343000C9019695879596958795B90115E0660F10
:10344000771F1A95E1F7860F971F60916B02772718
:1034500067FD7095860F971F8227932752969C933E
:103460008E9351970380F481E02D22813381215086
:10347000304028233923C901880F991F820F931FD9
:10348000880F991F0190F081E02DE80FF91F8281CC
:103490009381019693838283208131811C963C9392
:1034A0002E931B971A961C921E921997211531057F
:1034B00029F0D90117965C934E9316972DE632E0CA
:1034C00031832083248135812F5F3F4FA901440F31
:1034D000551FF3E0220F331FFA95E1F7420F531FF8
:1034E0008417950708F4C8C08A899B8981309105A3
:1034F00009F4C2C08A819B818C01000F111F080F43
:10350000191F000F111F000F111FC8010E94273241
:103510004C01009721F48FEF9FEF0E94773360E01A
:1035200070E0A8010E9470330E811F816A807B8049
:103530007301EE0CFF1C0894E108F108C701802319
:10354000912321E030E0009711F420E030E08C81FD
:103550009D81019602C0169507958A95E2F7020FA4
:10356000131F1D870C871F861E86CC24DD24AA24EA
:10357000BB2451C08C0D9D1DFC012081318140C0B8
:10358000D90118965C90189719964C9019971E9629
:103590008D919C911F978E219F21FC01EE0FFF1FA3
:1035A000E80FF91FEE0FFF1FE80DF91D82819381CF
:1035B0000196938382830817190758F44E855F8517
:1035C0004F5F5F4F5F874E87B8010E94003275835F
:1035D0006483D90117961C921E921697808191815F
:1035E00019969C938E931897009729F0DC011796F3
:1035F0003C932E93169731832083C201292F342DBB
:103600002115310509F0BCCF0894A11CB11CE6E0DE
:10361000F0E0CE0EDF1E88819981A614B70408F46D
:10362000A9CF0E94C132E0916D02F0916E028281B9
:103630009381880F991F938382838481958101965A
:1036400095838483918280828681978196958795E0
:10365000268537858217930720F480899189019602
:1036600002C080E090E0918B808B8230910520F049
:1036700081E090E0938B828BDF91CF911F910F912E
:10368000FF90EF90DF90CF90BF90AF909F908F9082
:103690007F906F905F904F900895DC01ED91FC91C9
:1036A0001197E830F10538F4EE0FFF1FE259FC4F97
:1036B0008081918102C080E090E00E94662E089592
:1036C000CF93DF93EC016A817B81888199810E948D
:1036D0004D1B1B821A82DF91CF9108954F925F920A
:1036E0006F927F928F929F92AF92BF92CF92DF9212
:1036F000EF92FF920F931F93CF93DF931092850267
:1037000010928402EDE7F2E0F0938B02E0938A02DC
:1037100082E090E090938D0280938C02A0919C03B4
:10372000B0919D038F010D5F1F4F109709F049C0A5
:10373000F0939D03E0939C03109283021092820207
:1037400088E190E00E94273290938102809380026A
:10375000009709F4D7C0E82FF92F88E1DF011D9207
:103760008A95E9F7C0918002D09181021987088774
:1037700080E290E09B838A8385E090E09D838C8348
:1037800083E090E09B878A8780EC90E00E9427325C
:1037900099838883009709F4B5C0E82FF92F80EC4E
:1037A000DF011D928A95E9F7E0918002F091810294
:1037B00081EE9FE1A1E1B0EA848B958BA68BB78B5C
:1037C00016C013960D90BC91A02D1896CD91DC914A
:1037D0001997FD83EC831A968D919C911B97C81BBA
:1037E000D90BD683C58319961C930E931897E09135
:1037F0009C03F0919D03C381D4818E819F810196AA
:103800009F838E8340E852E0D0938102C093800270
:10381000DA01139720917D02332727FD3095C901E6
:103820009695879596958795B90115E0660F771F50
:103830001A95E1F7860F971F60917E02772767FD43
:103840007095860F971F8227932752969C938E938D
:1038500051970380F481E02D228133812150304043
:1038600028233923C901880F991F820F931F880FBE
:10387000991F0190F081E02DE80FF91F828193815B
:10388000019693838283208131811C963C932E93F1
:103890001B971A961C921E9219972115310529F033
:1038A000D90117965C934E93169720E832E0318346
:1038B0002083248135812F5F3F4FA901440F551F7D
:1038C000F3E0220F331FFA95E1F7420F531F8417DD
:1038D000950708F4C8C08A899B898130910509F44D
:1038E000C2C08A819B818C01000F111F080F191F14
:1038F000000F111F000F111FC8010E9427324C0139
:10390000009721F48FEF9FEF0E94773360E070E023
:10391000A8010E9470330E811F816A807B80730131
:10392000EE0CFF1C0894E108F108C70180239123E5
:1039300021E030E0009711F420E030E08C819D819F
:10394000019602C0169507958A95E2F7020F131F9C
:103950001D870C871F861E86CC24DD24AA24BB2449
:1039600051C08C0D9D1DFC012081318140C0D901C9
:1039700018965C90189719964C9019971E968D91F1
:103980009C911F978E219F21FC01EE0FFF1FE80FD6
:10399000F91FEE0FFF1FE80DF91D8281938101963B
:1039A000938382830817190758F44E855F854F5F0C
:1039B0005F4F5F874E87B8010E9400327583648332
:1039C000D90117961C921E921697808191811996A3
:1039D0009C938E931897009729F0DC0117963C93DF
:1039E0002E93169731832083C201292F342D211560
:1039F000310509F0BCCF0894A11CB11CE6E0F0E051
:103A0000CE0EDF1E88819981A614B70408F4A9CFD1
:103A10000E94C132E0918002F09181028281938103
:103A2000880F991F93838283848195810196958362
:103A30008483918280828681978196958795268559
:103A400037858217930720F480899189019602C0F7
:103A500080E090E0918B808B8230910520F081E0B6
:103A600090E0938B828BDF91CF911F910F91FF900C
:103A7000EF90DF90CF90BF90AF909F908F907F900E
:103A80006F905F904F900895DC01ED91FC9111973C
:103A9000E830F10538F4EE0FFF1FE259FC4F80814A
:103AA000918102C080E090E00E948C2E0895CF9317
:103AB000DF93EC016A817B81888199810E94441D9A
:103AC0001B821A82DF91CF9108954F925F926F927D
:103AD0007F928F929F92AF92BF92CF92DF92EF929E
:103AE000FF920F931F93CF93DF931092980210923F
:103AF0009702E0E9F2E0F0939E02E0939D0282E0FB
:103B000090E09093A00280939F02A0919C03B091BB
:103B10009D038F010D5F1F4F109709F049C0F0936F
:103B20009D03E0939C03109296021092950288E107
:103B300090E00E9427329093940280939302009722
:103B400009F4D7C0E82FF92F88E1DF011D928A958B
:103B5000E9F7C0919302D09194021987088780E217
:103B600090E09B838A8385E090E09D838C8383E053
:103B700090E09B878A8780EC90E00E9427329983AF
:103B80008883009709F4B5C0E82FF92F80ECDF0196
:103B90001D928A95E9F7E0919302F091940281EEEB
:103BA0009FE1A1E1B0EA848B958BA68BB78B16C001
:103BB00013960D90BC91A02D1896CD91DC9119977C
:103BC000FD83EC831A968D919C911B97C81BD90B92
:103BD000D683C58319961C930E931897E0919C0386
:103BE000F0919D03C381D4818E819F8101969F8333
:103BF0008E8343E952E0D0939402C0939302DA019A
:103C0000139720919002332727FD3095C90196958F
:103C1000879596958795B90115E0660F771F1A95D8
:103C2000E1F7860F971F60919102772767FD7095E6
:103C3000860F971F8227932752969C938E935197B6
:103C40000380F481E02D22813381215030402823EC
:103C50003923C901880F991F820F931F880F991F5D
:103C60000190F081E02DE80FF91F82819381019688
:103C700093838283208131811C963C932E931B97E2
:103C80001A961C921E9219972115310529F0D90117
:103C900017965C934E93169723E932E03183208385
:103CA000248135812F5F3F4FA901440F551FF3E059
:103CB000220F331FFA95E1F7420F531F8417950720
:103CC00008F4C8C08A899B898130910509F4C2C073
:103CD0008A819B818C01000F111F080F191F000F93
:103CE000111F000F111FC8010E9427324C010097BD
:103CF00021F48FEF9FEF0E94773360E070E0A8011E
:103D00000E9470330E811F816A807B807301EE0CEC
:103D1000FF1C0894E108F108C7018023912321E0EA
:103D200030E0009711F420E030E08C819D81019615
:103D300002C0169507958A95E2F7020F131F1D879B
:103D40000C871F861E86CC24DD24AA24BB2451C0E8
:103D50008C0D9D1DFC012081318140C0D901189638
:103D60005C90189719964C9019971E968D919C917E
:103D70001F978E219F21FC01EE0FFF1FE80FF91FF7
:103D8000EE0FFF1FE80DF91D828193810196938349
:103D900082830817190758F44E855F854F5F5F4F80
:103DA0005F874E87B8010E94003275836483D90112
:103DB00017961C921E9216978081918119969C935A
:103DC0008E931897009729F0DC0117963C932E9359
:103DD000169731832083C201292F342D21153105F7
:103DE00009F0BCCF0894A11CB11CE6E0F0E0CE0EB7
:103DF000DF1E88819981A614B70408F4A9CF0E9418
:103E0000C132E0919302F091940282819381880FF4
:103E1000991F9383828384819581019695838483FE
:103E200091828082868197819695879526853785B0
:103E30008217930720F480899189019602C080E05F
:103E400090E0918B808B8230910520F081E090E0B2
:103E5000938B828BDF91CF911F910F91FF90EF9009
:103E6000DF90CF90BF90AF909F908F907F906F909A
:103E70005F904F900895CF93DF93EC016881798133
:103E80008A810E945C136B810E94DF2EDF91CF91AB
:103E90000895CF93DF93EC016A817B8188819981BA
:103EA0000E943B1F1B821A82DF91CF9108954F928F
:103EB0005F926F927F928F929F92AF92BF92CF92BA
:103EC000DF92EF92FF920F931F93CF93DF931092A5
:103ED000AB021092AA02E3EAF2E0F093B102E0939F
:103EE000B00282E090E09093B3028093B202A0917E
:103EF0009C03B0919D038F010D5F1F4F109709F038
:103F000049C0F0939D03E0939C031092A902109284
:103F1000A80288E190E00E9427329093A702809344
:103F2000A602009709F4D7C0E82FF92F88E1DF0136
:103F30001D928A95E9F7C091A602D091A702198730
:103F4000088780E290E09B838A8385E090E09D83F0
:103F50008C8383E090E09B878A8780EC90E00E94CE
:103F6000273299838883009709F4B5C0E82FF92F89
:103F700080ECDF011D928A95E9F7E091A602F091AD
:103F8000A70281EE9FE1A1E1B0EA848B958BA68B1D
:103F9000B78B16C013960D90BC91A02D1896CD919D
:103FA000DC911997FD83EC831A968D919C911B9758
:103FB000C81BD90BD683C58319961C930E931897EB
:103FC000E0919C03F0919D03C381D4818E819F81F8
:103FD00001969F838E8346EA52E0D093A702C09356
:103FE000A602DA0113972091A302332727FD30950B
:103FF000C9019695879596958795B90115E0660F45
:10400000771F1A95E1F7860F971F6091A402772713
:1040100067FD7095860F971F8227932752969C9372
:104020008E9351970380F481E02D228133812150BA
:10403000304028233923C901880F991F820F931F0D
:10404000880F991F0190F081E02DE80FF91F828100
:104050009381019693838283208131811C963C93C6
:104060002E931B971A961C921E92199721153105B3
:1040700029F0D90117965C934E93169726EA32E001
:1040800031832083248135812F5F3F4FA901440F65
:10409000551FF3E0220F331FFA95E1F7420F531F2C
:1040A0008417950708F4C8C08A899B8981309105D7
:1040B00009F4C2C08A819B818C01000F111F080F77
:1040C000191F000F111F000F111FC8010E94273276
:1040D0004C01009721F48FEF9FEF0E94773360E04F
:1040E00070E0A8010E9470330E811F816A807B807E
:1040F0007301EE0CFF1C0894E108F108C70180234E
:10410000912321E030E0009711F420E030E08C8131
:104110009D81019602C0169507958A95E2F7020FD8
:10412000131F1D870C871F861E86CC24DD24AA241E
:10413000BB2451C08C0D9D1DFC012081318140C0EC
:10414000D90118965C90189719964C9019971E965D
:104150008D919C911F978E219F21FC01EE0FFF1FD7
:10416000E80FF91FEE0FFF1FE80DF91D8281938103
:104170000196938382830817190758F44E855F854B
:104180004F5F5F4F5F874E87B8010E940032758393
:104190006483D90117961C921E9216978081918193
:1041A00019969C938E931897009729F0DC01179627
:1041B0003C932E93169731832083C201292F342DEF
:1041C0002115310509F0BCCF0894A11CB11CE6E013
:1041D000F0E0CE0EDF1E88819981A614B70408F4A2
:1041E000A9CF0E94C132E091A602F091A70282817C
:1041F0009381880F991F938382838481958101968F
:104200009583848391828082868197819695879514
:10421000268537858217930720F480899189019636
:1042200002C080E090E0918B808B8230910520F07D
:1042300081E090E0938B828BDF91CF911F910F9162
:10424000FF90EF90DF90CF90BF90AF909F908F90B6
:104250007F906F905F904F900895FC01A081B18195
:10426000A830B10540F4AA0FBB1FA259BC4F8D91D5
:104270009C91119702C080E090E06281738144813B
:104280000E94B22E0895CF93DF93EC016A817B8167
:10429000888199810E942D211B821A82DF91CF9102
:1042A00008954F925F926F927F928F929F92AF92FA
:1042B000BF92CF92DF92EF92FF920F931F93CF9313
:1042C000DF931092BE021092BD02E6EBF2E0F09393
:1042D000C402E093C30282E090E09093C602809310
:1042E000C502A0919C03B0919D038F010D5F1F4FEC
:1042F000109709F049C0F0939D03E0939C0310923E
:10430000BC021092BB0288E190E00E942732909399
:10431000BA028093B902009709F4D7C0E82FF92FA9
:1043200088E1DF011D928A95E9F7C091B902D09129
:10433000BA021987088780E290E09B838A8385E030
:1043400090E09D838C8383E090E09B878A8780EC5C
:1043500090E00E94273299838883009709F4B5C0C2
:10436000E82FF92F80ECDF011D928A95E9F7E091A3
:10437000B902F091BA0281EE9FE1A1E1B0EA848B2B
:10438000958BA68BB78B16C013960D90BC91A02D64
:104390001896CD91DC911997FD83EC831A968D9137
:1043A0009C911B97C81BD90BD683C58319961C9368
:1043B0000E931897E0919C03F0919D03C381D481E3
:1043C0008E819F8101969F838E8349EB52E0D0932B
:1043D000BA02C093B902DA0113972091B6023327CB
:1043E00027FD3095C9019695879596958795B901D2
:1043F00015E0660F771F1A95E1F7860F971F6091FA
:10440000B702772767FD7095860F971F822793273E
:1044100052969C938E9351970380F481E02D2281D4
:1044200033812150304028233923C901880F991F37
:10443000820F931F880F991F0190F081E02DE80FE4
:10444000F91F828193810196938382832081318138
:104450001C963C932E931B971A961C921E921997AA
:104460002115310529F0D90117965C934E931697C3
:1044700029EB32E031832083248135812F5F3F4F48
:10448000A901440F551FF3E0220F331FFA95E1F7FE
:10449000420F531F8417950708F4C8C08A899B8967
:1044A0008130910509F4C2C08A819B818C01000F83
:1044B000111F080F191F000F111F000F111FC80136
:1044C0000E9427324C01009721F48FEF9FEF0E944A
:1044D000773360E070E0A8010E9470330E811F8185
:1044E0006A807B807301EE0CFF1C0894E108F108E0
:1044F000C7018023912321E030E0009711F420E0F0
:1045000030E08C819D81019602C0169507958A95B1
:10451000E2F7020F131F1D870C871F861E86CC240F
:10452000DD24AA24BB2451C08C0D9D1DFC012081DB
:10453000318140C0D90118965C90189719964C901B
:1045400019971E968D919C911F978E219F21FC019A
:10455000EE0FFF1FE80FF91FEE0FFF1FE80DF91D0B
:10456000828193810196938382830817190758F4F7
:104570004E855F854F5F5F4F5F874E87B8010E9412
:10458000003275836483D90117961C921E92169788
:104590008081918119969C938E931897009729F0AA
:1045A000DC0117963C932E93169731832083C2012A
:1045B000292F342D2115310509F0BCCF0894A11CF9
:1045C000B11CE6E0F0E0CE0EDF1E88819981A614D2
:1045D000B70408F4A9CF0E94C132E091B902F0916A
:1045E000BA0282819381880F991F93838283848189
:1045F00095810196958384839182808286819781BB
:1046000096958795268537858217930720F48089AC
:104610009189019602C080E090E0918B808B82307E
:10462000910520F081E090E0938B828BDF91CF9118
:104630001F910F91FF90EF90DF90CF90BF90AF90C0
:104640009F908F907F906F905F904F900895FC01A6
:10465000A081B181A830B10540F4AA0FBB1FA259B7
:10466000BC4F8D919C91119702C080E090E06281D7
:104670000E94D92E0895CF93DF93EC016A817B814C
:10468000888199810E9427231B821A82DF91CF9112
:1046900008954F925F926F927F928F929F92AF9206
:1046A000BF92CF92DF92EF92FF920F931F93CF931F
:1046B000DF931092D1021092D002E9ECF2E0F09375
:1046C000D702E093D60282E090E09093D9028093E3
:1046D000D802A0919C03B0919D038F010D5F1F4FE5
:1046E000109709F049C0F0939D03E0939C0310924A
:1046F000CF021092CE0288E190E00E942732909380
:10470000CD028093CC02009709F4D7C0E82FF92F8F
:1047100088E1DF011D928A95E9F7C091CC02D09122
:10472000CD021987088780E290E09B838A8385E029
:1047300090E09D838C8383E090E09B878A8780EC68
:1047400090E00E94273299838883009709F4B5C0CE
:10475000E82FF92F80ECDF011D928A95E9F7E091AF
:10476000CC02F091CD0281EE9FE1A1E1B0EA848B11
:10477000958BA68BB78B16C013960D90BC91A02D70
:104780001896CD91DC911997FD83EC831A968D9143
:104790009C911B97C81BD90BD683C58319961C9374
:1047A0000E931897E0919C03F0919D03C381D481EF
:1047B0008E819F8101969F838E834CEC52E0D09333
:1047C000CD02C093CC02DA0113972091C90233279E
:1047D00027FD3095C9019695879596958795B901DE
:1047E00015E0660F771F1A95E1F7860F971F609106
:1047F000CA02772767FD7095860F971F8227932738
:1048000052969C938E9351970380F481E02D2281E0
:1048100033812150304028233923C901880F991F43
:10482000820F931F880F991F0190F081E02DE80FF0
:10483000F91F828193810196938382832081318144
:104840001C963C932E931B971A961C921E921997B6
:104850002115310529F0D90117965C934E931697CF
:104860002CEC32E031832083248135812F5F3F4F50
:10487000A901440F551FF3E0220F331FFA95E1F70A
:10488000420F531F8417950708F4C8C08A899B8973
:104890008130910509F4C2C08A819B818C01000F8F
:1048A000111F080F191F000F111F000F111FC80142
:1048B0000E9427324C01009721F48FEF9FEF0E9456
:1048C000773360E070E0A8010E9470330E811F8191
:1048D0006A807B807301EE0CFF1C0894E108F108EC
:1048E000C7018023912321E030E0009711F420E0FC
:1048F00030E08C819D81019602C0169507958A95BE
:10490000E2F7020F131F1D870C871F861E86CC241B
:10491000DD24AA24BB2451C08C0D9D1DFC012081E7
:10492000318140C0D90118965C90189719964C9027
:1049300019971E968D919C911F978E219F21FC01A6
:10494000EE0FFF1FE80FF91FEE0FFF1FE80DF91D17
:10495000828193810196938382830817190758F403
:104960004E855F854F5F5F4F5F874E87B8010E941E
:10497000003275836483D90117961C921E92169794
:104980008081918119969C938E931897009729F0B6
:10499000DC0117963C932E93169731832083C20136
:1049A000292F342D2115310509F0BCCF0894A11C05
:1049B000B11CE6E0F0E0CE0EDF1E88819981A614DE
:1049C000B70408F4A9CF0E94C132E091CC02F09163
:1049D000CD0282819381880F991F93838283848182
:1049E00095810196958384839182808286819781C7
:1049F00096958795268537858217930720F48089B9
:104A00009189019602C080E090E0918B808B82308A
:104A1000910520F081E090E0938B828BDF91CF9124
:104A20001F910F91FF90EF90DF90CF90BF90AF90CC
:104A30009F908F907F906F905F904F900895CF934D
:104A4000DF93EC01688179818A810E945C136B811C
:104A50007C810E94002FDF91CF910895CF93DF9347
:104A6000EC016A817B81888199810E941F251B82CC
:104A70001A82DF91CF9108954F925F926F927F9249
:104A80008F929F92AF92BF92CF92DF92EF92FF925E
:104A90000F931F93CF93DF931092E4021092E302DF
:104AA000ECEDF2E0F093EA02E093E90282E090E0BC
:104AB0009093EC028093EB02A0919C03B0919D0334
:104AC0008F010D5F1F4F109709F049C0F0939D03B0
:104AD000E0939C031092E2021092E10288E190E0E0
:104AE0000E9427329093E0028093DF02009709F43E
:104AF000D7C0E82FF92F88E1DF011D928A95E9F7E9
:104B0000C091DF02D091E0021987088780E290E02F
:104B10009B838A8385E090E09D838C8383E090E093
:104B20009B878A8780EC90E00E9427329983888354
:104B3000009709F4B5C0E82FF92F80ECDF011D9232
:104B40008A95E9F7E091DF02F091E00281EE9FE1C2
:104B5000A1E1B0EA848B958BA68BB78B16C0139618
:104B60000D90BC91A02D1896CD91DC911997FD83E5
:104B7000EC831A968D919C911B97C81BD90BD683F9
:104B8000C58319961C930E931897E0919C03F0919E
:104B90009D03C381D4818E819F8101969F838E83E3
:104BA0004FED52E0D093E002C093DF02DA01139799
:104BB0002091DC02332727FD3095C9019695879512
:104BC00096958795B90115E0660F771F1A95E1F75D
:104BD000860F971F6091DD02772767FD7095860F1E
:104BE000971F8227932752969C938E935197038009
:104BF000F481E02D22813381215030402823392354
:104C0000C901880F991F820F931F880F991F019068
:104C1000F081E02DE80FF91F828193810196938343
:104C20008283208131811C963C932E931B971A9688
:104C30001C921E9219972115310529F0D90117965A
:104C40005C934E9316972FED32E0318320832481BD
:104C500035812F5F3F4FA901440F551FF3E0220F0D
:104C6000331FFA95E1F7420F531F8417950708F495
:104C7000C8C08A899B898130910509F4C2C08A81A4
:104C80009B818C01000F111F080F191F000F111FAE
:104C9000000F111FC8010E9427324C01009721F418
:104CA0008FEF9FEF0E94773360E070E0A8010E94D1
:104CB00070330E811F816A807B807301EE0CFF1CB4
:104CC0000894E108F108C7018023912321E030E036
:104CD000009711F420E030E08C819D81019602C0A4
:104CE000169507958A95E2F7020F131F1D870C870B
:104CF0001F861E86CC24DD24AA24BB2451C08C0D23
:104D00009D1DFC012081318140C0D90118965C9025
:104D1000189719964C9019971E968D919C911F97F4
:104D20008E219F21FC01EE0FFF1FE80FF91FEE0FF0
:104D3000FF1FE80DF91D8281938101969383828381
:104D40000817190758F44E855F854F5F5F4F5F87DF
:104D50004E87B8010E94003275836483D90117968B
:104D60001C921E9216978081918119969C938E9326
:104D70001897009729F0DC0117963C932E9316970D
:104D800031832083C201292F342D2115310509F0EB
:104D9000BCCF0894A11CB11CE6E0F0E0CE0EDF1EF3
:104DA00088819981A614B70408F4A9CF0E94C13262
:104DB000E091DF02F091E00282819381880F991FD8
:104DC00093838283848195810196958384839182E4
:104DD000808286819781969587952685378582176B
:104DE000930720F480899189019602C080E090E0C9
:104DF000918B808B8230910520F081E090E0938B45
:104E0000828BDF91CF911F910F91FF90EF90DF90F8
:104E1000CF90BF90AF909F908F907F906F905F905A
:104E20004F900895FC01A081B181A830B10540F4F4
:104E3000AA0FBB1FA259BC4F8D919C91119702C024
:104E400080E090E062817381448155810E94132F3C
:104E50000895CF93DF93EC016A817B8188819981EA
:104E60000E9412271B821A82DF91CF9108954F92E0
:104E70005F926F927F928F929F92AF92BF92CF92EA
:104E8000DF92EF92FF920F931F93CF93DF931092D5
:104E9000F7021092F602EFEEF2E0F093FD02E093DB
:104EA000FC0282E090E09093FF028093FE02A091CA
:104EB0009C03B0919D038F010D5F1F4F109709F068
:104EC00049C0F0939D03E0939C031092F502109269
:104ED000F40288E190E00E9427329093F3028093DD
:104EE000F202009709F4D7C0E82FF92F88E1DF011B
:104EF0001D928A95E9F7C091F202D091F3021987C9
:104F0000088780E290E09B838A8385E090E09D8320
:104F10008C8383E090E09B878A8780EC90E00E94FE
:104F2000273299838883009709F4B5C0E82FF92FB9
:104F300080ECDF011D928A95E9F7E091F202F09191
:104F4000F30281EE9FE1A1E1B0EA848B958BA68B01
:104F5000B78B16C013960D90BC91A02D1896CD91CD
:104F6000DC911997FD83EC831A968D919C911B9788
:104F7000C81BD90BD683C58319961C930E9318971B
:104F8000E0919C03F0919D03C381D4818E819F8128
:104F900001969F838E8342EF52E0D093F302C09339
:104FA000F202DA0113972091EF02332727FD3095A3
:104FB000C9019695879596958795B90115E0660F75
:104FC000771F1A95E1F7860F971F6091F0027727F8
:104FD00067FD7095860F971F8227932752969C93A3
:104FE0008E9351970380F481E02D228133812150EB
:104FF000304028233923C901880F991F820F931F3E
:10500000880F991F0190F081E02DE80FF91F828130
:105010009381019693838283208131811C963C93F6
:105020002E931B971A961C921E92199721153105E3
:1050300029F0D90117965C934E93169722EF32E030
:1050400031832083248135812F5F3F4FA901440F95
:10505000551FF3E0220F331FFA95E1F7420F531F5C
:105060008417950708F4C8C08A899B898130910507
:1050700009F4C2C08A819B818C01000F111F080FA7
:10508000191F000F111F000F111FC8010E942732A6
:105090004C01009721F48FEF9FEF0E94773360E07F
:1050A00070E0A8010E9470330E811F816A807B80AE
:1050B0007301EE0CFF1C0894E108F108C70180237E
:1050C000912321E030E0009711F420E030E08C8162
:1050D0009D81019602C0169507958A95E2F7020F09
:1050E000131F1D870C871F861E86CC24DD24AA244F
:1050F000BB2451C08C0D9D1DFC012081318140C01D
:10510000D90118965C90189719964C9019971E968D
:105110008D919C911F978E219F21FC01EE0FFF1F07
:10512000E80FF91FEE0FFF1FE80DF91D8281938133
:105130000196938382830817190758F44E855F857B
:105140004F5F5F4F5F874E87B8010E9400327583C3
:105150006483D90117961C921E92169780819181C3
:1051600019969C938E931897009729F0DC01179657
:105170003C932E93169731832083C201292F342D1F
:105180002115310509F0BCCF0894A11CB11CE6E043
:10519000F0E0CE0EDF1E88819981A614B70408F4D2
:1051A000A9CF0E94C132E091F202F091F302828114
:1051B0009381880F991F93838283848195810196BF
:1051C0009583848391828082868197819695879545
:1051D000268537858217930720F480899189019667
:1051E00002C080E090E0918B808B8230910520F0AE
:1051F00081E090E0938B828BDF91CF911F910F9193
:10520000FF90EF90DF90CF90BF90AF909F908F90E6
:105210007F906F905F904F900895DC01ED91FC912D
:105220001197E830F10538F4EE0FFF1FE259FC4FFB
:105230008081918102C080E090E012966D917C9116
:1052400013970E94262F0895CF93DF93EC016A8174
:105250007B81888199810E940D291B821A82DF91AE
:10526000CF9108954F925F926F927F928F929F920B
:10527000AF92BF92CF92DF92EF92FF920F931F9364
:10528000CF93DF9310920A0310920903E2E0F3E058
:10529000F0931003E0930F0382E090E090931203E9
:1052A00080931103A0919C03B0919D038F010D5F2A
:1052B0001F4F109709F049C0F0939D03E0939C03A2
:1052C000109208031092070388E190E00E942732B1
:1052D0009093060380930503009709F4D7C0E82F45
:1052E000F92F88E1DF011D928A95E9F7C091050346
:1052F000D09106031987088780E290E09B838A8318
:1053000085E090E09D838C8383E090E09B878A8793
:1053100080EC90E00E94273299838883009709F4FB
:10532000B5C0E82FF92F80ECDF011D928A95E9F7CF
:10533000E0910503F091060381EE9FE1A1E1B0EA5F
:10534000848B958BA68BB78B16C013960D90BC9152
:10535000A02D1896CD91DC911997FD83EC831A96B8
:105360008D919C911B97C81BD90BD683C583199629
:105370001C930E931897E0919C03F0919D03C381B9
:10538000D4818E819F8101969F838E8345E053E077
:10539000D0930603C0930503DA011397209102030B
:1053A000332727FD3095C901969587959695879562
:1053B000B90115E0660F771F1A95E1F7860F971F61
:1053C00060910303772767FD7095860F971F8227EB
:1053D000932752969C938E9351970380F481E02DEE
:1053E000228133812150304028233923C901880F7D
:1053F000991F820F931F880F991F0190F081E02D54
:10540000E80FF91F82819381019693838283208123
:1054100031811C963C932E931B971A961C921E92D8
:1054200019972115310529F0D90117965C934E93F0
:10543000169725E033E031832083248135812F5F67
:105440003F4FA901440F551FF3E0220F331FFA9578
:10545000E1F7420F531F8417950708F4C8C08A89E3
:105460009B898130910509F4C2C08A819B818C019E
:10547000000F111F080F191F000F111F000F111F20
:10548000C8010E9427324C01009721F48FEF9FEF53
:105490000E94773360E070E0A8010E9470330E81B3
:1054A0001F816A807B807301EE0CFF1C0894E10869
:1054B000F108C7018023912321E030E0009711F427
:1054C00020E030E08C819D81019602C01695079501
:1054D0008A95E2F7020F131F1D870C871F861E8611
:1054E000CC24DD24AA24BB2451C08C0D9D1DFC01BD
:1054F0002081318140C0D90118965C901897199687
:105500004C9019971E968D919C911F978E219F21EB
:10551000FC01EE0FFF1FE80FF91FEE0FFF1FE80D54
:10552000F91D82819381019693838283081719075D
:1055300058F44E855F854F5F5F4F5F874E87B80198
:105540000E94003275836483D90117961C921E92C3
:1055500016978081918119969C938E931897009746
:1055600029F0DC0117963C932E9316973183208304
:10557000C201292F342D2115310509F0BCCF089423
:10558000A11CB11CE6E0F0E0CE0EDF1E88819981FF
:10559000A614B70408F4A9CF0E94C132E091050314
:1055A000F091060382819381880F991F93838283F0
:1055B00084819581019695838483918280828681FE
:1055C000978196958795268537858217930720F4CE
:1055D00080899189019602C080E090E0918B808B58
:1055E0008230910520F081E090E0938B828BDF91F7
:1055F000CF911F910F91FF90EF90DF90CF90BF90D0
:10560000AF909F908F907F906F905F904F90089594
:10561000FC01A081B181A830B10540F4AA0FBB1FE5
:10562000A259BC4F8D919C91119702C080E090E0EF
:10563000A281B381A830B10540F4AA0FBB1FA259C3
:10564000BC4F6D917C91119702C060E070E0448185
:105650000E942C2F0895CF93DF93EC016A817B8108
:10566000888199810E94082B1B821A82DF91CF9139
:1056700008954F925F926F927F928F929F92AF9216
:10568000BF92CF92DF92EF92FF920F931F93CF932F
:10569000DF9310921D0310921C03E5E1F3E0F093F9
:1056A0002303E093220382E090E09093250380930C
:1056B0002403A0919C03B0919D038F010D5F1F4FA8
:1056C000109709F049C0F0939D03E0939C0310925A
:1056D0001B0310921A0388E190E00E9427329093F6
:1056E000190380931803009709F4D7C0E82FF92F06
:1056F00088E1DF011D928A95E9F7C0911803D091E6
:1057000019031987088780E290E09B838A8385E0EC
:1057100090E09D838C8383E090E09B878A8780EC78
:1057200090E00E94273299838883009709F4B5C0DE
:10573000E82FF92F80ECDF011D928A95E9F7E091BF
:105740001803F091190381EE9FE1A1E1B0EA848B87
:10575000958BA68BB78B16C013960D90BC91A02D80
:105760001896CD91DC911997FD83EC831A968D9153
:105770009C911B97C81BD90BD683C58319961C9384
:105780000E931897E0919C03F0919D03C381D481FF
:105790008E819F8101969F838E8348E153E0D09351
:1057A0001903C0931803DA011397209115033327C7
:1057B00027FD3095C9019695879596958795B901EE
:1057C00015E0660F771F1A95E1F7860F971F609116
:1057D0001603772767FD7095860F971F82279327FB
:1057E00052969C938E9351970380F481E02D2281F1
:1057F00033812150304028233923C901880F991F54
:10580000820F931F880F991F0190F081E02DE80F00
:10581000F91F828193810196938382832081318154
:105820001C963C932E931B971A961C921E921997C6
:105830002115310529F0D90117965C934E931697DF
:1058400028E133E031832083248135812F5F3F4F6E
:10585000A901440F551FB3E0220F331FBA95E1F79A
:10586000420F531F8417950708F4C8C08A899B8983
:105870008130910509F4C2C08A819B818C01000F9F
:10588000111F080F191F000F111F000F111FC80152
:105890000E9427324C01009721F48FEF9FEF0E9466
:1058A000773360E070E0A8010E9470330E811F81A1
:1058B0006A807B807301EE0CFF1C0894E108F108FC
:1058C000C7018023912321E030E0009711F420E00C
:1058D00030E08C819D81019602C0169507958A95CE
:1058E000E2F7020F131F1D870C871F861E86CC242C
:1058F000DD24AA24BB2451C08C0D9D1DFC012081F8
:10590000318140C0D90118965C90189719964C9037
:1059100019971E968D919C911F978E219F21FC01B6
:10592000EE0FFF1FE80FF91FEE0FFF1FE80DF91D27
:10593000828193810196938382830817190758F413
:105940004E855F854F5F5F4F5F874E87B8010E942E
:10595000003275836483D90117961C921E921697A4
:105960008081918119969C938E931897009729F0C6
:10597000DC0117963C932E93169731832083C20146
:10598000292F342D2115310509F0BCCF0894A11C15
:10599000B11CE6E0F0E0CE0EDF1E88819981A614EE
:1059A000B70408F4A9CF0E94C132E0911803F09126
:1059B000190382819381880F991F93838283848145
:1059C00095810196958384839182808286819781D7
:1059D00096958795268537858217930720F48089C9
:1059E0009189019602C080E090E0918B808B82309B
:1059F000910520F081E090E0938B828BDF91CF9135
:105A00001F910F91FF90EF90DF90CF90BF90AF90DC
:105A10009F908F907F906F905F904F900895089522
:105A200080B7806880BFE4E6F0E080818066808394
:105A30000E940F2D81ED95E00E94573178940895D2
:105A40000F931F93CF93DF93C0E0D0E00091340118
:105A500010913501CE01880F991FD801ED91FC916D
:105A6000E80FF91F8081918168EC70E00E94002F9F
:105A7000CE010196F801628170E00E941432EC01BF
:105A8000E9CF0E94DC2D8FE79FE4A2E18150904096
:105A9000A040E1F700C000000E947F2DF4CFCF931B
:105AA000DF93C0913401D09135010E949204782F88
:105AB000CE0160E00E941E2EF8CF809134019091BB
:105AC00035010E94662E08958FEF8AB984B911B806
:105AD00017B82FEF36B1832F90E08270907030FFAF
