:100000000C9446000C9477000C9477000C947700C5
:100010000C9477000C9477000C9477000C94770084
:100020000C9477000C9477000C9477000C94770074
:100030000C9477000C9477000C9477000C94770064
:100040000C9477000C9477000C9477000C94770054
:100050000C9477000C9477000C9477000C94770044
:100060000C9477000C9477000C9498030C94770010
:100070000C9477000C9477000C9477000C94770024
:100080000C940C070C9477000C94770011241FBE7D
:10009000CFEFD0E4DEBFCDBF12E0A0E0B1E0E0E6FC
:1000A000FDE100E00BBF02C007900D92AA34B1073A
:1000B000D9F713E0AAE4B2E001C01D92A13FB10755
:1000C000E1F70E94D9000E94E1000E9426020E94EE
:1000D000E1020E940B030E94D9040E94C5060E94FF
:1000E000D8060E9483070E949D070C94AB0E0C94C7
:1000F000000085ED8093BC008091460190914701FE
:10010000A0914801B0914901809353039093540307
:10011000A0935503B09356031092580310925703BF
:10012000089585EC8093BC00809146019091470131
:10013000A0914801B09149018093530390935403D7
:10014000A0935503B093560310925803109257038F
:10015000089520910503309106038091BB00E09142
:100160005303F0915403E20FF31F80832F5F3F4F3F
:100170003093060320930503809155039091560315
:1001800001972817390710F485EC01C085E88093A2
:10019000BC0008958091550390915603009711F08B
:1001A00085EC01C085E88093BC0008950E943E0D57
:1001B000089584B780934C0214BE089580914C0238
:1001C0000895A1E4B3E0EEE2F2E086E001900D9242
:1001D0008150E1F7AEE3B3E0EBE2F2E083E00190BF
:1001E0000D928150E1F7A8EBB3E0E8E2F2E083E0A2
:1001F00001900D928150E1F7ADEFB2E0E5E2F2E05F
:1002000083E001900D928150E1F7ABE1B3E0E2E2CF
:10021000F2E083E001900D928150E1F7A9E8B2E0AD
:10022000EFE1F2E083E001900D928150E1F7A8EF59
:10023000B2E0ECE1F2E083E001900D928150E1F751
:10024000A6E9B3E0E9E1F2E083E001900D9281508C
:10025000E1F7A0E5B3E0E6E1F2E083E001900D9282
:100260008150E1F7A2ECB3E0E0E1F2E086E001903A
:100270000D928150E1F7A4E2B3E0EDE0F2E083E01B
:1002800001900D928150E1F7ADEBB3E0EAE0F2E0CE
:1002900083E001900D928150E1F7ADE6B2E0E7E036
:1002A000F2E083E001900D928150E1F7A9E4B3E020
:1002B000E4E0F2E083E001900D928150E1F7A2E6E4
:1002C000B3E0E1E0F2E083E001900D928150E1F7CC
:1002D000A7EEB2E0EEEFF1E083E001900D928150E5
:1002E000E1F7A0E7B2E0EBEFF1E083E001900D92DF
:1002F0008150E1F7A4EEB2E0E8EFF1E083E0019095
:100300000D928150E1F7A1E3B3E0E2EFF1E086E086
:1003100001900D928150E1F7A5E7B3E0EFEEF1E037
:1003200083E001900D928150E1F7A1E2B3E0ECEEA1
:10033000F1E083E001900D928150E1F7A9E6B3E08E
:10034000E9EEF1E083E001900D928150E1F7AAED32
:10035000B2E0E6EEF1E083E001900D928150E1F72A
:10036000A6E8B2E0E3EEF1E083E001900D92815067
:10037000E1F7AEE1B3E0E0EEF1E083E001900D9251
:100380008150E1F7ACE0B3E0EDEDF1E083E0019006
:100390000D928150E1F7AFE5B2E0EAEDF1E083E0E4
:1003A00001900D928150E1F7A2EFB2E0E4EDF1E0AF
:1003B00086E001900D928150E1F7A1E8B2E0E1ED15
:1003C000F1E083E001900D928150E1F7AFE8B2E0F7
:1003D000EEECF1E083E001900D928150E1F7AEE7A1
:1003E000B2E0EBECF1E083E001900D928150E1F797
:1003F000A0E0B3E0E8ECF1E083E001900D928150E1
:10040000E1F7ABE8B3E0E5ECF1E083E001900D92B9
:100410008150E1F7ACE6B3E0E2ECF1E083E001907B
:100420000D928150E1F7A5EBB3E0EFEBF1E083E053
:1004300001900D928150E1F7A8E7B3E0ECEBF1E019
:1004400083E001900D928150E1F70895CF93DF93FF
:10045000C8EBD3E0D093BC03C093BB03CE010E9492
:10046000CC08D0932E03C0932D03CE010E94CC085C
:10047000D0936803C0936703CE010E94CC08D09349
:100480000403C0930303CE010E94CC08D093380329
:10049000C0933703CE010E94CC08D0937403C0935D
:1004A0007303CE010E94CC08D0931203C0931103B2
:1004B000CE010E94CC08D0936A02C0936902CE019B
:1004C0000E94CC08D0931003C0930F03CE010E946A
:1004D000CC08D0936603C0936503CE010E94CC087C
:1004E000D0936C02C0936B02CE010E94CC08D093D3
:1004F0000803C0930703CE010E94CC08D093FC02EE
:10050000C093FB02CE010E94CC08D0934D03C09350
:100510004C03CE010E94CC08D0933003C0932F032C
:10052000CE010E94CC08ACE8B2E0E9EBF1E083E058
:1005300001900D928150E1F7ABE7B2E0E6EBF1E01C
:1005400083E001900D928150E1F7AAE2B3E0E3EB82
:10055000F1E083E001900D928150E1F7A7E2B3E072
:10056000E0EBF1E083E001900D928150E1F7A9E02A
:10057000B3E0EDEAF1E083E001900D928150E1F704
:10058000A9E3B3E0EAEAF1E083E001900D92815043
:10059000E1F7DF91CF910895FC01808191810E9464
:1005A000DA080895CF93DF93EC018A810E942D0928
:1005B000E881F981808191810E94DA08DF91CF91F1
:1005C000089588EB93E090934803809347030E943B
:1005D000DA088DEF92E090938502809384020E9466
:1005E000DA088BE193E09093C1038093C0030E94EB
:1005F000DA0889E892E09093700380936F030E9479
:10060000DA0888EF92E090933D0380933C030E94C8
:10061000DA080895089585E08093BC008FEF8093F9
:10062000BB0081E18093B8001092B90082E0809312
:10063000BA000895DF93CF93CDB7DEB727970FB6F3
:10064000F894DEBF0FBECDBFAE014F5F5F4F80910C
:100650004E0390914F03FC0133E0EE0FFF1F3A95DC
:10066000E1F7E81BF90BDA01E056FC4F27E00190B7
:100670000D922150E1F7FC0123E0EE0FFF1F2A95B8
:10068000E1F7E81BF90BE056FC4F648125813681C8
:10069000019690934F0380934E0383309105ECF4C1
:1006A00021153105A1F22230310521F4862F8D7FED
:1006B00080935E02109206031092050389819A814D
:1006C000AB81BC818093530390935403A093550353
:1006D000B093560321E030E002C020E030E0C901D1
:1006E00027960FB6F894DEBF0FBECDBFCF91DF9136
:1006F000089580914E0390914F038330910524F427
:100700000E941A03009711F40E9479000895109234
:1007100061031092600381E090E09093580380930E
:10072000570310924F0310924E030E941A0308952C
:100730001F920F920FB60F920BB60F9211242F93A8
:100740003F934F935F936F937F938F939F93AF9359
:10075000BF93EF93FF938091B90090E0887F9070F2
:100760008836910509F4F5C089369105ECF580339A
:10077000910509F49BC081339105CCF48831910532
:1007800009F477C0893191054CF48830910509F45A
:1007900068C08031910509F0EBC063C080329105DB
:1007A00009F48DC08832910509F0E2C062C0883436
:1007B000910509F484C0893491054CF4883391057E
:1007C00009F454C08034910509F0D2C0C2C0883504
:1007D000910509F477C08036910509F4BAC08035D7
:1007E000910509F0C5C0B8C08839910509F4BDC0AC
:1007F00089399105CCF48038910509F4ADC0813870
:1008000091054CF48037910509F4A3C08837910510
:1008100009F0AEC09EC08838910509F4A6C08039A1
:10082000910509F0A5C098C0803B910509F44DC021
:10083000813B91054CF4803A910509F490C0883AC7
:10084000910509F095C041C0803C910509F473C041
:10085000883C910509F46CC0883B910509F088C07B
:100860003CC080915E028093BB001CC085E090E09C
:1008700078C0809105039091060320915503309133
:10088000560382179307F0F4E0915303F091540359
:10089000E80FF91F20812093BB0001969093060377
:1008A0008093050385E88093BC006AC086E090E0F1
:1008B00090936103809360030E94790061C084E09B
:1008C00090E0F6CF0E9479035BC010925303109220
:1008D0005403109255031092560380910503909192
:1008E000060320915503309156032150304060910A
:1008F000530370915403AC014F5F5F4F821793070E
:1009000060F4860F971FFC0180818093BB00509399
:1009100006034093050385ECC6CF860F971FFC01A5
:1009200080818093BB005093060340930503BACFA8
:1009300087E090E016C02091050330910603809176
:100940005503909156032817390778F488E090E012
:1009500008C00E94CA0014C00E94A90011C089E00A
:1009600090E090936103809360030E94910008C01F
:1009700083E090E090936103809360030E940A03F8
:10098000FF91EF91BF91AF919F918F917F916F9167
:100990005F914F913F912F910F900BBE0F900FBE23
:1009A0000F901F90189560E070E080E090E008954F
:1009B0000895ADEDB2E0E3EAF1E087E001900D9239
:1009C0008150E1F7A9E9B3E0ECE9F1E087E00190BB
:1009D0000D928150E1F7A9E5B3E0E5E9F1E087E0A8
:1009E00001900D928150E1F7A2E6B2E0EEE8F1E06D
:1009F00087E001900D928150E1F7A3E1B3E0E6E8D2
:100A0000F1E088E001900D928150E1F7AEE8B3E0AB
:100A1000EEE7F1E088E001900D928150E1F7A3E765
:100A2000B2E0E6E7F1E088E001900D928150E1F755
:100A3000A3E8B3E0EEE6F1E088E001900D9281508A
:100A4000E1F7AAEEB2E0E6E6F1E088E001900D926F
:100A50008150E1F7ABE7B3E0EEE5F1E088E001902B
:100A60000D928150E1F7A2E9B2E0E6E5F1E088E01D
:100A700001900D928150E1F7A6E5B2E0EEE4F1E0DD
:100A800088E001900D928150E1F708958FEF90E496
:100A900020914A0130914B01821B930B90934902A4
:100AA00080934802109245021092440260914D02D8
:100AB00070E06E5F7F4F81E090E00E944C0DFC0182
:100AC000009719F01182108202C0E0E0F0E0F0938C
:100AD0004F02E0934E020895AF92BF92CF92DF9201
:100AE000EF92FF920F931F93DF93CF9300D0CDB778
:100AF000DEB7D82EC92E7B015A01CA0161E070E031
:100B000029830E944C0D8C0129810097B1F1A50128
:100B100041505040480F591F86ED90E0FA01808304
:100B200031979083FA013297D082FA013397C082CD
:100B3000622F70E06E5F7F4F81E090E049835A83BF
:100B40000E944C0D9C0149815A81009749F0CA01CD
:100B50008697F90191838083E114F10431F404C094
:100B6000C8010E940B0E09C07901FA017E97E0824C
:100B70004F515040FA01F08202C020E030E0C9013C
:100B80000F900F90CF91DF911F910F91FF90EF90F9
:100B9000DF90CF90BF90AF90089540914A0150915F
:100BA0004B0120E00E946C05089560E070E00E9417
:100BB000CD0508950F920FB6F8940F920BB60F92D1
:100BC0001F9211242F923F924F925F926F927F92C9
:100BD0008F929F92AF92BF92CF92DF92EF92FF924D
:100BE0000F931F932F933F934F935F936F937F9335
:100BF0008F939F93AF93BF93CF93DF93EF93FF9325
:100C0000DC010DB60D920EB60D92DB010D900DBEFE
:100C10000D900EBEFF91EF91DF91CF91BF91AF91FB
:100C20009F918F917F916F915F914F913F912F9104
:100C30001F910F91FF90EF90DF90CF90BF90AF90FA
:100C40009F908F907F906F905F904F903F902F90EC
:100C50001F900F900BBE0F900FBE0F9078940895C9
:100C600080914E0290914F020895BC0180914E02F6
:100C700090914F0270934F0260934E020E94DA05EA
:100C80000895CF93DF93EA012A5F0E946C05FC016F
:100C90000097E9F0DC01149680914C0190914D0190
:100CA00095838483019690934D0180934C01139614
:100CB000DC93CE93129727E230E02C1B3D0B808112
:100CC0009181820F931F15969C938E931497CF0159
:100CD000DF91CF91089540914A0150914B0120E05E
:100CE0000E944106089560E070E00E946B0608953E
:100CF000CF93DF93EC0180914E0290914F02C81781
:100D0000D90769F0FE0134968C819D81009721F00E
:100D1000848195810E940B0ECE010E940B0EDF9103
:100D2000CF910895FC0186810895FC0120853185CD
:100D300080819181281B390BC9010895FC018481B0
:100D4000958108959C01285D3F4FC90108958091C8
:100D50004D028A5F80934D020E944605A0914E028B
:100D6000B0914F02FD01349615961C921E92149775
:100D700080914A0190914B01938382838091480234
:100D80009091490295838483089586ED90E060E018
:100D900070E040E450E020E00E944106909372032E
:100DA0008093710308958091710390917203089567
:100DB000CF93DF93C2E6D2E0CE0161E070E00E9403
:100DC000FE0982E992E064EC79E00E94CD0ACE014E
:100DD00062E070E00E949A09DF91CF91089582E964
:100DE00092E00E94A50A789408950895CF93DF9326
:100DF000EC010E942E0B9C01009751F4CE010E9441
:100E0000D80C9C01009721F420917103309172035A
:100E1000C901DF91CF9108950F920FB6F8940F9208
:100E20000BB60F921F9211242F923F924F925F9216
:100E30006F927F928F929F92AF92BF92CF92DF92EA
:100E4000EF92FF920F931F932F933F934F935F93D4
:100E50006F937F938F939F93AF93BF93CF93DF93C2
:100E6000EF93FF938091500290915102A091520212
:100E7000B09153020196A11DB11D80935002909331
:100E80005102A0935202B0935302A0914E02B0912E
:100E90004F020DB60D920EB60D9281E090E00E94C9
:100EA000F60690934F0280934E02009711F40E9431
:100EB000410DDC010D900DBE0D900EBEFF91EF9126
:100EC000DF91CF91BF91AF919F918F917F916F9162
:100ED0005F914F913F912F911F910F91FF90EF9054
:100EE000DF90CF90BF90AF909F908F907F906F904A
:100EF0005F904F903F902F901F900F900BBE0F90E0
:100F00000FBE0F90189580B7806880BFE4E6F0E0D0
:100F1000808180668083E0E6F0E080E180838081EC
:100F2000856080830E94A70683E090E00E941E0DEA
:100F30000E94F5060E94EF06089580913B0390E021
:100F400020914A0230914B022817390724F0109261
:100F50004B0210924A0280914A0290914B02880FF4
:100F6000991FE0913903F0913A03E80FF91F80814E
:100F700091810E94E7078FEF94E3ACE081509040AD
:100F8000A040E1F700C0000080914A0290914B021E
:100F9000880F991FE0913903F0913A03E80FF91F88
:100FA000808191810E94EF078FE79AE1A6E081504E
:100FB0009040A040E1F700C0000080914A0290916B
:100FC0004B02019690934B0280934A02B6CFFC01EC
:100FD0008081918161E070E00E9413090895FC0115
:100FE0008081918160E070E00E9413090895FC0106
:100FF000808191810E9413090895AF92BF92CF9290
:10100000DF92EF92FF920F931F93CF93DF937C01B8
:101010006B01DC011296AC901297BB24C0E0D0E0CB
:1010200001E010E015C0CE01880F991FD701ED91A6
:10103000FC91E80FF91F0190F081E02DB8016C21BF
:101040007D21808191810E941309000F111F21963B
:10105000CA15DB0544F3DF91CF911F910F91FF90EB
:10106000EF90DF90CF90BF90AF900895EF92FF92F6
:101070000F931F93CF93DF938C01DC011296EC90BA
:101080001297FF24C0E0D0E00DC0CE01880F991F59
:10109000D801ED91FC91E80FF91F808191810E94A8
:1010A000E7072196CE15DF0584F3DF91CF911F91DD
:1010B0000F91FF90EF900895EF92FF920F931F937F
:1010C000CF93DF938C01DC011296EC901297FF24F2
:1010D000C0E0D0E00DC0CE01880F991FD801ED917E
:1010E000FC91E80FF91F808191810E94EF07219602
:1010F000CE15DF0584F3DF91CF911F910F91FF9003
:10110000EF900895CF92DF92FF920F931F93DF939A
:10111000CF930F92CDB7DEB76C018B01FF241CC0BB
:10112000C601B80149830E94FD078FEF94E3ACE04C
:1011300081509040A040E1F700C00000C6010E942D
:101140005C088FEF94E3ACE081509040A040E1F761
:1011500000C00000F3944981F41610F30F90CF9172
:10116000DF911F910F91FF90DF90CF900895462F50
:101170006FEF7FEF0E9482080895DC011496ED91D5
:10118000FC9115978FEF80830895DC011496ED9103
:10119000FC91159710820895DC01ED91FC91119757
:1011A0000480F581E02D808112969C911297892B05
:1011B00080830895DC01ED91FC9111970480F58105
:1011C000E02D908112968C911297809589238083CF
:1011D0000895DC01ED91FC91119760830895DC0185
:1011E0001296ED91FC91139780810895DC01ED91A9
:1011F000FC9111970190F081E02D808112969C91D5
:101200001297892B80830895DC01ED91FC91119751
:101210000190F081E02D908112968C91129780952B
:101220008923808308956115710519F00E94F608DD
:1012300008950E9404090895FC01A081B1811296CD
:101240000D90BC91A02D8C919281892321E030E0FA
:1012500011F420E030E0C9010895803218F5582FCC
:10126000569556955695E52FF0E0EE0FFF1FEC5C76
:10127000FD4F0190F081E02D4081877021E030E04A
:10128000B90102C0660F771F8A95E2F7462B4083AB
:101290008091680002C0220F331F5A95E2F7822B1B
:1012A0008093680008958032C0F4E82FE695E695B3
:1012B000E695F0E0EE0FFF1FEC5CFD4F0190F08132
:1012C000E02D9081877021E030E002C0220F331FB3
:1012D0008A95E2F72095292320830895FC01643044
:1012E000710548F4DB01A45CBD4F2C91605C7D4F1F
:1012F000DB013C9102C030E020E0848195818130A7
:10130000910521F43695369526952695A081B181D3
:1013100011960D90BC91A02D8C91832B8C930190F4
:10132000F081E02D0180F281E02D8081209528233D
:1013300020830895FC01808190E082709070643079
:10134000710571F16530710568F461307105F9F06E
:1013500061307105D8F162307105E1F063307105DB
:10136000A1F41BC06730710521F16830710538F4B4
:1013700065307105C1F06630710539F417C0683009
:101380007105D1F069307105E1F090E01DC091E088
:1013900086E027C092E085E024C00097E9F42DC0E4
:1013A0000097B9F019C00097D1F427C00097A1F0B9
:1013B00005C00097A1F007C00097F9F496E081E01E
:1013C00010C00097D1F497E080E00BC090E087E078
:1013D00008C093E084E005C094E083E002C095E09B
:1013E00082E0A381B4812C91292B2C930380F4817A
:1013F000E02D90818095892380830895FC01808170
:1014000082FF54C065307105B9F166307105B0F4E2
:101410006230710569F16330710540F46115710541
:1014200019F16130710509F08FC06EC0633071052C
:1014300029F16430710509F087C024C06830710556
:1014400029F16930710540F46630710539F1673072
:10145000710509F079C026C069307105D9F06A308C
:10146000710509F071C010C090E030E088E14FC014
:1014700098E031E080E146C098E13AC090E031E088
:1014800088E140C090E12FC090E136C098E032E0A2
:1014900080E142C098E033E080E127C090E032E094
:1014A00088E13AC090E033E088E11FC06230710506
:1014B000C9F06330710540F46115710579F0613050
:1014C000710509F041C025C064307105C1F0643078
:1014D000710588F065307105B9F509C090E030E01C
:1014E00088E015C090E033E088E020E016C098E086
:1014F00033E080E0FACF90E031E088E003C098E08C
:1015000031E080E022E009C098E030E080E123E0B3
:1015100004C090E032E088E021E0A181B2814C91EA
:10152000432B4C93A181B2813C91209523232C9392
:10153000A381B4812C91292B2C930380F481E02D7D
:1015400090818095892380830895DC01ED91FC9141
:1015500011970580F681E02D208114968D919C9144
:101560001597009711F482E001C084E0822B8083FC
:101570000895CF93DF93EC018E819F810E94CC0868
:10158000CE0161E070E00E946E09DF91CF91089575
:1015900060E070E00E946E090895FC01A081B181B5
:1015A0008C9182FF0DC08FB7F894A281B381119600
:1015B0007C9311970280F381E02D60838FBF0895A3
:1015C0000280F381E02D70830895FC01A081B18138
:1015D0008C9182FF09C02FB7F8940280F381E02D2F
:1015E000808191812FBF08950280F381E02D908149
:1015F00080E00895EF92FF92CF93DF930E94A206BE
:10160000E82EE7017E01F92EE701E981FA810995CB
:101610001C861B860E942C0DF8CFEF92FF92CF9371
:10162000DF930E94A206E82EE7017E01F92EE70172
:10163000E981FA8109958B859C85AD85BE852D81D3
:101640003E814F815885820F931FA41FB51F8B8742
:101650009C87AD87BE870E942C0DEACFEF92FF9248
:10166000CF93DF93C091C803D091C90325C0CE01A9
:101670000E94A206FC0181859285009721F08130AD
:101680009105C1F412C06385748585859685209186
:10169000500230915102409152025091530226174C
:1016A00037074807590730F009C083859485813092
:1016B000910521F0C381D4812097C9F6CE01DF9135
:1016C000CF91FF90EF9008950F931F93CF93DF93E7
:1016D0008C01EB018091C8039091C903009739F404
:1016E0001093C9030093C8031C821B822DC00E9463
:1016F000A206FC0165817681878190852D813E81DE
:101700004F815885261737074807590768F0621731
:1017100073078407950721F490818881981720F03A
:1017200083819481009719F780E090E00E94A206DF
:10173000FC01838194819C838B8380E090E00E94F4
:10174000A206FC0114830383DF91CF911F910F91B7
:1017500008956F927F928F929F92AF92BF92CF9295
:10176000DF92EF92FF920F931F93CF93DF935C0171
:101770004B0169017A010E94A206192F682EE3012C
:101780003E01792EE3019A8289820883CD82DE822E
:10179000EF82F886C501B3010E94640B862D912F5C
:1017A000DF91CF911F910F91FF90EF90DF90CF903D
:1017B000BF90AF909F908F907F906F900895AF9261
:1017C000BF92CF92DF92FF920F931F93CF93DF933D
:1017D000EC015A016B01022F40914A0150914B01DB
:1017E0008DE09BE060E070E02FE00E944106F82E63
:1017F000192FBE01A60195010E94A90BFC011286BA
:101800001186209150023091510240915202509124
:1018100053022A0D3B1D4C1D5D1D238734874587D0
:1018200056878F2D912FDF91CF911F910F91FF90B0
:10183000DF90CF90BF90AF900895AF92BF92CF92BC
:10184000DF92FF920F931F93CF93DF93EC015A0126
:101850006B01022F40914A0150914B018AEF9AE0AF
:1018600060E070E02DE00E944106F82E192FBE01C5
:10187000A60195010E94A90BFC0181E090E09287EE
:101880008187148613868F2D912FDF91CF911F9121
:101890000F91FF90DF90CF90BF90AF9008950E947E
:1018A000A20621E030E0FC013487238708950F93DE
:1018B0001F93CF93DF938C01EB0181E090E064E014
:1018C00070E00E944C0DFC0111830083DE01AA0F21
:1018D000BB1FAA0FBB1FAC0FBD1FA653BC4F8D91E2
:1018E0009C911197938382831196FC93EE931496A7
:1018F0008C911497882321F41396FC93EE931297FE
:10190000FE01EE0FFF1FEE0FFF1FEC0FFD1FE65352
:10191000FC4F84818F5F84838091540290915502A3
:101920008C179D0720F4D0935502C0935402DF9189
:10193000CF911F910F9108950F931F93CF93DF9332
:10194000EB010E9473068C01BE010E94570CC80176
:10195000DF91CF911F910F91089563E070E00E9495
:101960009C0C08950F931F93CF93DF93EB01BA0163
:101970000E946B068C01BE010E94570CC801DF91CA
:10198000CF911F910F9108950F931F93CF93DF93E2
:10199000EB01BA01A90120E00E9441068C01BE01C1
:1019A0000E94570CC801DF91CF911F910F910895AC
:1019B000809154029091550201C00197009729F43B
:1019C000109254021092550210C0FC01EE0FFF1F3E
:1019D000EE0FFF1FE80FF91FE653FC4F248122236F
:1019E00061F38093540290935502FC01EE0FFF1FA8
:1019F000EE0FFF1FE80FF91FE653FC4F248122234F
:101A0000C9F0A281B38112960D90BC91A02D1097C0
:101A100011F4A081B181FC01EE0FFF1FEE0FFF1F3B
:101A2000E80FF91FE653FC4FB383A2832D913C913D
:101A3000119702C020E030E0C9010895CF93DF93F1
:101A4000EC010E943006BE010E94570CDF91CF913D
:101A500008950E943006089580E090E00E94F60606
:101A6000009711F00E943506089583B7816083BF07
:101A700083B7817F83BF7894889508950E94350D40
:101A8000FDCFF89484B7887084BF80E180936000B4
:101A900088E080936000FFCFEF92FF920F931F9337
:101AA000CF93DF93689F8001699F100D789F100D81
:101AB0001124C8010E94710DE82EE7017E01F92E64
:101AC000E701209731F08E2D60E070E0A8010E94C0
:101AD000A40ECE01DF91CF911F910F91FF90EF9057
:101AE0000895CF93DF938230910510F482E090E067
:101AF000E091EF03F091F00340E050E020E030E0AF
:101B000026C06081718168177907E0F0681779074E
:101B100081F4828193812115310531F0D901139629
:101B20009C938E9312972BC09093F0038093EF03B6
:101B300026C04115510519F06417750718F4AB015B
:101B4000E901DF019F0172816381E72FF62F309752
:101B5000C1F64115510501F1481B590B443051059F
:101B600080F412968D919C911397209719F09B8386
:101B70008A8304C09093F0038093EF03FD013296B3
:101B800046C0FD01E40FF51F8193919342505040F0
:101B900011965C934E933BC02091ED033091EE0380
:101BA0002115310541F420914602309147023093CE
:101BB000EE032093ED032091480230914902211554
:101BC000310541F42DB73EB7409144025091450292
:101BD000241B350BE091ED03F091EE03E217F307C0
:101BE000A0F42E1B3F0B2817390778F0AC014E5F8D
:101BF0005F4F2417350748F04E0F5F1F5093EE03D9
:101C00004093ED038193919302C0E0E0F0E0CF01B7
:101C1000DF91CF910895CF93DF93009709F491C09E
:101C2000FC013297138212826091EF037091F003EE
:101C30006115710581F420813181280F391F809150
:101C4000ED039091EE038217930799F5F093EE035D
:101C5000E093ED0376C0DB0180E090E002C0CD01AF
:101C6000D901AE17BF0748F412962D913C911397F6
:101C700021153105A1F7CD0121C0B383A283EF0166
:101C8000499159919E01240F351FA217B30779F48A
:101C90002D913C911197240F351F2E5F3F4F3183BB
:101CA000208312962D913C911397338322830097C2
:101CB00029F4F093F003E093EF0343C0DC011396A3
:101CC000FC93EE9312974D915D91A40FB51FEA1707
:101CD000FB0769F420813181240F351F2E5F3F4FB0
:101CE000EC0139832883228133813B832A83E0E01E
:101CF000F0E002C0FB01BC01DB0112968D919C91CA
:101D000013970097B9F79B012E5F3F4F8D919C91E0
:101D10001197820F931F4091ED035091EE034817E6
:101D2000590779F4309729F41092F0031092EF03D9
:101D300002C013821282225030403093EE0320936F
:101D4000ED03DF91CF910895DC0101C06D93415007
:101D50005040E0F708950E943E0D0895F894FFCF9B
:101D60007303110369020F0365034C032F03BB03C5
:101D70002D036703030337036B020703FB024C03C6
:101D80002F036B020703FB027303110369020F03A6
:101D90006503BB032D036703030337034C032F03C2
:101DA0006B020703FB029A0240000002010062027C
:101DB0009A000100E40262029800000070025903D8
:101DC000B4000100B5035903B30000007803990380
:101DD0008A0001008B039903880000006C03DD0278
:101DE000480001006203DD0247000000490304903F
:101DF000009100710002B000B10070000480008109
:101E0000006F0000440045006E0028010F1E010510
:101E10001801030E01050A0102000105F20280F219
:101E20000240F20220F20210F20208F20204F20270
:101E300002F202012B0029002A0031038031034005
:101E4000310320310310310308310304310302311F
:101E50000301280026002700C20380C20340C203FA
:101E600020C20310C20308C20304C20302C203015A
:101E70002500230024004103804103404103204109
:101E800003104103084103044103024103012200FE
:101E9000200021006B006C006D007300C0800040CA
:0A1EA0000040C0802000F1030000A4
:00000001FF
