:1000000045C00000BDC10000BBC10000B9C1000077
:10001000B7C10000B5C10000B3C10000B1C100000C
:10002000AFC10000ADC10000ABC10000A9C100001C
:10003000A7C10000A5C10000A3C10000A1C100002C
:100040009FC100009DC100009BC1000099C100003C
:1000500097C1000095C1000093C1000091C100004C
:100060008FC100008DC100008BC1000089C100005C
:1000700087C1000085C1000083C1000081C100006C
:1000800062C400007DC100007BC1000011241FBEBE
:10009000CFEFD0E4DEBFCDBF12E0A0E0B1E0E2E5FB
:1000A000F0E100E00BBF02C007900D92A031B10754
:1000B000D9F713E0A0E1B2E001C01D92A83BB1075F
:1000C000E1F784B78093120214BE7ED283E493E0FA
:1000D0009093B8028093B702B7D489EA93E09093E3
:1000E000B6028093B502B0D48BEC92E090931E03DD
:1000F00080931D03A9D488E593E090937D038093BA
:100100007C03A2D4A1EFB2E0EEE8F1E083E001903D
:100110000D928150E1F7A9EDB2E0EBE8F1E083E068
:1001200001900D928150E1F7A8EEB2E0E8E8F1E02D
:1001300083E001900D928150E1F7A5E6B3E0E5E898
:10014000F1E083E001900D928150E1F7ACE4B3E07F
:10015000E2E8F1E083E001900D928150E1F78BEE4F
:1001600092E09093E5028093E4027CD48DE393E0E7
:100170009093E3028093E20275D48FE293E0909330
:10018000E7028093E6026ED481EC92E090932E0316
:1001900080932D0367D4A2E0B3E0EBE7F1E087E0C2
:1001A00001900D928150E1F7ACE9B3E0E4E7F1E0B2
:1001B00087E001900D928150E1F7AEE5B3E0EDE606
:1001C000F1E087E001900D928150E1F7A4ECB2E0FC
:1001D000E6E6F1E087E001900D928150E1F7A2E3BD
:1001E000B3E0EEE5F1E088E001900D928150E1F797
:1001F000A1E9B3E0E6E5F1E088E001900D928150DD
:10020000E1F7A1EDB2E0EEE4F1E088E001900D92BB
:100210008150E1F7A6E8B3E0E6E4F1E088E0019080
:100220000D928150E1F7AFE0B3E0EEE3F1E088E05A
:1002300001900D928150E1F7AEE7B3E0E6E3F1E023
:1002400088E001900D928150E1F7A7EFB2E0EEE275
:10025000F1E088E001900D928150E1F7A9EBB2E066
:10026000E6E2F1E088E001900D928150E1F7A2E230
:10027000B3E0E1E2F1E085E001900D928150E1F719
:10028000809125039091260360E070E02BD580914A
:10029000230390912403D8D3ABE6B3E0ECE1F1E083
:1002A00085E001900D928150E1F780916E0390916D
:1002B0006F0360E070E016D580916C0390916D0340
:1002C000C3D3C4ECD2E0CE0161E070E03BD487EF51
:1002D00092E064EC79E006D5CE0162E070E0D1D323
:1002E00080B7806880BF80916400806680936400DE
:1002F00080E1809360008091600085608093600061
:10030000609113026A5F60931302009118011091CB
:100310001901CFEFD0E4C01BD10BD0930E02C093D4
:100320000D0210920A021092090270E06E5F7F4F78
:1003300081E090E02DD5FC010097D9F01182108268
:10034000DC011496F0931502E093140211961C92AE
:100350001E9213961C930E9312971596DC93CE93D0
:10036000149783E090E0EBD01AD087EF92E0A4D40A
:100370007894A4E0B0E0E0E0F0E0E4CF32D065C6ED
:100380003FCEFC0120813181428153812F5F3F4F5D
:100390004F4F5F4F2083318342835383F3CF0F93BB
:1003A0001F93CF93DF930CD190931B0280931A027B
:1003B0000CE112E0C1E0D0E0AE014E5B5D4F81EC9C
:1003C00091E065E070E021D0F801819391938F0175
:1003D0002196C431D10581F7DF91CF911F910F9103
:1003E00008958091420290914302A0914402B091FD
:1003F00045020196A11DB11D8093420290934302D4
:10040000A0934402B0934502ECCF0F931F93CF9378
:10041000DF93EB01BA0122D28C0181E090E064E02D
:1004200070E0B6D4FC01008311839E01220F331FBC
:10043000220F331FD901AC0FBD1FAE56BD4F8D919A
:100440009C911197938382831196FC93EE9314965B
:100450008C911497882321F41396FC93EE931297B2
:10046000F901EC0FFD1FEE56FD4F8F5F84838091E5
:100470001002909111028C179D0720F4D093110265
:10048000C0931002C801DF91CF911F910F91089581
:100490008091100290911102009709F19C01220FA6
:1004A000331F220F331FF901E80FF91FEE56FD4FDE
:1004B0004481442371F01FC09C01220F331F220F7F
:1004C000331FF901E80FF91FEE56FD4F4481442315
:1004D00069F5019789F7109211021092100280912C
:1004E0009602882321F420E030E0C901089580E0DD
:1004F00090E020E030E0D901A80FB91FAE56BD4F03
:100500001296ED91FC9113970280F381E02D3097C4
:1005100091F0820F931F8E569D4FDC011396FC9332
:10052000EE93129720813181C901089580931002C2
:1005300090931102E0CFED91FC911197EACF0F93C8
:100540001F93CF93DF93EC0184D18C0181E090E085
:1005500064E070E01DD4FC0111830083CE01880F9C
:10056000991F880F991FDC01AC0FBD1FAE56BD4F00
:100570002D913C911197338322831196FC93EE9336
:1005800014962C911497222321F41396FC93EE9346
:100590001297FC01EC0FFD1FEE56FD4F2F5F2483D9
:1005A00080911002909111028C179D0720F4D09336
:1005B0001102C0931002DF91CF911F910F91089506
:1005C00048C10895A7C30895A2E5B3E0E3E0F2E0CF
:1005D00086E001900D928150E1F7AFE4B3E0E0E0F6
:1005E000F2E083E001900D928150E1F7A6EAB3E0DA
:1005F000EDEFF1E083E001900D928150E1F7A7E289
:10060000B3E0EAEFF1E083E001900D928150E1F771
:10061000AAE3B3E0E7EFF1E083E001900D928150AF
:10062000E1F7AEEEB2E0E4EFF1E083E001900D928D
:100630008150E1F7AFE1B3E0E1EFF1E083E0019059
:100640000D928150E1F7A9E9B3E0EEEEF1E083E02D
:1006500001900D928150E1F7ABE5B3E0EBEEF1E0F4
:1006600083E001900D928150E1F7ACEAB3E0E5EE52
:10067000F1E086E001900D928150E1F7A3E4B3E050
:10068000E2EEF1E083E001900D928150E1F7A9EAFA
:10069000B3E0EFEDF1E083E001900D928150E1F7DE
:1006A000ABECB2E0ECEDF1E083E001900D92815013
:1006B000E1F7A8E5B3E0E9EDF1E083E001900D9208
:1006C0008150E1F7A8E6B3E0E6EDF1E083E00190C8
:1006D0000D928150E1F7ACE0B3E0E3EDF1E083E0AF
:1006E00001900D928150E1F7AEECB2E0E0EDF1E067
:1006F00083E001900D928150E1F7A9E0B3E0EDECC9
:10070000F1E083E001900D928150E1F7A6E4B3E0BF
:10071000E7ECF1E086E001900D928150E1F7A6E769
:10072000B3E0E4ECF1E083E001900D928150E1F759
:10073000A0E4B3E0E1ECF1E083E001900D928150A0
:10074000E1F7A0E7B3E0EEEBF1E083E001900D927A
:100750008150E1F7AFEFB2E0EBEBF1E083E0019025
:100760000D928150E1F7ABEEB2E0E8EBF1E083E00F
:1007700001900D928150E1F7ADE3B3E0E5EBF1E0DC
:1007800083E001900D928150E1F7AFE2B3E0E2EB3C
:10079000F1E083E001900D928150E1F7A1ECB2E02D
:1007A000EFEAF1E083E001900D928150E1F7A7E1DB
:1007B000B3E0E9EAF1E086E001900D928150E1F7C3
:1007C000AFEDB2E0E6EAF1E083E001900D928150F6
:1007D000E1F7A4EFB2E0E3EAF1E083E001900D92EB
:1007E0008150E1F7ACEDB2E0E0EAF1E083E00190A6
:1007F0000D928150E1F7AAE2B3E0EDE9F1E083E088
:1008000001900D928150E1F7AEE8B3E0EAE9F1E042
:1008100083E001900D928150E1F7A3E7B3E0E7E9AF
:10082000F1E083E001900D928150E1F7A3EAB3E09B
:10083000E4E9F1E083E001900D928150E1F7A9E74E
:10084000B3E0E1E9F1E083E001900D928150E1F73E
:10085000089580911402909115020895AF92BF926D
:10086000CF92DF92EF92FF920F931F93CF93DF937C
:100870005C016B010091180110911901C80161E040
:1008800070E086D27C01009709F44EC0E801219700
:10089000C80FD91F22EE32E02883FE013197308342
:1008A000FE013297A082FE013397B08281E090E092
:1008B00068E070E06DD2FC010097D9F1CE01869717
:1008C000918380839F01C114D10489F1DE015E9779
:1008D000CC926F97D882DF01149680911A01909183
:1008E0001B0195838483019690931B0180931A01C9
:1008F00013961C930E93129747E250E0401B510B46
:1009000080819181840F951F15969C938E931497E7
:10091000C901DF91CF911F910F91FF90EF90DF9070
:10092000CF90BF90AF90089520E030E0F1CF6F01FD
:10093000CDCFC701EAD220E030E0EACF9C01285DAC
:100940003F4FC90108950F920FB6F8940F920BB65E
:100950000F921F9211242F923F924F925F926F92AB
:100960007F928F929F92AF92BF92CF92DF92EF923F
:10097000FF920F931F932F933F934F935F936F9328
:100980007F938F939F93AF93BF93CF93DF93EF9317
:10099000FF938091160290911702A0911802B091D6
:1009A00019020196A11DB11D8093160290931702A2
:1009B000A0931802B0931902A0911402B0911502ED
:1009C0000DB60D920EB60D9281E090E0ACD100977D
:1009D00009F42EC09093150280931402DC010D904F
:1009E0000DBE0D900EBEFF91EF91DF91CF91BF91A3
:1009F000AF919F918F917F916F915F914F913F91B7
:100A00002F911F910F91FF90EF90DF90CF90BF90AB
:100A1000AF909F908F907F906F905F904F903F909E
:100A20002F901F900F900BBE0F900FBE0F90189538
:100A300081E090E02DDD90931502809314020097E1
:100A400009F0CCCF67D1CACFDC01ED91FC911197B1
:100A50000480F581E02D808112969C911297892B5C
:100A600080830895DC01ED91FC9111970480F5815C
:100A7000E02D908112968C91129780958923808326
:100A80000895FC01808190E082709070643071055F
:100A900009F453C065307105D8F06730710509F469
:100AA00043C06830710528F565307105C1F16630C5
:100AB000710581F19FEF20E0A381B4818C91822B9D
:100AC0008C930380F481E02D8081892380830895B5
:100AD0006130710579F161307105B0F062307105F6
:100AE000B1F06330710531F7009789F39CEF24E092
:100AF000E3CF68307105D9F069307105D9F60097F8
:100B000031F79FEF27E0D8CF98EF20E0D5CF9AEFCD
:100B100022E0D2CF009751F39EEF26E0CDCF009791
:100B2000B1F29DEF25E0C8CF0097D9F3EACF009747
:100B300099F3CDCF99EF21E0BFCF0097B9F69BEFA6
:100B400023E0BACFFC01808182FF1BC065307105B4
:100B500009F48FC06630710538F16830710509F409
:100B6000A1C06930710508F078C06630710509F4DC
:100B70008FC067307105B9F497EE3FEF20E043E096
:100B80002EC06230710509F440C06330710500F178
:100B90006430710509F450C06430710508F447C031
:100BA00065307105B9F108956230710509F47FC0AF
:100BB0006330710508F045C06115710509F45EC028
:100BC0006130710581F79FEE3CEF28E040E007C0FF
:100BD0006115710521F597EF3CEF20E040E0A18120
:100BE000B2818C91842B8C93A181B2818C918323CF
:100BF0008C93A381B4818C91822B8C930380F4819C
:100C0000E02D808189238083089597EF3FEF20E0D6
:100C100043E0E5CF9FEF3FEF28E043E0E0CF6130D6
:100C2000710509F697EF3EEF20E042E0D8CF97EF4D
:100C30003DEF20E041E0D3CF9FEF3DEF28E041E0E2
:100C4000CECF63307105F9F06430710509F0ABCF98
:100C500097EF3FEF20E143E0C2CF69307105E9F043
:100C60006A30710509F09FCF97EF3DEF20E141E039
:100C7000B6CF9FEF3FEF28E143E0B1CF97EE3CEFD7
:100C800020E040E0ACCF97EE3DEF20E041E0A7CF81
:100C900097EE3EEF20E042E0A2CF9FEE3FEF28E04C
:100CA00043E09DCF9FEE3EEF28E042E098CF9FEEDD
:100CB0003DEF28E041E093CFDC01ED91FC911197ED
:100CC0000580F681E02D208114968D919C911597D9
:100CD000009721F084E0822B8083089582E0822BAC
:100CE00080830895FC01A081B1818C9182FD05C0B3
:100CF0000280F381E02D708308958FB7F894A2816C
:100D0000B38111967C9311970280F381E02D60836B
:100D10008FBF089583B7816083BF83B7817F83BF0F
:100D200078948895F7CFEF92FF92CF93DF93C0919D
:100D3000B203D091B3032097B1F424C06B857C85B6
:100D40008D859E85209116023091170240911802E0
:100D500050911902621773078407950798F4C381AD
:100D6000D481209779F0CE01E9DDFC01818592855F
:100D7000009721F38130910591F78B859C85813017
:100D8000910569F7CE01DF91CF91FF90EF90089523
:100D9000EF92FF920F931F93CF93DF93689F800191
:100DA000699F100D789F100D1124C80114D0E82EF2
:100DB000E7017E01F92EE701209729F08E2D60E0F2
:100DC00070E0A8013BD1CE01DF91CF911F910F912F
:100DD000FF90EF900895CF93DF938230910510F448
:100DE00082E090E0E091B603F091B70340E050E07C
:100DF00020E030E026C06081718168177907E0F05B
:100E00006817790781F4828193812115310531F0CA
:100E1000D90113969C938E9312972BC09093B7038E
:100E20008093B60326C04115510519F06417750764
:100E300018F4AB01E901DF019F0172816381E72FA3
:100E4000F62F3097C1F64115510501F1481B590B9A
:100E50004430510580F412968D919C911397209700
:100E600019F09B838A8304C09093B7038093B603E1
:100E7000FD01329646C0FD01E40FF51F8193919369
:100E80004250504011965C934E933BC02091B40366
:100E90003091B5032115310541F420910B023091B9
:100EA0000C023093B5032093B40320910D023091CE
:100EB0000E022115310541F42DB73EB740910902CC
:100EC00050910A02241B350BE091B403F091B50355
:100ED000E217F307A0F42E1B3F0B2817390778F011
:100EE000AC014E5F5F4F2417350748F04E0F5F1F70
:100EF0005093B5034093B4038193919302C0E0E013
:100F0000F0E0CF01DF91CF910895CF93DF93009769
:100F100009F491C0FC013297138212826091B603EA
:100F20007091B7036115710581F420813181280F1B
:100F3000391F8091B4039091B5038217930799F5F7
:100F4000F093B503E093B40376C0DB0180E090E05A
:100F500002C0CD01D901AE17BF0748F412962D91FA
:100F60003C91139721153105A1F7CD0121C0B38321
:100F7000A283EF01499159919E01240F351FA217B9
:100F8000B30779F42D913C911197240F351F2E5FF3
:100F90003F4F3183208312962D913C9113973383D9
:100FA0002283009729F4F093B703E093B60343C07C
:100FB000DC011396FC93EE9312974D915D91A40F73
:100FC000B51FEA17FB0769F420813181240F351F13
:100FD0002E5F3F4FEC0139832883228133813B838D
:100FE0002A83E0E0F0E002C0FB01BC01DB011296C5
:100FF0008D919C9113970097B9F79B012E5F3F4FFE
:101000008D919C911197820F931F4091B403509141
:10101000B5034817590779F4309729F41092B703AC
:101020001092B60302C013821282225030403093D5
:10103000B5032093B403DF91CF910895DC0101C083
:101040006D9341505040E0F7089564CE0895F894B0
:02105000FFCFD0
:10105200B5021D03B7027C037C031D03B702B50270
:10106200B702B5027C031D0300020100007903866A
:101072000300A303D102C4029A0001000903C402BF
:1010820098000000CE025E03B4000100A3035E03D9
:10109200B300000079039C038A0001008E039C03C5
:1010A2008800000073030203480001006803020382
:1010B2004700000058030490009100710002B00044
:1010C200B100700004800081006F00004400450000
:1010D2006E001001040C0102080102040102000169
:1010E2000217038017034017032017031017030882
:1010F2001703041703021703012B0029002A0046D5
:101102000380460340460320460310460308460375
:1011120004460302460301280026002700AC038090
:10112200AC0340AC0320AC0310AC0308AC0304AC2A
:101132000302AC0301250023002400520380520362
:101142004052032052031052030852030452030276
:101152005203012200200021002000B803000000F9
:00000001FF
