:1000000006C10000D2C20000D0C20000CEC2000073
:10001000CCC20000CAC20000C8C20000C6C20000B4
:10002000C4C20000C2C20000C0C20000BEC20000C4
:10003000BCC20000BAC20000B8C20000B6C20000D4
:10004000B4C20000B2C20000B0C20000AEC20000E4
:10005000ACC20000AAC20000A8C20000A6C20000F4
:10006000A4C20000A2C2000072C400009EC2000030
:100070009CC200009AC2000098C2000096C2000014
:1000800015C6000092C2000090C200009C05CC047E
:10009000CC04CC04CC04CC04CC04CC049C05CC040F
:1000A000CC04CC04CC04CC04CC04CC04A405CC04F7
:1000B000CC04CC04CC04CC04CC04CC043205CC0459
:1000C000CC04CC04CC04CC04CC04CC04A405CC04D7
:1000D000CC04CC04CC04CC04CC04CC040806CC0462
:1000E000CC04CC04CC04CC04CC04CC040F06CC044B
:1000F000CC04CC04CC04CC04CC04CC045005CC04FB
:10010000CC04CC04CC04CC04CC04CC043205CC0408
:10011000CC04CC04CC04CC04CC04CC041305CC0417
:10012000CC04CC04CC04CC04CC04CC04C205CC0458
:10013000CC04CC04CC04CC04CC04CC045005CC04BA
:10014000CC04CC04CC04CC04CC04CC045005CC04AA
:10015000CC04CC04CC04CC04CC04CC045005CC049A
:10016000CC04CC04CC04CC04CC04CC045005CC048A
:10017000CC04CC04CC04CC04CC04CC041305CC04B7
:10018000CC04CC04CC04CC04CC04CC04FB04CC04C0
:10019000CC04CC04CC04CC04CC04CC041305CC0497
:1001A000CC04CC04CC04CC04CC04CC04FB04CC04A0
:1001B000CC04CC04CC04CC04CC04CC04F504CC0496
:1001C000CC04CC04CC04CC04CC04CC045A05CC0420
:1001D000CC04CC04CC04CC04CC04CC045A05CC0410
:1001E000CC04CC04CC04CC04CC04CC046205CC04F8
:1001F000CC04CC04CC04CC04CC04CC048205CC04C8
:10020000CC04CC04CC04CC04CC04CC04950511243F
:100210001FBECFEFD0E4DEBFCDBF12E0A0E0B1E063
:10022000E4EDF4E100E00BBF02C007900D92A431B1
:10023000B107D9F713E0A4E1B2E001C01D92AA3AD8
:10024000B107E1F784B78093160214BE3AD281EF6A
:1002500092E09093230280932202FBD188E793E0FF
:100260009093210280932002F4D187E392E090934F
:10027000CA028093C902EDD186E093E090933703E0
:1002800080933603E6D1ADE5B2E0E2E9F1E083E048
:1002900001900D928150E1F7A5E4B2E0EFE8F1E0C2
:1002A00083E001900D928150E1F7A4E5B2E0ECE823
:1002B000F1E083E001900D928150E1F7ADE1B3E010
:1002C000E9E8F1E083E001900D928150E1F7AAEFB7
:1002D000B2E0E6E8F1E083E001900D928150E1F7B1
:1002E00087E592E09093510280935002C0D18BEE4B
:1002F00092E090934F0280934E02B9D18DED92E03F
:100300009093530280935202B2D18DE292E0909387
:10031000DC028093DB02ABD1AEEAB2E0EFE7F1E0C2
:1003200087E001900D928150E1F7A6E5B3E0E8E7A0
:10033000F1E087E001900D928150E1F7A4E1B3E094
:10034000E1E7F1E087E001900D928150E1F7A0E351
:10035000B2E0EAE6F1E087E001900D928150E1F72A
:10036000A0EEB2E0E2E6F1E088E001900D9281506B
:10037000E1F7ABE4B3E0EAE5F1E088E001900D924B
:100380008150E1F7ADE3B2E0E2E5F1E088E0019011
:100390000D928150E1F7A0E4B3E0EAE4F1E088E0F7
:1003A00001900D928150E1F7ABEBB2E0E2E4F1E0B5
:1003B00088E001900D928150E1F7A8E3B3E0EAE311
:1003C000F1E088E001900D928150E1F7A3E6B2E000
:1003D000E2E3F1E088E001900D928150E1F7A4E2C0
:1003E000B2E0EAE2F1E088E001900D928150E1F79D
:1003F000AEECB2E0E5E2F1E085E001900D928150D3
:10040000E1F78091D1029091D20260E070E008D6CD
:100410008091CF029091D0021CD1A3E2B3E0E0E240
:10042000F1E085E001900D928150E1F78091260383
:100430009091270360E070E0F3D5809124039091C0
:10044000250307D185E08093BC008FEF8093BB002C
:1004500081E18093B8001092B90082E08093BA00E5
:1004600080E490E061E070E0D4D6E82EE7017E0100
:10047000F92EE7012097A1F18FE593E08FAF9EAFB2
:100480008DAF9CAF81E090E068E070E0C2D6FC01E7
:10049000009721F1C701499691838083E9A3F8A3CE
:1004A000DF01149680911E0190911F019583848332
:1004B000019690931F0180931E0180E490E01396B3
:1004C0009C938E93129780819181499715969C9366
:1004D0008E931497F0932F03E0932E03C70156D702
:1004E000E0E0F0E0F0932F03E0932E03C0E3D2E0CE
:1004F000CE0161E070E0C4D483E692E064EC79E080
:100500008FD5CE0162E070E05AD480B7806880BF9A
:100510008091640080668093640080E18093600035
:1005200080916000856080936000609117026A5F2F
:100530006093170200911C0110911D01CFEFD0E4D0
:10054000C01BD10BD0931202C093110210920E0265
:1005500010920D0270E06E5F7F4F81E090E059D6FF
:10056000FC010097D9F011821082DC011496F093FF
:100570001902E093180211961C921E9213961C9376
:100580000E9312971596DC93CE93149783E090E028
:10059000F4D514D483E692E02DD57894A4E0B0E0AD
:1005A000E0E0F0E0E4CF02D091C72ACD80911402C0
:1005B0009091150235C0880F991FE091FA02F091D1
:1005C000FB02E80FF91F8081918137D08FEF94E310
:1005D000ACE081509040A040E1F700C00000809165
:1005E000140290911502880F991FE091FA02F09180
:1005F000FB02E80FF91F8081918125D08FE79AE1F6
:10060000A6E081509040A040E1F700C0000080913A
:100610001402909115020196909315028093140292
:100620002091FC0230E0821793072CF21092150201
:100630001092140280E090E0C0CFFC018081918193
:1006400061E070E023C0FC018081918160E070E096
:100650001DC0DC01ED91FC9111970480F581E02D26
:10066000808112969C911297892B80830895DC01DA
:10067000ED91FC9111970480F581E02D9081129607
:100680008C9112978095892380830895FC016115D0
:10069000710559F4A081B1810D90BC91A02D9C9160
:1006A0008281809589238C930895A081B1810D90DA
:1006B000BC91A02D8C919281892B8C930895C8C4F4
:1006C0000895A0E0B3E0E7E0F2E086E001900D924B
:1006D0008150E1F7ADEFB2E0E4E0F2E083E00190B9
:1006E0000D928150E1F7A5E7B3E0E1E0F2E083E0AD
:1006F00001900D928150E1F7A3EDB2E0EEEFF1E051
:1007000083E001900D928150E1F7A8EEB2E0EBEFAB
:10071000F1E083E001900D928150E1F7AAE5B2E0AB
:10072000E8EFF1E083E001900D928150E1F7ABEC4E
:10073000B2E0E5EFF1E083E001900D928150E1F746
:10074000A3E5B3E0E2EFF1E083E001900D92815088
:10075000E1F7ABE0B3E0EFEEF1E083E001900D9262
:100760008150E1F7ABE7B3E0E9EEF1E086E001901C
:100770000D928150E1F7A1EFB2E0E6EEF1E083E007
:1007800001900D928150E1F7A8E7B3E0E3EEF1E0CC
:1007900083E001900D928150E1F7A7E3B2E0E0EE33
:1007A000F1E083E001900D928150E1F7A6E0B3E023
:1007B000EDEDF1E083E001900D928150E1F7A0E2D0
:1007C000B3E0EAEDF1E083E001900D928150E1F7B2
:1007D000A8EBB2E0E7EDF1E083E001900D928150EB
:1007E000E1F7AAE3B2E0E4EDF1E083E001900D92DD
:1007F0008150E1F7A5EBB2E0E1EDF1E083E001909B
:100800000D928150E1F7A4EFB2E0EBECF1E086E06D
:1008100001900D928150E1F7A0E3B3E0E8ECF1E044
:1008200083E001900D928150E1F7AEEEB2E0E5EC8D
:10083000F1E083E001900D928150E1F7A8E2B3E08E
:10084000E2ECF1E083E001900D928150E1F7ABEA38
:10085000B2E0EFEBF1E083E001900D928150E1F71F
:10086000A7E5B2E0ECEBF1E083E001900D9281505E
:10087000E1F7ABEEB2E0E9EBF1E083E001900D923D
:100880008150E1F7ADEDB2E0E6EBF1E083E00190FD
:100890000D928150E1F7ADE2B2E0E3EBF1E083E0ED
:1008A00001900D928150E1F7A3ECB2E0EDEAF1E0A6
:1008B00086E001900D928150E1F7ABE4B2E0EAEA04
:1008C000F1E083E001900D928150E1F7A0E6B2E003
:1008D000E7EAF1E083E001900D928150E1F7A8E4AE
:1008E000B2E0E4EAF1E083E001900D928150E1F79B
:1008F000A6EDB2E0E1EAF1E083E001900D928150D3
:10090000E1F7A8E4B3E0EEE9F1E083E001900D92B5
:100910008150E1F7ABE2B3E0EBE9F1E083E0019075
:100920000D928150E1F7A2E7B3E0E8E9F1E083E05E
:1009300001900D928150E1F7A3E3B3E0E5E9F1E026
:1009400083E001900D928150E1F7089508951F9280
:100950000F920FB60F920BB60F9211240F931F93A5
:100960002F933F934F935F936F937F938F939F93B7
:10097000AF93BF93EF93FF93DF93CF93CDB7DEB7E2
:100980002797DEBFCDBFE091B900F0E0E87FF070BF
:100990003897E13CF10508F183E090E090931C0367
:1009A00080931B03D3DF2796DEBFCDBFCF91DF91AE
:1009B000FF91EF91BF91AF919F918F917F916F9137
:1009C0005F914F913F912F911F910F910F900BBE0F
:1009D0000F900FBE0F901F901895EA5BFF4FEE0F20
:1009E000FF1F0590F491E02D099489E090E0909329
:1009F0001C0380931B0385EC8093BC00809118013D
:100A000090911901A0911A01B0911B0180930E03DE
:100A100090930F03A0931003B0931103109213034C
:100A200010921203C0CF2091D9023091DA02809146
:100A3000BB00E0910E03F0910F03E20FF31F8083E0
:100A40002F5F3F4F3093DA022093D9028091100339
:100A50009091110301972817390740F185E8809399
:100A6000BC00A1CF84E090E090931C0380931B0313
:100A700085ED8093BC008091180190911901A0919F
:100A80001A01B0911B0180930E0390930F03A09362
:100A90001003B0931103109213031092120383CF2B
:100AA00080911003909111030097C1F285EC80931F
:100AB000BC0079CF10920E0310920F031092100316
:100AC000109211038091D9029091DA0220911003C3
:100AD00030911103215030408217930708F040C035
:100AE000E0910E03F0910F03E80FF91F208120938E
:100AF000BB0001969093DA028093D90285EC809333
:100B0000BC0051CF20911003309111038091D90284
:100B10009091DA028217930708F06DCF88E090E099
:100B200090931C0380931B0366CF87E090E0909323
:100B30001C0380931B035FCF80912C028093BB002A
:100B400085E88093BC002FCF8091D9029091DA0282
:100B500020911003309111038217930708F066C0AB
:100B6000E0910E03F0910F03E80FF91F208120930D
:100B7000BB0001969093DA028093D90285E88093B6
:100B8000BC0011CF2091090330910A0323303105B5
:100B90000CF06ECFF901EE0FFF1FEE0FFF1FEE0FEF
:100BA000FF1FE21BF30BE35AFC4FAE014F5F5F4F99
:100BB000CA018F0167E0D8010D908D01DC010D9213
:100BC000CD016150C1F76481858196812F5F3F4FD0
:100BD00030930A0320930903233031050CF048CFEA
:100BE0003796009729F38230910509F451C010928D
:100BF000DA021092D90289819A81AB81BC818093FB
:100C00000E0390930F03A0931003B0931103CBCE68
:100C100086E090E090931C0380931B0329CF85E02E
:100C200090E090931C0380931B03E5CE2091090371
:100C300030910A03233031050CF01ACFF901EE0F81
:100C4000FF1FEE0FFF1FEE0FFF1FE21BF30BE35A18
:100C5000FC4FAE014F5F5F4FCA018F0167E0D801C3
:100C60000D908D01DC010D92CD016150C1F76481C1
:100C7000858196812F5F3F4F30930A0320930903AC
:100C8000233031050CF0F4CE3796009729F3ABCF23
:100C90006D7F60932C02ABCF809118029091190266
:100CA00008959C01285D3F4FC90108950F920FB62A
:100CB000F8940F920BB60F921F9211242F923F922D
:100CC0004F925F926F927F928F929F92AF92BF925C
:100CD000CF92DF92EF92FF920F931F932F933F9348
:100CE0004F935F936F937F938F939F93AF93BF9334
:100CF000CF93DF93EF93FF9380911A0290911B02A1
:100D0000A0911C02B0911D020196A11DB11D8093FE
:100D10001A0290931B02A0931C02B0931D02A09193
:100D20001802B09119020DB60D920EB60D9281E027
:100D300090E097D1009709F42EC090931902809308
:100D40001802DC010D900DBE0D900EBEFF91EF91CB
:100D5000DF91CF91BF91AF919F918F917F916F91D3
:100D60005F914F913F912F911F910F91FF90EF90C5
:100D7000DF90CF90BF90AF909F908F907F906F90BB
:100D80005F904F903F902F901F900F900BBE0F9051
:100D90000FBE0F90189581E090E098D1009709F070
:100DA000CCCF80912E0390912F03909319028093C2
:100DB0001802009709F0C5CF21D2C3CF0895FC01D6
:100DC000808190E0827090706430710509F453C0A6
:100DD00065307105D8F06730710509F443C068309B
:100DE000710528F565307105C1F16630710581F135
:100DF0009FEF20E0A381B4818C91822B8C930380A0
:100E0000F481E02D8081892380830895613071050C
:100E100079F161307105B0F062307105B1F0633085
:100E2000710531F7009789F39CEF24E0E3CF683038
:100E30007105D9F069307105D9F6009731F79FEF48
:100E400027E0D8CF98EF20E0D5CF9AEF22E0D2CF9D
:100E5000009751F39EEF26E0CDCF0097B1F29DEFC2
:100E600025E0C8CF0097D9F3EACF009799F3CDCF0B
:100E700099EF21E0BFCF0097B9F69BEF23E0BACFFF
:100E8000FC01808182FF1BC06530710509F48FC0B1
:100E90006630710538F16830710509F4A1C0693018
:100EA000710508F078C06630710509F48FC06730AD
:100EB0007105B9F497EE3FEF20E043E02EC06230B9
:100EC000710509F440C06330710500F164307105AB
:100ED00009F450C06430710508F447C065307105ED
:100EE000B9F108956230710509F47FC0633071056E
:100EF00008F045C06115710509F45EC061307105E7
:100F000081F79FEE3CEF28E040E007C061157105D6
:100F100021F597EF3CEF20E040E0A181B2818C9178
:100F2000842B8C93A181B2818C9183238C93A38198
:100F3000B4818C91822B8C930380F481E02D80818D
:100F400089238083089597EF3FEF20E043E0E5CFCA
:100F50009FEF3FEF28E043E0E0CF6130710509F6F5
:100F600097EF3EEF20E042E0D8CF97EF3DEF20E053
:100F700041E0D3CF9FEF3DEF28E041E0CECF63309B
:100F80007105F9F06430710509F0ABCF97EF3FEFD1
:100F900020E143E0C2CF69307105E9F06A307105A4
:100FA00009F09FCF97EF3DEF20E141E0B6CF9FEFF3
:100FB0003FEF28E143E0B1CF97EE3CEF20E040E087
:100FC000ACCF97EE3DEF20E041E0A7CF97EE3EEFAC
:100FD00020E042E0A2CF9FEE3FEF28E043E09DCF2C
:100FE0009FEE3EEF28E042E098CF9FEE3DEF28E0F5
:100FF00041E093CFDC01ED91FC9111970580F681E2
:10100000E02D208114968D919C911597009721F0E9
:1010100084E0822B8083089582E0822B8083089570
:10102000FC01A081B1818C9182FD05C00280F38119
:10103000E02D708308958FB7F894A281B381119643
:101040007C9311970280F381E02D60838FBF089518
:1010500083B7816083BF83B7817F83BF789488958E
:10106000F7CFEF92FF92CF93DF93C0918103D0919E
:1010700082032097B1F424C06385748585859685A5
:1010800020911A0230911B0240911C0250911D02C6
:10109000261737074807590798F4C381D48120974A
:1010A00079F0CE01FEDDFC0181859285009721F368
:1010B0008130910591F7838594858130910569F799
:1010C000CE01DF91CF91FF90EF90089580911E02A5
:1010D00090911F02009709F19C01220F331F220FEC
:1010E000331FF901E80FF91FED57FC4F44814423EA
:1010F00071F01FC09C01220F331F220F331FF90113
:10110000E80FF91FED57FC4F4481442369F501971F
:1011100089F710921F0210921E0280918703882384
:1011200021F420E030E0C901089580E090E020E063
:1011300030E0D901A80FB91FAD57BC4F1296ED9101
:10114000FC9113970280F381E02D309791F0820F8C
:10115000931F8D579C4FDC011396FC93EE931297CF
:1011600020813181C901089580931E0290931F024E
:10117000E0CFED91FC911197EACF0F931F93CF939E
:10118000DF93EC0189DD8C0181E090E064E070E0A8
:1011900040D0FC0111830083CE01880F991F880F76
:1011A000991FDC01AC0FBD1FAD57BC4F2D913C9179
:1011B0001197338322831196FC93EE9314962C910E
:1011C0001497222321F41396FC93EE931297FC01BB
:1011D000EC0FFD1FED57FC4F2F5F248380911E0203
:1011E00090911F028C179D0720F4D0931F02C0938B
:1011F0001E02DF91CF911F910F910895F89484B74B
:10120000887084BF80E18093600088E080936000F4
:10121000FFCFEF92FF920F931F93CF93DF93689FBF
:101220008001699F100D789F100D1124C80114D002
:10123000E82EE7017E01F92EE701209729F08E2D97
:1012400060E070E0A8013BD1CE01DF91CF911F910A
:101250000F91FF90EF900895CF93DF938230910527
:1012600010F482E090E0E091A803F091A90340E03F
:1012700050E020E030E026C0608171816817790776
:10128000E0F06817790781F4828193812115310597
:1012900031F0D90113969C938E9312972BC09093A3
:1012A000A9038093A80326C04115510519F06417BE
:1012B000750718F4AB01E901DF019F0172816381B9
:1012C000E72FF62F3097C1F64115510501F1481B64
:1012D000590B4430510580F412968D919C911397CF
:1012E000209719F09B838A8304C09093A90380936D
:1012F000A803FD01329646C0FD01E40FF51F81935E
:1013000091934250504011965C934E933BC0209174
:10131000A6033091A7032115310541F420910F0256
:10132000309110023093A7032093A603209111025D
:10133000309112022115310541F42DB73EB740918D
:101340000D0250910E02241B350BE091A603F09183
:10135000A703E217F307A0F42E1B3F0B281739074A
:1013600078F0AC014E5F5F4F2417350748F04E0F01
:101370005F1F5093A7034093A6038193919302C0EC
:10138000E0E0F0E0CF01DF91CF910895CF93DF93BC
:10139000009709F491C0FC01329713821282609188
:1013A000A8037091A9036115710581F42081318131
:1013B000280F391F8091A6039091A70382179307E6
:1013C00099F5F093A703E093A60376C0DB0180E0D4
:1013D00090E002C0CD01D901AE17BF0748F41296C4
:1013E0002D913C91139721153105A1F7CD0121C015
:1013F000B383A283EF01499159919E01240F351FB8
:10140000A217B30779F42D913C911197240F351F42
:101410002E5F3F4F3183208312962D913C9113977D
:1014200033832283009729F4F093A903E093A80360
:1014300043C0DC011396FC93EE9312974D915D919E
:10144000A40FB51FEA17FB0769F420813181240F2F
:10145000351F2E5F3F4FEC01398328832281338172
:101460003B832A83E0E0F0E002C0FB01BC01DB012A
:1014700012968D919C9113970097B9F79B012E5F5F
:101480003F4F8D919C911197820F931F4091A6031E
:101490005091A7034817590779F4309729F410920F
:1014A000A9031092A80302C0138212822250304076
:1014B0003093A7032093A603DF91CF910895DC0119
:1014C00001C06D9341505040E0F70895C1CD08959B
:0414D000F894FFCFBE
:1014D4002002C902220236033603C9022202200274
:1014E400220220023603C9026B02400000020100FE
:1014F40000330340030072033D0230029A000100EE
:10150400B5023002980000003A021403B40001004E
:1015140072031403B3000000330356038A0001006E
:1015240048035603880000002B03AE024800010064
:101534002003AE02470000000603049000910071EE
:101544000002B000B100700004800081006F000050
:10155400440045006E001001040C0102080102045D
:101564000102000102C30280C30240C30220C3027D
:1015740010C30208C30204C30202C302012B0029E0
:10158400002A00F40280F40240F40220F40210F471
:101594000208F40204F40202F402012800260027DF
:1015A400007B03807B03407B03207B03107B0308C9
:1015B4007B03047B03027B0301250023002400003A
:1015C400038000034000032000031000030800030D
:1015D400040003020003012200200021002000AACD
:0415E4000300000000
:00000001FF
