:100000000C9446000C9450000C9450000C9450003A
:100010000C9450000C9450000C9450000C94500020
:100020000C9450000C9450000C9450000C94500010
:100030000C9450000C9450000C9450000C94500000
:100040000C9450000C9450000C9450000C945000F0
:100050000C9450000C9450000C9450000C945000E0
:100060000C9450000C9450000C9450000C945000D0
:100070000C9450000C9450000C9450000C945000C0
:100080000C9450000C9450000C94500011241FBE8E
:10009000CFEFD0E4DEBFCDBF0E9494000C94D5001A
:1000A0000C9400002FEF2AB927B924E128B99093C6
:1000B00089008093880090938B0080938A0083EA64
:1000C0008093800081E08093810008952AE933E0E5
:1000D0008AE993E041E050E006C02AE931E08AE98C
:1000E00091E040E050E04115510521F00197215089
:1000F000304003C001962F5F3F4F9093890080935B
:10010000880030938B0020938A00E7E8F3E1319771
:10011000F1F700C00000F3E08B399F07B8F661E00B
:100120008A399607D0F2DFCF80E094E00E94520037
:100130000E94660080E090E008958FEF81B98FE71C
:100140008AB982B1809582B98BB180958F778BB94E
:100150008FEF98E0ADE381509040A040E1F700C000
:100160000000EFCF8FEF81B98FE78AB99FEF92B987
:100170008BB9FDCF11B88FEF84B98FE78AB917B863
:1001800012B880E88BB98CE388B996B129B181E0C7
:1001900095FD80E094FF826093FF846092FF886009
:0E01A00027FF806180688BB9F0CFF894FFCF05
:00000001FF
