:100000000C9446000C94FF070C9428080C9465008F
:100010000C9465000C9465000C9465000C946500CC
:100020000C9465000C9465000C9465000C946500BC
:100030000C9465000C947A070C94A2070C940706A4
:100040000C9465000C9465000C9465000C9465009C
:100050000C9465000C9465000C9465000C9465008C
:100060000C9487090C9465000C94B6030C946500FD
:100070000C9465000C9465000C9465000C9465006C
:100080000C9465000C9465000C94650011241FBE4F
:10009000CFEFD0E4DEBFCDBF11E0A0E0B1E0EAEBEE
:1000A000FCE100E00BBF02C007900D92A431B10744
:1000B000D9F711E0A4E1B1E001C01D92A239B10766
:1000C000E1F70E944F0A0C945B0E0C9400008093A1
:1000D0005101609353010E9452030E9479030895D5
:1000E0001F9363E00E946700182F0E949F038230D5
:1000F00041F480912A018093280180912B01809303
:100100002701812F1F91089586E180932901109284
:100110002A0182E061E00E946700089586E18093F1
:10012000290181E080932A0182E063E00E94670058
:1001300030912A0120E080912B01280F311DC90147
:1001400008951F9380916F0182FD02C00E94A20357
:100150000E948E00192F0E949F03823021F481E0BB
:1001600090E0113011F080E090E01F91089586E159
:100170008093290182E080932A0162E00E94670057
:1001800080912A01089596E19093290193E090933C
:100190002A0180932B0183E061E00E9467000895AB
:1001A00096E19093290190E190932A0180932B018D
:1001B00060932C0184E061E00E946700089596E15D
:1001C0009093290191E190932A0180932B0183E080
:1001D00061E00E946700089596E19093290192E101
:1001E00090932A0180932B0183E061E00E946700D5
:1001F00008951F93BC0186E18093290183E18093D8
:100200002A01DB010D900020E9F7AD01415050407B
:10021000461B570B142F2BE231E0C90150E00E941E
:10022000720B812F8E5F0E9470001F9108951F93A3
:10023000CF93DF93EC0186E18093290183E18093E2
:100240002A01CE010E94690B182F8BE291E0BE01BA
:10025000412F50E00E94600B812F8E5F0E94700042
:10026000DF91CF911F9108951F93BC0186E1809388
:10027000290184E180932A01DB010D900020E9F738
:10028000AD0141505040461B570B142F2BE231E07B
:10029000C90150E00E94720B812F8E5F62E00E94C4
:1002A000670080912A011F9108951F93CF93DF93D8
:1002B000EC0186E18093290184E180932A01CE013B
:1002C0000E94690B182F8BE291E0BE01412F50E094
:1002D0000E94600B812F8E5F62E00E946700809118
:1002E0002A01DF91CF911F91089596E19093290102
:1002F00095E190932A0180932B0183E061E00E94B5
:100300006700089596E19093290190932A018093C4
:100310002B0183E00E947000089596E190932901DB
:1003200097E190932A0180932B0183E00E94700053
:10033000089596E19093290198E190932A01809382
:100340002B0160932C0184E00E94700008952F928D
:100350003F924F925F926F927F928F929F92AF9255
:10036000BF92CF92DF92EF92FF920F931F93CF93A2
:10037000DF93E82E162FE52F90E0019768E070E0FC
:100380000E944D0B9B01F62EF3946F2D82E190E0BD
:1003900070E00E944D0BB62EA0902701009128011D
:1003A000242EE1016E01DE2EE60146E1742E99E174
:1003B000692E29010894411C511C8DE2882E81E090
:1003C000982E26C08A2D602F0E94D000D12EB11603
:1003D00008F4DB2C7092290160922A01E0922B0133
:1003E000D0922C01D49CC02C1124C401BE014C2DF0
:1003F00050E00E94720B8C2D8C5F0E9470001D19C2
:100400002D2D3F2D239FC0011124C80FD91F0D0D85
:100410001123C1F6DF91CF911F910F91FF90EF90C3
:10042000DF90CF90BF90AF909F908F907F906F9014
:100430005F904F903F902F9008958F929F92AF9230
:10044000BF92CF92DF92EF92FF920F931F93CF93C1
:10045000DF93E82E162FE52F90E0019768E070E01B
:100460000E944D0B9B01F62EF3946F2D82E190E0DC
:1004700070E00E944D0B062FC42EE6016E01DE2EA9
:10048000E60166E1B62E59E1A52E49010894811CCA
:10049000911C22C0D12E011708F4D02EB092290150
:1004A000A0922A01E0922B01D0922C01D89CC02C62
:1004B00011248DE291E0BE014C2D50E00E94600BB2
:1004C0008C2D8C5F0E9470001D195D2D2F2D529F69
:1004D000C0011124C80FD91F1123E1F6DF91CF917C
:1004E0001F910F91FF90EF90DF90CF90BF90AF9052
:1004F0009F908F90089596E1909329019AE19093AF
:100500002A0180932B0183E00E947000089596E1F8
:10051000909329019BE190932A0180932B01609392
:100520002C0184E00E947000089586E180932901E7
:1005300080E380932A0182E061E00E9467000895D1
:1005400096E19093290191E390932A0180932B01E6
:1005500060932C0184E061E00E946700089596E1B9
:100560009093290192E390932A0180932B0183E0D9
:1005700061E00E94670008951F93BC0186E18093AB
:10058000290183E380932A01DB010D900020E9F724
:10059000AD0141505040461B570B142F2BE231E068
:1005A000C90150E00E94720B812F8E5F62E00E94B1
:1005B00067001F9108951F93CF93DF93EC0186E1AD
:1005C0008093290183E380932A01CE010E94690B65
:1005D000182F8BE291E0BE01412F50E00E94600B8A
:1005E000812F8E5F62E00E946700DF91CF911F91A3
:1005F000089586E18093290180E480932A01809107
:10060000140180932B018091150180932C0184E0CB
:1006100062E00E94670080912A018093160108958C
:1006200096E19093290191E490932A0180932B0104
:1006300083E063E00E94670030912A0120E080910E
:100640002B01280F311DC901089586E180932901EE
:1006500082E480932A018091170180932B0183E02B
:1006600062E00E94670080912A018093180108953A
:1006700026E12093290123E420932A0190932B0162
:1006800080932C0184E061E00E946700089507C018
:10069000E7E8F3E13197F1F700C000000197009718
:1006A000B9F70895F89480914E01882311F481E1FF
:1006B00005C08091BC0084FF05C082E180934E019B
:1006C00080E015C08091BC0085FF07C01092BC007F
:1006D00084E08093BC0088E1F1CF10924E018091BC
:1006E000510180934F0185EA8093BC0081E07894AA
:1006F000089580E593EC0CC02091BC0020FD04C05F
:100700002091BC0024FF19C026E02A95F1F700C013
:1007100001972FEF8F3F920779F7F8941092BC0062
:1007200084E08093BC0080914E01803118F483E115
:1007300080934E01789480E0089581E0089580913F
:100740004E010895ECEBF0E0108284E68093B8004F
:100750008FEF8093BB0084E0808381E080934E0123
:1007600080916F01846080936F0108951F920F92B2
:100770000FB60F920BB60F9211242F933F938F93C6
:100780009F93EF93FF938091B900887F80935001EE
:10079000883251F1893288F4803121F1813138F485
:1007A000882309F471C0883009F073C01BC08831F8
:1007B000D9F0803209F06DC067C0803409F442C0BE
:1007C000813438F4803309F45FC0883309F061C0A4
:1007D00056C0803559F1883509F442C0883409F093
:1007E00058C052C0109252019091520180914F0115
:1007F000981768F480915201E82FF0E0E75DFE4F12
:1008000090818F5F809352019093BB0027C08091AD
:100810005301882369F18091530180934F018091A6
:10082000290181608093290185EA26C080915201C7
:100830009091BB00E82FF0E0E75DFE4F90838F5F63
:10084000809352018091520120914F0190E00196D6
:1008500030E08217930714F485EC0EC085E80CC0D5
:10086000E09152018091BB00F0E0E75DFE4F808394
:1008700082E080934E0184E98093BC0010C084E83C
:100880008093BC0085E109C084E98093BC0086E1C7
:1008900004C084E88093BC0087E180934E01FF91FF
:1008A000EF919F918F913F912F910F900BBE0F90E1
:1008B0000FBE0F901F90189584B18F6084B9089572
:1008C000662389F0813049F0813028F0823039F098
:1008D0008330C9F406C0289A0895299A08952A9A5F
:1008E00008952B9A0895813049F0813028F08230A4
:1008F00039F0833041F406C0289808952998089566
:100900002A9808952B9808950F931F93E0E44030A0
:100910005E072CF4E0EC41305E0724F005C040E0B7
:1009200050E402C040E050ECDB01AA0FBB1FA81B43
:10093000B90BA01BB10BFD0183E0EE0FFF1F8A95E1
:10094000E1F7EA1BFB0B201B310BC901880F991F34
:10095000820F931F880F991FE80FF91F601B710BFF
:10096000CB01880F991F880F991F860F971FE80FDB
:10097000F91FE40FF51FCF011F910F9108951092F9
:100980002201109221011092240110922301109251
:1009900026011092250110921C0110921B01109249
:1009A0001E0110921D011092200110921F01089546
:1009B000DF93CF930F92CDB7DEB790915D0198177B
:1009C00031F089830E94BF04898180935D010F907B
:1009D000CF91DF910895EF92FF920F931F93CF93E2
:1009E000DF939091690182E39802C0011124409144
:1009F0006101509162019A01220F331F240F351FAC
:100A0000820F931F24E030E0B9010E944D0BEB01EF
:100A1000709362016093610140915B0150915C01B0
:100A2000CA01880F991F840F951F860F971FB90160
:100A30000E944D0B70935C0160935B0180915D019E
:100A4000882309F44DC020915F013091600184300A
:100A500021F540916A0150916B01809111019091B3
:100A60001201241B350B821793070CF49C019095FF
:100A700081959F4F281739070CF49C0121153105EA
:100A800061F4109226011092250110922401109217
:100A900023011092220110922101E0902301F09095
:100AA00024014091250150912601809121019091CE
:100AB0002201B7018E010E94840490932601809345
:100AC0002501F0922201E0922101D0932401C093EC
:100AD000230160E170E00E944D0BCB010E940607EC
:100AE00010926901DF91CF911F910F91FF90EF90CC
:100AF0000895EF92FF920F931F93CF93DF939091FE
:100B00006E0182E39802C001112440915801509176
:100B100059019A01220F331F240F351F820F931F93
:100B200024E030E0B9010E944D0BEB0170935901B4
:100B3000609358014091540150915501CA01880FAA
:100B4000991F840F951F860F971FB9010E944D0BA7
:100B5000709355016093540180915D01882309F4DD
:100B60004DC02091560130915701843021F54091BC
:100B70006C0150916D018091110190911201241B23
:100B8000350B821793070CF49C01909581959F4F2C
:100B9000281739070CF49C012115310561F41092D6
:100BA000200110921F0110921E0110921D0110923F
:100BB0001C0110921B01E0901D01F0901E0140915C
:100BC0001F015091200180911B0190911C01B701E0
:100BD0008E010E9484049093200180931F01F09263
:100BE0001C01E0921B01D0931E01C0931D0160E126
:100BF00070E00E944D0BCB010E94400710926E01E5
:100C0000DF91CF911F910F91FF90EF9008951F9268
:100C10000F920FB60F920BB60F9211242F933F93A2
:100C20004F935F936F937F938F939F93AF93BF93F4
:100C3000EF93FF9380911A01982F9F5F90931A0171
:100C4000209119012223E1F421E0209319019F3022
:100C500040F08E5080931A0181E066E170E00E94BE
:100C6000D80880915E018F5F80935E01833930F0F8
:100C70000E94EB040E94790510925E011092190106
:100C8000FF91EF91BF91AF919F918F917F916F9164
:100C90005F914F913F912F910F900BBE0F900FBE20
:100CA0000F901F90189580916F0181FD02C00E94E6
:100CB000DC0680916F00816080936F000E94BF040A
:100CC00010925D01089580E00E94D80408950F936A
:100CD0001F93CF93DF93EC018B0183E00E94D80434
:100CE000D0936001C0935F011093570100935601A8
:100CF000DF91CF911F910F910895882361F080E0DB
:100D00000E94D80480E090E00E94400780E090E0DC
:100D10000E940607089580E090E060E070E00E9485
:100D200067060895EF92FF920F931F93CF93DF937F
:100D3000EC018B017A0184E00E94D804F092120148
:100D4000E0921101D0936001C0935F0110935701AD
:100D500000935601DF91CF911F910F91FF90EF907B
:100D60000895EF92FF920F931F93CF93DF93EC01BF
:100D70008B017A0184E00E94D804F0921201E09283
:100D8000110180916A0190916B018C0F9D1F9093CE
:100D9000600180935F0180916C0190916D01800FE3
:100DA000911F9093570180935601DF91CF911F912E
:100DB0000F91FF90EF90089580916F018260809372
:100DC0006F018BB1806F8BB98AB1806F8AB982EF66
:100DD0008093800081E080938100EFE6F0E08081E5
:100DE000808308958FB7F894109266011092650180
:100DF0001092680110926701109289001092880089
:100E000010928B0010928A008FBF089562E070E00C
:100E10000E944D0B82E060307807B4F48EEF6130B1
:100E200078071CF077FD03C011C061E07EEF70957C
:100E300061957F4F70936601609365015E9B0CC066
:100E400080916401827010C06FEF71E07093660151
:100E5000609365015E9B05C0709389006093880074
:100E600008958091640181608093640110928900EB
:100E70001092880080916F00826080936F000895C7
:100E800062E070E00E944D0B82E060307807B4F4BD
:100E90008EEF613078071CF077FD03C011C061E070
:100EA0007EEF709561957F4F709368016093670145
:100EB0005F991BC08091640182600BC06FEF71E08D
:100EC00070936801609367015F9B0FC0809164011C
:100ED00081708093640110928B0010928A0080913F
:100EE0006F00846080936F00089570938B0060930F
:100EF0008A0008951F920F920FB60F9211248F93BC
:100F00009F934D9B18C08BB18F7B9091640190FF94
:100F100002C090E401C090E0892B8BB980916501FB
:100F200090916601909389008093880080916F0072
:100F30008D7F80936F009F918F910F900FBE0F90C8
:100F40001F9018951F920F920FB60F9211248F9336
:100F50009F934C9B18C08BB18F779091640191FF48
:100F600002C090E801C090E0892B8BB980916701A5
:100F70009091680190938B0080938A0080916F001C
:100F80008B7F80936F009F918F910F900FBE0F907A
:100F90001F901895E9E6F0E080818F6080838DB323
:100FA00083608DBB5E9A5F9808958FB7F894109216
:100FB0006B0110926A0110926D0110926C018FBF4B
:100FC00008959FB7F89420916A0130916B018823AE
:100FD00021F010926B0110926A019FBFC901089520
:100FE0009FB7F89420916C0130916D01882321F016
:100FF00010926D0110926C019FBFC90108951F925C
:101000000F920FB60F9211248F939F935E9B0BC08C
:10101000809169018F5F8093690180916A0190914D
:101020006B0101960AC0809169018150809369012A
:1010300080916A0190916B01019790936B0180936D
:101040006A019F918F910F900FBE0F901F9018957E
:101050001F920F920FB60F9211248F939F935F9B55
:101060000BC080916E01815080936E0180916C0164
:1010700090916D0101970AC080916E018F5F8093FE
:101080006E0180916C0190916D01019690936D01BC
:1010900080936C019F918F910F900FBE0F901F90C6
:1010A00018950AC02FE73AE146E021503040404011
:1010B000E1F700C0000081508823A1F708950F9345
:1010C0001F93082F162F81E061E00E94600482E0E8
:1010D00061E00E94600480E061E00E94600483E0BF
:1010E00061E00E946004802F0E94510881E060E06E
:1010F0000E94600482E060E00E94600480E060E0A2
:101100000E94600483E060E00E946004812F0E94DE
:1011100051081F910F91089584E00E947A09BC0143
:1011200080E093EC0E94390B89E190E0689F900188
:10113000699F300D789F300D1124C9010895CF9318
:10114000DF93EC0184E00E947A09C817D90758F5AB
:1011500084B18F6084B90E94F206F89481E061E066
:101160000E945F0881E061E00E945F0881E061E029
:101170000E945F0883E061E00E945F0883E061E015
:101180000E945F0883E061E00E945F0881E061E007
:101190000E945F0881E061E00E945F0881E063E0F7
:1011A0000E945F08DBCFDF91CF91089508950895E5
:1011B000DF93CF930F92CDB7DEB7209173013091BB
:1011C0007401620F731F709374016093730123E0C5
:1011D000683E720730F1685E7340709374016093EB
:1011E000730120917001309171012F5F3F4F309357
:1011F000710120937001909172019F5F9093720131
:101200002091790130917A012115310551F0209119
:10121000790130917A012150304030937A01209346
:10122000790190917201980F9093720190917201DF
:101230009A3048F0909172019A509093720189838C
:101240000E94D70889812091700130917101280F87
:10125000311D309371012093700180917001909144
:101260007101E3E0883E9E07F8F080917001909153
:101270007101885E93409093710180937001809119
:10128000750190917601A0917701B0917801019656
:10129000A11DB11D8093750190937601A0937701F4
:1012A000B09378010E94D6080F90CF91DF910895F6
:1012B0002FB7F89490937A018093790109C083B78E
:1012C000816083BF78948895F89483B78E7F83BFBD
:1012D0008091790190917A01009789F72FBF089545
:1012E00080916F01816080936F018FEE80937A000F
:1012F000249A08952FB7F894E82FF0E0EE0FFF1F1F
:10130000E458FE4F808191812FBF089508951F9268
:101310000F920FB60F920BB60F9211242F933F939B
:101320004F935F936F937F938F939F93AF93BF93ED
:10133000EF93FF93809178009091790020917B0149
:101340002530C9F1263080F4223031F1233030F4D9
:101350002223C1F0213009F04DC019C0233009F11A
:10136000243009F047C022C02830A9F1293028F4E0
:10137000263031F12730F1F529C0293089F12A30A2
:10138000C9F533C090937D0180937C0133C0909365
:101390007F0180937E012EC0909381018093800114
:1013A00029C0909383018093820124C09093870188
:1013B000809386011FC090938901809388011AC091
:1013C00090938B0180938A012C9814C0909385018F
:1013D000809384010FC090938D0180938C010AC08B
:1013E00090938F0180938E0105C09093910180931B
:1013F00090012C9A80917B018F5F80937B018B30D1
:1014000010F010927B0180917B01853051F1863084
:1014100070F48230F1F0833028F48823B1F0813009
:1014200029F515C08330C9F0843001F518C0883023
:10143000B1F0893028F4863071F08730B9F40DC0EE
:10144000893079F08A3091F40EC081E40DC082E4D5
:101450000BC083E409C08EE507C085E405C086E4BF
:1014600003C087E401C080E480937C0080917B010D
:10147000882311F40E948609FF91EF91BF91AF91EB
:101480009F918F917F916F915F914F913F912F919C
:101490000F900BBE0F900FBE0F901F9018958F925C
:1014A0009F92AF92BF92CF92DF92EF92FF920F93F3
:1014B0001F93DF93CF93CDB7DEB7A0970FB6F89405
:1014C000DEBF0FBECDBF84B18F6084B90E94A2037E
:1014D00080E060E00E94600483E060E00E946004BD
:1014E00081E061E00E94600482E061E00E946004AB
:1014F0000E94A1008823E1F380E061E00E94600483
:1015000083E061E00E94600481E060E00E9460048A
:1015100082E060E00E9460040E94DC060E945306A4
:101520008E010F5F1F4F8DE0E82E81E0F82E78943A
:1015300084E190E00E9447030E94B7008F3FD1F4FE
:101540000E94840082E062E00E94A00280E091E0BC
:101550000E94BC0282E063E00E94A00285E091E06C
:101560000E94BC0282E064E00E94A0028AE091E056
:101570000E94BC0210921401109215010E942503D2
:101580000E94F90280E40E9410036C0181E40E9431
:1015900010035C0188EC0E9410034C01C6010E94FC
:1015A000380387E062E00E94A00200D000D000D0A3
:1015B000EDB7FEB73196ADB7BEB712961C930E933A
:1015C0001197F382E282D582C4820E947B0B8DB791
:1015D0009EB706960FB6F8949EBF0FBE8DBFC8018A
:1015E0000E94BC0287E063E00E94A00200D000D00D
:1015F00000D0EDB7FEB73196ADB7BEB712961C93CB
:101600000E931197F382E282B582A4820E947B0B33
:101610008DB79EB706960FB6F8949EBF0FBE8DBFCE
:10162000C8010E94BC0287E064E00E94A00200D0D2
:1016300000D000D0EDB7FEB73196ADB7BEB7129669
:101640001C930E931197F382E282958284820E940A
:101650007B0B8DB79EB706960FB6F8949EBF0FBE54
:101660008DBFC8010E94BC028091180180931701B0
:101670005ECFAA1BBB1B51E107C0AA1FBB1FA61749
:10168000B70710F0A61BB70B881F991F5A95A9F72B
:1016900080959095BC01CD01089597FB092E0726F2
:1016A0000AD077FD04D0E5DF06D000201AF470954B
:1016B00061957F4F0895F6F7909581959F4F089516
:1016C000FB01DC0102C005900D9241505040D8F75B
:1016D0000895FC0105900020E9F7809590958E0F04
:1016E0009F1F0895FB01DC0102C001900D92415043
:1016F0005040D8F708950F931F93DF93CF93CDB742
:10170000DEB72E970FB6F894DEBF0FBECDBF0D89A2
:101710001E8986E08C831A8309838FEF9FE79E835F
:101720008D839E01275E3F4FCE0101966F89788D94
:10173000A9010E94AB0BEF81F885E00FF11F108229
:101740002E960FB6F894DEBF0FBECDBFCF91DF91BE
:101750001F910F9108952F923F924F925F926F9237
:101760007F928F929F92AF92BF92CF92DF92EF9231
:10177000FF920F931F93DF93CF93CDB7DEB72C97D4
:101780000FB6F894DEBF0FBECDBF6C011B018A01FE
:10179000FC0117821682838181FFD1C12E0108943A
:1017A000411C511CF6019381F10193FD859193FF3A
:1017B00081911F01882309F4BEC1853239F493FD5C
:1017C000859193FF81911F01853229F490E0B60144
:1017D0000E94D10DE7CFEE24FF2420E02032B0F4A8
:1017E0008B3269F08C3228F4803251F0833271F4FC
:1017F0000BC08D3239F0803349F421602CC0226057
:10180000246029C0286027C0206125C027FD2CC086
:10181000382F30533A3098F426FF08C08E2D880FA9
:10182000E82EEE0CEE0CE80EE30E15C08F2D880F9F
:10183000F82EFF0CFF0CF80EF30E20620CC08E3257
:1018400021F426FD78C1206406C08C3611F420688E
:1018500002C0883649F4F10193FD859193FF81918F
:101860001F01882309F0BACF982F9554933018F0B0
:101870009052933028F40C5F1F4FFFE3F9830DC0A3
:10188000833631F0833771F0833509F060C022C0B0
:10189000F801808189830E5F1F4F420171E0A72EFE
:1018A000B12C16C062E0662E712C600E711EF8011C
:1018B0008080918026FF03C06E2D70E002C06FEF24
:1018C0007FEFC4012C870E94C60D5C0183012C852B
:1018D0002F7717C052E0652E712C600E711EF80133
:1018E0008080918026FF03C06E2D70E002C06FEFF4
:1018F0007FEFC4012C870E94BB0D5C012C85206802
:10190000830123FD20C008C080E290E0B6012C874F
:101910000E94D10DFA942C858F2D90E0A816B9065F
:1019200098F311C0F40127FD859127FF81914F01A4
:1019300090E0B6012C870E94D10D2C85F110FA940D
:101940000894A108B108A114B10461F7F1C084366C
:1019500011F0893649F527FF08C0F80160817181CF
:10196000828193810C5F1F4F09C0F80160817181F2
:10197000882777FD8095982F0E5F1F4F4FE6B42E76
:10198000B22297FF09C090958095709561957F4F21
:101990008F4F9F4FF0E8BF2AA2012AE030E00E945B
:1019A000FD0D782E741845C0853731F43FEEB32E07
:1019B000B2222AE030E025C099EFB92EB2228F364C
:1019C000C1F0803720F4883509F0B5C00DC08037EC
:1019D00021F0883709F0AFC002C020E1B22AB4FE7E
:1019E0000BC084E0B82A08C0B4FE09C0E6E0BE2AF5
:1019F00006C028E030E005C020E130E002C020E170
:101A000032E0B7FE08C0F801608171818281938164
:101A10000C5F1F4F07C0F8016081718180E090E08A
:101A20000E5F1F4FA2010E94FD0D782E7418FFE774
:101A3000BF22B6FE0BC02EEFB2227E1438F4B4FEE5
:101A400007C0B2FC05C08FEEB82202C0A72C01C0AF
:101A5000AE2C8B2D90E0B4FE0DC0FE01E70DF11D04
:101A60002081203319F4E9EEBE2209C0A394B2FE0E
:101A700006C004C086789070009709F0A3948B2C60
:101A80009924B3FC14C0B0FE0FC0AF1428F4E72CA7
:101A9000EF0CEA18AF2C08C0E72C06C080E290E0FB
:101AA000B6010E94D10DA394AF14C0F304C0AF14CB
:101AB00010F4FA1801C0FF2484FE0FC080E390E008
:101AC000B6010E94D10D82FE1FC081FE03C088E5D1
:101AD00090E010C088E790E00DC0C4018678907057
:101AE000009791F081FC02C080E201C08BE2B7FC5C
:101AF0008DE290E0B6010E94D10D06C080E390E037
:101B0000B6010E94D10DEA947E14C0F37A94F201DA
:101B1000E70DF11D808190E0B6010E94D10D772084
:101B2000A9F706C080E290E0B6010E94D10DFA94B8
:101B3000FF20C1F737CEF6012681378102C02FEF93
:101B40003FEFC9012C960FB6F894DEBF0FBECDBF94
:101B5000CF91DF911F910F91FF90EF90DF90CF9089
:101B6000BF90AF909F908F907F906F905F904F90BD
:101B70003F902F900895FC01059061507040011036
:101B8000D8F7809590958E0F9F1F0895FC016150A6
:101B9000704001900110D8F7809590958E0F9F1F8F
:101BA00008950F931F93CF93DF938C01EB018B81EB
:101BB00081FF1BC082FF0DC02E813F818C819D81E2
:101BC0002817390764F4E881F9810193F983E883E0
:101BD00006C0E885F985802F0995009731F48E813C
:101BE0009F8101969F838E8302C00FEF1FEFC80174
:101BF000DF91CF911F910F910895FA01AA27283004
:101C000051F1203181F1E8946F936E7F6E5F7F4FC9
:101C10008F4F9F4FAF4FB1E03ED0B4E03CD0670F45
:101C2000781F891F9A1FA11D680F791F8A1F911D98
:101C3000A11D6A0F711D811D911DA11D20D009F4E8
:101C400068943F912AE0269F11243019305D31932A
:101C5000DEF6CF010895462F4770405D4193B3E013
:101C60000FD0C9F7F6CF462F4F70405D4A3318F0BA
:101C7000495D31FD4052419302D0A9F7EACFB4E06B
:101C8000A6959795879577956795BA95C9F7009723
:101C90006105710508959B01AC010A2E06945795C4
:101CA000479537952795BA95C9F7620F731F841F1B
:0A1CB000951FA01D0895F894FFCFC2
:101CBA00414E303A00414E313A00543A00253469D7
:041CCA000014000002
:00000001FF
