:100000000C9446000C9416030C943F030C9465006A
:100010000C9465000C9465000C9465000C946500CC
:100020000C9465000C9465000C9465000C946500BC
:100030000C9465000C9491020C94B9020C94650028
:100040000C9465000C9465000C9465000C9465009C
:100050000C94C4030C94FA030C9465000C94650092
:100060000C947E000C9465000C9465000C94650063
:100070000C9465000C9465000C9465000C9465006C
:100080000C9465000C9465000C94650011241FBE4F
:10009000CFEFD0E4DEBFCDBF11E0A0E0B1E0E2E3FE
:1000A000FBE000E00BBF02C007900D92AC30B1073F
:1000B000D9F711E0ACE0B1E001C01D92AB34B1075B
:1000C000E1F70E944B040C9497050C94000080917A
:1000D00023018160809323018FEE80937A00249A1C
:1000E00008952FB7F894E82FF0E0EE0FFF1FE35FBD
:1000F000FE4F808191812FBF089508951F920F9226
:100100000FB60F920BB60F9211242F933F934F937C
:100110005F936F937F938F939F93AF93BF93EF936F
:10012000FF93809178009091790020910C01253007
:10013000C9F1263080F4223031F1233030F422230B
:10014000C1F0213009F04DC019C0233009F124302D
:1001500009F047C022C02830A9F1293028F4263000
:1001600031F12730F1F529C0293089F12A30C9F55C
:1001700033C090930E0180930D0133C09093100112
:1001800080930F012EC0909312018093110129C01A
:10019000909314018093130124C0909318018093CD
:1001A00017011FC090931A01809319011AC09093F0
:1001B0001C0180931B012C9814C09093160180930E
:1001C00015010FC090931E0180931D010AC09093EA
:1001D000200180931F0105C090932201809321018B
:1001E0002C9A80910C018F5F80930C018B3010F062
:1001F00010920C0180910C01853051F1863070F421
:100200008230F1F0833028F48823B1F0813029F571
:1002100015C08330C9F0843001F518C08830B1F0C2
:10022000893028F4863071F08730B9F40DC08930F8
:1002300079F08A3091F40EC081E40DC082E40BC0E5
:1002400083E409C08EE507C085E405C086E403C0E9
:1002500087E401C080E480937C0080910C018823B6
:1002600011F40E947D00FF91EF91BF91AF919F919A
:100270008F917F916F915F914F913F912F910F904F
:100280000BBE0F900FBE0F901F9018950AC02FE75E
:100290003AE146E0215030404040E1F700C0000024
:1002A00081508823A1F708950F931F93082F162FCD
:1002B00081E061E00E94CF0182E061E00E94CF0115
:1002C00080E061E00E94CF0183E061E00E94CF0105
:1002D000802F0E94460181E060E00E94CF0182E011
:1002E00060E00E94CF0180E060E00E94CF0183E0E7
:1002F00060E00E94CF01812F0E9446011F910F9163
:10030000089584E00E947100BC0180E093EC0E949B
:100310004E0589E190E0689F9001699F300D789FBC
:10032000300D1124C9010895CF93DF93EC0184E0CF
:100330000E947100C817D90758F584B18F6084B93D
:100340000E940902F89481E061E00E94540181E07A
:1003500061E00E94540181E061E00E94540183E069
:1003600061E00E94540183E061E00E94540183E057
:1003700061E00E94540181E061E00E94540181E04B
:1003800061E00E94540181E063E00E945401DBCFF0
:10039000DF91CF91089584B18F6084B90895662369
:1003A00089F0813049F0813028F0823039F0833093
:1003B000C9F406C0289A0895299A08952A9A08959A
:1003C0002B9A0895813049F0813028F0823039F03D
:1003D000833041F406C028980895299808952A98F2
:1003E00008952B98089580912301826080932301C2
:1003F0008BB1806F8BB98AB1806F8AB982EF80939D
:10040000800081E080938100EFE6F0E080818083CE
:1004100008958FB7F894109226011092250110923A
:1004200028011092270110928900109288001092E2
:100430008B0010928A008FBF089562E070E00E94E6
:10044000620582E060307807B4F48EEF613078079F
:100450001CF077FD03C011C061E07EEF70956195DF
:100460007F4F70932601609325015E9B0CC08091A5
:100470002401827010C06FEF71E0709326016093C9
:1004800025015E9B05C070938900609388000895E4
:100490008091240181608093240110928900109240
:1004A000880080916F00826080936F00089562E001
:1004B00070E00E94620582E060307807B4F48EEF4D
:1004C000613078071CF077FD03C011C061E07EEF5A
:1004D000709561957F4F70932801609327015F9914
:1004E0001BC08091240182600BC06FEF71E070939C
:1004F0002801609327015F9B0FC0809124018170C8
:100500008093240110928B0010928A0080916F00DA
:10051000846080936F00089570938B0060938A00CD
:1005200008951F920F920FB60F9211248F939F93ED
:100530004D9B18C08BB18F7B9091240190FF02C01E
:1005400090E401C090E0892B8BB9809125019091B6
:100550002601909389008093880080916F008D7FA1
:1005600080936F009F918F910F900FBE0F901F90FF
:1005700018951F920F920FB60F9211248F939F938D
:100580004C9B18C08BB18F779091240191FF02C0D2
:1005900090E801C090E0892B8BB980912701909160
:1005A000280190938B0080938A0080916F008B7F4D
:1005B00080936F009F918F910F900FBE0F901F90AF
:1005C0001895E9E6F0E080818F6080838DB38360C9
:1005D0008DBB5E9A5F9808958FB7F89410922B01A7
:1005E00010922A0110922D0110922C018FBF0895B4
:1005F0009FB7F89420912A0130912B01882321F094
:1006000010922B0110922A019FBFC90108959FB734
:10061000F89420912C0130912D01882321F0109223
:100620002D0110922C019FBFC90108951F920F92B6
:100630000FB60F9211248F939F935E9B0BC08091F6
:1006400029018F5F8093290180912A0190912B01CC
:1006500001960AC0809129018150809329018091DF
:100660002A0190912B01019790932B0180932A01ED
:100670009F918F910F900FBE0F901F9018951F9212
:100680000F920FB60F9211248F939F935F9B0BC015
:1006900080912E01815080932E0180912C019091A8
:1006A0002D0101970AC080912E018F5F80932E014A
:1006B00080912C0190912D01019690932D018093B2
:1006C0002C019F918F910F900FBE0F901F90189546
:1006D0009C0140E050E084E0220F331F441F551F6F
:1006E0008A95D1F760E07DE281E391E00E94750593
:1006F000215030403093C5002093C4000895F894F1
:10070000E0913101F0E0EE5BFE4F8081909130018D
:10071000983021F490913101909330019091310102
:100720009F5F9093310190913101983010F01092B9
:10073000310178940895F894E0914A01F0E0EE5C7C
:10074000FE4F808390914A019F5F90934A01909160
:100750004A01903110F010924A0120914A01909183
:100760002F01291719F490E190934A019091C1004B
:1007700090629093C1007894089588EB8093C100B3
:1007800008951092C10008951F920F920FB60F9214
:100790000BB60F9211248F939F93EF93FF93809149
:1007A000C600909130019830D1F0E0913001F0E036
:1007B000EE5BFE4F8083809130018F5F809330012C
:1007C00080913001883010F010923001909130010A
:1007D00080913101981719F488E080933001FF91DE
:1007E000EF919F918F910F900BBE0F900FBE0F90C6
:1007F0001F9018951F920F920FB60F920BB60F9283
:1008000011248F939F93EF93FF9390912F018091E9
:100810004A019817E1F0E0912F01F0E0EE5CFE4F05
:10082000908180914A01803121F480912F01809341
:100830004A0180912F018F5F80932F0180912F01BA
:10084000803110F010922F019093C60005C0809166
:10085000C1008F7D8093C100FF91EF919F918F9197
:100860000F900BBE0F900FBE0F901F901895982FF2
:10087000813029F081E0923019F080E008958FEF07
:100880000895982F813029F081E0923019F080E0AE
:1008900008958FEF0895CF92DF92EF92FF920F931A
:1008A0001F93DF93CF930F92CDB7DEB784B18F60E4
:1008B00084B980E895E20E9468030E94BD030E940B
:1008C000F3010E94E1020E9409020E94670088B1C0
:1008D000806F88B9249A789486B190E08073907084
:1008E00004E0959587950A95E1F70E943704082F53
:1008F00086B182958695869583700E9441040F5F2C
:10090000033060F4A02FBB27A7FDB095AA0FBB1F33
:10091000A050BF4F0D911C91119702C000E010E054
:100920008F5F833058F4E82FFF27E7FDF095EE0F37
:10093000FF1FEA5FFE4FC080D18002C0CC24DD24BF
:10094000C8010E941D02C6010E945702011511052F
:1009500009F085C0C114D10409F081C087E893E192
:100960000197F1F700C0000088E00E9471008C013F
:1009700085E00E94710008521040081B190B89E0A5
:100980000E9471007C0186E00E947100F701E81B63
:10099000F90BCF016F01CC0CDD1CC80ED91ED6940B
:1009A000C794D694C79474ECE72E7FEFF72ECE0C45
:1009B000DF1C8AE00E9471007C0187E00E947100C8
:1009C00028ED3FEFE20EF31EE81AF90A17FF02C006
:1009D00000E010E0A601D7FE02C040E050E0F7FEC4
:1009E00002C0EE24FF2431E00D32130764F49801B5
:1009F000220F331FCA018E0D9F1D61E082179307DE
:100A00001CF060E001C061E08DE2E81681E0F806CC
:100A10005CF4C701880F991F400F511F21E0481750
:100A200059071CF020E001C021E0043611050CF448
:100A300060E094E6E916F1040CF420E081E02983FB
:100A40000E94CF0182E02981622F0E94CF0169B10B
:100A5000647080E00E94CF0169B168701BC061E0E2
:100A6000101611060CF060E081E00E94CF0161E0F9
:100A70001C141D040CF060E082E00E94CF01612F85
:100A8000661F6627661F80E00E94CF016D2D661FDE
:100A90006627661F83E00E94CF011DCFAA1BBB1BE8
:100AA00051E107C0AA1FBB1FA617B70710F0A61B6E
:100AB000B70B881F991F5A95A9F780959095BC018F
:100AC000CD01089597FB092E07260AD077FD04D0A3
:100AD000E5DF06D000201AF4709561957F4F0895E8
:100AE000F6F7909581959F4F0895A1E21A2EAA1BC3
:100AF000BB1BFD010DC0AA1FBB1FEE1FFF1FA217CE
:100B0000B307E407F50720F0A21BB30BE40BF50BCA
:100B1000661F771F881F991F1A9469F76095709553
:100B2000809590959B01AC01BD01CF010895F8948B
:020B3000FFCFF5
:0C0B3200E0FC00002003E0FC00002003B9
:00000001FF
