:100000000C9446000C946F000C946F000C946F00DD
:100010000C946F000C946F000C946F000C946F00A4
:100020000C946F000C946F000C946F000C946F0094
:100030000C946F000C946F000C946F000C946F0084
:100040000C946F000C946F000C946F000C946F0074
:100050000C946F000C946F000C946F000C946F0064
:100060000C946F000C946F000C946F000C946F0054
:100070000C946F000C946F000C946F000C946F0044
:100080000C94B1050C946F000C946F0011241FBEEA
:10009000CFEFD0E4DEBFCDBF11E0A0E0B1E0EEEDE8
:1000A000F4E100E00BBF02C007900D92A63EB1073D
:1000B000D9F712E0A6EEB1E001C01D92AE3FB10744
:1000C000E1F70E9439020E947E030E946A050E94A5
:1000D0007D050E9428060E94C1000C946A0A0C94B7
:1000E00000004091E6013091E7012091E8019091F4
:1000F000E9018091EA01F091EB01E091EC01A0911E
:10010000ED01642F6F5F51E0641708F050E0530F6A
:1001100041E0531708F040E0420F31E0421708F089
:1001200030E0390F21E0391708F020E0280F91E086
:10013000281708F090E09F0F81E09F1708F080E0FB
:100140008E0F71E08E1708F070E07A0F6093E60171
:100150005093E7014093E8013093E9012093EA01CD
:100160009093EB018093EC017093ED01089581E78A
:1001700090E042E350E060E070E020E00E94A901DE
:10018000089580E090E00895EF92FF92CF93DF937F
:100190000E944705E82EE7017E01F92EE701E9817B
:1001A000FA8109951C861B860E942102F8CFEF92E6
:1001B000FF92CF93DF930E944705E82EE7017E016F
:1001C000F92EE701E981FA8109958B859C85AD853A
:1001D000BE852D813E814F815885820F931FA41FBC
:1001E000B51F8B879C87AD87BE870E942102EACF0F
:1001F000EF92FF92CF93DF93C091FF01D091000265
:1002000025C0CE010E944705FC018185928500979B
:1002100021F081309105C1F412C063857485858514
:1002200096852091F9013091FA014091FB0150919E
:10023000FC01261737074807590730F009C08385A6
:1002400094858130910521F0C381D4812097C9F62E
:10025000CE01DF91CF91FF90EF9008950F931F9300
:10026000CF93DF938C01EB018091FF01909100020D
:10027000009739F4109300020093FF011C821B8247
:100280002DC00E944705FC0165817681878190859C
:100290002D813E814F81588526173707480759071A
:1002A00068F0621773078407950721F490818881AD
:1002B000981720F083819481009719F780E090E0EF
:1002C0000E944705FC01838194819C838B8380E09D
:1002D00090E00E944705FC0114830383DF91CF91D6
:1002E0001F910F9108956F927F928F929F92AF927C
:1002F000BF92CF92DF92EF92FF920F931F93CF9313
:10030000DF935C014B0169017A010E944705192FB7
:10031000682EE3013E01792EE3019A8289820883E7
:10032000CD82DE82EF82F886C501B3010E942E01E4
:10033000862D912FDF91CF911F910F91FF90EF901C
:10034000DF90CF90BF90AF909F908F907F906F90F5
:100350000895AF92BF92CF92DF92FF920F931F93B7
:10036000CF93DF93EC015A016B01022F4091000102
:100370005091010187ED90E060E070E02FE00E9475
:10038000E604F82E192FBE01A60195010E94730103
:10039000FC01128611862091F9013091FA014091F9
:1003A000FB015091FC012A0D3B1D4C1D5D1D238757
:1003B0003487458756878F2D912FDF91CF911F91DD
:1003C0000F91FF90DF90CF90BF90AF900895AF92C4
:1003D000BF92CF92DF92FF920F931F93CF93DF9341
:1003E000EC015A016B01022F409100015091010173
:1003F00084EC90E060E070E02DE00E94E604F82ECE
:10040000192FBE01A60195010E947301FC0181E034
:1004100090E092878187148613868F2D912FDF912C
:10042000CF911F910F91FF90DF90CF90BF90AF9031
:1004300008950E94470521E030E0FC0134872387BE
:10044000089580E090E00E949B05009711F00E94C3
:10045000DA04089583B7816083BF83B7817F83BF48
:100460007894889508950E942A02FDCF0E94330255
:100470000895AFE7B2E0E2EDF1E086E001900D9281
:100480008150E1F7ACE7B2E0EFECF1E083E00190FE
:100490000D928150E1F7ABECB2E0ECECF1E083E0DF
:1004A00001900D928150E1F7A9E5B2E0E9ECF1E0AD
:1004B00083E001900D928150E1F7AAE6B2E0E6EC0C
:1004C000F1E083E001900D928150E1F7AAE2B2E001
:1004D000E3ECF1E083E001900D928150E1F7A6E5B5
:1004E000B2E0E0ECF1E083E001900D928150E1F7A1
:1004F000AEEBB2E0EDEBF1E083E001900D928150C4
:10050000E1F7A8E8B2E0EAEBF1E083E001900D92B8
:100510008150E1F7A1EDB2E0E4EBF1E086E001907B
:100520000D928150E1F7A3E7B2E0E1EBF1E083E067
:1005300001900D928150E1F7AEECB2E0EEEAF1E00D
:1005400083E001900D928150E1F7A3E1B2E0EBEA84
:10055000F1E083E001900D928150E1F7A5E8B2E06F
:10056000E8EAF1E083E001900D928150E1F7A2E921
:10057000B2E0E5EAF1E083E001900D928150E1F70D
:10058000A5E4B2E0E2EAF1E083E001900D9281504F
:10059000E1F7A6E1B2E0EFE9F1E083E001900D922E
:1005A0008150E1F7A2E4B2E0ECE9F1E083E00190F0
:1005B0000D928150E1F7A6E7B2E0E6E9F1E086E0CE
:1005C00001900D928150E1F7ADE9B2E0E3E9F1E08D
:1005D00083E001900D928150E1F7A0E7B2E0E0E9FD
:1005E000F1E083E001900D928150E1F7A5E9B2E0DE
:1005F000EDE8F1E083E001900D928150E1F7A8E38E
:10060000B2E0EAE8F1E083E001900D928150E1F779
:10061000A7E2B2E0E7E8F1E083E001900D928150BB
:10062000E1F7ADE6B2E0E4E8F1E083E001900D929D
:100630008150E1F7AFE5B2E0E1E8F1E083E001905D
:100640000D928150E1F7A9E0B2E0EEE7F1E083E03E
:1006500001900D928150E1F7A0E5B2E0E8E7F1E00A
:1006600086E001900D928150E1F7A4E2B2E0E5E767
:10067000F1E083E001900D928150E1F7ADE2B2E04C
:10068000E2E7F1E083E001900D928150E1F7A1E211
:10069000B2E0EFE6F1E083E001900D928150E1F7E6
:1006A000ACE5B2E0ECE6F1E083E001900D92815020
:1006B000E1F7A3EBB2E0E9E6F1E083E001900D920F
:1006C0008150E1F7A8E9B2E0E6E6F1E083E00190CD
:1006D0000D928150E1F7A8ECB2E0E3E6F1E083E0AF
:1006E00001900D928150E1F7A0EAB2E0E0E6F1E07E
:1006F00083E001900D928150E1F70895ABE3B2E001
:10070000E9E5F1E087E001900D928150E1F7A1EC7D
:10071000B2E0E2E5F1E087E001900D928150E1F76F
:10072000ABE8B2E0EBE4F1E087E001900D9281509C
:10073000E1F7ACE0B2E0E4E4F1E087E001900D9293
:100740008150E1F7A2E6B2E0ECE3F1E088E001904D
:100750000D928150E1F7A6EBB2E0E4E3F1E088E02E
:1007600001900D928150E1F7A9E1B2E0ECE2F1E0F5
:1007700088E001900D928150E1F7ABEAB2E0E4E24B
:10078000F1E088E001900D928150E1F7A8E4B2E039
:10079000ECE1F1E088E001900D928150E1F7A3EAED
:1007A000B2E0E4E1F1E088E001900D928150E1F7E0
:1007B000A0E3B2E0ECE0F1E088E001900D9281501E
:1007C000E1F7A1E0B2E0E4E0F1E088E001900D9211
:1007D0008150E1F708958FEF90E42091000130916E
:1007E0000101821B930B9093E5018093E401109229
:1007F000E1011092E0016091F60170E06E5F7F4FC1
:1008000081E090E00E940B09FC01009719F0118231
:10081000108202C0E0E0F0E0F093F801E093F7010D
:100820000895AF92BF92CF92DF92EF92FF920F9313
:100830001F93DF93CF9300D0CDB7DEB7D82EC92E4C
:100840007B015A01CA0161E070E029830E940B0913
:100850008C0129810097B1F1A50141505040480F0A
:10086000591F86E392E0FA01808331979083FA0161
:100870003297D082FA013397C082622F70E06E5FA8
:100880007F4F81E090E049835A830E940B099C01CD
:1008900049815A81009749F0CA018697F9019183ED
:1008A0008083E114F10431F404C0C8010E94CA0934
:1008B00009C07901FA017E97E0824F515040FA0158
:1008C000F08202C020E030E0C9010F900F90CF917C
:1008D000DF911F910F91FF90EF90DF90CF90BF902D
:1008E000AF900895409100015091010120E00E94D5
:1008F0001104089560E070E00E94720408950F9260
:100900000FB6F8940F920BB60F921F9211242F92EC
:100910003F924F925F926F927F928F929F92AF928F
:10092000BF92CF92DF92EF92FF920F931F932F937C
:100930003F934F935F936F937F938F939F93AF9367
:10094000BF93CF93DF93EF93FF93DC010DB60D922E
:100950000EB60D92DB010D900DBE0D900EBEFF91F7
:10096000EF91DF91CF91BF91AF919F918F917F9147
:100970006F915F914F913F912F911F910F91FF9038
:10098000EF90DF90CF90BF90AF909F908F907F902F
:100990006F905F904F903F902F901F900F900BBEE5
:1009A0000F900FBE0F90789408958091F701909169
:1009B000F8010895BC018091F7019091F8017093BE
:1009C000F8016093F7010E947F040895CF93DF93AD
:1009D000EA012A5F0E941104FC010097E9F0DC01A2
:1009E000149680910201909103019583848301966E
:1009F00090930301809302011396DC93CE93129798
:100A000027E230E02C1B3D0B80819181820F931FE8
:100A100015969C938E931497CF01DF91CF910895F3
:100A2000409100015091010120E00E94E6040895E8
:100A300060E070E00E9410050895CF93DF93EC0111
:100A40008091F7019091F801C817D90769F0FE016C
:100A500034968C819D81009721F0848195810E943C
:100A6000CA09CE010E94CA09DF91CF910895FC0105
:100A700086810895FC012085318580819181281B24
:100A8000390BC9010895FC018481958108959C0169
:100A9000285D3F4FC90108958091F6018A5F8093D8
:100AA000F6010E94EB03A091F701B091F801FD015E
:100AB000349615961C921E92149780910001909185
:100AC0000101938382838091E4019091E5019583F4
:100AD0008483089586E392E060E070E040E450E0B3
:100AE00020E00E94E60490939C0280939B0208956C
:100AF00080919B0290919C020895CF93DF93CCE06C
:100B0000D2E0CE0161E070E00E94BF0680E392E097
:100B10006AEF70E00E948E07CE0162E070E00E94F2
:100B20005B06DF91CF91089580E392E00E94660713
:100B3000789408950895CF93DF93EC010E94F80014
:100B40009C01009751F4CE010E943C089C01009743
:100B500021F420919B0230919C02C901DF91CF9139
:100B600008950F920FB6F8940F920BB60F921F9242
:100B700011242F923F924F925F926F927F928F92A9
:100B80009F92AF92BF92CF92DF92EF92FF920F931C
:100B90001F932F933F934F935F936F937F938F9305
:100BA0009F93AF93BF93CF93DF93EF93FF93809186
:100BB000F9019091FA01A091FB01B091FC0101961D
:100BC000A11DB11D8093F9019093FA01A093FB013F
:100BD000B093FC01A091F701B091F8010DB60D9210
:100BE0000EB60D9281E090E00E949B059093F80173
:100BF0008093F701009711F40E949008DC010D909A
:100C00000DBE0D900EBEFF91EF91DF91CF91BF9180
:100C1000AF919F918F917F916F915F914F913F9194
:100C20002F911F910F91FF90EF90DF90CF90BF9089
:100C3000AF909F908F907F906F905F904F903F907C
:100C40002F901F900F900BBE0F900FBE0F90189516
:100C50000E944C050E94B7000E9494050895FC0173
:100C60006430710548F4DB01A852BE4F2C916452E8
:100C70007E4FDB013C9102C030E020E08481958111
:100C80008130910521F43695369526952695A081DB
:100C9000B18111960D90BC91A02D8C91832B8C93DA
:100CA0000190F081E02D0180F281E02D808120957E
:100CB000282320830895FC01808190E08270907049
:100CC0006430710571F16530710568F4613071054A
:100CD000F9F061307105D8F162307105E1F06330EF
:100CE0007105A1F41BC06730710521F168307105F1
:100CF00038F465307105C1F06630710539F417C0FC
:100D000068307105D1F069307105E1F090E01DC0E7
:100D100091E086E027C092E085E024C00097E9F4E6
:100D20002DC00097B9F019C00097D1F427C00097E3
:100D3000A1F005C00097A1F007C00097F9F496E074
:100D400081E010C00097D1F497E080E00BC090E004
:100D500087E008C093E084E005C094E083E002C02F
:100D600095E082E0A381B4812C91292B2C93038000
:100D7000F481E02D90818095892380830895FC0182
:100D8000808182FF54C065307105B9F1663071050C
:100D9000B0F46230710569F16330710540F461159A
:100DA000710519F16130710509F08FC06EC06330B3
:100DB000710529F16430710509F087C024C06830DD
:100DC000710529F16930710540F46630710539F11A
:100DD0006730710509F079C026C069307105D9F016
:100DE0006A30710509F071C010C090E030E088E110
:100DF0004FC098E031E080E146C098E13AC090E011
:100E000031E088E140C090E12FC090E136C098E029
:100E100032E080E142C098E033E080E127C090E01A
:100E200032E088E13AC090E033E088E11FC06230F0
:100E30007105C9F06330710540F46115710579F0F1
:100E40006130710509F041C025C064307105C1F001
:100E50006430710588F065307105B9F509C090E01E
:100E600030E088E015C090E033E088E020E016C074
:100E700098E033E080E0FACF90E031E088E003C012
:100E800098E031E080E022E009C098E030E080E1C5
:100E900023E004C090E032E088E021E0A181B2814B
:100EA0004C91432B4C93A181B2813C9120952323FB
:100EB0002C93A381B4812C91292B2C930380F48152
:100EC000E02D90818095892380830895DC01ED9148
:100ED000FC9111970580F681E02D208114968D916B
:100EE0009C911597009711F482E001C084E0822B59
:100EF00080830895CF93DF93EC018E819F810E94C0
:100F0000AA08CE0161E070E00E942F06DF91CF9128
:100F1000089560E070E00E942F060895FC01A08112
:100F2000B1818C9182FF0DC08FB7F894A281B381FB
:100F300011967C9311970280F381E02D60838FBF1F
:100F400008950280F381E02D70830895FC01A08153
:100F5000B1818C9182FF09C02FB7F8940280F38190
:100F6000E02D808191812FBF08950280F381E02DD3
:100F7000908180E008950F931F93CF93DF938C01AE
:100F8000EB0181E090E064E070E00E940B09FC015D
:100F900011830083DE01AA0FBB1FAA0FBB1FAC0F7A
:100FA000BD1FA952BD4F8D919C9111979383828350
:100FB0001196FC93EE9314968C911497882321F448
:100FC0001396FC93EE931297FE01EE0FFF1FEE0FA8
:100FD000FF1FEC0FFD1FE952FD4F84818F5F84835B
:100FE0008091FD019091FE018C179D0720F4D09314
:100FF000FE01C093FD01DF91CF911F910F910895E4
:101000000F931F93CF93DF93EB010E9418058C0180
:10101000BE010E94BB07C801DF91CF911F910F91C4
:10102000089563E070E00E94000808950F931F93F5
:10103000CF93DF93EB01BA010E9410058C01BE0132
:101040000E94BB07C801DF91CF911F910F910895B6
:101050000F931F93CF93DF93EB01BA01A90120E017
:101060000E94E6048C01BE010E94BB07C801DF910B
:10107000CF911F910F9108958091FD019091FE01F4
:1010800001C00197009729F41092FD011092FE0112
:1010900010C0FC01EE0FFF1FEE0FFF1FE80FF91F3E
:1010A000E952FD4F2481222361F38093FD01909347
:1010B000FE01FC01EE0FFF1FEE0FFF1FE80FF91FEF
:1010C000E952FD4F24812223C9F0A281B3811296F7
:1010D0000D90BC91A02D109711F4A081B181FC015D
:1010E000EE0FFF1FEE0FFF1FE80FF91FE952FD4F34
:1010F000B383A2832D913C91119702C020E030E090
:10110000C9010895CF93DF93EC010E94D504BE017D
:101110000E94BB07DF91CF9108950E94D5040895E6
:10112000F89484B7887084BF80E18093600088E081
:1011300080936000FFCFDC011496ED91FC91159730
:101140008FEF80830895DC011496ED91FC91159743
:1011500010820895DC01ED91FC9111970480F581D6
:10116000E02D808112969C911297892B808308959F
:10117000DC01ED91FC9111970480F581E02D9081C7
:1011800012968C9112978095892380830895DC01B3
:10119000ED91FC91119760830895DC011296ED9119
:1011A000FC91139780810895DC01ED91FC911197DA
:1011B0000190F081E02D808112969C911297892BED
:1011C00080830895DC01ED91FC9111970190F081ED
:1011D000E02D908112968C911297809589238083BF
:1011E00008956115710519F00E94D40808950E94B0
:1011F000E2080895FC01A081B18112960D90BC9186
:10120000A02D8C919281892321E030E011F420E01F
:1012100030E0C9010895EF92FF920F931F93CF938F
:10122000DF93689F8001699F100D789F100D112436
:10123000C8010E943009E82EE7017E01F92EE7017E
:10124000209731F08E2D60E070E0A8010E94630AC3
:10125000CE01DF91CF911F910F91FF90EF900895F4
:10126000CF93DF938230910510F482E090E0E0911B
:10127000FC02F091FD0240E050E020E030E026C0AA
:101280006081718168177907E0F06817790781F448
:10129000828193812115310531F0D90113969C93F8
:1012A0008E9312972BC09093FD028093FC0226C070
:1012B0004115510519F06417750718F4AB01E901E0
:1012C000DF019F0172816381E72FF62F3097C1F60E
:1012D0004115510501F1481B590B4430510580F46B
:1012E00012968D919C911397209719F09B838A8376
:1012F00004C09093FD028093FC02FD01329646C02B
:10130000FD01E40FF51F81939193425050401196D7
:101310005C934E933BC02091FA023091FB02211561
:10132000310541F42091E2013091E3013093FB0259
:101330002093FA022091E4013091E5012115310555
:1013400041F42DB73EB74091E0015091E101241BDB
:10135000350BE091FA02F091FB02E217F307A0F4DB
:101360002E1B3F0B2817390778F0AC014E5F5F4FFB
:101370002417350748F04E0F5F1F5093FB02409330
:10138000FA028193919302C0E0E0F0E0CF01DF9197
:10139000CF910895CF93DF93009709F491C0FC019A
:1013A0003297138212826091FC027091FD026115E6
:1013B000710581F420813181280F391F8091FA0253
:1013C0009091FB028217930799F5F093FB02E0934B
:1013D000FA0276C0DB0180E090E002C0CD01D901C5
:1013E000AE17BF0748F412962D913C911397211523
:1013F0003105A1F7CD0121C0B383A283EF0149914B
:1014000059919E01240F351FA217B30779F42D912E
:101410003C911197240F351F2E5F3F4F318320835E
:1014200012962D913C91139733832283009729F4D0
:10143000F093FD02E093FC0243C0DC011396FC93A1
:10144000EE9312974D915D91A40FB51FEA17FB071C
:1014500069F420813181240F351F2E5F3F4FEC014D
:1014600039832883228133813B832A83E0E0F0E0C3
:1014700002C0FB01BC01DB0112968D919C91139778
:101480000097B9F79B012E5F3F4F8D919C9111976B
:10149000820F931F4091FA025091FB02481759079F
:1014A00079F4309729F41092FD021092FC0202C0E8
:1014B00013821282225030403093FB022093FA02B2
:1014C000DF91CF910895DC0101C06D9341505040F0
:0E14D000E0F708950E9433020895F894FFCFCC
:1014DE00000201000C029A00010042020C02980068
:1014EE00000016028B02B4000100C8028B02B3008A
:1014FE000000A002C1028A000100B302C1028800EE
:10150E00000098023B024800010092023B02470095
:10151E00000085020490009100710002B000B1003D
:10152E00700004800081006F0000440045006E00D2
:10153E0050028050024050022050021050020850BB
:10154E0002045002025002012B0029002A007602EA
:10155E008076024076022076021076020876020429
:10156E00760202760201280026002700D10280D1E1
:10157E000240D10220D10210D10208D10204D102C0
:10158E0002D102012500230024007F02807F024049
:10159E007F02207F02107F02087F02047F02027FFB
:1015AE000201220020002100C08000400040C080C7
:0615BE002000FE02000007
:00000001FF
