:1000000045C00000B6C10000B4C10000B2C100008C
:10001000B0C10000AEC10000ACC10000AAC1000028
:10002000A8C10000A6C10000A4C10000A2C1000038
:10003000A0C100009EC100009CC100009AC1000048
:1000400098C1000096C1000094C1000092C1000058
:1000500090C100008EC100008CC100008AC1000068
:1000600088C1000086C10000D7C7000082C100001F
:1000700080C100007EC100007CC100007AC1000088
:1000800044C600008FC7000074C1000011241FBEC9
:10009000C0E0D0E4DEBFCDBF11E0A0E0B1E0E6E516
:1000A000F8E100E00BBF02C007900D92A03BB10742
:1000B000D9F713E0A0EBB1E001C01D92A93EB10752
:1000C000E1F784B78093B00114BE88E10FB6F894CD
:1000D00080936000109260000FBE0DD58EE893E013
:1000E000DC01EBE8F1E027E001900D922150E1F70F
:1000F00020EF32E0D901E4E8F1E047E001900D9211
:100100004150E1F740E053E0DA01EDE7F1E067E06C
:1001100001900D926150E1F767E073E0DB01E6E7E3
:10012000F1E017E001900D921150E1F79093DE039A
:100130008093DD03E7E4F0E0F093E003E093DF0376
:100140001092E2031092E103E7EBF3E0F093E40393
:10015000E093E30390930F0380930E0388E490E011
:10016000909311038093100381E090E09093130328
:1001700080931203E8E9F3E0F0931503E09314038E
:100180003093E9022093E802E8E8F0E0F093EB0214
:10019000E093EA021092ED021092EC02EEE5F3E039
:1001A000F093EF02E093EE0230934C0320934B0365
:1001B0002AE830E030934E0320934D039093500390
:1001C00080934F032AE733E0309352032093510387
:1001D0005093D3034093D20323EB30E03093D50305
:1001E0002093D4031092D7031092D6032EEB31E064
:1001F0003093D9032093D803509368034093670347
:1002000024EB30E030936A032093690390936C03EE
:1002100080936B032BE933E030936E0320936D03DF
:100220007093E1026093E00228E930E03093E3024A
:100230002093E2021092E5021092E4022AED33E0EC
:100240003093E7022093E602709373036093720386
:100250002AE930E030937503209374039093770379
:100260008093760382E393E09093790380937803FD
:10027000C7E0D3E0CE0161E070E005D3CE0162E0DB
:1002800070E0A0D280EE92E064EC79E009D482E7DD
:1002900093E064EC79E004D47DD583E593E090931A
:1002A0003603809335031092380310923703C1E070
:1002B000D0E0D0933A03C093390310923C031092DC
:1002C0003B03D0933E03C0933D0310924003109232
:1002D0003F0303E210E0109342030093410382E0E6
:1002E00090E00E94F40A809343039093440387ECC8
:1002F00091E09093A8038093A7031092AA03109211
:10030000A903D093AC03C093AB031092AE03109239
:10031000AD03D093B003C093AF031092B203109219
:10032000B1031093B4030093B30382E090E00E9402
:10033000F40A8093B5039093B60385E08093BC00E4
:100340008FEF8093BB0081E18093B8001092B900D9
:1003500080B7806880BFE4E6F0E0808180668083BB
:100360000E94CD0980EE92E031D3789403D00C94B2
:10037000270C46CE80916E0190916F016FEF7FEF59
:1003800041E050E05DD080916C0190916D016FEF84
:100390007FEF40E050E054D08FEF9AE1A7EB81501F
:1003A0009040A040E1F700C0000080916E01909164
:1003B0006F012AD080916C0190916D0125D08FEF53
:1003C0009AE1A7EB81509040A040E1F700C0000007
:1003D00080916E0190916F016FEF7FEF40E050E0F0
:1003E0002FD080916C0190916D016FEF7FEF41E014
:1003F00050E026D08FEF9AE1A7EB81509040A040CB
:10040000E1F700C00000B6CFCF93DF93EC018E85FB
:100410009F85B5D41F821E8282E090E099878887ED
:100420008A859B85009731F4CE0180D581E090E0EC
:100430009B878A878E859F85ABD4DF91CF91089566
:10044000EF92FF920F931F93CF93DF93EC018B01F9
:100450007A018E859F8593D41F830E83F986E88663
:100460008A859B85009731F4CE0160D581E090E0CC
:100470009B878A878E859F858BD4DF91CF911F9133
:100480000F91FF90EF900895CF93DF93EC018E854D
:100490009F8575D46E817F818A819B8168177907DA
:1004A00069F128853985EC85FD854C815D81421790
:1004B0005307B1F18E179F0768F588819981FC0178
:1004C000658176812230310511F06F5F7F4F3D836A
:1004D0002C83A9017B836A8347D02E813F818A8147
:1004E0009B812817390741F1CE0139D51B861A8621
:1004F0008E859F854DD4DF91CF91089528853985CC
:100500004C815D812417350799F3EC85FD858E17A5
:100510009F0798F2BC016E1B7F0B88819981DACF0F
:100520008617970788F49B01281B390B2E173F0766
:10053000A8F488819981CECF288539858C819D81C9
:100540002817390789F6D4CF9C01261B370B2E17A5
:100550003F0778F3BC016E1B7F0BEBCFBC016E0F26
:100560007F1F88819981B6CF8F929F92AF92BF9261
:10057000CF92DF92FF920F931F93CF93DF93EC0103
:100580008B014230510509F450C06115710509F421
:100590004CC0288122FF07C081E090E04115510541
:1005A00009F077C0AC0123FF6FC04130510509F459
:1005B00092C089819A81CBD089859A85BAD0F880FA
:1005C000F4FE54C0CD80DE8061E070E08FEF0F3F1D
:1005D000180708F462C080E090E00CD74B015C0182
:1005E0006F8178856C197D0980E090E003D79B01CD
:1005F000AC01C501B40164D7D1D66C0D7D1DF1FEEF
:1006000002C0609570958B819C814AD28B819C81C0
:1006100009D2DF91CF911F910F91FF90DF90CF9082
:10062000BF90AF909F908F900895888183FD4CC0BC
:100630008B819C811AD2088104FF3AC0CD80DE8074
:100640006F8178856C197D0980E090E0D3D620E039
:1006500030E0A90135D7A2D66C0D7D1D01FF02C087
:10066000609570958B819C811BD2D3CF8D819E81AB
:10067000B80108171907A0F08F819885861797078A
:1006800008F0BDCFBC01BBCF89819A81BA0138D0B7
:1006900096CF80E090E0AC0186CF60E070E09BCF29
:1006A000BC018F8198858617970708F0A8CFEACFFD
:1006B0006D817E816115710589F28F81988586171C
:1006C000970760F6BC01CACF89819A8140D089859D
:1006D0009A853DD09ECF89819A812BD089859A8534
:1006E00036D06DCFDC01ED91FC9111970480F5813E
:1006F000E02D808112969C911297892B808308951A
:10070000FC016115710559F4A081B1810D90BC9176
:10071000A02D9C918281809589238C930895A0813E
:10072000B1810D90BC91A02D8C919281892B8C93DD
:100730000895DC01ED91FC9111970190F081E02D7D
:10074000808112969C911297892B80830895DC01F9
:10075000ED91FC9111970190F081E02D908112961E
:100760008C9112978095892380830895FC016430D1
:10077000710528F5DB01A050BF4F2C916C5F7E4FB7
:10078000DB013C9184819581009721F4330F330F75
:10079000220F220FA081B18111960D90BC91A02D46
:1007A0009C91932B9C930190F081E02D0180F2812C
:1007B000E02D9081822F809589238083089530E0F9
:1007C00020E0E0CFFC01808190E082709070643086
:1007D000710509F453C065307105D8F067307105B3
:1007E00009F443C06830710528F565307105C1F121
:1007F0006630710581F19FEF20E0A381B4818C9177
:10080000822B8C930380F481E02D80818923808367
:1008100008956130710579F161307105B0F0623091
:100820007105B1F06330710531F7009789F39CEFE2
:1008300024E0E3CF68307105D9F069307105D9F64D
:10084000009731F79FEF27E0D8CF98EF20E0D5CF82
:100850009AEF22E0D2CF009751F39EEF26E0CDCF62
:100860000097B1F29DEF25E0C8CF0097D9F3EACF0A
:10087000009799F3CDCF99EF21E0BFCF0097B9F65C
:100880009BEF23E0BACFFC01808182FF29C0633057
:10089000710509F454C064307105B0F5613071051B
:1008A00009F47BC06230710508F472C09FEE3DEF21
:1008B00028E041E0A181B2818C91842B8C93A181AD
:1008C000B2818C9183238C93A381B4818C91822BF0
:1008D0008C930380F481E02D8081892380830895A7
:1008E0006230710539F163307105E0F064307105F3
:1008F000C1F16430710580F16530710581F79FEFBA
:100900003FEF28E043E0D6CF65307105C1F1653097
:10091000710560F16630710511F797EF3DEF20E149
:1009200041E0C8CF6115710579F497EF3CEF20E005
:1009300040E0C0CF97EF3FEF20E043E0BBCF97EE22
:100940003DEF20E041E0B6CF6130710541F697EF11
:100950003EEF20E042E0AECF97EF3DEF20E041E0F8
:10096000A9CF9FEF3DEF28E041E0A4CF84FD1FC059
:1009700085FF22C097EE3FEF20E043E09BCF84FD50
:1009800011C085FF1EC09FEE3FEF28E043E092CFED
:1009900097EE3CEF20E040E08DCF9FEE3CEF28E06B
:1009A00040E088CF9FEE3EEF28E042E083CF97EE15
:1009B0003EEF20E042E07ECF97EF3FEF20E143E0C3
:1009C00079CF9FEF3FEF28E143E074CFDC01ED9159
:1009D000FC9111970580F681E02D208114968D9170
:1009E0009C911597009721F084E0822B80830895D5
:1009F00082E0822B80830895DC01ED91FC911197B8
:100A00000580F681E02D208114968D919C9115979B
:100A1000009721F08BEF8223808308958DEF82234E
:100A200080830895CF93DF93EC018E819F815ADEFE
:100A300020E130E28C819D81009711F430E820E4C0
:100A4000E881F9810180F281E02D9081932B9083E0
:100A5000E881F9810180F281E02D9081822F8095DB
:100A600089238083DF91CF910895FC0120E3848165
:100A70009581009709F420ECA081B18111960D9029
:100A8000BC91A02D8C918C930190F081E02D018080
:100A9000F281E02D9081822F8095892380830895B3
:100AA000FC01A081B1818C9182FF14C09FB784FFAB
:100AB00016C0660F672F661F770B7195F894A28199
:100AC000B38111967C9311970280F381E02D6083AE
:100AD0009FBF08950280F381E02D7083089585FF04
:100AE000EDCF0024660F771F001C660F771F001CD8
:100AF000672F702DE3CF81EA93E0DC01E4EAF1E0B7
:100B000026E001900D922150E1F7909362038093CB
:100B1000610321E0209363039093DE028093DD0262
:100B200022E02093DF0290939F0380939E0324E0B2
:100B30002093A003909387038093860328E020935B
:100B4000880390931A038093190320E120931B03D9
:100B50009093BC018093BB0120E22093BD01909350
:100B6000D6018093D50120E42093D70190933003E0
:100B700080932F0380E8809331038FE193E0DC01C1
:100B8000EEE9F1E026E001900D922150E1F790931B
:100B900096038093950321E02093970390932D0370
:100BA00080932C0322E020932E039093D90180930D
:100BB000D80124E02093DA019093B8038093B7031F
:100BC00028E02093B903909399038093980320E140
:100BD00020939A039093800380937F0320E22093D5
:100BE00081039093DB038093DA0320E42093DC03FA
:100BF000909333038093320380E88093340385E439
:100C000093E0DC01E8E9F1E026E001900D9221504B
:100C1000E1F7909326038093250321E02093270397
:100C20009093C2018093C10122E02093C30190936D
:100C3000F8028093F70224E02093F90290931703BF
:100C40008093160328E0209318039093C5018093A6
:100C5000C40120E12093C60190931D0380931C03DF
:100C600020E220931E039093700380936F0320E48F
:100C7000209371039093D3018093D20180E88093F5
:100C8000D4018AEF92E0DC01E2E9F1E026E0019094
:100C90000D922150E1F79093DC018093DB0121E07C
:100CA0002093DD019093D0038093CF0322E0209323
:100CB000D103909365038093640324E0209366033B
:100CC00090938C0380938B0328E020938D03909363
:100CD0007B0380937A0320E120937C0390935F034E
:100CE00080935E0320E22093600390939C038093A3
:100CF0009B0320E420939D039093BF018093BE014A
:100D000080E88093C001089508951F920F920FB656
:100D10000F920BB60F9211242F933F934F935F9333
:100D20006F937F938F939F93AF93BF93EF93FF93B3
:100D30008091B1019091B201A091B301B091B40141
:100D40000196A11DB11D8093B1019093B201A093B2
:100D5000B301B093B401D8DFFF91EF91BF91AF9190
:100D60009F918F917F916F915F914F913F912F91C3
:100D70000F900BBE0F900FBE0F901F9018952FB7BE
:100D800030E020783070FC0131832083F89408959E
:100D9000789408958091F00280628093F002E3E5F8
:100DA000F3E08BE0DF011D928A95E9F78AE18093F9
:100DB000530384EC91E090935503809354038BE4A8
:100DC00093E090935703809356038CE193E09093C4
:100DD0005D0380935C0380914B0390914C0361E031
:100DE00070E0F0DCE0915603F0915703808191812F
:100DF00064E070E048DD809156039091570362E013
:100E000070E0B4DC609158037091590380915603EF
:100E10009091570345DE809154039091550362DC15
:100E20008091530383FD05C0809154039091550335
:100E300080DC80915C0390915D0354DC80915403CD
:100E40009091550384DC80915C0390915D037FDC7D
:100E5000E7ECF1E08BE0DF011D928A95E9F78AE18A
:100E60008093C70187EF92E09093C9018093C801F6
:100E700088EE92E09093CB018093CA0186E193E0E3
:100E80009093D1018093D0018091E8029091E90282
:100E900061E070E097DCE091CA01F091CB018081C4
:100EA000918164E070E0EFDC8091CA019091CB0108
:100EB00062E070E05BDC6091CC017091CD018091CB
:100EC000CA019091CB01ECDD8091C8019091C901DC
:100ED00009DC8091C70183FD05C08091C801909114
:100EE000C90127DC8091D0019091D101FBDB809179
:100EF000C8019091C9012BDC8091D0019091D10162
:100F000026DC86E696E690935903809358039093E7
:100F1000CD018093CC0185E696EE90935B038093A0
:100F20005A039093CF018093CE01089523E0853337
:100F3000920771F023E0873A920709F0089581E063
:100F400090E09093B8018093B70182E793E03ECDA3
:100F500081E090E09093B6018093B501F6CF23E055
:100F60008533920791F023E0873A920709F00895BC
:100F70001092B8011092B7018091B5019091B6011D
:100F8000009769F082E793E021CD1092B6011092AC
:100F9000B5018091B7019091B801009799F782E768
:100FA00093E02ACD1F920F920FB60F920BB60F92BD
:100FB00011242F933F934F935F936F937F938F935E
:100FC0009F93AF93BF93EF93FF938091B50190915F
:100FD000B6010097E1F48091B7019091B8010097B4
:100FE00019F087EA93E050DAFF91EF91BF91AF914A
:100FF0009F918F917F916F915F914F913F912F9131
:101000000F900BBE0F900FBE0F901F90189585E3A9
:1010100093E03ADAE0CF08951F920F920FB60F9245
:101020000BB60F9211240F931F932F933F934F935F
:101030005F936F937F938F939F93AF93BF93EF9340
:10104000FF93DF93CF93CDB7DEB72797DEBFCDBF3A
:101050008091B90090E0887F90708033910509F409
:10106000BBC0813391058CF18834910509F4D0C05F
:10107000893491050CF059C08833910509F4D6C024
:101080008034910509F490C083E090E090932B03A5
:1010900080932A03C0DF2796DEBFCDBFCF91DF91BB
:1010A000FF91EF91BF91AF919F918F917F916F9140
:1010B0005F914F913F912F911F910F910F900BBE18
:1010C0000F900FBE0F901F9018958031910509F475
:1010D00063C0813191050CF459C08032910509F447
:1010E00089C08832910519F08831910569F680919F
:1010F000280390912903209184033091850382175E
:10110000930708F0F3C0E0918203F0918303E80FA6
:10111000F91F20810196909329038093280320933F
:10112000BB0085E88093BC00B6CF8835910509F4F3
:1011300093C0883F910509F487C08035910509F077
:10114000A3CF20918403309185038091280390914F
:1011500029038217930790F42091BB00E09182034A
:10116000F0918303E80FF91F2083019690932903E0
:101170008093280320918403309185030196821780
:101180009307F0F485EC8093BC0085CF0097E1F0E5
:101190008830910509F078CF8091BA018093BB0027
:1011A00085E88093BC0077CF809128039091290334
:1011B000019620918403309185038217930710F3E1
:1011C00085E88093BC0067CF82E090E090932B038A
:1011D00080932A0320DF5FCF86E090E090932B037B
:1011E00080932A0385E98093BC0010928A031092B1
:1011F000890351CF84E090E090932B0380932A03DE
:1012000085E98093BC0010928A031092890343CF32
:1012100084E090E090932B0380932A0385E98093E8
:10122000BC0010928A031092890335CF85E090E0CC
:1012300090932B0380932A0385E88093BC0010923F
:101240008A031092890327CF81E090E090932B03CB
:1012500080932A03E0DE1FCF809128039091290319
:1012600020918403309185038217930770F42091B5
:10127000BB00E0918203F0918303E80FF91F208304
:101280000196909329038093280320917D03309148
:101290007E03233031050CF0B3CFF901EE0FFF1FB1
:1012A000EE0FFF1FEE0FFF1FE21BF30BE654FC4F88
:1012B000AE014F5F5F4FCA018F0167E0D8010D900B
:1012C0008D01DC010D92CD016150C1F764818581F2
:1012D00096812F5F3F4F30937E0320937D030097CD
:1012E000B1F537962330310534F38ACF20917D0351
:1012F00030917E03233031050CF082CFF901EE0FDF
:10130000FF1FEE0FFF1FEE0FFF1FE21BF30BE65454
:10131000FC4FAE014F5F5F4FCA018F0167E0D801FC
:101320000D908D01DC010D92CD016150C1F76481FA
:10133000858196812F5F3F4F30937E0320937D03FD
:10134000009729F437962330310534F359CF2330F1
:1013500031050CF055CF82309105B9F081309105FF
:10136000C1F0109229031092280389819A81AB81E0
:10137000BC818093820390938303A0938403B093F2
:10138000850385EA8093BC0086CE6E7F6093BA01A8
:10139000E8CF61606093BA01E4CF089570D088F01F
:1013A0009F5790F0B92F9927B751A0F0D1F0660F51
:1013B000771F881F991F1AF0BA95C9F712C0B1306C
:1013C00081F077D0B1E0089574C0672F782F882717
:1013D000B85F39F0B93FCCF3869577956795B395AB
:1013E000D9F73EF490958095709561957F4F8F4F1A
:1013F0009F4F0895E89409C097FB3EF4909580951F
:10140000709561957F4F8F4F9F4F9923A9F0F92FCA
:1014100096E9BB279395F695879577956795B79548
:10142000F111F8CFFAF4BB0F11F460FF1BC06F5F2E
:101430007F4F8F4F9F4F16C0882311F096E911C040
:10144000772321F09EE8872F762F05C0662371F061
:1014500096E8862F70E060E02AF09A95660F771F75
:10146000881FDAF7880F9695879597F9089557FDA5
:101470009058440F551F59F05F3F71F04795880F02
:1014800097FB991F61F09F3F79F087950895121699
:1014900013061406551FF2CF4695F1DF08C0161645
:1014A00017061806991FF1CF8695710561050894F6
:1014B0000895E894BB2766277727CB0197F908950D
:1014C0000BD078C069D028F06ED018F0952309F0C1
:1014D0005AC05FC01124EECFCADFA0F3959FD1F3AD
:1014E000950F50E0551F629FF001729FBB27F00DD2
:1014F000B11D639FAA27F00DB11DAA1F649F662727
:10150000B00DA11D661F829F2227B00DA11D621F75
:10151000739FB00DA11D621F839FA00D611D221F2F
:10152000749F3327A00D611D231F849F600D211D13
:10153000822F762F6A2F11249F5750408AF0E1F0B6
:1015400088234AF0EE0FFF1FBB1F661F771F881FFF
:1015500091505040A9F79E3F510570F014C0AACF9A
:101560005F3FECF3983EDCF3869577956795B795EA
:10157000F795E7959F5FC1F7FE2B880F911D969514
:10158000879597F9089597F99F6780E870E060E084
:1015900008959FEF80EC089500240A94161617060C
:1015A00018060906089500240A9412161306140654
:1015B00005060895092E0394000C11F4882352F0B7
:1015C000BB0F40F4BF2B11F460FF04C06F5F7F4F6F
:1015D0008F4F9F4F089583B7816083BF83B7817F0B
:1015E00083BF78948895F7CFCF93DF9382309105AE
:1015F00010F482E090E0E091E703F091E80340E02E
:1016000050E020E030E026C06081718168177907E2
:10161000E0F06817790781F4828193812115310503
:1016200031F0D90113969C938E9312972BC090930F
:10163000E8038093E70326C04115510519F06417AC
:10164000750718F4AB01E901DF019F017281638125
:10165000E72FF62F3097C1F64115510501F1481BD0
:10166000590B4430510580F412968D919C9113973B
:10167000209719F09B838A8304C09093E80380939A
:10168000E703FD01329646C0FD01E40FF51F81938B
:1016900091934250504011965C934E933BC02091E1
:1016A000E5033091E6032115310541F42091AC01A9
:1016B0003091AD013093E6032093E5032091AE0114
:1016C0003091AF012115310541F42DB73EB740915E
:1016D000AA015091AB01241B350BE091E503F09179
:1016E000E603E217F307A0F42E1B3F0B2817390778
:1016F00078F0AC014E5F5F4F2417350748F04E0F6E
:101700005F1F5093E6034093E5038193919302C0DA
:10171000E0E0F0E0CF01DF91CF910895CF93DF9328
:10172000009709F491C0FC013297138212826091F4
:10173000E7037091E8036115710581F4208131811F
:10174000280F391F8091E5039091E60382179307D4
:1017500099F5F093E603E093E50376C0DB0180E0C2
:1017600090E002C0CD01D901AE17BF0748F4129630
:101770002D913C91139721153105A1F7CD0121C081
:10178000B383A283EF01499159919E01240F351F24
:10179000A217B30779F42D913C911197240F351FAF
:1017A0002E5F3F4F3183208312962D913C911397EA
:1017B00033832283009729F4F093E803E093E7034F
:1017C00043C0DC011396FC93EE9312974D915D910B
:1017D000A40FB51FEA17FB0769F420813181240F9C
:1017E000351F2E5F3F4FEC013983288322813381DF
:1017F0003B832A83E0E0F0E002C0FB01BC01DB0197
:1018000012968D919C9113970097B9F79B012E5FCB
:101810003F4F8D919C911197820F931F4091E5034B
:101820005091E6034817590779F4309729F410923C
:10183000E8031092E70302C0138212822250304064
:101840003093E6032093E503DF91CF910895C3CE53
:061850000895F894FFCF9B
:101856003020001000103020A1036103DD029E033A
:1018660086031903BB01D5012F031F0395032C0320
:10187600D801B70398037F03DA0332034503250330
:10188600C101F7021603C4011C036F03D201FA0259
:10189600DB01CF0364038B037A035E039B03BE0164
:1018A6008E03F00200030703DD030E03E8024B0379
:1018B600D2036703E00272035303C7013503A7038C
:1018C600162CDE01FF000490009100710002B000AA
:1018D600B100700004800081006F000044004500E4
:1018E6006E002B0029002A0028002600270025006C
:1018F600230024002200200021002000E90300002C
:00000001FF
