:1000000045C0000063C0000061C000005FC0000088
:100010005DC000005BC0000059C0000057C0000078
:1000200055C0000053C0000051C000004FC0000088
:100030004DC000004BC0000049C0000047C0000098
:10004000D9C0000043C0000041C000003FC0000014
:100050003DC000003BC0000039C0000037C00000B8
:1000600035C0000033C0000031C000002FC00000C8
:100070002DC000002BC0000029C0000027C00000D8
:1000800025C0000023C0000021C0000011241FBEB5
:10009000CFEFD0E4DEBFCDBF11E0A0E0B1E0E4EAF5
:1000A000F5E000E00BBF02C007900D92A830B10749
:1000B000D9F711E0A8E0B1E001C01D92A731B10766
:1000C000E1F725D029D044D01AD068C299CFCF9378
:1000D000DF93EC0180910001909101018C0F9D1F35
:1000E00090930101809300010AD02091000130918A
:1000F00001012C0F3D1FC901DF91CF91089580911F
:10010000000190910101E3DF80E090E0089584B761
:100110008093080114BE08958FEF9EE3909307012A
:1001200080930601109203011092020181E090E099
:1001300068E070E0D6D0FC01009719F011821082BF
:1001400002C0E0E0F0E0F0930C01E0930B010895B1
:10015000A0910B01B0910C01FD01329613961C92F7
:100160001E92129780E092E0938382838091060131
:100170009091070195838483089583B7816083BF3D
:1001800083B7817F83BF789488950895E0911101AA
:10019000F091120120910D0130910E0140910F015B
:1001A000509110011FC0DF01969619968D919C9178
:1001B0001A97009721F08130910581F40AC0638578
:1001C000748585859685621773078407950730F0D7
:1001D0000EC0838594858130910549F01396ED9189
:1001E000FC9114973097F9F620E030E001C09D01B2
:1001F000C90108950F920FB6F8940F920BB60F92A3
:100200001F9211242F923F924F925F926F927F9292
:100210008F929F92AF92BF92CF92DF92EF92FF9216
:100220000F931F932F933F934F935F936F937F93FE
:100230008F939F93AF93BF93CF93DF93EF93FF93EE
:1002400080910D0190910E01A0910F01B0911001CC
:100250000196A11DB11D80930D0190930E01A093F5
:100260000F01B0931001A0910B01B0910C010DB6DC
:100270000D920EB60D9281E090E088DF9C01909384
:100280000C0180930B01009711F477DFFECFDC01A6
:100290000D900DBE0D900EBEFF91EF91DF91CF91AD
:1002A000BF91AF919F918F917F916F915F914F918E
:1002B0003F912F911F910F91FF90EF90DF90CF9082
:1002C000BF90AF909F908F907F906F905F904F9076
:1002D0003F902F901F900F900BBE0F900FBE0F906E
:1002E0001895EF92FF920F931F93CF93DF93689F20
:1002F0008001699F100D789F100D1124C80114D042
:10030000E82EE7017E01F92EE701209729F08E2DD6
:1003100060E070E0A8013BD1CE01DF91CF911F9149
:100320000F91FF90EF900895CF93DF938230910566
:1003300010F482E090E0E0911501F091160140E0A8
:1003400050E020E030E026C06081718168177907B5
:10035000E0F06817790781F48281938121153105D6
:1003600031F0D90113969C938E9312972BC09093E2
:1003700016018093150126C04115510519F0641727
:10038000750718F4AB01E901DF019F0172816381F8
:10039000E72FF62F3097C1F64115510501F1481BA3
:1003A000590B4430510580F412968D919C9113970E
:1003B000209719F09B838A8304C090931601809341
:1003C0001501FD01329646C0FD01E40FF51F819332
:1003D00091934250504011965C934E933BC02091B4
:1003E0001301309114012115310541F420910401CC
:1003F00030910501309314012093130120910601DF
:10040000309107012115310541F42DB73EB74091D8
:10041000020150910301241B350BE0911301F0916F
:100420001401E217F307A0F42E1B3F0B281739071E
:1004300078F0AC014E5F5F4F2417350748F04E0F40
:100440005F1F50931401409313018193919302C055
:10045000E0E0F0E0CF01DF91CF910895CF93DF93FB
:10046000009709F491C0FC013297138212826091C7
:100470001501709116016115710581F4208131819A
:10048000280F391F8091130190911401821793074F
:1004900099F5F0931401E093130176C0DB0180E03D
:1004A00090E002C0CD01D901AE17BF0748F4129603
:1004B0002D913C91139721153105A1F7CD0121C054
:1004C000B383A283EF01499159919E01240F351FF7
:1004D000A217B30779F42D913C911197240F351F82
:1004E0002E5F3F4F3183208312962D913C911397BD
:1004F00033832283009729F4F0931601E0931501CA
:1005000043C0DC011396FC93EE9312974D915D91DD
:10051000A40FB51FEA17FB0769F420813181240F6E
:10052000351F2E5F3F4FEC013983288322813381B1
:100530003B832A83E0E0F0E002C0FB01BC01DB0169
:1005400012968D919C9113970097B9F79B012E5F9E
:100550003F4F8D919C911197820F931F40911301F2
:10056000509114014817590779F4309729F41092E3
:1005700016011092150102C01382128222503040DF
:100580003093140120931301DF91CF910895DC0182
:1005900001C06D9341505040E0F70895EEDDFECF6D
:0405A000F894FFCFFD
:0805A400010020001701000016
:00000001FF
